{
  "address": "0x3Ad2F354D8bD208597f6b86924C6a8C185E3deA2",
  "abi": [
    {
      "inputs": [
        {
          "internalType": "address",
          "name": "_owner",
          "type": "address"
        },
        {
          "internalType": "address",
          "name": "_avatar",
          "type": "address"
        },
        {
          "internalType": "address",
          "name": "_target",
          "type": "address"
        },
        {
          "internalType": "address[]",
          "name": "_strategies",
          "type": "address[]"
        }
      ],
      "stateMutability": "nonpayable",
      "type": "constructor"
    },
    {
      "inputs": [
        {
          "internalType": "address",
          "name": "guard_",
          "type": "address"
        }
      ],
      "name": "NotIERC165Compliant",
      "type": "error"
    },
    {
      "anonymous": false,
      "inputs": [
        {
          "indexed": true,
          "internalType": "address",
          "name": "previousAvatar",
          "type": "address"
        },
        {
          "indexed": true,
          "internalType": "address",
          "name": "newAvatar",
          "type": "address"
        }
      ],
      "name": "AvatarSet",
      "type": "event"
    },
    {
      "anonymous": false,
      "inputs": [
        {
          "indexed": false,
          "internalType": "address",
          "name": "guard",
          "type": "address"
        }
      ],
      "name": "ChangedGuard",
      "type": "event"
    },
    {
      "anonymous": false,
      "inputs": [
        {
          "indexed": false,
          "internalType": "address",
          "name": "strategy",
          "type": "address"
        }
      ],
      "name": "DisabledStrategy",
      "type": "event"
    },
    {
      "anonymous": false,
      "inputs": [
        {
          "indexed": false,
          "internalType": "address",
          "name": "strategy",
          "type": "address"
        }
      ],
      "name": "EnabledStrategy",
      "type": "event"
    },
    {
      "anonymous": false,
      "inputs": [
        {
          "indexed": false,
          "internalType": "uint8",
          "name": "version",
          "type": "uint8"
        }
      ],
      "name": "Initialized",
      "type": "event"
    },
    {
      "anonymous": false,
      "inputs": [
        {
          "indexed": true,
          "internalType": "address",
          "name": "previousOwner",
          "type": "address"
        },
        {
          "indexed": true,
          "internalType": "address",
          "name": "newOwner",
          "type": "address"
        }
      ],
      "name": "OwnershipTransferred",
      "type": "event"
    },
    {
      "anonymous": false,
      "inputs": [
        {
          "indexed": false,
          "internalType": "uint256",
          "name": "proposalId",
          "type": "uint256"
        }
      ],
      "name": "ProposalCanceled",
      "type": "event"
    },
    {
      "anonymous": false,
      "inputs": [
        {
          "indexed": false,
          "internalType": "address",
          "name": "strategy",
          "type": "address"
        },
        {
          "indexed": false,
          "internalType": "uint256",
          "name": "proposalNumber",
          "type": "uint256"
        },
        {
          "indexed": false,
          "internalType": "address",
          "name": "proposer",
          "type": "address"
        }
      ],
      "name": "ProposalCreated",
      "type": "event"
    },
    {
      "anonymous": false,
      "inputs": [
        {
          "indexed": false,
          "internalType": "uint256",
          "name": "id",
          "type": "uint256"
        }
      ],
      "name": "ProposalExecuted",
      "type": "event"
    },
    {
      "anonymous": false,
      "inputs": [
        {
          "indexed": false,
          "internalType": "uint256",
          "name": "proposalId",
          "type": "uint256"
        },
        {
          "components": [
            {
              "internalType": "address",
              "name": "to",
              "type": "address"
            },
            {
              "internalType": "uint256",
              "name": "value",
              "type": "uint256"
            },
            {
              "internalType": "bytes",
              "name": "data",
              "type": "bytes"
            },
            {
              "internalType": "enum Enum.Operation",
              "name": "operation",
              "type": "uint8"
            }
          ],
          "indexed": false,
          "internalType": "struct FractalUsul.Transaction[]",
          "name": "transactions",
          "type": "tuple[]"
        },
        {
          "indexed": false,
          "internalType": "string",
          "name": "title",
          "type": "string"
        },
        {
          "indexed": false,
          "internalType": "string",
          "name": "description",
          "type": "string"
        },
        {
          "indexed": false,
          "internalType": "string",
          "name": "documentationUrl",
          "type": "string"
        }
      ],
      "name": "ProposalMetadataCreated",
      "type": "event"
    },
    {
      "anonymous": false,
      "inputs": [
        {
          "indexed": false,
          "internalType": "uint256",
          "name": "proposalId",
          "type": "uint256"
        },
        {
          "indexed": false,
          "internalType": "uint256",
          "name": "endDate",
          "type": "uint256"
        }
      ],
      "name": "StrategyFinalized",
      "type": "event"
    },
    {
      "anonymous": false,
      "inputs": [
        {
          "indexed": true,
          "internalType": "address",
          "name": "previousTarget",
          "type": "address"
        },
        {
          "indexed": true,
          "internalType": "address",
          "name": "newTarget",
          "type": "address"
        }
      ],
      "name": "TargetSet",
      "type": "event"
    },
    {
      "anonymous": false,
      "inputs": [
        {
          "indexed": false,
          "internalType": "uint256",
          "name": "proposalId",
          "type": "uint256"
        },
        {
          "indexed": false,
          "internalType": "bytes32",
          "name": "txHash",
          "type": "bytes32"
        }
      ],
      "name": "TransactionExecuted",
      "type": "event"
    },
    {
      "anonymous": false,
      "inputs": [
        {
          "indexed": false,
          "internalType": "uint256",
          "name": "startIndex",
          "type": "uint256"
        },
        {
          "indexed": false,
          "internalType": "uint256",
          "name": "endIndex",
          "type": "uint256"
        }
      ],
      "name": "TransactionExecutedBatch",
      "type": "event"
    },
    {
      "anonymous": false,
      "inputs": [
        {
          "indexed": true,
          "internalType": "address",
          "name": "initiator",
          "type": "address"
        },
        {
          "indexed": true,
          "internalType": "address",
          "name": "owner",
          "type": "address"
        },
        {
          "indexed": true,
          "internalType": "address",
          "name": "avatar",
          "type": "address"
        },
        {
          "indexed": false,
          "internalType": "address",
          "name": "target",
          "type": "address"
        }
      ],
      "name": "UsulSetup",
      "type": "event"
    },
    {
      "inputs": [],
      "name": "DOMAIN_SEPARATOR_TYPEHASH",
      "outputs": [
        {
          "internalType": "bytes32",
          "name": "",
          "type": "bytes32"
        }
      ],
      "stateMutability": "view",
      "type": "function"
    },
    {
      "inputs": [],
      "name": "TRANSACTION_TYPEHASH",
      "outputs": [
        {
          "internalType": "bytes32",
          "name": "",
          "type": "bytes32"
        }
      ],
      "stateMutability": "view",
      "type": "function"
    },
    {
      "inputs": [],
      "name": "avatar",
      "outputs": [
        {
          "internalType": "address",
          "name": "",
          "type": "address"
        }
      ],
      "stateMutability": "view",
      "type": "function"
    },
    {
      "inputs": [
        {
          "internalType": "uint256[]",
          "name": "proposalIds",
          "type": "uint256[]"
        }
      ],
      "name": "cancelProposals",
      "outputs": [],
      "stateMutability": "nonpayable",
      "type": "function"
    },
    {
      "inputs": [
        {
          "internalType": "address",
          "name": "prevStrategy",
          "type": "address"
        },
        {
          "internalType": "address",
          "name": "strategy",
          "type": "address"
        }
      ],
      "name": "disableStrategy",
      "outputs": [],
      "stateMutability": "nonpayable",
      "type": "function"
    },
    {
      "inputs": [
        {
          "internalType": "address",
          "name": "strategy",
          "type": "address"
        }
      ],
      "name": "enableStrategy",
      "outputs": [],
      "stateMutability": "nonpayable",
      "type": "function"
    },
    {
      "inputs": [
        {
          "internalType": "uint256",
          "name": "proposalId",
          "type": "uint256"
        },
        {
          "internalType": "address[]",
          "name": "targets",
          "type": "address[]"
        },
        {
          "internalType": "uint256[]",
          "name": "values",
          "type": "uint256[]"
        },
        {
          "internalType": "bytes[]",
          "name": "data",
          "type": "bytes[]"
        },
        {
          "internalType": "enum Enum.Operation[]",
          "name": "operations",
          "type": "uint8[]"
        }
      ],
      "name": "executeProposalBatch",
      "outputs": [],
      "stateMutability": "nonpayable",
      "type": "function"
    },
    {
      "inputs": [
        {
          "internalType": "uint256",
          "name": "proposalId",
          "type": "uint256"
        },
        {
          "internalType": "address",
          "name": "target",
          "type": "address"
        },
        {
          "internalType": "uint256",
          "name": "value",
          "type": "uint256"
        },
        {
          "internalType": "bytes",
          "name": "data",
          "type": "bytes"
        },
        {
          "internalType": "enum Enum.Operation",
          "name": "operation",
          "type": "uint8"
        }
      ],
      "name": "executeProposalByIndex",
      "outputs": [],
      "stateMutability": "nonpayable",
      "type": "function"
    },
    {
      "inputs": [
        {
          "internalType": "address",
          "name": "to",
          "type": "address"
        },
        {
          "internalType": "uint256",
          "name": "value",
          "type": "uint256"
        },
        {
          "internalType": "bytes",
          "name": "data",
          "type": "bytes"
        },
        {
          "internalType": "enum Enum.Operation",
          "name": "operation",
          "type": "uint8"
        },
        {
          "internalType": "uint256",
          "name": "nonce",
          "type": "uint256"
        }
      ],
      "name": "generateTransactionHashData",
      "outputs": [
        {
          "internalType": "bytes",
          "name": "",
          "type": "bytes"
        }
      ],
      "stateMutability": "view",
      "type": "function"
    },
    {
      "inputs": [],
      "name": "getGuard",
      "outputs": [
        {
          "internalType": "address",
          "name": "_guard",
          "type": "address"
        }
      ],
      "stateMutability": "view",
      "type": "function"
    },
    {
      "inputs": [
        {
          "internalType": "uint256",
          "name": "proposalId",
          "type": "uint256"
        }
      ],
      "name": "getProposalTxHashes",
      "outputs": [
        {
          "internalType": "bytes32[]",
          "name": "",
          "type": "bytes32[]"
        }
      ],
      "stateMutability": "view",
      "type": "function"
    },
    {
      "inputs": [
        {
          "internalType": "address",
          "name": "start",
          "type": "address"
        },
        {
          "internalType": "uint256",
          "name": "pageSize",
          "type": "uint256"
        }
      ],
      "name": "getStrategiesPaginated",
      "outputs": [
        {
          "internalType": "address[]",
          "name": "array",
          "type": "address[]"
        },
        {
          "internalType": "address",
          "name": "next",
          "type": "address"
        }
      ],
      "stateMutability": "view",
      "type": "function"
    },
    {
      "inputs": [
        {
          "internalType": "address",
          "name": "to",
          "type": "address"
        },
        {
          "internalType": "uint256",
          "name": "value",
          "type": "uint256"
        },
        {
          "internalType": "bytes",
          "name": "data",
          "type": "bytes"
        },
        {
          "internalType": "enum Enum.Operation",
          "name": "operation",
          "type": "uint8"
        }
      ],
      "name": "getTransactionHash",
      "outputs": [
        {
          "internalType": "bytes32",
          "name": "",
          "type": "bytes32"
        }
      ],
      "stateMutability": "view",
      "type": "function"
    },
    {
      "inputs": [
        {
          "internalType": "uint256",
          "name": "proposalId",
          "type": "uint256"
        },
        {
          "internalType": "uint256",
          "name": "index",
          "type": "uint256"
        }
      ],
      "name": "getTxHash",
      "outputs": [
        {
          "internalType": "bytes32",
          "name": "",
          "type": "bytes32"
        }
      ],
      "stateMutability": "view",
      "type": "function"
    },
    {
      "inputs": [],
      "name": "guard",
      "outputs": [
        {
          "internalType": "address",
          "name": "",
          "type": "address"
        }
      ],
      "stateMutability": "view",
      "type": "function"
    },
    {
      "inputs": [
        {
          "internalType": "address",
          "name": "_strategy",
          "type": "address"
        }
      ],
      "name": "isStrategyEnabled",
      "outputs": [
        {
          "internalType": "bool",
          "name": "",
          "type": "bool"
        }
      ],
      "stateMutability": "view",
      "type": "function"
    },
    {
      "inputs": [
        {
          "internalType": "uint256",
          "name": "proposalId",
          "type": "uint256"
        },
        {
          "internalType": "uint256",
          "name": "index",
          "type": "uint256"
        }
      ],
      "name": "isTxExecuted",
      "outputs": [
        {
          "internalType": "bool",
          "name": "",
          "type": "bool"
        }
      ],
      "stateMutability": "view",
      "type": "function"
    },
    {
      "inputs": [],
      "name": "owner",
      "outputs": [
        {
          "internalType": "address",
          "name": "",
          "type": "address"
        }
      ],
      "stateMutability": "view",
      "type": "function"
    },
    {
      "inputs": [
        {
          "internalType": "uint256",
          "name": "",
          "type": "uint256"
        }
      ],
      "name": "proposals",
      "outputs": [
        {
          "internalType": "bool",
          "name": "canceled",
          "type": "bool"
        },
        {
          "internalType": "uint256",
          "name": "timeLockPeriod",
          "type": "uint256"
        },
        {
          "internalType": "uint256",
          "name": "executionCounter",
          "type": "uint256"
        },
        {
          "internalType": "address",
          "name": "strategy",
          "type": "address"
        }
      ],
      "stateMutability": "view",
      "type": "function"
    },
    {
      "inputs": [
        {
          "internalType": "uint256",
          "name": "proposalId",
          "type": "uint256"
        },
        {
          "internalType": "uint256",
          "name": "timeLockPeriod",
          "type": "uint256"
        }
      ],
      "name": "receiveStrategy",
      "outputs": [],
      "stateMutability": "nonpayable",
      "type": "function"
    },
    {
      "inputs": [],
      "name": "renounceOwnership",
      "outputs": [],
      "stateMutability": "nonpayable",
      "type": "function"
    },
    {
      "inputs": [
        {
          "internalType": "address",
          "name": "_avatar",
          "type": "address"
        }
      ],
      "name": "setAvatar",
      "outputs": [],
      "stateMutability": "nonpayable",
      "type": "function"
    },
    {
      "inputs": [
        {
          "internalType": "address",
          "name": "_guard",
          "type": "address"
        }
      ],
      "name": "setGuard",
      "outputs": [],
      "stateMutability": "nonpayable",
      "type": "function"
    },
    {
      "inputs": [
        {
          "internalType": "address",
          "name": "_target",
          "type": "address"
        }
      ],
      "name": "setTarget",
      "outputs": [],
      "stateMutability": "nonpayable",
      "type": "function"
    },
    {
      "inputs": [
        {
          "internalType": "bytes",
          "name": "initParams",
          "type": "bytes"
        }
      ],
      "name": "setUp",
      "outputs": [],
      "stateMutability": "nonpayable",
      "type": "function"
    },
    {
      "inputs": [
        {
          "internalType": "uint256",
          "name": "proposalId",
          "type": "uint256"
        }
      ],
      "name": "state",
      "outputs": [
        {
          "internalType": "enum Usul.ProposalState",
          "name": "",
          "type": "uint8"
        }
      ],
      "stateMutability": "view",
      "type": "function"
    },
    {
      "inputs": [
        {
          "internalType": "bytes32[]",
          "name": "txHashes",
          "type": "bytes32[]"
        },
        {
          "internalType": "address",
          "name": "strategy",
          "type": "address"
        },
        {
          "internalType": "bytes",
          "name": "data",
          "type": "bytes"
        }
      ],
      "name": "submitProposal",
      "outputs": [],
      "stateMutability": "nonpayable",
      "type": "function"
    },
    {
      "inputs": [
        {
          "internalType": "address",
          "name": "strategy",
          "type": "address"
        },
        {
          "internalType": "bytes",
          "name": "data",
          "type": "bytes"
        },
        {
          "components": [
            {
              "internalType": "address",
              "name": "to",
              "type": "address"
            },
            {
              "internalType": "uint256",
              "name": "value",
              "type": "uint256"
            },
            {
              "internalType": "bytes",
              "name": "data",
              "type": "bytes"
            },
            {
              "internalType": "enum Enum.Operation",
              "name": "operation",
              "type": "uint8"
            }
          ],
          "internalType": "struct FractalUsul.Transaction[]",
          "name": "transactions",
          "type": "tuple[]"
        },
        {
          "internalType": "string",
          "name": "title",
          "type": "string"
        },
        {
          "internalType": "string",
          "name": "description",
          "type": "string"
        },
        {
          "internalType": "string",
          "name": "documentationUrl",
          "type": "string"
        }
      ],
      "name": "submitProposalWithMetaData",
      "outputs": [],
      "stateMutability": "nonpayable",
      "type": "function"
    },
    {
      "inputs": [],
      "name": "target",
      "outputs": [
        {
          "internalType": "address",
          "name": "",
          "type": "address"
        }
      ],
      "stateMutability": "view",
      "type": "function"
    },
    {
      "inputs": [],
      "name": "totalProposalCount",
      "outputs": [
        {
          "internalType": "uint256",
          "name": "",
          "type": "uint256"
        }
      ],
      "stateMutability": "view",
      "type": "function"
    },
    {
      "inputs": [
        {
          "internalType": "address",
          "name": "newOwner",
          "type": "address"
        }
      ],
      "name": "transferOwnership",
      "outputs": [],
      "stateMutability": "nonpayable",
      "type": "function"
    }
  ],
  "transactionHash": "0x07723dd23bf2f42edd63f74cad548e0baa5a6200157f9c1be87b0148c03c4b9d",
  "args": [
    "0x0000000000000000000000000000000000000001",
    "0x0000000000000000000000000000000000000001",
    "0x0000000000000000000000000000000000000001",
    [
      "0x0000000000000000000000000000000000000002"
    ]
  ],
  "numDeployments": 1,
  "solcInputHash": "a57a2d081c74dca139ca8f1cfea5fa83",
  "bytecode": "0x60806040523480156200001157600080fd5b50604051620038f2380380620038f28339810160408190526200003491620007b9565b838383836000848484846040516020016200005394939291906200083a565b60408051601f19818403018152919052905062000070816200007f565b505050505050505050620008e6565b600054610100900460ff1615808015620000a05750600054600160ff909116105b80620000d05750620000bd306200026d60201b62001c681760201c565b158015620000d0575060005460ff166001145b620001395760405162461bcd60e51b815260206004820152602e60248201527f496e697469616c697a61626c653a20636f6e747261637420697320616c72656160448201526d191e481a5b9a5d1a585b1a5e995960921b60648201526084015b60405180910390fd5b6000805460ff1916600117905580156200015d576000805461ff0019166101001790555b60008060008085806020019051810190620001799190620007b9565b9350935093509350620001916200027c60201b60201c565b606680546001600160a01b038086166001600160a01b0319928316179092556067805492851692909116919091179055620001cc81620002e4565b620001d784620003de565b6040516001600160a01b038381168252808516919086169033907ffb449138a79e741e04958f3e25fcf032b7c7080142fe9d7b9dc8e1935c8905e79060200160405180910390a450505050801562000269576000805461ff0019169055604051600181527f7f26b83ff96e1f2b6a682f133852f6798a09c465da95921460cefb38474024989060200160405180910390a15b5050565b6001600160a01b03163b151590565b600054610100900460ff16620002d85760405162461bcd60e51b815260206004820152602b6024820152600080516020620038b283398151915260448201526a6e697469616c697a696e6760a81b606482015260840162000130565b620002e26200045d565b565b6001600052606a602052600080516020620038d2833981519152546001600160a01b031615620003635760405162461bcd60e51b8152602060048201526024808201527f73657455704d6f64756c65732068617320616c7265616479206265656e2063616044820152631b1b195960e21b606482015260840162000130565b60016000818152606a602052600080516020620038d283398151915280546001600160a01b0319169092179091555b81518110156200026957620003c9828281518110620003b557620003b5620008a8565b6020026020010151620004c460201b60201c565b80620003d581620008be565b91505062000392565b620003e862000620565b6001600160a01b0381166200044f5760405162461bcd60e51b815260206004820152602660248201527f4f776e61626c653a206e6577206f776e657220697320746865207a65726f206160448201526564647265737360d01b606482015260840162000130565b6200045a816200067c565b50565b600054610100900460ff16620004b95760405162461bcd60e51b815260206004820152602b6024820152600080516020620038b283398151915260448201526a6e697469616c697a696e6760a81b606482015260840162000130565b620002e2336200067c565b620004ce62000620565b6001600160a01b03811615801590620004f157506001600160a01b038116600114155b620005325760405162461bcd60e51b815260206004820152601060248201526f496e76616c696420737472617465677960801b604482015260640162000130565b6001600160a01b038181166000908152606a602052604090205416156200059c5760405162461bcd60e51b815260206004820152601860248201527f537472617465677920616c726561647920656e61626c65640000000000000000604482015260640162000130565b606a6020908152600080516020620038d283398151915280546001600160a01b03848116600081815260408082208054949095166001600160a01b0319948516179094556001905283549091168117909255519081527f532492ef4d4edd78444556c1b5038901e11c232361675fe6d5e6bea2f0864e19910160405180910390a150565b6033546001600160a01b03163314620002e25760405162461bcd60e51b815260206004820181905260248201527f4f776e61626c653a2063616c6c6572206973206e6f7420746865206f776e6572604482015260640162000130565b603380546001600160a01b038381166001600160a01b0319831681179093556040519116919082907f8be0079c531659141344cd1fd0a4f28419497f9722a3daafe3b4186f6b6457e090600090a35050565b6001600160a01b03811681146200045a57600080fd5b8051620006f181620006ce565b919050565b634e487b7160e01b600052604160045260246000fd5b600082601f8301126200071e57600080fd5b815160206001600160401b03808311156200073d576200073d620006f6565b8260051b604051601f19603f83011681018181108482111715620007655762000765620006f6565b6040529384528581018301938381019250878511156200078457600080fd5b83870191505b84821015620007ae576200079e82620006e4565b835291830191908301906200078a565b979650505050505050565b60008060008060808587031215620007d057600080fd5b8451620007dd81620006ce565b6020860151909450620007f081620006ce565b60408601519093506200080381620006ce565b60608601519092506001600160401b038111156200082057600080fd5b6200082e878288016200070c565b91505092959194509250565b60006080820160018060a01b03808816845260208188168186015281871660408601526080606086015282865180855260a087019150828801945060005b818110156200089857855185168352948301949183019160010162000878565b50909a9950505050505050505050565b634e487b7160e01b600052603260045260246000fd5b600060018201620008df57634e487b7160e01b600052601160045260246000fd5b5060010190565b612fbc80620008f66000396000f3fe608060405234801561001057600080fd5b50600436106101e55760003560e01c80637c318eab1161010f578063c9106389116100a2578063ea49ba9711610071578063ea49ba97146104d0578063ead0eedf146104e3578063f2fde38b146104ec578063f72d9c3a146104ff57600080fd5b8063c910638914610486578063cdb1b19314610497578063d4b83992146104aa578063e19a9dd9146104bd57600080fd5b80638da5cb5b116100de5780638da5cb5b1461042e578063a4f9edbf1461043f578063b486737914610452578063c01e39aa1461046557600080fd5b80637c318eab146103c15780637c3e70da146103d45780637ceab3b1146103f457806388633b7b1461040757600080fd5b80634fd61348116101875780636a0ae77f116101565780636a0ae77f146103805780636e6ebbbc14610393578063715018a6146103a6578063776d1a01146103ae57600080fd5b80634fd613481461030c5780635aef7de61461031f578063608244a61461034a5780636258ba201461035d57600080fd5b8063300c661f116101c3578063300c661f146102a65780633742fcc9146102b95780633e4f49e6146102cc578063425a2a3c146102ec57600080fd5b8063013cf08b146101ea578063086cfca81461025c5780631db61b5414610271575b600080fd5b61022c6101f836600461208e565b606960205260009081526040902080546001820154600383015460049093015460ff9092169290916001600160a01b031684565b6040805194151585526020850193909352918301526001600160a01b031660608201526080015b60405180910390f35b61026f61026a3660046120cc565b610512565b005b6102987f47e79534a245952e8b16893a336b85a3d9ea9fa8c573f3d803afb92a7946921881565b604051908152602001610253565b6102986102b43660046121b4565b61056c565b61026f6102c73660046120cc565b61058e565b6102df6102da36600461208e565b6106fa565b6040516102539190612233565b6102ff6102fa36600461224d565b6107d4565b604051610253919061230b565b61026f61031a36600461231e565b6108d0565b606654610332906001600160a01b031681565b6040516001600160a01b039091168152602001610253565b61026f610358366004612340565b610aa9565b61037061036b36600461231e565b610bf3565b6040519015158152602001610253565b61026f61038e366004612379565b610c69565b6102986103a136600461231e565b610e43565b61026f610e79565b61026f6103bc3660046120cc565b610e8d565b61026f6103cf366004612478565b610ee7565b6103e76103e236600461208e565b611260565b60405161025391906125ae565b606554610332906001600160a01b031681565b6102987f72e9670a7ee00f5fbf1049b8c38e3f22fab7e9b85029e85cf9412f17fdd5c2ad81565b6033546001600160a01b0316610332565b61026f61044d3660046125c1565b6112c5565b61026f610460366004612764565b611482565b61047861047336600461287a565b6116cb565b6040516102539291906128a6565b6065546001600160a01b0316610332565b61026f6104a5366004612903565b6117c4565b606754610332906001600160a01b031681565b61026f6104cb3660046120cc565b61191b565b6103706104de3660046120cc565b611a17565b61029860685481565b61026f6104fa3660046120cc565b611a52565b61026f61050d366004612937565b611acb565b61051a611c77565b606680546001600160a01b038381166001600160a01b0319831681179093556040519116919082907f52ae88b092de36f87fb43fe794eb1381023b9c1bce563a871154022c63dce34290600090a35050565b600061057c8585858560006107d4565b8051906020012090505b949350505050565b610596611c77565b6001600160a01b038116158015906105b857506001600160a01b038116600114155b6105fc5760405162461bcd60e51b815260206004820152601060248201526f496e76616c696420737472617465677960801b60448201526064015b60405180910390fd5b6001600160a01b038181166000908152606a602052604090205416156106645760405162461bcd60e51b815260206004820152601860248201527f537472617465677920616c726561647920656e61626c6564000000000000000060448201526064016105f3565b606a60209081527ff585789965ba69220d5ce3dc1b444eb22ff546f2650694fef8fafe9c26560af980546001600160a01b03848116600081815260408082208054949095166001600160a01b0319948516179094556001905283549091168117909255519081527f532492ef4d4edd78444556c1b5038901e11c232361675fe6d5e6bea2f0864e1991015b60405180910390a150565b600081815260696020526040812060048101546001600160a01b03166107235750600592915050565b600281015460038201540361073b5750600392915050565b805460ff161561074e5750600192915050565b80600101546000036107635750600092915050565b80600101544210156107785750600292915050565b8060010154421061078c5750600492915050565b60405162461bcd60e51b815260206004820152601960248201527f756e6b6e6f776e2070726f706f73616c2069642073746174650000000000000060448201526064016105f3565b604080517f47e79534a245952e8b16893a336b85a3d9ea9fa8c573f3d803afb92a7946921860208201524691810182905230606080830191909152919060009060800160408051601f19818403018152908290528051602091820120885189830120909350600092610870927f72e9670a7ee00f5fbf1049b8c38e3f22fab7e9b85029e85cf9412f17fdd5c2ad928d928d928c918c9101612a16565b60408051808303601f19018152908290528051602091820120601960f81b91830191909152600160f81b60218301526022820184905260428201819052915060620160405160208183030381529060405293505050505b95945050505050565b336000908152606a60205260409020546001600160a01b03166109355760405162461bcd60e51b815260206004820152601760248201527f5374726174656779206e6f7420617574686f72697a656400000000000000000060448201526064016105f3565b6000610940836106fa565b60058111156109515761095161221d565b146109b65760405162461bcd60e51b815260206004820152602f60248201527f63616e6e6f7420726563656976652073747261746567792c2070726f706f736160448201526e6c206973206e6f742061637469766560881b60648201526084016105f3565b6000828152606960205260409020600401546001600160a01b03163314610a455760405162461bcd60e51b815260206004820152603860248201527f63616e6e6f7420726563656976652073747261746567792c20696e636f72726560448201527f637420737472617465677920666f722070726f706f73616c000000000000000060648201526084016105f3565b610a4f8142612a6e565b60008381526069602052604090819020600101829055517fddd1068f5a3093178d520e5e3668df545971ab7813fdc20476f674ae69972b9b91610a9d91859190918252602082015260400190565b60405180910390a15050565b610ab1611c77565b6001600160a01b03811615801590610ad357506001600160a01b038116600114155b610b125760405162461bcd60e51b815260206004820152601060248201526f496e76616c696420737472617465677960801b60448201526064016105f3565b6001600160a01b038281166000908152606a6020526040902054811690821614610b7e5760405162461bcd60e51b815260206004820152601960248201527f537472617465677920616c72656164792064697361626c65640000000000000060448201526064016105f3565b6001600160a01b038181166000818152606a60209081526040808320805488871685528285208054919097166001600160a01b03199182161790965592849052825490941690915591519081527fc31c3a4f175b634ee48f8db1a8cc8c16f594ea7511e6552684b87a1481f63b6f9101610a9d565b600082815260696020526040812060020154610c515760405162461bcd60e51b815260206004820152601e60248201527f6e6f20657865637574696f6e7320696e20746869732070726f706f73616c000060448201526064016105f3565b50600091825260696020526040909120600301541190565b6004610c74866106fa565b6005811115610c8557610c8561221d565b14610cdd5760405162461bcd60e51b815260206004820152602260248201527f70726f706f73616c206973206e6f7420696e20657865637574696f6e20737461604482015261746560f01b60648201526084016105f3565b6000610ceb8585858561056c565b600087815260696020526040902060038101546002909101805492935083929091908110610d1b57610d1b612a86565b906000526020600020015414610d885760405162461bcd60e51b815260206004820152602c60248201527f7472616e73616374696f6e206861736820646f6573206e6f74206d617463682060448201526b0d2dcc8caf0cac840d0c2e6d60a31b60648201526084016105f3565b6000868152606960205260408120600301805491610da583612a9c565b9190505550610db685858585611cd1565b610e025760405162461bcd60e51b815260206004820152601960248201527f4d6f64756c65207472616e73616374696f6e206661696c65640000000000000060448201526064016105f3565b60408051878152602081018390527f94af79ab7dddd04777ef61b705862c47297c6a52c6643535059d88ff1af54df7910160405180910390a1505050505050565b6000828152606960205260408120600201805483908110610e6657610e66612a86565b9060005260206000200154905092915050565b610e81611c77565b610e8b6000611e72565b565b610e95611c77565b606780546001600160a01b038381166001600160a01b0319831681179093556040519116919082907f90cc2f570a6eb594b1580ea3e41247d2d73a55281889e86bd4ec2fc29c7e62d690600090a35050565b610ef08a611a17565b610f0c5760405162461bcd60e51b81526004016105f390612ab5565b86610f295760405162461bcd60e51b81526004016105f390612b00565b6000876001600160401b03811115610f4357610f436120f0565b604051908082528060200260200182016040528015610f6c578160200160208202803683370190505b50905060005b888110156110b0576110818a8a83818110610f8f57610f8f612a86565b9050602002810190610fa19190612b42565b610faf9060208101906120cc565b8b8b84818110610fc157610fc1612a86565b9050602002810190610fd39190612b42565b602001358c8c85818110610fe957610fe9612a86565b9050602002810190610ffb9190612b42565b611009906040810190612b62565b8080601f016020809104026020016040519081016040528093929190818152602001838380828437600081840152601f19601f820116905080830192505050505050508d8d8681811061105e5761105e612a86565b90506020028101906110709190612b42565b6102b4906080810190606001612ba8565b82828151811061109357611093612a86565b6020908102919091010152806110a881612a9c565b915050610f72565b50606854600090815260696020908152604090912082516110d99260029092019184019061202e565b508a60696000606854815260200190815260200160002060040160006101000a8154816001600160a01b0302191690836001600160a01b031602179055508a6001600160a01b031663224f3263606854838d60405160200161113d93929190612bc3565b6040516020818303038152906040526040518263ffffffff1660e01b8152600401611168919061230b565b600060405180830381600087803b15801561118257600080fd5b505af1158015611196573d6000803e3d6000fd5b505050507fe669ca381c47a2c25df06ebbe580c111183f1e92460fd3ab51050d2306b340278b606854336040516111ed939291906001600160a01b0393841681526020810192909252909116604082015260600190565b60405180910390a17fd1889f555b71dd4bf0887f284aa11c249ab4299fc752bb55f785d5402b65fba16068548a8a8a8a8a8a8a8a60405161123699989796959493929190612c21565b60405180910390a16068805490600061124e83612a9c565b91905055505050505050505050505050565b6000818152606960209081526040918290206002018054835181840281018401909452808452606093928301828280156112b957602002820191906000526020600020905b8154815260200190600101908083116112a5575b50505050509050919050565b600054610100900460ff16158080156112e55750600054600160ff909116105b806112ff5750303b1580156112ff575060005460ff166001145b6113625760405162461bcd60e51b815260206004820152602e60248201527f496e697469616c697a61626c653a20636f6e747261637420697320616c72656160448201526d191e481a5b9a5d1a585b1a5e995960921b60648201526084016105f3565b6000805460ff191660011790558015611385576000805461ff0019166101001790555b6000806000808580602001905181019061139f9190612d68565b93509350935093506113af611ec4565b606680546001600160a01b038086166001600160a01b03199283161790925560678054928516929091169190911790556113e881611ef3565b6113f184611a52565b6040516001600160a01b038381168252808516919086169033907ffb449138a79e741e04958f3e25fcf032b7c7080142fe9d7b9dc8e1935c8905e79060200160405180910390a450505050801561147e576000805461ff0019169055604051600181527f7f26b83ff96e1f2b6a682f133852f6798a09c465da95921460cefb384740249890602001610a9d565b5050565b83516000036114e85760405162461bcd60e51b815260206004820152602c60248201527f6e6f207472616e73616374696f6e7320746f206578656375746520737570706c60448201526b0d2cac840e8de40c4c2e8c6d60a31b60648201526084016105f3565b825184511480156114fa575081518451145b8015611507575080518451145b6115535760405162461bcd60e51b815260206004820152601e60248201527f657865637574696f6e20706172616d6574657273206d6973736d61746368000060448201526064016105f3565b600085815260696020526040902060028101548551600390920154909161157991612a6e565b11156115db5760405162461bcd60e51b815260206004820152602b60248201527f617474656d7074696e6720746f206578656375746520746f6f206d616e79207460448201526a72616e73616374696f6e7360a81b60648201526084016105f3565b60005b845181101561166a57611658868683815181106115fd576115fd612a86565b602002602001015186848151811061161757611617612a86565b602002602001015186858151811061163157611631612a86565b602002602001015186868151811061164b5761164b612a86565b6020026020010151610c69565b8061166281612a9c565b9150506115de565b5060008581526069602052604090206003015484517ff87dcceadfc09a0716e4b6e12b449f55c80930f97d97f0e45ddec6105c236d1391906116ac9082612a6e565b6040805192835260208301919091520160405180910390a15050505050565b60606000826001600160401b038111156116e7576116e76120f0565b604051908082528060200260200182016040528015611710578160200160208202803683370190505b506001600160a01b038086166000908152606a602052604081205492945091165b6001600160a01b0381161580159061175357506001600160a01b038116600114155b801561175e57508482105b156117b6578084838151811061177657611776612a86565b6001600160a01b039283166020918202929092018101919091529181166000908152606a90925260409091205416816117ae81612a9c565b925050611731565b908352919491935090915050565b6117cc611c77565b60005b815181101561147e576000606960008484815181106117f0576117f0612a86565b60200260200101518152602001908152602001600020905080600201805490508160030154106118565760405162461bcd60e51b81526020600482015260116024820152701b9bdd1a1a5b99c81d1bc818d85b98d95b607a1b60448201526064016105f3565b805460ff16156118a85760405162461bcd60e51b815260206004820152601c60248201527f70726f706f73616c20697320616c72656164792063616e63656c65640000000060448201526064016105f3565b805460ff1916600117815582517f789cf55be980739dad1d0699b93b58e806b51c9d96619bfa8fe0a28abaa7b30c908490849081106118e9576118e9612a86565b602002602001015160405161190091815260200190565b60405180910390a1508061191381612a9c565b9150506117cf565b611923611c77565b6001600160a01b038116156119c9576040516301ffc9a760e01b815263736bd41d60e11b60048201526001600160a01b038216906301ffc9a790602401602060405180830381865afa15801561197d573d6000803e3d6000fd5b505050506040513d601f19601f820116820180604052508101906119a19190612e3d565b6119c9576040516358b7533f60e11b81526001600160a01b03821660048201526024016105f3565b606580546001600160a01b0319166001600160a01b0383169081179091556040519081527f1151116914515bc0891ff9047a6cb32cf902546f83066499bcf8ba33d2353fa2906020016106ef565b600060016001600160a01b03831614801590611a4c57506001600160a01b038281166000908152606a60205260409020541615155b92915050565b611a5a611c77565b6001600160a01b038116611abf5760405162461bcd60e51b815260206004820152602660248201527f4f776e61626c653a206e6577206f776e657220697320746865207a65726f206160448201526564647265737360d01b60648201526084016105f3565b611ac881611e72565b50565b611ad482611a17565b611af05760405162461bcd60e51b81526004016105f390612ab5565b6000835111611b115760405162461bcd60e51b81526004016105f390612b00565b60685460009081526069602090815260409091208451611b399260029092019186019061202e565b5060688054600090815260696020526040812060040180546001600160a01b0319166001600160a01b03861617905581549190611b7583612a9c565b9190505550816001600160a01b031663224f32636001606854611b989190612e5f565b8584604051602001611bac93929190612bc3565b6040516020818303038152906040526040518263ffffffff1660e01b8152600401611bd7919061230b565b600060405180830381600087803b158015611bf157600080fd5b505af1158015611c05573d6000803e3d6000fd5b505050507fe669ca381c47a2c25df06ebbe580c111183f1e92460fd3ab51050d2306b34027826001606854611c3a9190612e5f565b604080516001600160a01b0390931683526020830191909152339082015260600160405180910390a1505050565b6001600160a01b03163b151590565b6033546001600160a01b03163314610e8b5760405162461bcd60e51b815260206004820181905260248201527f4f776e61626c653a2063616c6c6572206973206e6f7420746865206f776e657260448201526064016105f3565b6065546000906001600160a01b031615611d73576065546040805180820182526002815261060f60f31b60208201529051633af85da960e11b81526001600160a01b03909216916375f0bb5291611d409189918991899189916000918291829182918291903390600401612e76565b600060405180830381600087803b158015611d5a57600080fd5b505af1158015611d6e573d6000803e3d6000fd5b505050505b60675460405163468721a760e01b81526001600160a01b039091169063468721a790611da9908890889088908890600401612f05565b6020604051808303816000875af1158015611dc8573d6000803e3d6000fd5b505050506040513d601f19601f82011682018060405250810190611dec9190612e3d565b6065549091506001600160a01b03161561058657606554604051631264e26d60e31b815261060f60f31b600482015282151560248201526001600160a01b0390911690639327136890604401600060405180830381600087803b158015611e5257600080fd5b505af1158015611e66573d6000803e3d6000fd5b50505050949350505050565b603380546001600160a01b038381166001600160a01b0319831681179093556040519116919082907f8be0079c531659141344cd1fd0a4f28419497f9722a3daafe3b4186f6b6457e090600090a35050565b600054610100900460ff16611eeb5760405162461bcd60e51b81526004016105f390612f3b565b610e8b611ffe565b6001600052606a6020527ff585789965ba69220d5ce3dc1b444eb22ff546f2650694fef8fafe9c26560af9546001600160a01b031615611f815760405162461bcd60e51b8152602060048201526024808201527f73657455704d6f64756c65732068617320616c7265616479206265656e2063616044820152631b1b195960e21b60648201526084016105f3565b60016000818152606a6020527ff585789965ba69220d5ce3dc1b444eb22ff546f2650694fef8fafe9c26560af980546001600160a01b0319169092179091555b815181101561147e57611fec828281518110611fdf57611fdf612a86565b602002602001015161058e565b80611ff681612a9c565b915050611fc1565b600054610100900460ff166120255760405162461bcd60e51b81526004016105f390612f3b565b610e8b33611e72565b828054828255906000526020600020908101928215612069579160200282015b8281111561206957825182559160200191906001019061204e565b50612075929150612079565b5090565b5b80821115612075576000815560010161207a565b6000602082840312156120a057600080fd5b5035919050565b6001600160a01b0381168114611ac857600080fd5b80356120c7816120a7565b919050565b6000602082840312156120de57600080fd5b81356120e9816120a7565b9392505050565b634e487b7160e01b600052604160045260246000fd5b604051601f8201601f191681016001600160401b038111828210171561212e5761212e6120f0565b604052919050565b600082601f83011261214757600080fd5b81356001600160401b03811115612160576121606120f0565b612173601f8201601f1916602001612106565b81815284602083860101111561218857600080fd5b816020850160208301376000918101602001919091529392505050565b8035600281106120c757600080fd5b600080600080608085870312156121ca57600080fd5b84356121d5816120a7565b93506020850135925060408501356001600160401b038111156121f757600080fd5b61220387828801612136565b925050612212606086016121a5565b905092959194509250565b634e487b7160e01b600052602160045260246000fd5b60208101600683106122475761224761221d565b91905290565b600080600080600060a0868803121561226557600080fd5b8535612270816120a7565b94506020860135935060408601356001600160401b0381111561229257600080fd5b61229e88828901612136565b9350506122ad606087016121a5565b949793965091946080013592915050565b6000815180845260005b818110156122e4576020818501810151868301820152016122c8565b818111156122f6576000602083870101525b50601f01601f19169290920160200192915050565b6020815260006120e960208301846122be565b6000806040838503121561233157600080fd5b50508035926020909101359150565b6000806040838503121561235357600080fd5b823561235e816120a7565b9150602083013561236e816120a7565b809150509250929050565b600080600080600060a0868803121561239157600080fd5b8535945060208601356123a3816120a7565b93506040860135925060608601356001600160401b038111156123c557600080fd5b6123d188828901612136565b9250506123e0608087016121a5565b90509295509295909350565b60008083601f8401126123fe57600080fd5b5081356001600160401b0381111561241557600080fd5b6020830191508360208260051b850101111561243057600080fd5b9250929050565b60008083601f84011261244957600080fd5b5081356001600160401b0381111561246057600080fd5b60208301915083602082850101111561243057600080fd5b60008060008060008060008060008060c08b8d03121561249757600080fd5b6124a08b6120bc565b995060208b01356001600160401b03808211156124bc57600080fd5b6124c88e838f01612136565b9a5060408d01359150808211156124de57600080fd5b6124ea8e838f016123ec565b909a50985060608d013591508082111561250357600080fd5b61250f8e838f01612437565b909850965060808d013591508082111561252857600080fd5b6125348e838f01612437565b909650945060a08d013591508082111561254d57600080fd5b5061255a8d828e01612437565b915080935050809150509295989b9194979a5092959850565b600081518084526020808501945080840160005b838110156125a357815187529582019590820190600101612587565b509495945050505050565b6020815260006120e96020830184612573565b6000602082840312156125d357600080fd5b81356001600160401b038111156125e957600080fd5b61058684828501612136565b60006001600160401b0382111561260e5761260e6120f0565b5060051b60200190565b600082601f83011261262957600080fd5b8135602061263e612639836125f5565b612106565b82815260059290921b8401810191818101908684111561265d57600080fd5b8286015b848110156126785780358352918301918301612661565b509695505050505050565b600082601f83011261269457600080fd5b813560206126a4612639836125f5565b82815260059290921b840181019181810190868411156126c357600080fd5b8286015b848110156126785780356001600160401b038111156126e65760008081fd5b6126f48986838b0101612136565b8452509183019183016126c7565b600082601f83011261271357600080fd5b81356020612723612639836125f5565b82815260059290921b8401810191818101908684111561274257600080fd5b8286015b8481101561267857612757816121a5565b8352918301918301612746565b600080600080600060a0868803121561277c57600080fd5b853594506020808701356001600160401b038082111561279b57600080fd5b818901915089601f8301126127af57600080fd5b81356127bd612639826125f5565b81815260059190911b8301840190848101908c8311156127dc57600080fd5b938501935b828510156128035784356127f4816120a7565b825293850193908501906127e1565b98505050604089013592508083111561281b57600080fd5b6128278a848b01612618565b9550606089013592508083111561283d57600080fd5b6128498a848b01612683565b9450608089013592508083111561285f57600080fd5b505061286d88828901612702565b9150509295509295909350565b6000806040838503121561288d57600080fd5b8235612898816120a7565b946020939093013593505050565b604080825283519082018190526000906020906060840190828701845b828110156128e85781516001600160a01b0316845292840192908401906001016128c3565b5050506001600160a01b039490941692019190915250919050565b60006020828403121561291557600080fd5b81356001600160401b0381111561292b57600080fd5b61058684828501612618565b60008060006060848603121561294c57600080fd5b83356001600160401b038082111561296357600080fd5b818601915086601f83011261297757600080fd5b81356020612987612639836125f5565b82815260059290921b8401810191818101908a8411156129a657600080fd5b948201945b838610156129c4578535825294820194908201906129ab565b97506129d390508882016120bc565b9550505060408601359150808211156129eb57600080fd5b506129f886828701612136565b9150509250925092565b60028110612a1257612a1261221d565b9052565b8681526001600160a01b0386166020820152604081018590526060810184905260c08101612a476080830185612a02565b8260a0830152979650505050505050565b634e487b7160e01b600052601160045260246000fd5b60008219821115612a8157612a81612a58565b500190565b634e487b7160e01b600052603260045260246000fd5b600060018201612aae57612aae612a58565b5060010190565b6020808252602b908201527f766f74696e67207374726174656779206973206e6f7420656e61626c6564206660408201526a1bdc881c1c9bdc1bdcd85b60aa1b606082015260800190565b60208082526022908201527f70726f706f73616c206d75737420636f6e7461696e207472616e73616374696f6040820152616e7360f01b606082015260800190565b60008235607e19833603018112612b5857600080fd5b9190910192915050565b6000808335601e19843603018112612b7957600080fd5b8301803591506001600160401b03821115612b9357600080fd5b60200191503681900382131561243057600080fd5b600060208284031215612bba57600080fd5b6120e9826121a5565b838152606060208201526000612bdc6060830185612573565b8281036040840152612bee81856122be565b9695505050505050565b81835281816020850137506000828201602090810191909152601f909101601f19169091010190565b89815260a0602082018190528101889052600060c060058a901b830181019083018b835b8c811015612d185785840360bf190183528135368f9003607e19018112612c6b57600080fd5b8e018035612c78816120a7565b6001600160a01b0316855260208181013590860152604081013536829003601e19018112612ca557600080fd5b810180356001600160401b03811115612cbd57600080fd5b803603831315612ccc57600080fd5b60806040880152612ce4608088018260208501612bf8565b915050612cf3606083016121a5565b9150612d026060870183612a02565b9450506020928301929190910190600101612c45565b5050508281036040840152612d2e81898b612bf8565b90508281036060840152612d43818789612bf8565b90508281036080840152612d58818587612bf8565b9c9b505050505050505050505050565b60008060008060808587031215612d7e57600080fd5b8451612d89816120a7565b80945050602080860151612d9c816120a7565b6040870151909450612dad816120a7565b60608701519093506001600160401b03811115612dc957600080fd5b8601601f81018813612dda57600080fd5b8051612de8612639826125f5565b81815260059190911b8201830190838101908a831115612e0757600080fd5b928401925b82841015612e2e578351612e1f816120a7565b82529284019290840190612e0c565b979a9699509497505050505050565b600060208284031215612e4f57600080fd5b815180151581146120e957600080fd5b600082821015612e7157612e71612a58565b500390565b6001600160a01b038c81168252602082018c905261016060408301819052600091612ea38483018e6122be565b9150612eb2606085018d612a02565b8a60808501528960a08501528860c085015280881660e0850152808716610100850152838203610120850152612ee882876122be565b925080851661014085015250509c9b505050505050505050505050565b60018060a01b0385168152836020820152608060408201526000612f2c60808301856122be565b90506108c76060830184612a02565b6020808252602b908201527f496e697469616c697a61626c653a20636f6e7472616374206973206e6f74206960408201526a6e697469616c697a696e6760a81b60608201526080019056fea26469706673582212200db2f020f267ac0d59463a458508d92f0d99570f4ccc31a1e883d88c4d7d7fca64736f6c634300080d0033496e697469616c697a61626c653a20636f6e7472616374206973206e6f742069f585789965ba69220d5ce3dc1b444eb22ff546f2650694fef8fafe9c26560af9",
  "devdoc": {
    "kind": "dev",
    "methods": {
      "cancelProposals(uint256[])": {
        "details": "Cancels a proposal.",
        "params": {
          "proposalIds": "array of proposals to cancel."
        }
      },
      "disableStrategy(address,address)": {
        "details": "Disables a voting strategy on the module",
        "params": {
          "prevStrategy": "Strategy that pointed to the strategy to be removed in the linked list",
          "strategy": "Strategy to be removed"
        }
      },
      "enableStrategy(address)": {
        "details": "Enables a voting strategy that can vote on proposals",
        "params": {
          "strategy": "Address of the strategy to be enabled"
        }
      },
      "executeProposalBatch(uint256,address[],uint256[],bytes[],uint8[])": {
        "details": "Executes batches of transactions inside of a proposal.",
        "params": {
          "data": "the data to be executed from the calls",
          "operations": "Calls or Delegatecalls",
          "proposalId": "the identifier of the proposal",
          "targets": "the contracts to be called by the avatar",
          "values": "ether values to pass with the calls"
        }
      },
      "executeProposalByIndex(uint256,address,uint256,bytes,uint8)": {
        "details": "Executes a transaction inside of a proposal.",
        "params": {
          "data": "the data to be executed from the call",
          "operation": "Call or Delegatecall",
          "proposalId": "the identifier of the proposal",
          "target": "the contract to be called by the avatar",
          "value": "ether value to pass with the call"
        }
      },
      "generateTransactionHashData(address,uint256,bytes,uint8,uint256)": {
        "details": "Generates the data for the module transaction hash (required for signing)"
      },
      "getProposalTxHashes(uint256)": {
        "params": {
          "proposalId": "The ID of the proposal to get the tx hashes for"
        },
        "returns": {
          "_0": "bytes32[] The array of tx hashes"
        }
      },
      "getStrategiesPaginated(address,uint256)": {
        "details": "Returns array of strategy.",
        "params": {
          "pageSize": "Maximum number of strategy that should be returned.",
          "start": "Start of the page."
        },
        "returns": {
          "array": "Array of strategy.",
          "next": "Start of the next page."
        }
      },
      "getTxHash(uint256,uint256)": {
        "details": "Returns the hash of a transaction in a proposal.",
        "params": {
          "index": "the transaction to inspect.",
          "proposalId": "the proposal to inspect."
        },
        "returns": {
          "_0": "transaction hash."
        }
      },
      "isStrategyEnabled(address)": {
        "details": "Returns if a strategy is enabled",
        "returns": {
          "_0": "True if the strategy is enabled"
        }
      },
      "isTxExecuted(uint256,uint256)": {
        "details": "Returns true if a proposal transaction by index is exectuted.",
        "params": {
          "index": "the transaction to inspect.",
          "proposalId": "the proposal to inspect."
        },
        "returns": {
          "_0": "boolean."
        }
      },
      "owner()": {
        "details": "Returns the address of the current owner."
      },
      "receiveStrategy(uint256,uint256)": {
        "details": "Signals a successful proposal, timelock is optional",
        "params": {
          "proposalId": "the identifier of the proposal",
          "timeLockPeriod": "the optional delay time"
        }
      },
      "renounceOwnership()": {
        "details": "Leaves the contract without owner. It will not be possible to call `onlyOwner` functions anymore. Can only be called by the current owner. NOTE: Renouncing ownership will leave the contract without an owner, thereby removing any functionality that is only available to the owner."
      },
      "setAvatar(address)": {
        "details": "Sets the avatar to a new avatar (`newAvatar`)."
      },
      "setGuard(address)": {
        "details": "Set a guard that checks transactions before execution.",
        "params": {
          "_guard": "The address of the guard to be used or the 0 address to disable the guard."
        }
      },
      "setTarget(address)": {
        "details": "Sets the target to a new target (`newTarget`)."
      },
      "state(uint256)": {
        "details": "Get the state of a proposal",
        "params": {
          "proposalId": "the identifier of the proposal"
        },
        "returns": {
          "_0": "ProposalState the enum of the state of the proposal"
        }
      },
      "submitProposal(bytes32[],address,bytes)": {
        "details": "Submits a new proposal.",
        "params": {
          "data": "any extra data to pass to the strategy",
          "strategy": "the voting strategy to be used with this proposal",
          "txHashes": "an array of hashed transaction data to execute"
        }
      },
      "submitProposalWithMetaData(address,bytes,(address,uint256,bytes,uint8)[],string,string,string)": {
        "details": "This method is used instead of Usul.submitProposal. Essentially - it just implements same behavior but then - it also emits metadata of the proposal in ProposalMetadataCreated event.",
        "params": {
          "data": "- any additional data, which would be passed into IStrategy.receiveProposal",
          "description": "- proposal description, emitted in ProposalMetadataCreated",
          "documentationUrl": "- proposal documentation/discussion URL, emitted in ProposalMetadataCreated.  Supposed to be link to Discord/Slack/Whatever chat discussion",
          "strategy": "Address of Voting Strategy, under which proposal submitted",
          "title": "- proposal title, emitted in ProposalMetadataCreated",
          "transactions": "- array of transactions to execute"
        }
      },
      "transferOwnership(address)": {
        "details": "Transfers ownership of the contract to a new account (`newOwner`). Can only be called by the current owner."
      }
    },
    "version": 1
  },
  "userdoc": {
    "errors": {
      "NotIERC165Compliant(address)": [
        {
          "notice": "`guard_` does not implement IERC165."
        }
      ]
    },
    "kind": "user",
    "methods": {
      "disableStrategy(address,address)": {
        "notice": "This can only be called by the owner"
      },
      "enableStrategy(address)": {
        "notice": "This can only be called by the owner"
      },
      "executeProposalBatch(uint256,address[],uint256[],bytes[],uint8[])": {
        "notice": "Transactions must be called in ascending index order"
      },
      "executeProposalByIndex(uint256,address,uint256,bytes,uint8)": {
        "notice": "Transactions must be called in ascending index order"
      },
      "getProposalTxHashes(uint256)": {
        "notice": "Gets the transaction hashes associated with a given proposald"
      },
      "setAvatar(address)": {
        "notice": "Can only be called by the current owner."
      },
      "setTarget(address)": {
        "notice": "Can only be called by the current owner."
      }
    },
    "version": 1
  },
  "storageLayout": {
    "storage": [
      {
        "astId": 3006,
        "contract": "contracts/FractalUsul.sol:FractalUsul",
        "label": "_initialized",
        "offset": 0,
        "slot": "0",
        "type": "t_uint8"
      },
      {
        "astId": 3009,
        "contract": "contracts/FractalUsul.sol:FractalUsul",
        "label": "_initializing",
        "offset": 1,
        "slot": "0",
        "type": "t_bool"
      },
      {
        "astId": 5465,
        "contract": "contracts/FractalUsul.sol:FractalUsul",
        "label": "__gap",
        "offset": 0,
        "slot": "1",
        "type": "t_array(t_uint256)50_storage"
      },
      {
        "astId": 2800,
        "contract": "contracts/FractalUsul.sol:FractalUsul",
        "label": "_owner",
        "offset": 0,
        "slot": "51",
        "type": "t_address"
      },
      {
        "astId": 2920,
        "contract": "contracts/FractalUsul.sol:FractalUsul",
        "label": "__gap",
        "offset": 0,
        "slot": "52",
        "type": "t_array(t_uint256)49_storage"
      },
      {
        "astId": 2607,
        "contract": "contracts/FractalUsul.sol:FractalUsul",
        "label": "guard",
        "offset": 0,
        "slot": "101",
        "type": "t_address"
      },
      {
        "astId": 2285,
        "contract": "contracts/FractalUsul.sol:FractalUsul",
        "label": "avatar",
        "offset": 0,
        "slot": "102",
        "type": "t_address"
      },
      {
        "astId": 2288,
        "contract": "contracts/FractalUsul.sol:FractalUsul",
        "label": "target",
        "offset": 0,
        "slot": "103",
        "type": "t_address"
      },
      {
        "astId": 14266,
        "contract": "contracts/FractalUsul.sol:FractalUsul",
        "label": "totalProposalCount",
        "offset": 0,
        "slot": "104",
        "type": "t_uint256"
      },
      {
        "astId": 14277,
        "contract": "contracts/FractalUsul.sol:FractalUsul",
        "label": "proposals",
        "offset": 0,
        "slot": "105",
        "type": "t_mapping(t_uint256,t_struct(Proposal)14264_storage)"
      },
      {
        "astId": 14281,
        "contract": "contracts/FractalUsul.sol:FractalUsul",
        "label": "strategies",
        "offset": 0,
        "slot": "106",
        "type": "t_mapping(t_address,t_address)"
      }
    ],
    "types": {
      "t_address": {
        "encoding": "inplace",
        "label": "address",
        "numberOfBytes": "20"
      },
      "t_array(t_bytes32)dyn_storage": {
        "base": "t_bytes32",
        "encoding": "dynamic_array",
        "label": "bytes32[]",
        "numberOfBytes": "32"
      },
      "t_array(t_uint256)49_storage": {
        "base": "t_uint256",
        "encoding": "inplace",
        "label": "uint256[49]",
        "numberOfBytes": "1568"
      },
      "t_array(t_uint256)50_storage": {
        "base": "t_uint256",
        "encoding": "inplace",
        "label": "uint256[50]",
        "numberOfBytes": "1600"
      },
      "t_bool": {
        "encoding": "inplace",
        "label": "bool",
        "numberOfBytes": "1"
      },
      "t_bytes32": {
        "encoding": "inplace",
        "label": "bytes32",
        "numberOfBytes": "32"
      },
      "t_mapping(t_address,t_address)": {
        "encoding": "mapping",
        "key": "t_address",
        "label": "mapping(address => address)",
        "numberOfBytes": "32",
        "value": "t_address"
      },
      "t_mapping(t_uint256,t_struct(Proposal)14264_storage)": {
        "encoding": "mapping",
        "key": "t_uint256",
        "label": "mapping(uint256 => struct Usul.Proposal)",
        "numberOfBytes": "32",
        "value": "t_struct(Proposal)14264_storage"
      },
      "t_struct(Proposal)14264_storage": {
        "encoding": "inplace",
        "label": "struct Usul.Proposal",
        "members": [
          {
            "astId": 14254,
            "contract": "contracts/FractalUsul.sol:FractalUsul",
            "label": "canceled",
            "offset": 0,
            "slot": "0",
            "type": "t_bool"
          },
          {
            "astId": 14256,
            "contract": "contracts/FractalUsul.sol:FractalUsul",
            "label": "timeLockPeriod",
            "offset": 0,
            "slot": "1",
            "type": "t_uint256"
          },
          {
            "astId": 14259,
            "contract": "contracts/FractalUsul.sol:FractalUsul",
            "label": "txHashes",
            "offset": 0,
            "slot": "2",
            "type": "t_array(t_bytes32)dyn_storage"
          },
          {
            "astId": 14261,
            "contract": "contracts/FractalUsul.sol:FractalUsul",
            "label": "executionCounter",
            "offset": 0,
            "slot": "3",
            "type": "t_uint256"
          },
          {
            "astId": 14263,
            "contract": "contracts/FractalUsul.sol:FractalUsul",
            "label": "strategy",
            "offset": 0,
            "slot": "4",
            "type": "t_address"
          }
        ],
        "numberOfBytes": "160"
      },
      "t_uint256": {
        "encoding": "inplace",
        "label": "uint256",
        "numberOfBytes": "32"
      },
      "t_uint8": {
        "encoding": "inplace",
        "label": "uint8",
        "numberOfBytes": "1"
      }
    }
  }
}