{
  "address": "0xb6d9e15F48C9Fb16AD8b4Cd26ed32086B7FbFd73",
  "abi": [
    {
      "inputs": [
        {
          "internalType": "address",
          "name": "_owner",
          "type": "address"
        },
        {
          "internalType": "contract ERC20Votes",
          "name": "_governanceToken",
          "type": "address"
        },
        {
          "internalType": "address",
          "name": "_UsulModule",
          "type": "address"
        },
        {
          "internalType": "uint256",
          "name": "_votingPeriod",
          "type": "uint256"
        },
        {
          "internalType": "uint256",
          "name": "quorumNumerator_",
          "type": "uint256"
        },
        {
          "internalType": "uint256",
          "name": "_timeLockPeriod",
          "type": "uint256"
        },
        {
          "internalType": "string",
          "name": "name_",
          "type": "string"
        }
      ],
      "stateMutability": "nonpayable",
      "type": "constructor"
    },
    {
      "anonymous": false,
      "inputs": [
        {
          "indexed": false,
          "internalType": "uint8",
          "name": "version",
          "type": "uint8"
        }
      ],
      "name": "Initialized",
      "type": "event"
    },
    {
      "anonymous": false,
      "inputs": [
        {
          "indexed": true,
          "internalType": "address",
          "name": "previousOwner",
          "type": "address"
        },
        {
          "indexed": true,
          "internalType": "address",
          "name": "newOwner",
          "type": "address"
        }
      ],
      "name": "OwnershipTransferred",
      "type": "event"
    },
    {
      "anonymous": false,
      "inputs": [
        {
          "indexed": false,
          "internalType": "uint256",
          "name": "proposalId",
          "type": "uint256"
        },
        {
          "indexed": false,
          "internalType": "uint256",
          "name": "timestamp",
          "type": "uint256"
        }
      ],
      "name": "ProposalReceived",
      "type": "event"
    },
    {
      "anonymous": false,
      "inputs": [
        {
          "indexed": false,
          "internalType": "uint256",
          "name": "oldQuorumNumerator",
          "type": "uint256"
        },
        {
          "indexed": false,
          "internalType": "uint256",
          "name": "newQuorumNumerator",
          "type": "uint256"
        }
      ],
      "name": "QuorumNumeratorUpdated",
      "type": "event"
    },
    {
      "anonymous": false,
      "inputs": [
        {
          "indexed": true,
          "internalType": "address",
          "name": "UsulModule",
          "type": "address"
        },
        {
          "indexed": true,
          "internalType": "address",
          "name": "owner",
          "type": "address"
        }
      ],
      "name": "StrategySetup",
      "type": "event"
    },
    {
      "anonymous": false,
      "inputs": [
        {
          "indexed": false,
          "internalType": "uint256",
          "name": "previousTimeLock",
          "type": "uint256"
        },
        {
          "indexed": false,
          "internalType": "uint256",
          "name": "newTimeLockPeriod",
          "type": "uint256"
        }
      ],
      "name": "TimeLockUpdated",
      "type": "event"
    },
    {
      "anonymous": false,
      "inputs": [
        {
          "indexed": true,
          "internalType": "address",
          "name": "previousUsul",
          "type": "address"
        },
        {
          "indexed": true,
          "internalType": "address",
          "name": "newUsul",
          "type": "address"
        }
      ],
      "name": "UsulSet",
      "type": "event"
    },
    {
      "anonymous": false,
      "inputs": [
        {
          "indexed": false,
          "internalType": "uint256",
          "name": "proposalId",
          "type": "uint256"
        },
        {
          "indexed": false,
          "internalType": "uint256",
          "name": "timestamp",
          "type": "uint256"
        }
      ],
      "name": "VoteFinalized",
      "type": "event"
    },
    {
      "anonymous": false,
      "inputs": [
        {
          "indexed": false,
          "internalType": "address",
          "name": "voter",
          "type": "address"
        },
        {
          "indexed": false,
          "internalType": "uint256",
          "name": "proposalId",
          "type": "uint256"
        },
        {
          "indexed": false,
          "internalType": "uint8",
          "name": "support",
          "type": "uint8"
        },
        {
          "indexed": false,
          "internalType": "uint256",
          "name": "weight",
          "type": "uint256"
        }
      ],
      "name": "Voted",
      "type": "event"
    },
    {
      "anonymous": false,
      "inputs": [
        {
          "indexed": false,
          "internalType": "uint256",
          "name": "previousVotingPeriod",
          "type": "uint256"
        },
        {
          "indexed": false,
          "internalType": "uint256",
          "name": "newVotingPeriod",
          "type": "uint256"
        }
      ],
      "name": "VotingPeriodUpdated",
      "type": "event"
    },
    {
      "inputs": [],
      "name": "UsulModule",
      "outputs": [
        {
          "internalType": "address",
          "name": "",
          "type": "address"
        }
      ],
      "stateMutability": "view",
      "type": "function"
    },
    {
      "inputs": [],
      "name": "VOTE_TYPEHASH",
      "outputs": [
        {
          "internalType": "bytes32",
          "name": "",
          "type": "bytes32"
        }
      ],
      "stateMutability": "view",
      "type": "function"
    },
    {
      "inputs": [
        {
          "internalType": "address",
          "name": "delegatee",
          "type": "address"
        },
        {
          "internalType": "uint256",
          "name": "proposalId",
          "type": "uint256"
        }
      ],
      "name": "calculateWeight",
      "outputs": [
        {
          "internalType": "uint256",
          "name": "",
          "type": "uint256"
        }
      ],
      "stateMutability": "view",
      "type": "function"
    },
    {
      "inputs": [
        {
          "internalType": "uint256",
          "name": "proposalId",
          "type": "uint256"
        }
      ],
      "name": "finalizeStrategy",
      "outputs": [],
      "stateMutability": "nonpayable",
      "type": "function"
    },
    {
      "inputs": [],
      "name": "governanceToken",
      "outputs": [
        {
          "internalType": "contract ERC20Votes",
          "name": "",
          "type": "address"
        }
      ],
      "stateMutability": "view",
      "type": "function"
    },
    {
      "inputs": [
        {
          "internalType": "uint256",
          "name": "proposalId",
          "type": "uint256"
        },
        {
          "internalType": "address",
          "name": "account",
          "type": "address"
        }
      ],
      "name": "hasVoted",
      "outputs": [
        {
          "internalType": "bool",
          "name": "",
          "type": "bool"
        }
      ],
      "stateMutability": "view",
      "type": "function"
    },
    {
      "inputs": [
        {
          "internalType": "uint256",
          "name": "proposalId",
          "type": "uint256"
        }
      ],
      "name": "isPassed",
      "outputs": [
        {
          "internalType": "bool",
          "name": "",
          "type": "bool"
        }
      ],
      "stateMutability": "view",
      "type": "function"
    },
    {
      "inputs": [],
      "name": "name",
      "outputs": [
        {
          "internalType": "string",
          "name": "",
          "type": "string"
        }
      ],
      "stateMutability": "view",
      "type": "function"
    },
    {
      "inputs": [],
      "name": "owner",
      "outputs": [
        {
          "internalType": "address",
          "name": "",
          "type": "address"
        }
      ],
      "stateMutability": "view",
      "type": "function"
    },
    {
      "inputs": [
        {
          "internalType": "uint256",
          "name": "",
          "type": "uint256"
        }
      ],
      "name": "proposals",
      "outputs": [
        {
          "internalType": "uint256",
          "name": "yesVotes",
          "type": "uint256"
        },
        {
          "internalType": "uint256",
          "name": "noVotes",
          "type": "uint256"
        },
        {
          "internalType": "uint256",
          "name": "abstainVotes",
          "type": "uint256"
        },
        {
          "internalType": "uint256",
          "name": "deadline",
          "type": "uint256"
        },
        {
          "internalType": "uint256",
          "name": "startBlock",
          "type": "uint256"
        }
      ],
      "stateMutability": "view",
      "type": "function"
    },
    {
      "inputs": [
        {
          "internalType": "uint256",
          "name": "blockNumber",
          "type": "uint256"
        }
      ],
      "name": "quorum",
      "outputs": [
        {
          "internalType": "uint256",
          "name": "",
          "type": "uint256"
        }
      ],
      "stateMutability": "view",
      "type": "function"
    },
    {
      "inputs": [],
      "name": "quorumDenominator",
      "outputs": [
        {
          "internalType": "uint256",
          "name": "",
          "type": "uint256"
        }
      ],
      "stateMutability": "pure",
      "type": "function"
    },
    {
      "inputs": [],
      "name": "quorumNumerator",
      "outputs": [
        {
          "internalType": "uint256",
          "name": "",
          "type": "uint256"
        }
      ],
      "stateMutability": "view",
      "type": "function"
    },
    {
      "inputs": [
        {
          "internalType": "bytes",
          "name": "data",
          "type": "bytes"
        }
      ],
      "name": "receiveProposal",
      "outputs": [],
      "stateMutability": "nonpayable",
      "type": "function"
    },
    {
      "inputs": [],
      "name": "renounceOwnership",
      "outputs": [],
      "stateMutability": "nonpayable",
      "type": "function"
    },
    {
      "inputs": [
        {
          "internalType": "bytes",
          "name": "initParams",
          "type": "bytes"
        }
      ],
      "name": "setUp",
      "outputs": [],
      "stateMutability": "nonpayable",
      "type": "function"
    },
    {
      "inputs": [
        {
          "internalType": "address",
          "name": "_Usul",
          "type": "address"
        }
      ],
      "name": "setUsul",
      "outputs": [],
      "stateMutability": "nonpayable",
      "type": "function"
    },
    {
      "inputs": [],
      "name": "timeLockPeriod",
      "outputs": [
        {
          "internalType": "uint256",
          "name": "",
          "type": "uint256"
        }
      ],
      "stateMutability": "view",
      "type": "function"
    },
    {
      "inputs": [
        {
          "internalType": "address",
          "name": "newOwner",
          "type": "address"
        }
      ],
      "name": "transferOwnership",
      "outputs": [],
      "stateMutability": "nonpayable",
      "type": "function"
    },
    {
      "inputs": [
        {
          "internalType": "uint256",
          "name": "newQuorumNumerator",
          "type": "uint256"
        }
      ],
      "name": "updateQuorumNumerator",
      "outputs": [],
      "stateMutability": "nonpayable",
      "type": "function"
    },
    {
      "inputs": [
        {
          "internalType": "uint256",
          "name": "newTimeLockPeriod",
          "type": "uint256"
        }
      ],
      "name": "updateTimeLockPeriod",
      "outputs": [],
      "stateMutability": "nonpayable",
      "type": "function"
    },
    {
      "inputs": [
        {
          "internalType": "uint256",
          "name": "newPeriod",
          "type": "uint256"
        }
      ],
      "name": "updateVotingPeriod",
      "outputs": [],
      "stateMutability": "nonpayable",
      "type": "function"
    },
    {
      "inputs": [],
      "name": "version",
      "outputs": [
        {
          "internalType": "string",
          "name": "",
          "type": "string"
        }
      ],
      "stateMutability": "view",
      "type": "function"
    },
    {
      "inputs": [
        {
          "internalType": "uint256",
          "name": "proposalId",
          "type": "uint256"
        },
        {
          "internalType": "uint8",
          "name": "support",
          "type": "uint8"
        },
        {
          "internalType": "bytes",
          "name": "",
          "type": "bytes"
        }
      ],
      "name": "vote",
      "outputs": [],
      "stateMutability": "nonpayable",
      "type": "function"
    },
    {
      "inputs": [
        {
          "internalType": "uint256",
          "name": "proposalId",
          "type": "uint256"
        },
        {
          "internalType": "uint8",
          "name": "support",
          "type": "uint8"
        },
        {
          "internalType": "bytes",
          "name": "signature",
          "type": "bytes"
        },
        {
          "internalType": "bytes",
          "name": "",
          "type": "bytes"
        }
      ],
      "name": "voteSignature",
      "outputs": [],
      "stateMutability": "nonpayable",
      "type": "function"
    },
    {
      "inputs": [],
      "name": "votingPeriod",
      "outputs": [
        {
          "internalType": "uint256",
          "name": "",
          "type": "uint256"
        }
      ],
      "stateMutability": "view",
      "type": "function"
    }
  ],
  "transactionHash": "0xac3df38590ef66a13a4abeea6bf82563d8861c772ae14f35a23e1f2418774730",
  "args": [
    "0x0000000000000000000000000000000000000001",
    "0x0000000000000000000000000000000000000001",
    "0x0000000000000000000000000000000000000001",
    2,
    0,
    0,
    ""
  ],
  "numDeployments": 1,
  "solcInputHash": "037cc860e99d3359829bd36292ed5791",
  "bytecode": "0x60806040523480156200001157600080fd5b506040516200259938038062002599833981016040819052620000349162000859565b600087878787878787604051602001620000559796959493929190620008f8565b60408051601f198184030181529190529050620000728162000080565b5050505050505050620009d3565b600054610100900460ff1615808015620000a15750600054600160ff909116105b80620000d15750620000be306200038c60201b62000dd61760201c565b158015620000d1575060005460ff166001145b6200013a5760405162461bcd60e51b815260206004820152602e60248201527f496e697469616c697a61626c653a20636f6e747261637420697320616c72656160448201526d191e481a5b9a5d1a585b1a5e995960921b60648201526084015b60405180910390fd5b6000805460ff1916600117905580156200015e576000805461ff0019166101001790555b6000806000806000806000888060200190518101906200017f919062000859565b965096509650965096509650965060018411620001eb5760405162461bcd60e51b815260206004820152602360248201527f766f74696e67506572696f64206d7573742062652067726561746572207468616044820152626e203160e81b606482015260840162000131565b6001600160a01b038616620002435760405162461bcd60e51b815260206004820181905260248201527f696e76616c696420676f7665726e616e636520746f6b656e2061646472657373604482015260640162000131565b609f80546001600160a01b0319166001600160a01b038816179055620002686200039b565b62000292816200028c6040805180820190915260018152603160f81b602082015290565b62000403565b6200029d8362000479565b620002a88762000491565b620002b584600162000969565b609a55606580546001600160a01b0319166001600160a01b038716179055620002e082600162000969565b609b558051620002f890609c906020840190620006c3565b50866001600160a01b0316856001600160a01b03167f61586574b8b0edca97136ad4cb664eec4742d53de53403d531506632e6342a3960405160405180910390a350505050505050801562000388576000805461ff0019169055604051600181527f7f26b83ff96e1f2b6a682f133852f6798a09c465da95921460cefb3847402498906020015b60405180910390a15b5050565b6001600160a01b03163b151590565b600054610100900460ff16620003f75760405162461bcd60e51b815260206004820152602b60248201526000805160206200257983398151915260448201526a6e697469616c697a696e6760a81b606482015260840162000131565b620004016200050d565b565b600054610100900460ff166200045f5760405162461bcd60e51b815260206004820152602b60248201526000805160206200257983398151915260448201526a6e697469616c697a696e6760a81b606482015260840162000131565b815160209283012081519190920120606691909155606755565b6200048362000574565b6200048e81620005d0565b50565b6200049b62000574565b6001600160a01b038116620005025760405162461bcd60e51b815260206004820152602660248201527f4f776e61626c653a206e6577206f776e657220697320746865207a65726f206160448201526564647265737360d01b606482015260840162000131565b6200048e8162000671565b600054610100900460ff16620005695760405162461bcd60e51b815260206004820152602b60248201526000805160206200257983398151915260448201526a6e697469616c697a696e6760a81b606482015260840162000131565b620004013362000671565b6033546001600160a01b03163314620004015760405162461bcd60e51b815260206004820181905260248201527f4f776e61626c653a2063616c6c6572206973206e6f7420746865206f776e6572604482015260640162000131565b6064811115620006325760405162461bcd60e51b815260206004820152602660248201527f71756f72756d4e756d657261746f72206f7665722071756f72756d44656e6f6d60448201526534b730ba37b960d11b606482015260840162000131565b609e80549082905560408051828152602081018490527f0553476bf02ef2726e8ce5ced78d63e26e602e4a2257b1f559418e24b463399791016200037f565b603380546001600160a01b038381166001600160a01b0319831681179093556040519116919082907f8be0079c531659141344cd1fd0a4f28419497f9722a3daafe3b4186f6b6457e090600090a35050565b828054620006d19062000997565b90600052602060002090601f016020900481019282620006f5576000855562000740565b82601f106200071057805160ff191683800117855562000740565b8280016001018555821562000740579182015b828111156200074057825182559160200191906001019062000723565b506200074e92915062000752565b5090565b5b808211156200074e576000815560010162000753565b6001600160a01b03811681146200048e57600080fd5b634e487b7160e01b600052604160045260246000fd5b60005b83811015620007b257818101518382015260200162000798565b83811115620007c2576000848401525b50505050565b600082601f830112620007da57600080fd5b81516001600160401b0380821115620007f757620007f76200077f565b604051601f8301601f19908116603f011681019082821181831017156200082257620008226200077f565b816040528381528660208588010111156200083c57600080fd5b6200084f84602083016020890162000795565b9695505050505050565b600080600080600080600060e0888a0312156200087557600080fd5b8751620008828162000769565b6020890151909750620008958162000769565b6040890151909650620008a88162000769565b606089015160808a015160a08b015160c08c0151939850919650945092506001600160401b03811115620008db57600080fd5b620008e98a828b01620007c8565b91505092959891949750929550565b600060018060a01b03808a16835280891660208401528088166040840152508560608301528460808301528360a083015260e060c083015282518060e08401526101006200094d828286016020880162000795565b80601f19601f8401168501019250505098975050505050505050565b60008160001904831182151516156200099257634e487b7160e01b600052601160045260246000fd5b500290565b600181811c90821680620009ac57607f821691505b602082108103620009cd57634e487b7160e01b600052602260045260246000fd5b50919050565b611b9680620009e36000396000f3fe608060405234801561001057600080fd5b506004361061018e5760003560e01c80637a3ff4d2116100de578063a8a829c111610097578063ef00ef4311610071578063ef00ef43146103d6578063f2fde38b146103e9578063f8ce560a146103fc578063f96dae0a1461040f57600080fd5b8063a8a829c11461039d578063bf1b5efd146103b0578063d69be91c146103c357600080fd5b80637a3ff4d21461033057806386522973146103435780638da5cb5b1461036a57806397c3d3341461037b578063a4f9edbf14610382578063a7713a701461039557600080fd5b8063438596321161014b578063715018a611610125578063715018a6146102e1578063747691df146102e957806378446bc11461031457806379bfb0891461031d57600080fd5b8063438596321461026457806349403183146102b157806354fd4d50146102c457600080fd5b8063013cf08b1461019357806302a251a3146101fd57806306f3f9e61461021457806306fdde03146102295780631f2c562e1461023e578063224f326314610251575b600080fd5b6101d06101a1366004611674565b609d60205260009081526040902080546001820154600283015460038401546004909401549293919290919085565b604080519586526020860194909452928401919091526060830152608082015260a0015b60405180910390f35b610206609a5481565b6040519081526020016101f4565b610227610222366004611674565b610422565b005b610231610436565b6040516101f491906116bd565b61022761024c3660046117cb565b6104c4565b61022761025f366004611849565b61054a565b6102a161027236600461189b565b6000828152609d602090815260408083206001600160a01b038516845260050190915290205460ff1692915050565b60405190151581526020016101f4565b6102a16102bf366004611674565b610636565b6040805180820190915260018152603160f81b6020820152610231565b61022761079f565b6065546102fc906001600160a01b031681565b6040516001600160a01b0390911681526020016101f4565b610206609b5481565b61022761032b366004611674565b6107b3565b61022761033e366004611674565b610866565b6102067fb780761e36898d7ec1cc0fb66fdd6a8a42e635ee643709d6b20652c68a3b29f581565b6033546001600160a01b03166102fc565b6064610206565b610227610390366004611849565b6108ac565b609e54610206565b6102276103ab3660046118cb565b610b7f565b6102276103be3660046118e8565b610bd9565b6102066103d136600461193f565b610bee565b6102276103e4366004611674565b610c8c565b6102276103f73660046118cb565b610cd2565b61020661040a366004611674565b610d48565b609f546102fc906001600160a01b031681565b61042a610de5565b61043381610e3f565b50565b609c80546104439061196b565b80601f016020809104026020016040519081016040528092919081815260200182805461046f9061196b565b80156104bc5780601f10610491576101008083540402835291602001916104bc565b820191906000526020600020905b81548152906001019060200180831161049f57829003601f168201915b505050505081565b604080517fb780761e36898d7ec1cc0fb66fdd6a8a42e635ee643709d6b20652c68a3b29f5602082015290810185905260ff8416606082015260009061052c906105269060800160405160208183030381529060405280519060200120610edd565b84610f2b565b905061054385828661053e858a610bee565b610f4f565b5050505050565b6065546001600160a01b031633146105a95760405162461bcd60e51b815260206004820152601a60248201527f6f6e6c79205573756c206d6f64756c65206d617920656e74657200000000000060448201526064015b60405180910390fd5b6000818060200190518101906105bf91906119a5565b905042609a546105cf91906119d4565b6000828152609d602052604090819020600381019290925543600490920191909155517f3aeda78f6230a590817748b94b63d690cec4d1a15d494dfc7006e0a39e77f81a9061062a9083904290918252602082015260400190565b60405180910390a15050565b6000818152609d6020526040812060018101549054116106985760405162461bcd60e51b815260206004820152601d60248201527f6d616a6f7269747920796573566f746573206e6f74207265616368656400000060448201526064016105a0565b6000828152609d60205260409020600401546106b390610d48565b6000838152609d60205260409020600281015490546106d291906119d4565b10156107375760405162461bcd60e51b815260206004820152602e60248201527f612071756f72756d20686173206e6f74206265656e207265616368656420666f60448201526d1c881d1a19481c1c9bdc1bdcd85b60921b60648201526084016105a0565b6000828152609d602052604090206003015442116107975760405162461bcd60e51b815260206004820181905260248201527f766f74696e6720706572696f6420686173206e6f74207061737365642079657460448201526064016105a0565b506001919050565b6107a7610de5565b6107b16000611181565b565b6107bc81610636565b1561082b57606554609b546040516309fac26960e31b81526004810184905260248101919091526001600160a01b0390911690634fd6134890604401600060405180830381600087803b15801561081257600080fd5b505af1158015610826573d6000803e3d6000fd5b505050505b604080518281524260208201527f54ffcee03e8b80c05e4d1c55e3dc60602d9082a899e50337b680c9c4c4d80a3a910160405180910390a150565b61086e610de5565b609b80549082905560408051828152602081018490527f2a72574d775756e698a258fc07c826b7185131fff8a96b868feacab45fb23432910161062a565b600054610100900460ff16158080156108cc5750600054600160ff909116105b806108e65750303b1580156108e6575060005460ff166001145b6109495760405162461bcd60e51b815260206004820152602e60248201527f496e697469616c697a61626c653a20636f6e747261637420697320616c72656160448201526d191e481a5b9a5d1a585b1a5e995960921b60648201526084016105a0565b6000805460ff19166001179055801561096c576000805461ff0019166101001790555b60008060008060008060008880602001905181019061098b91906119ec565b9650965096509650965096509650600184116109f55760405162461bcd60e51b815260206004820152602360248201527f766f74696e67506572696f64206d7573742062652067726561746572207468616044820152626e203160e81b60648201526084016105a0565b6001600160a01b038616610a4b5760405162461bcd60e51b815260206004820181905260248201527f696e76616c696420676f7665726e616e636520746f6b656e206164647265737360448201526064016105a0565b609f80546001600160a01b0319166001600160a01b038816179055610a6e6111d3565b610a9581610a906040805180820190915260018152603160f81b602082015290565b611202565b610a9e83610422565b610aa787610cd2565b610ab2846001611abe565b609a55606580546001600160a01b0319166001600160a01b038716179055610adb826001611abe565b609b558051610af190609c9060208401906115db565b50866001600160a01b0316856001600160a01b03167f61586574b8b0edca97136ad4cb664eec4742d53de53403d531506632e6342a3960405160405180910390a3505050505050508015610b7b576000805461ff0019169055604051600181527f7f26b83ff96e1f2b6a682f133852f6798a09c465da95921460cefb38474024989060200161062a565b5050565b610b87610de5565b606580546001600160a01b038381166001600160a01b0319831681179093556040519116919082907f20c8544544aefaefdf339d996d855f2d4040cf93548344aa7dcb03b19e160cd190600090a35050565b610be983338461053e3388610bee565b505050565b609f546000828152609d60205260408082206004908101549151630748d63560e31b815292936001600160a01b031692633a46b1a892610c44928892016001600160a01b03929092168252602082015260400190565b602060405180830381865afa158015610c61573d6000803e3d6000fd5b505050506040513d601f19601f82011682018060405250810190610c8591906119a5565b9392505050565b610c94610de5565b609a80549082905560408051828152602081018490527fffc708f072ca56e3d45ef0cb288b96cb9378f5f63e1646868bfbc9c38f4263a1910161062a565b610cda610de5565b6001600160a01b038116610d3f5760405162461bcd60e51b815260206004820152602660248201527f4f776e61626c653a206e6577206f776e657220697320746865207a65726f206160448201526564647265737360d01b60648201526084016105a0565b61043381611181565b60006064609e54609f54604051632394e7a360e21b8152600481018690526001600160a01b0390911690638e539e8c90602401602060405180830381865afa158015610d98573d6000803e3d6000fd5b505050506040513d601f19601f82011682018060405250810190610dbc91906119a5565b610dc69190611abe565b610dd09190611add565b92915050565b6001600160a01b03163b151590565b6033546001600160a01b031633146107b15760405162461bcd60e51b815260206004820181905260248201527f4f776e61626c653a2063616c6c6572206973206e6f7420746865206f776e657260448201526064016105a0565b6064811115610e9f5760405162461bcd60e51b815260206004820152602660248201527f71756f72756d4e756d657261746f72206f7665722071756f72756d44656e6f6d60448201526534b730ba37b960d11b60648201526084016105a0565b609e80549082905560408051828152602081018490527f0553476bf02ef2726e8ce5ced78d63e26e602e4a2257b1f559418e24b4633997910161062a565b6000610dd0610eea611243565b8360405161190160f01b6020820152602281018390526042810182905260009060620160405160208183030381529060405280519060200120905092915050565b6000806000610f3a85856112c3565b91509150610f4781611308565b509392505050565b6000848152609d6020526040902060030154421115610fb05760405162461bcd60e51b815260206004820152601860248201527f766f74696e6720706572696f642068617320706173736564000000000000000060448201526064016105a0565b6000848152609d602090815260408083206001600160a01b038716845260050190915290205460ff16156110265760405162461bcd60e51b815260206004820152601760248201527f766f7465722068617320616c726561647920766f74656400000000000000000060448201526064016105a0565b6000848152609d602090815260408083206001600160a01b03871684526005019091529020805460ff1916600117905560ff821661108a576000848152609d60205260408120600101805483929061107f9084906119d4565b909155506111299050565b60001960ff8316016110b4576000848152609d60205260408120805483929061107f9084906119d4565b60011960ff8316016110e1576000848152609d60205260408120600201805483929061107f9084906119d4565b60405162461bcd60e51b815260206004820152601f60248201527f696e76616c69642076616c756520666f7220656e756d20566f7465547970650060448201526064016105a0565b604080516001600160a01b03851681526020810186905260ff8416818301526060810183905290517f27eb20ecadc80d52f641a540b295d208f7c3735545d321b08e505116c60131999181900360800190a150505050565b603380546001600160a01b038381166001600160a01b0319831681179093556040519116919082907f8be0079c531659141344cd1fd0a4f28419497f9722a3daafe3b4186f6b6457e090600090a35050565b600054610100900460ff166111fa5760405162461bcd60e51b81526004016105a090611b15565b6107b16114be565b600054610100900460ff166112295760405162461bcd60e51b81526004016105a090611b15565b815160209283012081519190920120606691909155606755565b60006112be7f8b73c3c69bb8fe3d512ecc4cf759cc79239f7b179b0ffacaa9a75d522b39400f61127260665490565b6067546040805160208101859052908101839052606081018290524660808201523060a082015260009060c0016040516020818303038152906040528051906020012090509392505050565b905090565b60008082516041036112f95760208301516040840151606085015160001a6112ed878285856114ee565b94509450505050611301565b506000905060025b9250929050565b600081600481111561131c5761131c611aff565b036113245750565b600181600481111561133857611338611aff565b036113855760405162461bcd60e51b815260206004820152601860248201527f45434453413a20696e76616c6964207369676e6174757265000000000000000060448201526064016105a0565b600281600481111561139957611399611aff565b036113e65760405162461bcd60e51b815260206004820152601f60248201527f45434453413a20696e76616c6964207369676e6174757265206c656e6774680060448201526064016105a0565b60038160048111156113fa576113fa611aff565b036114525760405162461bcd60e51b815260206004820152602260248201527f45434453413a20696e76616c6964207369676e6174757265202773272076616c604482015261756560f01b60648201526084016105a0565b600481600481111561146657611466611aff565b036104335760405162461bcd60e51b815260206004820152602260248201527f45434453413a20696e76616c6964207369676e6174757265202776272076616c604482015261756560f01b60648201526084016105a0565b600054610100900460ff166114e55760405162461bcd60e51b81526004016105a090611b15565b6107b133611181565b6000807f7fffffffffffffffffffffffffffffff5d576e7357a4501ddfe92f46681b20a083111561152557506000905060036115d2565b8460ff16601b1415801561153d57508460ff16601c14155b1561154e57506000905060046115d2565b6040805160008082526020820180845289905260ff881692820192909252606081018690526080810185905260019060a0016020604051602081039080840390855afa1580156115a2573d6000803e3d6000fd5b5050604051601f1901519150506001600160a01b0381166115cb576000600192509250506115d2565b9150600090505b94509492505050565b8280546115e79061196b565b90600052602060002090601f016020900481019282611609576000855561164f565b82601f1061162257805160ff191683800117855561164f565b8280016001018555821561164f579182015b8281111561164f578251825591602001919060010190611634565b5061165b92915061165f565b5090565b5b8082111561165b5760008155600101611660565b60006020828403121561168657600080fd5b5035919050565b60005b838110156116a8578181015183820152602001611690565b838111156116b7576000848401525b50505050565b60208152600082518060208401526116dc81604085016020870161168d565b601f01601f19169190910160400192915050565b803560ff8116811461170157600080fd5b919050565b634e487b7160e01b600052604160045260246000fd5b604051601f8201601f1916810167ffffffffffffffff8111828210171561174557611745611706565b604052919050565b600067ffffffffffffffff82111561176757611767611706565b50601f01601f191660200190565b600082601f83011261178657600080fd5b81356117996117948261174d565b61171c565b8181528460208386010111156117ae57600080fd5b816020850160208301376000918101602001919091529392505050565b600080600080608085870312156117e157600080fd5b843593506117f1602086016116f0565b9250604085013567ffffffffffffffff8082111561180e57600080fd5b61181a88838901611775565b9350606087013591508082111561183057600080fd5b5061183d87828801611775565b91505092959194509250565b60006020828403121561185b57600080fd5b813567ffffffffffffffff81111561187257600080fd5b61187e84828501611775565b949350505050565b6001600160a01b038116811461043357600080fd5b600080604083850312156118ae57600080fd5b8235915060208301356118c081611886565b809150509250929050565b6000602082840312156118dd57600080fd5b8135610c8581611886565b6000806000606084860312156118fd57600080fd5b8335925061190d602085016116f0565b9150604084013567ffffffffffffffff81111561192957600080fd5b61193586828701611775565b9150509250925092565b6000806040838503121561195257600080fd5b823561195d81611886565b946020939093013593505050565b600181811c9082168061197f57607f821691505b60208210810361199f57634e487b7160e01b600052602260045260246000fd5b50919050565b6000602082840312156119b757600080fd5b5051919050565b634e487b7160e01b600052601160045260246000fd5b600082198211156119e7576119e76119be565b500190565b600080600080600080600060e0888a031215611a0757600080fd5b8751611a1281611886565b6020890151909750611a2381611886565b6040890151909650611a3481611886565b80955050606088015193506080880151925060a0880151915060c088015167ffffffffffffffff811115611a6757600080fd5b8801601f81018a13611a7857600080fd5b8051611a866117948261174d565b8181528b6020838501011115611a9b57600080fd5b611aac82602083016020860161168d565b80935050505092959891949750929550565b6000816000190483118215151615611ad857611ad86119be565b500290565b600082611afa57634e487b7160e01b600052601260045260246000fd5b500490565b634e487b7160e01b600052602160045260246000fd5b6020808252602b908201527f496e697469616c697a61626c653a20636f6e7472616374206973206e6f74206960408201526a6e697469616c697a696e6760a81b60608201526080019056fea2646970667358221220e6e87af5900f8b860504e100d3e7499fa56a7aa08a85a61f9d683a0149e8e64964736f6c634300080d0033496e697469616c697a61626c653a20636f6e7472616374206973206e6f742069",
  "devdoc": {
    "author": "Nathan Ginnever - <team@hyphal.xyz>",
    "kind": "dev",
    "methods": {
      "finalizeStrategy(uint256)": {
        "details": "Calls the proposal module to notify that a quorum has been reached.",
        "params": {
          "proposalId": "the proposal to vote for."
        }
      },
      "hasVoted(uint256,address)": {
        "details": "Returns true if an account has voted on a specific proposal.",
        "params": {
          "account": "the account to inspect.",
          "proposalId": "the proposal to inspect."
        },
        "returns": {
          "_0": "boolean."
        }
      },
      "isPassed(uint256)": {
        "details": "Determines if a proposal has succeeded.",
        "params": {
          "proposalId": "the proposal to vote for."
        },
        "returns": {
          "_0": "boolean."
        }
      },
      "owner()": {
        "details": "Returns the address of the current owner."
      },
      "receiveProposal(bytes)": {
        "details": "Called by the proposal module, this notifes the strategy of a new proposal.",
        "params": {
          "data": "any extra data to pass to the voting strategy"
        }
      },
      "renounceOwnership()": {
        "details": "Leaves the contract without owner. It will not be possible to call `onlyOwner` functions anymore. Can only be called by the current owner. NOTE: Renouncing ownership will leave the contract without an owner, thereby removing any functionality that is only available to the owner."
      },
      "setUsul(address)": {
        "details": "Sets the executor to a new account (`newExecutor`)."
      },
      "transferOwnership(address)": {
        "details": "Transfers ownership of the contract to a new account (`newOwner`). Can only be called by the current owner."
      },
      "updateTimeLockPeriod(uint256)": {
        "details": "Updates the grace period time after a proposal passed before it can execute.",
        "params": {
          "newTimeLockPeriod": "the new delay before execution."
        }
      },
      "updateVotingPeriod(uint256)": {
        "details": "Updates the time that proposals are active for voting.",
        "params": {
          "newPeriod": "the voting window."
        }
      },
      "version()": {
        "details": "ERC712 version."
      },
      "vote(uint256,uint8,bytes)": {
        "details": "Submits a vote for a proposal.",
        "params": {
          "proposalId": "the proposal to vote for.",
          "support": "against, for, or abstain."
        }
      },
      "voteSignature(uint256,uint8,bytes,bytes)": {
        "details": "Submits a vote for a proposal by ERC712 signature.",
        "params": {
          "proposalId": "the proposal to vote for.",
          "signature": "712 signed vote.",
          "support": "against, for, or abstain."
        }
      }
    },
    "title": "OpenZeppelin Linear Voting Strategy - A Usul strategy that enables compound like voting.",
    "version": 1
  },
  "userdoc": {
    "kind": "user",
    "methods": {
      "setUsul(address)": {
        "notice": "Can only be called by the current owner."
      }
    },
    "version": 1
  },
  "storageLayout": {
    "storage": [
      {
        "astId": 3006,
        "contract": "@tokenwalk/seele/contracts/votingStrategies/OZLinearVoting.sol:OZLinearVoting",
        "label": "_initialized",
        "offset": 0,
        "slot": "0",
        "type": "t_uint8"
      },
      {
        "astId": 3009,
        "contract": "@tokenwalk/seele/contracts/votingStrategies/OZLinearVoting.sol:OZLinearVoting",
        "label": "_initializing",
        "offset": 1,
        "slot": "0",
        "type": "t_bool"
      },
      {
        "astId": 5465,
        "contract": "@tokenwalk/seele/contracts/votingStrategies/OZLinearVoting.sol:OZLinearVoting",
        "label": "__gap",
        "offset": 0,
        "slot": "1",
        "type": "t_array(t_uint256)50_storage"
      },
      {
        "astId": 2800,
        "contract": "@tokenwalk/seele/contracts/votingStrategies/OZLinearVoting.sol:OZLinearVoting",
        "label": "_owner",
        "offset": 0,
        "slot": "51",
        "type": "t_address"
      },
      {
        "astId": 2920,
        "contract": "@tokenwalk/seele/contracts/votingStrategies/OZLinearVoting.sol:OZLinearVoting",
        "label": "__gap",
        "offset": 0,
        "slot": "52",
        "type": "t_array(t_uint256)49_storage"
      },
      {
        "astId": 14177,
        "contract": "@tokenwalk/seele/contracts/votingStrategies/OZLinearVoting.sol:OZLinearVoting",
        "label": "UsulModule",
        "offset": 0,
        "slot": "101",
        "type": "t_address"
      },
      {
        "astId": 6163,
        "contract": "@tokenwalk/seele/contracts/votingStrategies/OZLinearVoting.sol:OZLinearVoting",
        "label": "_HASHED_NAME",
        "offset": 0,
        "slot": "102",
        "type": "t_bytes32"
      },
      {
        "astId": 6165,
        "contract": "@tokenwalk/seele/contracts/votingStrategies/OZLinearVoting.sol:OZLinearVoting",
        "label": "_HASHED_VERSION",
        "offset": 0,
        "slot": "103",
        "type": "t_bytes32"
      },
      {
        "astId": 6303,
        "contract": "@tokenwalk/seele/contracts/votingStrategies/OZLinearVoting.sol:OZLinearVoting",
        "label": "__gap",
        "offset": 0,
        "slot": "104",
        "type": "t_array(t_uint256)50_storage"
      },
      {
        "astId": 15374,
        "contract": "@tokenwalk/seele/contracts/votingStrategies/OZLinearVoting.sol:OZLinearVoting",
        "label": "votingPeriod",
        "offset": 0,
        "slot": "154",
        "type": "t_uint256"
      },
      {
        "astId": 15376,
        "contract": "@tokenwalk/seele/contracts/votingStrategies/OZLinearVoting.sol:OZLinearVoting",
        "label": "timeLockPeriod",
        "offset": 0,
        "slot": "155",
        "type": "t_uint256"
      },
      {
        "astId": 15378,
        "contract": "@tokenwalk/seele/contracts/votingStrategies/OZLinearVoting.sol:OZLinearVoting",
        "label": "name",
        "offset": 0,
        "slot": "156",
        "type": "t_string_storage"
      },
      {
        "astId": 15383,
        "contract": "@tokenwalk/seele/contracts/votingStrategies/OZLinearVoting.sol:OZLinearVoting",
        "label": "proposals",
        "offset": 0,
        "slot": "157",
        "type": "t_mapping(t_uint256,t_struct(ProposalVoting)15372_storage)"
      },
      {
        "astId": 15269,
        "contract": "@tokenwalk/seele/contracts/votingStrategies/OZLinearVoting.sol:OZLinearVoting",
        "label": "_quorumNumerator",
        "offset": 0,
        "slot": "158",
        "type": "t_uint256"
      },
      {
        "astId": 15692,
        "contract": "@tokenwalk/seele/contracts/votingStrategies/OZLinearVoting.sol:OZLinearVoting",
        "label": "governanceToken",
        "offset": 0,
        "slot": "159",
        "type": "t_contract(ERC20Votes)10038"
      }
    ],
    "types": {
      "t_address": {
        "encoding": "inplace",
        "label": "address",
        "numberOfBytes": "20"
      },
      "t_array(t_uint256)49_storage": {
        "base": "t_uint256",
        "encoding": "inplace",
        "label": "uint256[49]",
        "numberOfBytes": "1568"
      },
      "t_array(t_uint256)50_storage": {
        "base": "t_uint256",
        "encoding": "inplace",
        "label": "uint256[50]",
        "numberOfBytes": "1600"
      },
      "t_bool": {
        "encoding": "inplace",
        "label": "bool",
        "numberOfBytes": "1"
      },
      "t_bytes32": {
        "encoding": "inplace",
        "label": "bytes32",
        "numberOfBytes": "32"
      },
      "t_contract(ERC20Votes)10038": {
        "encoding": "inplace",
        "label": "contract ERC20Votes",
        "numberOfBytes": "20"
      },
      "t_mapping(t_address,t_bool)": {
        "encoding": "mapping",
        "key": "t_address",
        "label": "mapping(address => bool)",
        "numberOfBytes": "32",
        "value": "t_bool"
      },
      "t_mapping(t_uint256,t_struct(ProposalVoting)15372_storage)": {
        "encoding": "mapping",
        "key": "t_uint256",
        "label": "mapping(uint256 => struct BaseTokenVoting.ProposalVoting)",
        "numberOfBytes": "32",
        "value": "t_struct(ProposalVoting)15372_storage"
      },
      "t_string_storage": {
        "encoding": "bytes",
        "label": "string",
        "numberOfBytes": "32"
      },
      "t_struct(ProposalVoting)15372_storage": {
        "encoding": "inplace",
        "label": "struct BaseTokenVoting.ProposalVoting",
        "members": [
          {
            "astId": 15359,
            "contract": "@tokenwalk/seele/contracts/votingStrategies/OZLinearVoting.sol:OZLinearVoting",
            "label": "yesVotes",
            "offset": 0,
            "slot": "0",
            "type": "t_uint256"
          },
          {
            "astId": 15361,
            "contract": "@tokenwalk/seele/contracts/votingStrategies/OZLinearVoting.sol:OZLinearVoting",
            "label": "noVotes",
            "offset": 0,
            "slot": "1",
            "type": "t_uint256"
          },
          {
            "astId": 15363,
            "contract": "@tokenwalk/seele/contracts/votingStrategies/OZLinearVoting.sol:OZLinearVoting",
            "label": "abstainVotes",
            "offset": 0,
            "slot": "2",
            "type": "t_uint256"
          },
          {
            "astId": 15365,
            "contract": "@tokenwalk/seele/contracts/votingStrategies/OZLinearVoting.sol:OZLinearVoting",
            "label": "deadline",
            "offset": 0,
            "slot": "3",
            "type": "t_uint256"
          },
          {
            "astId": 15367,
            "contract": "@tokenwalk/seele/contracts/votingStrategies/OZLinearVoting.sol:OZLinearVoting",
            "label": "startBlock",
            "offset": 0,
            "slot": "4",
            "type": "t_uint256"
          },
          {
            "astId": 15371,
            "contract": "@tokenwalk/seele/contracts/votingStrategies/OZLinearVoting.sol:OZLinearVoting",
            "label": "hasVoted",
            "offset": 0,
            "slot": "5",
            "type": "t_mapping(t_address,t_bool)"
          }
        ],
        "numberOfBytes": "192"
      },
      "t_uint256": {
        "encoding": "inplace",
        "label": "uint256",
        "numberOfBytes": "32"
      },
      "t_uint8": {
        "encoding": "inplace",
        "label": "uint8",
        "numberOfBytes": "1"
      }
    }
  }
}