{
  "address": "0x6a1D945db64Bb227255c7B892c5aE359e3aE5d87",
  "abi": [
    {
      "anonymous": false,
      "inputs": [
        {
          "indexed": true,
          "internalType": "address",
          "name": "creator",
          "type": "address"
        }
      ],
      "name": "FreezeProposalCreated",
      "type": "event"
    },
    {
      "anonymous": false,
      "inputs": [
        {
          "indexed": true,
          "internalType": "address",
          "name": "voter",
          "type": "address"
        },
        {
          "indexed": false,
          "internalType": "uint256",
          "name": "votesCast",
          "type": "uint256"
        }
      ],
      "name": "FreezeVoteCast",
      "type": "event"
    },
    {
      "anonymous": false,
      "inputs": [
        {
          "indexed": false,
          "internalType": "uint8",
          "name": "version",
          "type": "uint8"
        }
      ],
      "name": "Initialized",
      "type": "event"
    },
    {
      "anonymous": false,
      "inputs": [
        {
          "indexed": true,
          "internalType": "address",
          "name": "previousOwner",
          "type": "address"
        },
        {
          "indexed": true,
          "internalType": "address",
          "name": "newOwner",
          "type": "address"
        }
      ],
      "name": "OwnershipTransferred",
      "type": "event"
    },
    {
      "anonymous": false,
      "inputs": [
        {
          "indexed": true,
          "internalType": "address",
          "name": "voter",
          "type": "address"
        },
        {
          "indexed": true,
          "internalType": "bytes32",
          "name": "transactionHash",
          "type": "bytes32"
        },
        {
          "indexed": false,
          "internalType": "uint256",
          "name": "votesCast",
          "type": "uint256"
        },
        {
          "indexed": false,
          "internalType": "bool",
          "name": "freeze",
          "type": "bool"
        }
      ],
      "name": "VetoVoteCast",
      "type": "event"
    },
    {
      "inputs": [],
      "name": "castFreezeVote",
      "outputs": [],
      "stateMutability": "nonpayable",
      "type": "function"
    },
    {
      "inputs": [
        {
          "internalType": "bytes32",
          "name": "_transactionHash",
          "type": "bytes32"
        },
        {
          "internalType": "bool",
          "name": "_freeze",
          "type": "bool"
        }
      ],
      "name": "castVetoVote",
      "outputs": [],
      "stateMutability": "nonpayable",
      "type": "function"
    },
    {
      "inputs": [],
      "name": "defrost",
      "outputs": [],
      "stateMutability": "nonpayable",
      "type": "function"
    },
    {
      "inputs": [],
      "name": "freezePeriod",
      "outputs": [
        {
          "internalType": "uint256",
          "name": "",
          "type": "uint256"
        }
      ],
      "stateMutability": "view",
      "type": "function"
    },
    {
      "inputs": [],
      "name": "freezeProposalCreatedBlock",
      "outputs": [
        {
          "internalType": "uint256",
          "name": "",
          "type": "uint256"
        }
      ],
      "stateMutability": "view",
      "type": "function"
    },
    {
      "inputs": [],
      "name": "freezeProposalCreatedTime",
      "outputs": [
        {
          "internalType": "uint256",
          "name": "",
          "type": "uint256"
        }
      ],
      "stateMutability": "view",
      "type": "function"
    },
    {
      "inputs": [],
      "name": "freezeProposalPeriod",
      "outputs": [
        {
          "internalType": "uint256",
          "name": "",
          "type": "uint256"
        }
      ],
      "stateMutability": "view",
      "type": "function"
    },
    {
      "inputs": [],
      "name": "freezeProposalVoteCount",
      "outputs": [
        {
          "internalType": "uint256",
          "name": "",
          "type": "uint256"
        }
      ],
      "stateMutability": "view",
      "type": "function"
    },
    {
      "inputs": [],
      "name": "freezeVotesThreshold",
      "outputs": [
        {
          "internalType": "uint256",
          "name": "",
          "type": "uint256"
        }
      ],
      "stateMutability": "view",
      "type": "function"
    },
    {
      "inputs": [
        {
          "internalType": "bytes32",
          "name": "_transactionHash",
          "type": "bytes32"
        }
      ],
      "name": "getIsVetoed",
      "outputs": [
        {
          "internalType": "bool",
          "name": "",
          "type": "bool"
        }
      ],
      "stateMutability": "view",
      "type": "function"
    },
    {
      "inputs": [
        {
          "internalType": "address",
          "name": "to",
          "type": "address"
        },
        {
          "internalType": "uint256",
          "name": "value",
          "type": "uint256"
        },
        {
          "internalType": "bytes",
          "name": "data",
          "type": "bytes"
        },
        {
          "internalType": "enum Enum.Operation",
          "name": "operation",
          "type": "uint8"
        },
        {
          "internalType": "uint256",
          "name": "safeTxGas",
          "type": "uint256"
        },
        {
          "internalType": "uint256",
          "name": "baseGas",
          "type": "uint256"
        },
        {
          "internalType": "uint256",
          "name": "gasPrice",
          "type": "uint256"
        },
        {
          "internalType": "address",
          "name": "gasToken",
          "type": "address"
        },
        {
          "internalType": "address",
          "name": "refundReceiver",
          "type": "address"
        }
      ],
      "name": "getTransactionHash",
      "outputs": [
        {
          "internalType": "bytes32",
          "name": "",
          "type": "bytes32"
        }
      ],
      "stateMutability": "pure",
      "type": "function"
    },
    {
      "inputs": [],
      "name": "isFrozen",
      "outputs": [
        {
          "internalType": "bool",
          "name": "",
          "type": "bool"
        }
      ],
      "stateMutability": "view",
      "type": "function"
    },
    {
      "inputs": [],
      "name": "owner",
      "outputs": [
        {
          "internalType": "address",
          "name": "",
          "type": "address"
        }
      ],
      "stateMutability": "view",
      "type": "function"
    },
    {
      "inputs": [],
      "name": "renounceOwnership",
      "outputs": [],
      "stateMutability": "nonpayable",
      "type": "function"
    },
    {
      "inputs": [
        {
          "internalType": "bytes",
          "name": "initializeParams",
          "type": "bytes"
        }
      ],
      "name": "setUp",
      "outputs": [],
      "stateMutability": "nonpayable",
      "type": "function"
    },
    {
      "inputs": [
        {
          "internalType": "bytes32",
          "name": "",
          "type": "bytes32"
        }
      ],
      "name": "transactionVetoVotes",
      "outputs": [
        {
          "internalType": "uint256",
          "name": "",
          "type": "uint256"
        }
      ],
      "stateMutability": "view",
      "type": "function"
    },
    {
      "inputs": [
        {
          "internalType": "address",
          "name": "newOwner",
          "type": "address"
        }
      ],
      "name": "transferOwnership",
      "outputs": [],
      "stateMutability": "nonpayable",
      "type": "function"
    },
    {
      "inputs": [
        {
          "internalType": "uint256",
          "name": "_freezePeriod",
          "type": "uint256"
        }
      ],
      "name": "updateFreezePeriod",
      "outputs": [],
      "stateMutability": "nonpayable",
      "type": "function"
    },
    {
      "inputs": [
        {
          "internalType": "uint256",
          "name": "_freezeProposalPeriod",
          "type": "uint256"
        }
      ],
      "name": "updateFreezeProposalPeriod",
      "outputs": [],
      "stateMutability": "nonpayable",
      "type": "function"
    },
    {
      "inputs": [
        {
          "internalType": "uint256",
          "name": "_freezeVotesThreshold",
          "type": "uint256"
        }
      ],
      "name": "updateFreezeVotesThreshold",
      "outputs": [],
      "stateMutability": "nonpayable",
      "type": "function"
    },
    {
      "inputs": [
        {
          "internalType": "uint256",
          "name": "_vetoVotesThreshold",
          "type": "uint256"
        }
      ],
      "name": "updateVetoVotesThreshold",
      "outputs": [],
      "stateMutability": "nonpayable",
      "type": "function"
    },
    {
      "inputs": [
        {
          "internalType": "address",
          "name": "",
          "type": "address"
        },
        {
          "internalType": "uint256",
          "name": "",
          "type": "uint256"
        }
      ],
      "name": "userHasFreezeVoted",
      "outputs": [
        {
          "internalType": "bool",
          "name": "",
          "type": "bool"
        }
      ],
      "stateMutability": "view",
      "type": "function"
    },
    {
      "inputs": [
        {
          "internalType": "address",
          "name": "",
          "type": "address"
        },
        {
          "internalType": "bytes32",
          "name": "",
          "type": "bytes32"
        }
      ],
      "name": "userHasVoted",
      "outputs": [
        {
          "internalType": "bool",
          "name": "",
          "type": "bool"
        }
      ],
      "stateMutability": "view",
      "type": "function"
    },
    {
      "inputs": [],
      "name": "vetoGuard",
      "outputs": [
        {
          "internalType": "contract IVetoGuard",
          "name": "",
          "type": "address"
        }
      ],
      "stateMutability": "view",
      "type": "function"
    },
    {
      "inputs": [],
      "name": "vetoVotesThreshold",
      "outputs": [
        {
          "internalType": "uint256",
          "name": "",
          "type": "uint256"
        }
      ],
      "stateMutability": "view",
      "type": "function"
    },
    {
      "inputs": [],
      "name": "votesToken",
      "outputs": [
        {
          "internalType": "contract IVotes",
          "name": "",
          "type": "address"
        }
      ],
      "stateMutability": "view",
      "type": "function"
    }
  ],
  "transactionHash": "0xb0c3099938c9f5b9cd9ecb92bd9f9fd719a1596f48b8960c45529badb50a48a8",
  "args": [],
  "numDeployments": 1,
  "solcInputHash": "a57a2d081c74dca139ca8f1cfea5fa83",
  "bytecode": "0x608060405234801561001057600080fd5b506110e6806100206000396000f3fe608060405234801561001057600080fd5b506004361061018e5760003560e01c8063919d8fdf116100de578063a91e5cab11610097578063e9c17a9411610071578063e9c17a941461036e578063f21cdf6f14610377578063f2fde38b1461037f578063fb80bccc1461039257600080fd5b8063a91e5cab1461032e578063aba9dfe914610336578063e1a411521461034957600080fd5b8063919d8fdf146102d05780639bd16333146102e35780639d148f3a146102f6578063a0df297a146102ff578063a3fb489714610308578063a4f9edbf1461031b57600080fd5b806365d5d08c1161014b5780638a79cadf116101255780638a79cadf146102615780638da5cb5b1461026a5780638f920e181461028f5780638fa32ab9146102bd57600080fd5b806365d5d08c146102335780636e062eff14610246578063715018a61461025957600080fd5b806301c4f974146101935780630a3cb663146101c657806313e24e3b146101cf5780631f82bcb1146101e457806333eeb14714610222578063559a24e31461022a575b600080fd5b6101b36101a1366004610c9c565b606e6020526000908152604090205481565b6040519081526020015b60405180910390f35b6101b3606b5481565b6101e26101dd366004610c9c565b61039b565b005b6102126101f2366004610cda565b606f60209081526000928352604080842090915290825290205460ff1681565b60405190151581526020016101bd565b6102126103a8565b6101b360675481565b6101b3610241366004610da9565b6103dc565b6101e2610254366004610e5a565b61042b565b6101e26106a9565b6101b360695481565b6033546001600160a01b03165b6040516001600160a01b0390911681526020016101bd565b61021261029d366004610cda565b607060209081526000928352604080842090915290825290205460ff1681565b6101e26102cb366004610c9c565b6106bd565b6101e26102de366004610c9c565b6106ca565b606c54610277906001600160a01b031681565b6101b360685481565b6101b3606a5481565b606d54610277906001600160a01b031681565b6101e2610329366004610e8f565b6106d7565b6101e2610861565b6101e2610344366004610c9c565b610af7565b610212610357366004610c9c565b6065546000918252606e6020526040909120541190565b6101b360655481565b6101e2610b04565b6101e261038d366004610ecc565b610b1d565b6101b360665481565b6103a3610b96565b606b55565b60006066546069541180156103cb5750606b546068546103c89190610f06565b42105b156103d65750600190565b50600090565b60008989898051906020012089898989898960405160200161040699989796959493929190610f1e565b6040516020818303038152906040528051906020012090509998505050505050505050565b336000908152606f6020908152604080832085845290915290205460ff16156104945760405162461bcd60e51b8152602060048201526016602482015275155cd95c881a185cc8185b1c9958591e481d9bdd195960521b60448201526064015b60405180910390fd5b606d5460405163b59ee1db60e01b8152600481018490526000916001600160a01b03169063b59ee1db90602401602060405180830381865afa1580156104de573d6000803e3d6000fd5b505050506040513d601f19601f820116820180604052508101906105029190610f95565b9050806000036105605760405162461bcd60e51b815260206004820152602360248201527f5472616e73616374696f6e20686173206e6f7420796574206265656e207175656044820152621d595960ea1b606482015260840161048b565b606c546000906001600160a01b0316633a46b1a833610580600186610fae565b6040516001600160e01b031960e085901b1681526001600160a01b0390921660048301526024820152604401602060405180830381865afa1580156105c9573d6000803e3d6000fd5b505050506040513d601f19601f820116820180604052508101906105ed9190610f95565b90506000811161060f5760405162461bcd60e51b815260040161048b90610fc5565b6000848152606e60205260408120805483929061062d908490610f06565b9091555050821561064057610640610861565b336000818152606f60209081526040808320888452825291829020805460ff191660011790558151848152861515918101919091528692917f3ff8c993f53ae62959a2df610fd0d5cff5320cd2a5f907e1a9f785499e402d84910160405180910390a350505050565b6106b1610b96565b6106bb6000610bf0565b565b6106c5610b96565b606a55565b6106d2610b96565b606555565b600054610100900460ff16158080156106f75750600054600160ff909116105b806107115750303b158015610711575060005460ff166001145b6107745760405162461bcd60e51b815260206004820152602e60248201527f496e697469616c697a61626c653a20636f6e747261637420697320616c72656160448201526d191e481a5b9a5d1a585b1a5e995960921b606482015260840161048b565b6000805460ff191660011790558015610797576000805461ff0019166101001790555b61079f610c42565b6000806000806000806000888060200190518101906107be9190610ff0565b96509650965096509650965096506107d587610bf0565b606595909555606693909355606a91909155606b55606c80546001600160a01b039283166001600160a01b031991821617909155606d805492909316911617905550801561085d576000805461ff0019169055604051600181527f7f26b83ff96e1f2b6a682f133852f6798a09c465da95921460cefb38474024989060200160405180910390a15b5050565b6000606a546068546108739190610f06565b4211156109695743606781905542606855606c546001600160a01b031690633a46b1a89033906108a590600190610fae565b6040516001600160e01b031960e085901b1681526001600160a01b0390921660048301526024820152604401602060405180830381865afa1580156108ee573d6000803e3d6000fd5b505050506040513d601f19601f820116820180604052508101906109129190610f95565b9050600081116109345760405162461bcd60e51b815260040161048b90610fc5565b606981905560405133907fe18d0e7e892cd73f8a648a42186da382bee61a1d78ac88401885943449f78fe490600090a2610a9c565b336000908152607060209081526040808320606754845290915290205460ff16156109cf5760405162461bcd60e51b8152602060048201526016602482015275155cd95c881a185cc8185b1c9958591e481d9bdd195960521b604482015260640161048b565b606c546067546001600160a01b0390911690633a46b1a89033906109f590600190610fae565b6040516001600160e01b031960e085901b1681526001600160a01b0390921660048301526024820152604401602060405180830381865afa158015610a3e573d6000803e3d6000fd5b505050506040513d601f19601f82011682018060405250810190610a629190610f95565b905060008111610a845760405162461bcd60e51b815260040161048b90610fc5565b8060696000828254610a969190610f06565b90915550505b3360008181526070602090815260408083206067548452825291829020805460ff1916600117905590518381527f3746cafa4f96166ea7502cf76d1ea8ce440f3c8215cbcac3ae32d3ee39afae42910160405180910390a250565b610aff610b96565b606655565b610b0c610b96565b600060678190556068819055606955565b610b25610b96565b6001600160a01b038116610b8a5760405162461bcd60e51b815260206004820152602660248201527f4f776e61626c653a206e6577206f776e657220697320746865207a65726f206160448201526564647265737360d01b606482015260840161048b565b610b9381610bf0565b50565b6033546001600160a01b031633146106bb5760405162461bcd60e51b815260206004820181905260248201527f4f776e61626c653a2063616c6c6572206973206e6f7420746865206f776e6572604482015260640161048b565b603380546001600160a01b038381166001600160a01b0319831681179093556040519116919082907f8be0079c531659141344cd1fd0a4f28419497f9722a3daafe3b4186f6b6457e090600090a35050565b600054610100900460ff16610c695760405162461bcd60e51b815260040161048b90611065565b6106bb600054610100900460ff16610c935760405162461bcd60e51b815260040161048b90611065565b6106bb33610bf0565b600060208284031215610cae57600080fd5b5035919050565b6001600160a01b0381168114610b9357600080fd5b8035610cd581610cb5565b919050565b60008060408385031215610ced57600080fd5b8235610cf881610cb5565b946020939093013593505050565b634e487b7160e01b600052604160045260246000fd5b600082601f830112610d2d57600080fd5b813567ffffffffffffffff80821115610d4857610d48610d06565b604051601f8301601f19908116603f01168101908282118183101715610d7057610d70610d06565b81604052838152866020858801011115610d8957600080fd5b836020870160208301376000602085830101528094505050505092915050565b60008060008060008060008060006101208a8c031215610dc857600080fd5b8935610dd381610cb5565b985060208a0135975060408a013567ffffffffffffffff811115610df657600080fd5b610e028c828d01610d1c565b97505060608a013560028110610e1757600080fd5b955060808a0135945060a08a0135935060c08a0135925060e08a0135610e3c81610cb5565b9150610e4b6101008b01610cca565b90509295985092959850929598565b60008060408385031215610e6d57600080fd5b8235915060208301358015158114610e8457600080fd5b809150509250929050565b600060208284031215610ea157600080fd5b813567ffffffffffffffff811115610eb857600080fd5b610ec484828501610d1c565b949350505050565b600060208284031215610ede57600080fd5b8135610ee981610cb5565b9392505050565b634e487b7160e01b600052601160045260246000fd5b60008219821115610f1957610f19610ef0565b500190565b6001600160a01b038a81168252602082018a90526040820189905261012082019060028910610f5d57634e487b7160e01b600052602160045260246000fd5b8860608401528760808401528660a08401528560c084015280851660e0840152808416610100840152509a9950505050505050505050565b600060208284031215610fa757600080fd5b5051919050565b600082821015610fc057610fc0610ef0565b500390565b6020808252601190820152705573657220686173206e6f20766f74657360781b604082015260600190565b600080600080600080600060e0888a03121561100b57600080fd5b875161101681610cb5565b809750506020880151955060408801519450606088015193506080880151925060a088015161104481610cb5565b60c089015190925061105581610cb5565b8091505092959891949750929550565b6020808252602b908201527f496e697469616c697a61626c653a20636f6e7472616374206973206e6f74206960408201526a6e697469616c697a696e6760a81b60608201526080019056fea2646970667358221220c599568171bc3352b2a96906aa2260f84cedcac3c7145ee8ee119704ed6f3f0264736f6c634300080d0033",
  "devdoc": {
    "kind": "dev",
    "methods": {
      "castVetoVote(bytes32,bool)": {
        "params": {
          "_freeze": "Bool indicating whether the voter thinks the DAO should also be frozen",
          "_transactionHash": "The hash of the transaction data"
        }
      },
      "getIsVetoed(bytes32)": {
        "params": {
          "_transactionHash": "The hash of the transaction data"
        },
        "returns": {
          "_0": "bool True if the transaction is vetoed"
        }
      },
      "getTransactionHash(address,uint256,bytes,uint8,uint256,uint256,uint256,address,address)": {
        "details": "Returns the hash of all the transaction dataIt is important to note that this implementation is different than that in the Gnosis Safe contractThis implementation does not use the nonce, as this is not part of the Guard contract checkTransaction interfaceThis implementation also omits the EIP-712 related values, since these hashes are not being signed by users",
        "params": {
          "baseGas": "Gas costs for that are independent of the transaction execution(e.g. base transaction fee, signature check, payment of the refund)",
          "data": "Data payload.",
          "gasPrice": "Maximum gas price that should be used for this transaction.",
          "gasToken": "Token address (or 0 if ETH) that is used for the payment.",
          "operation": "Operation type.",
          "refundReceiver": "Address of receiver of gas payment (or 0 if tx.origin).",
          "safeTxGas": "Gas that should be used for the safe transaction.",
          "to": "Destination address.",
          "value": "Ether value."
        },
        "returns": {
          "_0": "Transaction hash bytes."
        }
      },
      "isFrozen()": {
        "returns": {
          "_0": "bool Indicates whether the DAO is currently frozen"
        }
      },
      "owner()": {
        "details": "Returns the address of the current owner."
      },
      "renounceOwnership()": {
        "details": "Leaves the contract without owner. It will not be possible to call `onlyOwner` functions anymore. Can only be called by the current owner. NOTE: Renouncing ownership will leave the contract without an owner, thereby removing any functionality that is only available to the owner."
      },
      "setUp(bytes)": {
        "params": {
          "initializeParams": "Parameters of initialization encoded"
        }
      },
      "transferOwnership(address)": {
        "details": "Transfers ownership of the contract to a new account (`newOwner`). Can only be called by the current owner."
      },
      "updateFreezePeriod(uint256)": {
        "params": {
          "_freezePeriod": "The number of seconds a freeze lasts, from time of freeze proposal creation"
        }
      },
      "updateFreezeProposalPeriod(uint256)": {
        "params": {
          "_freezeProposalPeriod": "The number of seconds a freeze proposal has to succeed"
        }
      },
      "updateFreezeVotesThreshold(uint256)": {
        "params": {
          "_freezeVotesThreshold": "Number of freeze votes required to activate a freeze"
        }
      },
      "updateVetoVotesThreshold(uint256)": {
        "params": {
          "_vetoVotesThreshold": "The number of votes required to veto a transaction"
        }
      }
    },
    "version": 1
  },
  "userdoc": {
    "kind": "user",
    "methods": {
      "castFreezeVote()": {
        "notice": "Allows user to cast a freeze vote, creating a freeze proposal if necessary"
      },
      "castVetoVote(bytes32,bool)": {
        "notice": "Allows the msg.sender to cast veto and freeze votes on the specified transaction"
      },
      "defrost()": {
        "notice": "Unfreezes the DAO, only callable by the owner"
      },
      "getIsVetoed(bytes32)": {
        "notice": "Returns whether the specified transaction has been vetoed"
      },
      "isFrozen()": {
        "notice": "Returns true if the DAO is currently frozen, false otherwise"
      },
      "setUp(bytes)": {
        "notice": "Initialize function, will be triggered when a new proxy is deployed"
      },
      "updateFreezePeriod(uint256)": {
        "notice": "Updates the freeze period, only callable by the owner"
      },
      "updateFreezeProposalPeriod(uint256)": {
        "notice": "Updates the freeze proposal period, only callable by the owner"
      },
      "updateFreezeVotesThreshold(uint256)": {
        "notice": "Updates the freeze votes threshold, only callable by the owner"
      },
      "updateVetoVotesThreshold(uint256)": {
        "notice": "Updates the veto votes threshold, only callable by the owner"
      }
    },
    "notice": "A contract for casting veto votes with an ERC20 votes token",
    "version": 1
  },
  "storageLayout": {
    "storage": [
      {
        "astId": 3006,
        "contract": "contracts/VetoERC20Voting.sol:VetoERC20Voting",
        "label": "_initialized",
        "offset": 0,
        "slot": "0",
        "type": "t_uint8"
      },
      {
        "astId": 3009,
        "contract": "contracts/VetoERC20Voting.sol:VetoERC20Voting",
        "label": "_initializing",
        "offset": 1,
        "slot": "0",
        "type": "t_bool"
      },
      {
        "astId": 5465,
        "contract": "contracts/VetoERC20Voting.sol:VetoERC20Voting",
        "label": "__gap",
        "offset": 0,
        "slot": "1",
        "type": "t_array(t_uint256)50_storage"
      },
      {
        "astId": 2800,
        "contract": "contracts/VetoERC20Voting.sol:VetoERC20Voting",
        "label": "_owner",
        "offset": 0,
        "slot": "51",
        "type": "t_address"
      },
      {
        "astId": 2920,
        "contract": "contracts/VetoERC20Voting.sol:VetoERC20Voting",
        "label": "__gap",
        "offset": 0,
        "slot": "52",
        "type": "t_array(t_uint256)49_storage"
      },
      {
        "astId": 17119,
        "contract": "contracts/VetoERC20Voting.sol:VetoERC20Voting",
        "label": "vetoVotesThreshold",
        "offset": 0,
        "slot": "101",
        "type": "t_uint256"
      },
      {
        "astId": 17121,
        "contract": "contracts/VetoERC20Voting.sol:VetoERC20Voting",
        "label": "freezeVotesThreshold",
        "offset": 0,
        "slot": "102",
        "type": "t_uint256"
      },
      {
        "astId": 17123,
        "contract": "contracts/VetoERC20Voting.sol:VetoERC20Voting",
        "label": "freezeProposalCreatedBlock",
        "offset": 0,
        "slot": "103",
        "type": "t_uint256"
      },
      {
        "astId": 17125,
        "contract": "contracts/VetoERC20Voting.sol:VetoERC20Voting",
        "label": "freezeProposalCreatedTime",
        "offset": 0,
        "slot": "104",
        "type": "t_uint256"
      },
      {
        "astId": 17127,
        "contract": "contracts/VetoERC20Voting.sol:VetoERC20Voting",
        "label": "freezeProposalVoteCount",
        "offset": 0,
        "slot": "105",
        "type": "t_uint256"
      },
      {
        "astId": 17129,
        "contract": "contracts/VetoERC20Voting.sol:VetoERC20Voting",
        "label": "freezeProposalPeriod",
        "offset": 0,
        "slot": "106",
        "type": "t_uint256"
      },
      {
        "astId": 17131,
        "contract": "contracts/VetoERC20Voting.sol:VetoERC20Voting",
        "label": "freezePeriod",
        "offset": 0,
        "slot": "107",
        "type": "t_uint256"
      },
      {
        "astId": 17134,
        "contract": "contracts/VetoERC20Voting.sol:VetoERC20Voting",
        "label": "votesToken",
        "offset": 0,
        "slot": "108",
        "type": "t_contract(IVotes)8737"
      },
      {
        "astId": 17137,
        "contract": "contracts/VetoERC20Voting.sol:VetoERC20Voting",
        "label": "vetoGuard",
        "offset": 0,
        "slot": "109",
        "type": "t_contract(IVetoGuard)18884"
      },
      {
        "astId": 17141,
        "contract": "contracts/VetoERC20Voting.sol:VetoERC20Voting",
        "label": "transactionVetoVotes",
        "offset": 0,
        "slot": "110",
        "type": "t_mapping(t_bytes32,t_uint256)"
      },
      {
        "astId": 17147,
        "contract": "contracts/VetoERC20Voting.sol:VetoERC20Voting",
        "label": "userHasVoted",
        "offset": 0,
        "slot": "111",
        "type": "t_mapping(t_address,t_mapping(t_bytes32,t_bool))"
      },
      {
        "astId": 17153,
        "contract": "contracts/VetoERC20Voting.sol:VetoERC20Voting",
        "label": "userHasFreezeVoted",
        "offset": 0,
        "slot": "112",
        "type": "t_mapping(t_address,t_mapping(t_uint256,t_bool))"
      }
    ],
    "types": {
      "t_address": {
        "encoding": "inplace",
        "label": "address",
        "numberOfBytes": "20"
      },
      "t_array(t_uint256)49_storage": {
        "base": "t_uint256",
        "encoding": "inplace",
        "label": "uint256[49]",
        "numberOfBytes": "1568"
      },
      "t_array(t_uint256)50_storage": {
        "base": "t_uint256",
        "encoding": "inplace",
        "label": "uint256[50]",
        "numberOfBytes": "1600"
      },
      "t_bool": {
        "encoding": "inplace",
        "label": "bool",
        "numberOfBytes": "1"
      },
      "t_bytes32": {
        "encoding": "inplace",
        "label": "bytes32",
        "numberOfBytes": "32"
      },
      "t_contract(IVetoGuard)18884": {
        "encoding": "inplace",
        "label": "contract IVetoGuard",
        "numberOfBytes": "20"
      },
      "t_contract(IVotes)8737": {
        "encoding": "inplace",
        "label": "contract IVotes",
        "numberOfBytes": "20"
      },
      "t_mapping(t_address,t_mapping(t_bytes32,t_bool))": {
        "encoding": "mapping",
        "key": "t_address",
        "label": "mapping(address => mapping(bytes32 => bool))",
        "numberOfBytes": "32",
        "value": "t_mapping(t_bytes32,t_bool)"
      },
      "t_mapping(t_address,t_mapping(t_uint256,t_bool))": {
        "encoding": "mapping",
        "key": "t_address",
        "label": "mapping(address => mapping(uint256 => bool))",
        "numberOfBytes": "32",
        "value": "t_mapping(t_uint256,t_bool)"
      },
      "t_mapping(t_bytes32,t_bool)": {
        "encoding": "mapping",
        "key": "t_bytes32",
        "label": "mapping(bytes32 => bool)",
        "numberOfBytes": "32",
        "value": "t_bool"
      },
      "t_mapping(t_bytes32,t_uint256)": {
        "encoding": "mapping",
        "key": "t_bytes32",
        "label": "mapping(bytes32 => uint256)",
        "numberOfBytes": "32",
        "value": "t_uint256"
      },
      "t_mapping(t_uint256,t_bool)": {
        "encoding": "mapping",
        "key": "t_uint256",
        "label": "mapping(uint256 => bool)",
        "numberOfBytes": "32",
        "value": "t_bool"
      },
      "t_uint256": {
        "encoding": "inplace",
        "label": "uint256",
        "numberOfBytes": "32"
      },
      "t_uint8": {
        "encoding": "inplace",
        "label": "uint8",
        "numberOfBytes": "1"
      }
    }
  }
}