{
  "address": "0xe146AD1289416a32B930519ea0ea63A0F6267a64",
  "abi": [
    {
      "inputs": [],
      "name": "NoVotes",
      "type": "error"
    },
    {
      "inputs": [],
      "name": "NotSupported",
      "type": "error"
    },
    {
      "inputs": [],
      "name": "UnequalArrays",
      "type": "error"
    },
    {
      "anonymous": false,
      "inputs": [
        {
          "indexed": true,
          "internalType": "address",
          "name": "owner",
          "type": "address"
        },
        {
          "indexed": true,
          "internalType": "address",
          "name": "strategy",
          "type": "address"
        }
      ],
      "name": "ERC721FreezeVotingSetUp",
      "type": "event"
    },
    {
      "anonymous": false,
      "inputs": [
        {
          "indexed": false,
          "internalType": "uint32",
          "name": "freezePeriod",
          "type": "uint32"
        }
      ],
      "name": "FreezePeriodUpdated",
      "type": "event"
    },
    {
      "anonymous": false,
      "inputs": [
        {
          "indexed": true,
          "internalType": "address",
          "name": "creator",
          "type": "address"
        }
      ],
      "name": "FreezeProposalCreated",
      "type": "event"
    },
    {
      "anonymous": false,
      "inputs": [
        {
          "indexed": false,
          "internalType": "uint32",
          "name": "freezeProposalPeriod",
          "type": "uint32"
        }
      ],
      "name": "FreezeProposalPeriodUpdated",
      "type": "event"
    },
    {
      "anonymous": false,
      "inputs": [
        {
          "indexed": true,
          "internalType": "address",
          "name": "voter",
          "type": "address"
        },
        {
          "indexed": false,
          "internalType": "uint256",
          "name": "votesCast",
          "type": "uint256"
        }
      ],
      "name": "FreezeVoteCast",
      "type": "event"
    },
    {
      "anonymous": false,
      "inputs": [
        {
          "indexed": false,
          "internalType": "uint256",
          "name": "freezeVotesThreshold",
          "type": "uint256"
        }
      ],
      "name": "FreezeVotesThresholdUpdated",
      "type": "event"
    },
    {
      "anonymous": false,
      "inputs": [
        {
          "indexed": false,
          "internalType": "uint8",
          "name": "version",
          "type": "uint8"
        }
      ],
      "name": "Initialized",
      "type": "event"
    },
    {
      "anonymous": false,
      "inputs": [
        {
          "indexed": true,
          "internalType": "address",
          "name": "previousOwner",
          "type": "address"
        },
        {
          "indexed": true,
          "internalType": "address",
          "name": "newOwner",
          "type": "address"
        }
      ],
      "name": "OwnershipTransferred",
      "type": "event"
    },
    {
      "inputs": [
        {
          "internalType": "address[]",
          "name": "_tokenAddresses",
          "type": "address[]"
        },
        {
          "internalType": "uint256[]",
          "name": "_tokenIds",
          "type": "uint256[]"
        }
      ],
      "name": "castFreezeVote",
      "outputs": [],
      "stateMutability": "nonpayable",
      "type": "function"
    },
    {
      "inputs": [],
      "name": "castFreezeVote",
      "outputs": [],
      "stateMutability": "pure",
      "type": "function"
    },
    {
      "inputs": [],
      "name": "freezePeriod",
      "outputs": [
        {
          "internalType": "uint32",
          "name": "",
          "type": "uint32"
        }
      ],
      "stateMutability": "view",
      "type": "function"
    },
    {
      "inputs": [],
      "name": "freezeProposalCreatedBlock",
      "outputs": [
        {
          "internalType": "uint32",
          "name": "",
          "type": "uint32"
        }
      ],
      "stateMutability": "view",
      "type": "function"
    },
    {
      "inputs": [],
      "name": "freezeProposalPeriod",
      "outputs": [
        {
          "internalType": "uint32",
          "name": "",
          "type": "uint32"
        }
      ],
      "stateMutability": "view",
      "type": "function"
    },
    {
      "inputs": [],
      "name": "freezeProposalVoteCount",
      "outputs": [
        {
          "internalType": "uint256",
          "name": "",
          "type": "uint256"
        }
      ],
      "stateMutability": "view",
      "type": "function"
    },
    {
      "inputs": [],
      "name": "freezeVotesThreshold",
      "outputs": [
        {
          "internalType": "uint256",
          "name": "",
          "type": "uint256"
        }
      ],
      "stateMutability": "view",
      "type": "function"
    },
    {
      "inputs": [
        {
          "internalType": "uint256",
          "name": "",
          "type": "uint256"
        },
        {
          "internalType": "address",
          "name": "",
          "type": "address"
        },
        {
          "internalType": "uint256",
          "name": "",
          "type": "uint256"
        }
      ],
      "name": "idHasFreezeVoted",
      "outputs": [
        {
          "internalType": "bool",
          "name": "",
          "type": "bool"
        }
      ],
      "stateMutability": "view",
      "type": "function"
    },
    {
      "inputs": [],
      "name": "isFrozen",
      "outputs": [
        {
          "internalType": "bool",
          "name": "",
          "type": "bool"
        }
      ],
      "stateMutability": "view",
      "type": "function"
    },
    {
      "inputs": [],
      "name": "owner",
      "outputs": [
        {
          "internalType": "address",
          "name": "",
          "type": "address"
        }
      ],
      "stateMutability": "view",
      "type": "function"
    },
    {
      "inputs": [],
      "name": "renounceOwnership",
      "outputs": [],
      "stateMutability": "nonpayable",
      "type": "function"
    },
    {
      "inputs": [
        {
          "internalType": "bytes",
          "name": "initializeParams",
          "type": "bytes"
        }
      ],
      "name": "setUp",
      "outputs": [],
      "stateMutability": "nonpayable",
      "type": "function"
    },
    {
      "inputs": [],
      "name": "strategy",
      "outputs": [
        {
          "internalType": "contract IERC721VotingStrategy",
          "name": "",
          "type": "address"
        }
      ],
      "stateMutability": "view",
      "type": "function"
    },
    {
      "inputs": [
        {
          "internalType": "address",
          "name": "newOwner",
          "type": "address"
        }
      ],
      "name": "transferOwnership",
      "outputs": [],
      "stateMutability": "nonpayable",
      "type": "function"
    },
    {
      "inputs": [],
      "name": "unfreeze",
      "outputs": [],
      "stateMutability": "nonpayable",
      "type": "function"
    },
    {
      "inputs": [
        {
          "internalType": "uint32",
          "name": "_freezePeriod",
          "type": "uint32"
        }
      ],
      "name": "updateFreezePeriod",
      "outputs": [],
      "stateMutability": "nonpayable",
      "type": "function"
    },
    {
      "inputs": [
        {
          "internalType": "uint32",
          "name": "_freezeProposalPeriod",
          "type": "uint32"
        }
      ],
      "name": "updateFreezeProposalPeriod",
      "outputs": [],
      "stateMutability": "nonpayable",
      "type": "function"
    },
    {
      "inputs": [
        {
          "internalType": "uint256",
          "name": "_freezeVotesThreshold",
          "type": "uint256"
        }
      ],
      "name": "updateFreezeVotesThreshold",
      "outputs": [],
      "stateMutability": "nonpayable",
      "type": "function"
    },
    {
      "inputs": [
        {
          "internalType": "address",
          "name": "",
          "type": "address"
        },
        {
          "internalType": "uint256",
          "name": "",
          "type": "uint256"
        }
      ],
      "name": "userHasFreezeVoted",
      "outputs": [
        {
          "internalType": "bool",
          "name": "",
          "type": "bool"
        }
      ],
      "stateMutability": "view",
      "type": "function"
    }
  ],
  "transactionHash": "0xa7b6ad66b0165fc6c09116061bd50fe950f70395b64cbd83cda6c00d4ab7cf65",
  "args": [],
  "numDeployments": 1,
  "solcInputHash": "f38f4478c70bad79f1e003d8a946fa0f",
  "bytecode": "0x608060405234801561001057600080fd5b5061001961001e565b6100de565b600054610100900460ff161561008a5760405162461bcd60e51b815260206004820152602760248201527f496e697469616c697a61626c653a20636f6e747261637420697320696e697469604482015266616c697a696e6760c81b606482015260840160405180910390fd5b60005460ff90811610156100dc576000805460ff191660ff9081179091556040519081527f7f26b83ff96e1f2b6a682f133852f6798a09c465da95921460cefb38474024989060200160405180910390a15b565b610f8a806100ed6000396000f3fe608060405234801561001057600080fd5b50600436106101215760003560e01c80639c9a385f116100ad578063a91e5cab11610071578063a91e5cab14610293578063aba9dfe91461029b578063f2fde38b146102ae578063fb80bccc146102c1578063ffd1a81a146102ca57600080fd5b80639c9a385f1461020e578063a0df297a14610242578063a4f9edbf1461025a578063a6808aef1461026d578063a8c62e761461028057600080fd5b80636a28f000116100f45780636a28f00014610194578063715018a61461019c5780638a79cadf146101a45780638da5cb5b146101bb5780638f920e18146101e057600080fd5b80630a3cb6631461012657806333eeb14714610157578063526a2bdf1461016f578063559a24e314610184575b600080fd5b60655461013d90600160401b900463ffffffff1681565b60405163ffffffff90911681526020015b60405180910390f35b61015f6102dd565b604051901515815260200161014e565b61018261017d366004610ae6565b610318565b005b60655461013d9063ffffffff1681565b61018261032c565b610182610348565b6101ad60675481565b60405190815260200161014e565b6033546001600160a01b03165b6040516001600160a01b03909116815260200161014e565b61015f6101ee366004610b1f565b606860209081526000928352604080842090915290825290205460ff1681565b61015f61021c366004610b4b565b606a60209081526000938452604080852082529284528284209052825290205460ff1681565b60655461013d90640100000000900463ffffffff1681565b610182610268366004610bca565b61035c565b61018261027b366004610cee565b61052d565b6069546101c8906001600160a01b031681565b61018261063f565b6101826102a9366004610db0565b610658565b6101826102bc366004610dc9565b610669565b6101ad60665481565b6101826102d8366004610ae6565b6106df565b600060665460675410158015610313575060655461030a9063ffffffff600160401b820481169116610dfc565b63ffffffff1643105b905090565b6103206106f0565b6103298161074a565b50565b6103346106f0565b6065805463ffffffff191690556000606755565b6103506106f0565b61035a60006107a5565b565b600054610100900460ff161580801561037c5750600054600160ff909116105b806103965750303b158015610396575060005460ff166001145b6103fe5760405162461bcd60e51b815260206004820152602e60248201527f496e697469616c697a61626c653a20636f6e747261637420697320616c72656160448201526d191e481a5b9a5d1a585b1a5e995960921b60648201526084015b60405180910390fd5b6000805460ff191660011790558015610421576000805461ff0019166101001790555b60008060008060008680602001905181019061043d9190610e20565b9450945094509450945061044f6107f7565b610458856107a5565b61046184610826565b61046a8361085b565b6104738261074a565b6065805463ffffffff60401b1916600160401b63ffffffff851602179055606980546001600160a01b0319166001600160a01b0383811691821790925560405190918716907ff6ecc682e9bed8fc2b0db90f7b87e2baf1d801568b7a7c7edd5552650ab598ad90600090a350505050508015610529576000805461ff0019169055604051600181527f7f26b83ff96e1f2b6a682f133852f6798a09c465da95921460cefb38474024989060200160405180910390a15b5050565b805182511461054f57604051632f2cde8960e21b815260040160405180910390fd5b60655461056c9063ffffffff640100000000820481169116610dfc565b63ffffffff164311156105be576065805463ffffffff19164363ffffffff161790556000606781905560405133917fe18d0e7e892cd73f8a648a42186da382bee61a1d78ac88401885943449f78fe491a25b60006105cb8383336108b1565b9050806000036105ee57604051630198e16360e41b815260040160405180910390fd5b80606760008282546106009190610e8b565b909155505060405181815233907f3746cafa4f96166ea7502cf76d1ea8ce440f3c8215cbcac3ae32d3ee39afae429060200160405180910390a2505050565b604051630280e1e560e61b815260040160405180910390fd5b6106606106f0565b61032981610826565b6106716106f0565b6001600160a01b0381166106d65760405162461bcd60e51b815260206004820152602660248201527f4f776e61626c653a206e6577206f776e657220697320746865207a65726f206160448201526564647265737360d01b60648201526084016103f5565b610329816107a5565b6106e76106f0565b6103298161085b565b6033546001600160a01b0316331461035a5760405162461bcd60e51b815260206004820181905260248201527f4f776e61626c653a2063616c6c6572206973206e6f7420746865206f776e657260448201526064016103f5565b6065805463ffffffff60401b1916600160401b63ffffffff8416908102919091179091556040519081527f5636570ff998e84ff32771b2428b549514d4c972696ed5efdba2aed546f9cc6a906020015b60405180910390a150565b603380546001600160a01b038381166001600160a01b0319831681179093556040519116919082907f8be0079c531659141344cd1fd0a4f28419497f9722a3daafe3b4186f6b6457e090600090a35050565b600054610100900460ff1661081e5760405162461bcd60e51b81526004016103f590610ea4565b61035a610aa4565b60668190556040518181527f34fd19d57e73972c099110353fb0a4035d76f918df2fd8f09ff0edb3873eef769060200161079a565b6065805467ffffffff00000000191664010000000063ffffffff8416908102919091179091556040519081527f7460615b2a82592ae60779b21813830f03d8994396a782c0e021a474568325e09060200161079a565b600080805b8551811015610a9b5760008682815181106108d3576108d3610eef565b6020026020010151905060008683815181106108f1576108f1610eef565b60200260200101519050816001600160a01b0316636352211e826040518263ffffffff1660e01b815260040161092991815260200190565b602060405180830381865afa158015610946573d6000803e3d6000fd5b505050506040513d601f19601f8201168201806040525081019061096a9190610f05565b6001600160a01b0316866001600160a01b031614610989575050610a89565b60655463ffffffff166000908152606a602090815260408083206001600160a01b0386168452825280832084845290915290205460ff16156109cc575050610a89565b60695460405163250aa68360e01b81526001600160a01b0384811660048301529091169063250aa68390602401602060405180830381865afa158015610a16573d6000803e3d6000fd5b505050506040513d601f19601f82011682018060405250810190610a3a9190610f22565b610a449085610e8b565b60655463ffffffff166000908152606a602090815260408083206001600160a01b03909616835294815284822093825292909252919020805460ff1916600117905591505b80610a9381610f3b565b9150506108b6565b50949350505050565b600054610100900460ff16610acb5760405162461bcd60e51b81526004016103f590610ea4565b61035a336107a5565b63ffffffff8116811461032957600080fd5b600060208284031215610af857600080fd5b8135610b0381610ad4565b9392505050565b6001600160a01b038116811461032957600080fd5b60008060408385031215610b3257600080fd5b8235610b3d81610b0a565b946020939093013593505050565b600080600060608486031215610b6057600080fd5b833592506020840135610b7281610b0a565b929592945050506040919091013590565b634e487b7160e01b600052604160045260246000fd5b604051601f8201601f1916810167ffffffffffffffff81118282101715610bc257610bc2610b83565b604052919050565b60006020808385031215610bdd57600080fd5b823567ffffffffffffffff80821115610bf557600080fd5b818501915085601f830112610c0957600080fd5b813581811115610c1b57610c1b610b83565b610c2d601f8201601f19168501610b99565b91508082528684828501011115610c4357600080fd5b8084840185840137600090820190930192909252509392505050565b600067ffffffffffffffff821115610c7957610c79610b83565b5060051b60200190565b600082601f830112610c9457600080fd5b81356020610ca9610ca483610c5f565b610b99565b82815260059290921b84018101918181019086841115610cc857600080fd5b8286015b84811015610ce35780358352918301918301610ccc565b509695505050505050565b60008060408385031215610d0157600080fd5b823567ffffffffffffffff80821115610d1957600080fd5b818501915085601f830112610d2d57600080fd5b81356020610d3d610ca483610c5f565b82815260059290921b84018101918181019089841115610d5c57600080fd5b948201945b83861015610d83578535610d7481610b0a565b82529482019490820190610d61565b96505086013592505080821115610d9957600080fd5b50610da685828601610c83565b9150509250929050565b600060208284031215610dc257600080fd5b5035919050565b600060208284031215610ddb57600080fd5b8135610b0381610b0a565b634e487b7160e01b600052601160045260246000fd5b63ffffffff818116838216019080821115610e1957610e19610de6565b5092915050565b600080600080600060a08688031215610e3857600080fd5b8551610e4381610b0a565b602087015160408801519196509450610e5b81610ad4565b6060870151909350610e6c81610ad4565b6080870151909250610e7d81610b0a565b809150509295509295909350565b80820180821115610e9e57610e9e610de6565b92915050565b6020808252602b908201527f496e697469616c697a61626c653a20636f6e7472616374206973206e6f74206960408201526a6e697469616c697a696e6760a81b606082015260800190565b634e487b7160e01b600052603260045260246000fd5b600060208284031215610f1757600080fd5b8151610b0381610b0a565b600060208284031215610f3457600080fd5b5051919050565b600060018201610f4d57610f4d610de6565b506001019056fea2646970667358221220e4d28b29ad6588267ef92a4164aaa8498a62159991d60268bab88553a673766264736f6c63430008130033",
  "devdoc": {
    "events": {
      "Initialized(uint8)": {
        "details": "Triggered when the contract has been initialized or reinitialized."
      }
    },
    "kind": "dev",
    "methods": {
      "isFrozen()": {
        "returns": {
          "_0": "bool whether the DAO is currently frozen"
        }
      },
      "owner()": {
        "details": "Returns the address of the current owner."
      },
      "renounceOwnership()": {
        "details": "Leaves the contract without owner. It will not be possible to call `onlyOwner` functions anymore. Can only be called by the current owner. NOTE: Renouncing ownership will leave the contract without an owner, thereby removing any functionality that is only available to the owner."
      },
      "setUp(bytes)": {
        "params": {
          "initializeParams": "encoded initialization parameters."
        }
      },
      "transferOwnership(address)": {
        "details": "Transfers ownership of the contract to a new account (`newOwner`). Can only be called by the current owner."
      },
      "updateFreezePeriod(uint32)": {
        "params": {
          "_freezePeriod": "number of blocks a freeze lasts, from time of freeze proposal creation"
        }
      },
      "updateFreezeProposalPeriod(uint32)": {
        "params": {
          "_freezeProposalPeriod": "number of blocks a freeze vote has to succeed to enact a freeze"
        }
      },
      "updateFreezeVotesThreshold(uint256)": {
        "params": {
          "_freezeVotesThreshold": "number of freeze votes required to activate a freeze"
        }
      }
    },
    "version": 1
  },
  "userdoc": {
    "kind": "user",
    "methods": {
      "castFreezeVote()": {
        "notice": "Casts a positive vote to freeze the subDAO. This function is intended to be called by the individual token holders themselves directly, and will allot their token holdings a \"yes\" votes towards freezing. Additionally, if a vote to freeze is not already running, calling this will initiate a new vote to freeze it."
      },
      "freezePeriod()": {
        "notice": "Number of blocks a freeze lasts, from time of freeze proposal creation. "
      },
      "freezeProposalCreatedBlock()": {
        "notice": "Block number the freeze proposal was created at. "
      },
      "freezeProposalPeriod()": {
        "notice": "Number of blocks a freeze proposal has to succeed. "
      },
      "freezeProposalVoteCount()": {
        "notice": "Number of accrued freeze votes. "
      },
      "freezeVotesThreshold()": {
        "notice": "Number of freeze votes required to activate a freeze. "
      },
      "idHasFreezeVoted(uint256,address,uint256)": {
        "notice": "Mapping of block the freeze vote was started on, to the token address, to token id, to whether that token has been used to vote already."
      },
      "isFrozen()": {
        "notice": "Returns true if the DAO is currently frozen, false otherwise. "
      },
      "setUp(bytes)": {
        "notice": "Initialize function, will be triggered when a new instance is deployed."
      },
      "strategy()": {
        "notice": "A reference to the voting strategy of the parent DAO. "
      },
      "unfreeze()": {
        "notice": "Unfreezes the DAO, only callable by the owner (parentDAO)."
      },
      "updateFreezePeriod(uint32)": {
        "notice": "Updates the freeze period, the time the DAO will be unable to execute transactions for, should a freeze vote pass."
      },
      "updateFreezeProposalPeriod(uint32)": {
        "notice": "Updates the freeze proposal period, the time that parent token holders have to cast votes after a freeze vote has been initiated."
      },
      "updateFreezeVotesThreshold(uint256)": {
        "notice": "Updates the freeze votes threshold, the number of votes required to enact a freeze."
      },
      "userHasFreezeVoted(address,uint256)": {
        "notice": "Mapping of address to the block the freeze vote was started to  whether the address has voted yet on the freeze proposal."
      }
    },
    "notice": "A [BaseFreezeVoting](./BaseFreezeVoting.md) implementation which handles  freezes on ERC721 based token voting DAOs.",
    "version": 1
  },
  "storageLayout": {
    "storage": [
      {
        "astId": 3006,
        "contract": "contracts/ERC721FreezeVoting.sol:ERC721FreezeVoting",
        "label": "_initialized",
        "offset": 0,
        "slot": "0",
        "type": "t_uint8"
      },
      {
        "astId": 3009,
        "contract": "contracts/ERC721FreezeVoting.sol:ERC721FreezeVoting",
        "label": "_initializing",
        "offset": 1,
        "slot": "0",
        "type": "t_bool"
      },
      {
        "astId": 5908,
        "contract": "contracts/ERC721FreezeVoting.sol:ERC721FreezeVoting",
        "label": "__gap",
        "offset": 0,
        "slot": "1",
        "type": "t_array(t_uint256)50_storage"
      },
      {
        "astId": 2800,
        "contract": "contracts/ERC721FreezeVoting.sol:ERC721FreezeVoting",
        "label": "_owner",
        "offset": 0,
        "slot": "51",
        "type": "t_address"
      },
      {
        "astId": 2920,
        "contract": "contracts/ERC721FreezeVoting.sol:ERC721FreezeVoting",
        "label": "__gap",
        "offset": 0,
        "slot": "52",
        "type": "t_array(t_uint256)49_storage"
      },
      {
        "astId": 11993,
        "contract": "contracts/ERC721FreezeVoting.sol:ERC721FreezeVoting",
        "label": "freezeProposalCreatedBlock",
        "offset": 0,
        "slot": "101",
        "type": "t_uint32"
      },
      {
        "astId": 11996,
        "contract": "contracts/ERC721FreezeVoting.sol:ERC721FreezeVoting",
        "label": "freezeProposalPeriod",
        "offset": 4,
        "slot": "101",
        "type": "t_uint32"
      },
      {
        "astId": 11999,
        "contract": "contracts/ERC721FreezeVoting.sol:ERC721FreezeVoting",
        "label": "freezePeriod",
        "offset": 8,
        "slot": "101",
        "type": "t_uint32"
      },
      {
        "astId": 12002,
        "contract": "contracts/ERC721FreezeVoting.sol:ERC721FreezeVoting",
        "label": "freezeVotesThreshold",
        "offset": 0,
        "slot": "102",
        "type": "t_uint256"
      },
      {
        "astId": 12005,
        "contract": "contracts/ERC721FreezeVoting.sol:ERC721FreezeVoting",
        "label": "freezeProposalVoteCount",
        "offset": 0,
        "slot": "103",
        "type": "t_uint256"
      },
      {
        "astId": 12012,
        "contract": "contracts/ERC721FreezeVoting.sol:ERC721FreezeVoting",
        "label": "userHasFreezeVoted",
        "offset": 0,
        "slot": "104",
        "type": "t_mapping(t_address,t_mapping(t_uint256,t_bool))"
      },
      {
        "astId": 12666,
        "contract": "contracts/ERC721FreezeVoting.sol:ERC721FreezeVoting",
        "label": "strategy",
        "offset": 0,
        "slot": "105",
        "type": "t_contract(IERC721VotingStrategy)17429"
      },
      {
        "astId": 12675,
        "contract": "contracts/ERC721FreezeVoting.sol:ERC721FreezeVoting",
        "label": "idHasFreezeVoted",
        "offset": 0,
        "slot": "106",
        "type": "t_mapping(t_uint256,t_mapping(t_address,t_mapping(t_uint256,t_bool)))"
      }
    ],
    "types": {
      "t_address": {
        "encoding": "inplace",
        "label": "address",
        "numberOfBytes": "20"
      },
      "t_array(t_uint256)49_storage": {
        "base": "t_uint256",
        "encoding": "inplace",
        "label": "uint256[49]",
        "numberOfBytes": "1568"
      },
      "t_array(t_uint256)50_storage": {
        "base": "t_uint256",
        "encoding": "inplace",
        "label": "uint256[50]",
        "numberOfBytes": "1600"
      },
      "t_bool": {
        "encoding": "inplace",
        "label": "bool",
        "numberOfBytes": "1"
      },
      "t_contract(IERC721VotingStrategy)17429": {
        "encoding": "inplace",
        "label": "contract IERC721VotingStrategy",
        "numberOfBytes": "20"
      },
      "t_mapping(t_address,t_mapping(t_uint256,t_bool))": {
        "encoding": "mapping",
        "key": "t_address",
        "label": "mapping(address => mapping(uint256 => bool))",
        "numberOfBytes": "32",
        "value": "t_mapping(t_uint256,t_bool)"
      },
      "t_mapping(t_uint256,t_bool)": {
        "encoding": "mapping",
        "key": "t_uint256",
        "label": "mapping(uint256 => bool)",
        "numberOfBytes": "32",
        "value": "t_bool"
      },
      "t_mapping(t_uint256,t_mapping(t_address,t_mapping(t_uint256,t_bool)))": {
        "encoding": "mapping",
        "key": "t_uint256",
        "label": "mapping(uint256 => mapping(address => mapping(uint256 => bool)))",
        "numberOfBytes": "32",
        "value": "t_mapping(t_address,t_mapping(t_uint256,t_bool))"
      },
      "t_uint256": {
        "encoding": "inplace",
        "label": "uint256",
        "numberOfBytes": "32"
      },
      "t_uint32": {
        "encoding": "inplace",
        "label": "uint32",
        "numberOfBytes": "4"
      },
      "t_uint8": {
        "encoding": "inplace",
        "label": "uint8",
        "numberOfBytes": "1"
      }
    }
  }
}