{
  "address": "0x6B7a8726aCD1F62c8542555222187269FC5AE88E",
  "abi": [
    {
      "inputs": [],
      "stateMutability": "nonpayable",
      "type": "constructor"
    },
    {
      "anonymous": false,
      "inputs": [
        {
          "indexed": true,
          "internalType": "address",
          "name": "owner",
          "type": "address"
        },
        {
          "indexed": true,
          "internalType": "address",
          "name": "spender",
          "type": "address"
        },
        {
          "indexed": false,
          "internalType": "uint256",
          "name": "value",
          "type": "uint256"
        }
      ],
      "name": "Approval",
      "type": "event"
    },
    {
      "anonymous": false,
      "inputs": [
        {
          "indexed": true,
          "internalType": "address",
          "name": "delegator",
          "type": "address"
        },
        {
          "indexed": true,
          "internalType": "address",
          "name": "fromDelegate",
          "type": "address"
        },
        {
          "indexed": true,
          "internalType": "address",
          "name": "toDelegate",
          "type": "address"
        }
      ],
      "name": "DelegateChanged",
      "type": "event"
    },
    {
      "anonymous": false,
      "inputs": [
        {
          "indexed": true,
          "internalType": "address",
          "name": "delegate",
          "type": "address"
        },
        {
          "indexed": false,
          "internalType": "uint256",
          "name": "previousBalance",
          "type": "uint256"
        },
        {
          "indexed": false,
          "internalType": "uint256",
          "name": "newBalance",
          "type": "uint256"
        }
      ],
      "name": "DelegateVotesChanged",
      "type": "event"
    },
    {
      "anonymous": false,
      "inputs": [
        {
          "indexed": false,
          "internalType": "uint8",
          "name": "version",
          "type": "uint8"
        }
      ],
      "name": "Initialized",
      "type": "event"
    },
    {
      "anonymous": false,
      "inputs": [
        {
          "indexed": true,
          "internalType": "address",
          "name": "previousOwner",
          "type": "address"
        },
        {
          "indexed": true,
          "internalType": "address",
          "name": "newOwner",
          "type": "address"
        }
      ],
      "name": "OwnershipTransferred",
      "type": "event"
    },
    {
      "anonymous": false,
      "inputs": [
        {
          "indexed": false,
          "internalType": "uint256",
          "name": "id",
          "type": "uint256"
        }
      ],
      "name": "Snapshot",
      "type": "event"
    },
    {
      "anonymous": false,
      "inputs": [
        {
          "indexed": true,
          "internalType": "address",
          "name": "from",
          "type": "address"
        },
        {
          "indexed": true,
          "internalType": "address",
          "name": "to",
          "type": "address"
        },
        {
          "indexed": false,
          "internalType": "uint256",
          "name": "value",
          "type": "uint256"
        }
      ],
      "name": "Transfer",
      "type": "event"
    },
    {
      "inputs": [],
      "name": "DOMAIN_SEPARATOR",
      "outputs": [
        {
          "internalType": "bytes32",
          "name": "",
          "type": "bytes32"
        }
      ],
      "stateMutability": "view",
      "type": "function"
    },
    {
      "inputs": [
        {
          "internalType": "address",
          "name": "owner",
          "type": "address"
        },
        {
          "internalType": "address",
          "name": "spender",
          "type": "address"
        }
      ],
      "name": "allowance",
      "outputs": [
        {
          "internalType": "uint256",
          "name": "",
          "type": "uint256"
        }
      ],
      "stateMutability": "view",
      "type": "function"
    },
    {
      "inputs": [
        {
          "internalType": "address",
          "name": "spender",
          "type": "address"
        },
        {
          "internalType": "uint256",
          "name": "amount",
          "type": "uint256"
        }
      ],
      "name": "approve",
      "outputs": [
        {
          "internalType": "bool",
          "name": "",
          "type": "bool"
        }
      ],
      "stateMutability": "nonpayable",
      "type": "function"
    },
    {
      "inputs": [
        {
          "internalType": "address",
          "name": "account",
          "type": "address"
        }
      ],
      "name": "balanceOf",
      "outputs": [
        {
          "internalType": "uint256",
          "name": "",
          "type": "uint256"
        }
      ],
      "stateMutability": "view",
      "type": "function"
    },
    {
      "inputs": [
        {
          "internalType": "address",
          "name": "account",
          "type": "address"
        },
        {
          "internalType": "uint256",
          "name": "snapshotId",
          "type": "uint256"
        }
      ],
      "name": "balanceOfAt",
      "outputs": [
        {
          "internalType": "uint256",
          "name": "",
          "type": "uint256"
        }
      ],
      "stateMutability": "view",
      "type": "function"
    },
    {
      "inputs": [],
      "name": "captureSnapShot",
      "outputs": [
        {
          "internalType": "uint256",
          "name": "snapId",
          "type": "uint256"
        }
      ],
      "stateMutability": "nonpayable",
      "type": "function"
    },
    {
      "inputs": [
        {
          "internalType": "address",
          "name": "account",
          "type": "address"
        },
        {
          "internalType": "uint32",
          "name": "pos",
          "type": "uint32"
        }
      ],
      "name": "checkpoints",
      "outputs": [
        {
          "components": [
            {
              "internalType": "uint32",
              "name": "fromBlock",
              "type": "uint32"
            },
            {
              "internalType": "uint224",
              "name": "votes",
              "type": "uint224"
            }
          ],
          "internalType": "struct ERC20VotesUpgradeable.Checkpoint",
          "name": "",
          "type": "tuple"
        }
      ],
      "stateMutability": "view",
      "type": "function"
    },
    {
      "inputs": [],
      "name": "decimals",
      "outputs": [
        {
          "internalType": "uint8",
          "name": "",
          "type": "uint8"
        }
      ],
      "stateMutability": "view",
      "type": "function"
    },
    {
      "inputs": [
        {
          "internalType": "address",
          "name": "spender",
          "type": "address"
        },
        {
          "internalType": "uint256",
          "name": "subtractedValue",
          "type": "uint256"
        }
      ],
      "name": "decreaseAllowance",
      "outputs": [
        {
          "internalType": "bool",
          "name": "",
          "type": "bool"
        }
      ],
      "stateMutability": "nonpayable",
      "type": "function"
    },
    {
      "inputs": [
        {
          "internalType": "address",
          "name": "delegatee",
          "type": "address"
        }
      ],
      "name": "delegate",
      "outputs": [],
      "stateMutability": "nonpayable",
      "type": "function"
    },
    {
      "inputs": [
        {
          "internalType": "address",
          "name": "delegatee",
          "type": "address"
        },
        {
          "internalType": "uint256",
          "name": "nonce",
          "type": "uint256"
        },
        {
          "internalType": "uint256",
          "name": "expiry",
          "type": "uint256"
        },
        {
          "internalType": "uint8",
          "name": "v",
          "type": "uint8"
        },
        {
          "internalType": "bytes32",
          "name": "r",
          "type": "bytes32"
        },
        {
          "internalType": "bytes32",
          "name": "s",
          "type": "bytes32"
        }
      ],
      "name": "delegateBySig",
      "outputs": [],
      "stateMutability": "nonpayable",
      "type": "function"
    },
    {
      "inputs": [
        {
          "internalType": "address",
          "name": "account",
          "type": "address"
        }
      ],
      "name": "delegates",
      "outputs": [
        {
          "internalType": "address",
          "name": "",
          "type": "address"
        }
      ],
      "stateMutability": "view",
      "type": "function"
    },
    {
      "inputs": [
        {
          "internalType": "address",
          "name": "account",
          "type": "address"
        },
        {
          "internalType": "uint256",
          "name": "amount",
          "type": "uint256"
        }
      ],
      "name": "depositFor",
      "outputs": [
        {
          "internalType": "bool",
          "name": "",
          "type": "bool"
        }
      ],
      "stateMutability": "nonpayable",
      "type": "function"
    },
    {
      "inputs": [
        {
          "internalType": "uint256",
          "name": "blockNumber",
          "type": "uint256"
        }
      ],
      "name": "getPastTotalSupply",
      "outputs": [
        {
          "internalType": "uint256",
          "name": "",
          "type": "uint256"
        }
      ],
      "stateMutability": "view",
      "type": "function"
    },
    {
      "inputs": [
        {
          "internalType": "address",
          "name": "account",
          "type": "address"
        },
        {
          "internalType": "uint256",
          "name": "blockNumber",
          "type": "uint256"
        }
      ],
      "name": "getPastVotes",
      "outputs": [
        {
          "internalType": "uint256",
          "name": "",
          "type": "uint256"
        }
      ],
      "stateMutability": "view",
      "type": "function"
    },
    {
      "inputs": [
        {
          "internalType": "address",
          "name": "account",
          "type": "address"
        }
      ],
      "name": "getVotes",
      "outputs": [
        {
          "internalType": "uint256",
          "name": "",
          "type": "uint256"
        }
      ],
      "stateMutability": "view",
      "type": "function"
    },
    {
      "inputs": [
        {
          "internalType": "address",
          "name": "spender",
          "type": "address"
        },
        {
          "internalType": "uint256",
          "name": "addedValue",
          "type": "uint256"
        }
      ],
      "name": "increaseAllowance",
      "outputs": [
        {
          "internalType": "bool",
          "name": "",
          "type": "bool"
        }
      ],
      "stateMutability": "nonpayable",
      "type": "function"
    },
    {
      "inputs": [],
      "name": "name",
      "outputs": [
        {
          "internalType": "string",
          "name": "",
          "type": "string"
        }
      ],
      "stateMutability": "view",
      "type": "function"
    },
    {
      "inputs": [
        {
          "internalType": "address",
          "name": "owner",
          "type": "address"
        }
      ],
      "name": "nonces",
      "outputs": [
        {
          "internalType": "uint256",
          "name": "",
          "type": "uint256"
        }
      ],
      "stateMutability": "view",
      "type": "function"
    },
    {
      "inputs": [
        {
          "internalType": "address",
          "name": "account",
          "type": "address"
        }
      ],
      "name": "numCheckpoints",
      "outputs": [
        {
          "internalType": "uint32",
          "name": "",
          "type": "uint32"
        }
      ],
      "stateMutability": "view",
      "type": "function"
    },
    {
      "inputs": [],
      "name": "owner",
      "outputs": [
        {
          "internalType": "address",
          "name": "",
          "type": "address"
        }
      ],
      "stateMutability": "view",
      "type": "function"
    },
    {
      "inputs": [
        {
          "internalType": "address",
          "name": "owner",
          "type": "address"
        },
        {
          "internalType": "address",
          "name": "spender",
          "type": "address"
        },
        {
          "internalType": "uint256",
          "name": "value",
          "type": "uint256"
        },
        {
          "internalType": "uint256",
          "name": "deadline",
          "type": "uint256"
        },
        {
          "internalType": "uint8",
          "name": "v",
          "type": "uint8"
        },
        {
          "internalType": "bytes32",
          "name": "r",
          "type": "bytes32"
        },
        {
          "internalType": "bytes32",
          "name": "s",
          "type": "bytes32"
        }
      ],
      "name": "permit",
      "outputs": [],
      "stateMutability": "nonpayable",
      "type": "function"
    },
    {
      "inputs": [],
      "name": "renounceOwnership",
      "outputs": [],
      "stateMutability": "nonpayable",
      "type": "function"
    },
    {
      "inputs": [
        {
          "internalType": "bytes",
          "name": "initializeParams",
          "type": "bytes"
        }
      ],
      "name": "setUp",
      "outputs": [],
      "stateMutability": "nonpayable",
      "type": "function"
    },
    {
      "inputs": [
        {
          "internalType": "bytes4",
          "name": "interfaceId",
          "type": "bytes4"
        }
      ],
      "name": "supportsInterface",
      "outputs": [
        {
          "internalType": "bool",
          "name": "",
          "type": "bool"
        }
      ],
      "stateMutability": "view",
      "type": "function"
    },
    {
      "inputs": [],
      "name": "symbol",
      "outputs": [
        {
          "internalType": "string",
          "name": "",
          "type": "string"
        }
      ],
      "stateMutability": "view",
      "type": "function"
    },
    {
      "inputs": [],
      "name": "totalSupply",
      "outputs": [
        {
          "internalType": "uint256",
          "name": "",
          "type": "uint256"
        }
      ],
      "stateMutability": "view",
      "type": "function"
    },
    {
      "inputs": [
        {
          "internalType": "uint256",
          "name": "snapshotId",
          "type": "uint256"
        }
      ],
      "name": "totalSupplyAt",
      "outputs": [
        {
          "internalType": "uint256",
          "name": "",
          "type": "uint256"
        }
      ],
      "stateMutability": "view",
      "type": "function"
    },
    {
      "inputs": [
        {
          "internalType": "address",
          "name": "to",
          "type": "address"
        },
        {
          "internalType": "uint256",
          "name": "amount",
          "type": "uint256"
        }
      ],
      "name": "transfer",
      "outputs": [
        {
          "internalType": "bool",
          "name": "",
          "type": "bool"
        }
      ],
      "stateMutability": "nonpayable",
      "type": "function"
    },
    {
      "inputs": [
        {
          "internalType": "address",
          "name": "from",
          "type": "address"
        },
        {
          "internalType": "address",
          "name": "to",
          "type": "address"
        },
        {
          "internalType": "uint256",
          "name": "amount",
          "type": "uint256"
        }
      ],
      "name": "transferFrom",
      "outputs": [
        {
          "internalType": "bool",
          "name": "",
          "type": "bool"
        }
      ],
      "stateMutability": "nonpayable",
      "type": "function"
    },
    {
      "inputs": [
        {
          "internalType": "address",
          "name": "newOwner",
          "type": "address"
        }
      ],
      "name": "transferOwnership",
      "outputs": [],
      "stateMutability": "nonpayable",
      "type": "function"
    },
    {
      "inputs": [],
      "name": "underlying",
      "outputs": [
        {
          "internalType": "contract IERC20Upgradeable",
          "name": "",
          "type": "address"
        }
      ],
      "stateMutability": "view",
      "type": "function"
    },
    {
      "inputs": [
        {
          "internalType": "address",
          "name": "account",
          "type": "address"
        },
        {
          "internalType": "uint256",
          "name": "amount",
          "type": "uint256"
        }
      ],
      "name": "withdrawTo",
      "outputs": [
        {
          "internalType": "bool",
          "name": "",
          "type": "bool"
        }
      ],
      "stateMutability": "nonpayable",
      "type": "function"
    }
  ],
  "transactionHash": "0xdc533f62ab722fa45f0784ee6fdfd7aa483edfe8119a7c629fb0244be34e9649",
  "args": [],
  "numDeployments": 1,
  "solcInputHash": "f38f4478c70bad79f1e003d8a946fa0f",
  "bytecode": "0x60806040523480156200001157600080fd5b506200001c6200002c565b620000266200002c565b620000ee565b600054610100900460ff1615620000995760405162461bcd60e51b815260206004820152602760248201527f496e697469616c697a61626c653a20636f6e747261637420697320696e697469604482015266616c697a696e6760c81b606482015260840160405180910390fd5b60005460ff9081161015620000ec576000805460ff191660ff9081179091556040519081527f7f26b83ff96e1f2b6a682f133852f6798a09c465da95921460cefb38474024989060200160405180910390a15b565b612f7d80620000fe6000396000f3fe608060405234801561001057600080fd5b50600436106101fb5760003560e01c806370a082311161011a578063a457c2d7116100ad578063d1dc72a31161007c578063d1dc72a31461046e578063d505accf14610476578063dd62ed3e14610489578063f1127ed81461049c578063f2fde38b146104d957600080fd5b8063a457c2d714610422578063a4f9edbf14610435578063a9059cbb14610448578063c3cda5201461045b57600080fd5b80638e539e8c116100e95780638e539e8c146103e157806395d89b41146103f4578063981b24d0146103fc5780639ab24eb01461040f57600080fd5b806370a082311461038b578063715018a6146103b45780637ecebe00146103bc5780638da5cb5b146103cf57600080fd5b80633644e51511610192578063587cde1e11610161578063587cde1e146102f65780635c19a95c1461033a5780636f307dc31461034f5780636fcfff451461036357600080fd5b80633644e515146102b557806339509351146102bd5780633a46b1a8146102d05780634ee2cd7e146102e357600080fd5b8063205c2878116101ce578063205c28781461026257806323b872dd146102755780632f4f21e214610288578063313ce5671461029b57600080fd5b806301ffc9a71461020057806306fdde0314610228578063095ea7b31461023d57806318160ddd14610250575b600080fd5b61021361020e36600461287d565b6104ec565b60405190151581526020015b60405180910390f35b61023061052d565b60405161021f91906128cb565b61021361024b366004612913565b6105bf565b6035545b60405190815260200161021f565b610213610270366004612913565b6105d7565b61021361028336600461293f565b610604565b610213610296366004612913565b61062a565b6102a3610650565b60405160ff909116815260200161021f565b61025461065f565b6102136102cb366004612913565b610669565b6102546102de366004612913565b61068b565b6102546102f1366004612913565b610703565b610322610304366004612980565b6001600160a01b03908116600090815260fe60205260409020541690565b6040516001600160a01b03909116815260200161021f565b61034d610348366004612980565b61075c565b005b61016354610322906001600160a01b031681565b610376610371366004612980565b610769565b60405163ffffffff909116815260200161021f565b610254610399366004612980565b6001600160a01b031660009081526033602052604090205490565b61034d61078b565b6102546103ca366004612980565b61079f565b610131546001600160a01b0316610322565b6102546103ef36600461299d565b6107bd565b61023061081a565b61025461040a36600461299d565b610829565b61025461041d366004612980565b610854565b610213610430366004612913565b6108db565b61034d610443366004612a25565b610961565b610213610456366004612913565b610bc0565b61034d610469366004612ab4565b610bce565b610254610d04565b61034d610484366004612b10565b610d0e565b610254610497366004612b81565b610e72565b6104af6104aa366004612bba565b610e9d565b60408051825163ffffffff1681526020928301516001600160e01b0316928101929092520161021f565b61034d6104e7366004612980565b610f21565b60006301ffc9a760e01b6001600160e01b03198316148061052757506001600160e01b031982166000908152610130602052604090205460ff165b92915050565b60606036805461053c90612bf1565b80601f016020809104026020016040519081016040528092919081815260200182805461056890612bf1565b80156105b55780601f1061058a576101008083540402835291602001916105b5565b820191906000526020600020905b81548152906001019060200180831161059857829003601f168201915b5050505050905090565b6000336105cd818585610f97565b5060019392505050565b60006105e333836110bb565b610163546105fb906001600160a01b031684846110c5565b50600192915050565b60003361061285828561112d565b61061d8585856111a7565b60019150505b9392505050565b61016354600090610646906001600160a01b0316333085611386565b6105fb83836113be565b600061065a6113c8565b905090565b600061065a61143e565b6000336105cd81858561067c8383610e72565b6106869190612c3b565b610f97565b60004382106106e15760405162461bcd60e51b815260206004820152601f60248201527f4552433230566f7465733a20626c6f636b206e6f7420796574206d696e65640060448201526064015b60405180910390fd5b6001600160a01b038316600090815260ff6020526040902061062390836114b9565b6001600160a01b03821660009081526065602052604081208190819061072a908590611576565b9150915081610751576001600160a01b038516600090815260336020526040902054610753565b805b95945050505050565b610766338261166c565b50565b6001600160a01b038116600090815260ff6020526040812054610527906116e6565b61079361174f565b61079d60006117aa565b565b6001600160a01b038116600090815260cb6020526040812054610527565b600043821061080e5760405162461bcd60e51b815260206004820152601f60248201527f4552433230566f7465733a20626c6f636b206e6f7420796574206d696e65640060448201526064016106d8565b610527610100836114b9565b60606037805461053c90612bf1565b6000806000610839846066611576565b915091508161084a5760355461084c565b805b949350505050565b6001600160a01b038116600090815260ff602052604081205480156108c8576001600160a01b038316600090815260ff60205260409020610896600183612c4e565b815481106108a6576108a6612c61565b60009182526020909120015464010000000090046001600160e01b03166108cb565b60005b6001600160e01b03169392505050565b600033816108e98286610e72565b9050838110156109495760405162461bcd60e51b815260206004820152602560248201527f45524332303a2064656372656173656420616c6c6f77616e63652062656c6f77604482015264207a65726f60d81b60648201526084016106d8565b6109568286868403610f97565b506001949350505050565b600054610100900460ff16158080156109815750600054600160ff909116105b8061099b5750303b15801561099b575060005460ff166001145b6109fe5760405162461bcd60e51b815260206004820152602e60248201527f496e697469616c697a61626c653a20636f6e747261637420697320616c72656160448201526d191e481a5b9a5d1a585b1a5e995960921b60648201526084016106d8565b6000805460ff191660011790558015610a21576000805461ff0019166101001790555b600082806020019051810190610a379190612c77565b905080610a43816117fd565b6000816001600160a01b03166306fdde036040518163ffffffff1660e01b8152600401600060405180830381865afa158015610a83573d6000803e3d6000fd5b505050506040513d6000823e601f3d908101601f19168201604052610aab9190810190612c94565b604051602001610abb9190612d02565b6040516020818303038152906040529050610b5a81836001600160a01b03166395d89b416040518163ffffffff1660e01b8152600401600060405180830381865afa158015610b0e573d6000803e3d6000fd5b505050506040513d6000823e601f3d908101601f19168201604052610b369190810190612c94565b604051602001610b469190612d32565b60405160208183030381529060405261182d565b610b638161185e565b610b736336372b0760e01b6118a8565b5050508015610bbc576000805461ff0019169055604051600181527f7f26b83ff96e1f2b6a682f133852f6798a09c465da95921460cefb38474024989060200160405180910390a15b5050565b6000336105cd8185856111a7565b83421115610c1e5760405162461bcd60e51b815260206004820152601d60248201527f4552433230566f7465733a207369676e6174757265206578706972656400000060448201526064016106d8565b604080517fe48329057bfd03d55e49b547132e39cffd9c1820ad7b9d4c5307691425d15adf60208201526001600160a01b038816918101919091526060810186905260808101859052600090610c9890610c909060a00160405160208183030381529060405280519060200120611928565b858585611976565b9050610ca38161199e565b8614610cf15760405162461bcd60e51b815260206004820152601960248201527f4552433230566f7465733a20696e76616c6964206e6f6e63650000000000000060448201526064016106d8565b610cfb818861166c565b50505050505050565b600061065a6119c6565b83421115610d5e5760405162461bcd60e51b815260206004820152601d60248201527f45524332305065726d69743a206578706972656420646561646c696e6500000060448201526064016106d8565b60007f6e71edae12b1b97f4d1f60370fef10105fa2faae0126114a169c64845d6126c9888888610d8d8c61199e565b6040805160208101969096526001600160a01b0394851690860152929091166060840152608083015260a082015260c0810186905260e0016040516020818303038152906040528051906020012090506000610de882611928565b90506000610df882878787611976565b9050896001600160a01b0316816001600160a01b031614610e5b5760405162461bcd60e51b815260206004820152601e60248201527f45524332305065726d69743a20696e76616c6964207369676e6174757265000060448201526064016106d8565b610e668a8a8a610f97565b50505050505050505050565b6001600160a01b03918216600090815260346020908152604080832093909416825291909152205490565b60408051808201909152600080825260208201526001600160a01b038316600090815260ff60205260409020805463ffffffff8416908110610ee157610ee1612c61565b60009182526020918290206040805180820190915291015463ffffffff8116825264010000000090046001600160e01b0316918101919091529392505050565b610f2961174f565b6001600160a01b038116610f8e5760405162461bcd60e51b815260206004820152602660248201527f4f776e61626c653a206e6577206f776e657220697320746865207a65726f206160448201526564647265737360d01b60648201526084016106d8565b610766816117aa565b6001600160a01b038316610ff95760405162461bcd60e51b8152602060048201526024808201527f45524332303a20617070726f76652066726f6d20746865207a65726f206164646044820152637265737360e01b60648201526084016106d8565b6001600160a01b03821661105a5760405162461bcd60e51b815260206004820152602260248201527f45524332303a20617070726f766520746f20746865207a65726f206164647265604482015261737360f01b60648201526084016106d8565b6001600160a01b0383811660008181526034602090815260408083209487168084529482529182902085905590518481527f8c5be1e5ebec7d5bd14f71427d1e84f3dd0314c0f7b2291e5b200ac8c7c3b925910160405180910390a3505050565b610bbc8282611a20565b6040516001600160a01b03831660248201526044810182905261112890849063a9059cbb60e01b906064015b60408051601f198184030181529190526020810180516001600160e01b03166001600160e01b031990931692909217909152611a2a565b505050565b60006111398484610e72565b905060001981146111a157818110156111945760405162461bcd60e51b815260206004820152601d60248201527f45524332303a20696e73756666696369656e7420616c6c6f77616e636500000060448201526064016106d8565b6111a18484848403610f97565b50505050565b6001600160a01b03831661120b5760405162461bcd60e51b815260206004820152602560248201527f45524332303a207472616e736665722066726f6d20746865207a65726f206164604482015264647265737360d81b60648201526084016106d8565b6001600160a01b03821661126d5760405162461bcd60e51b815260206004820152602360248201527f45524332303a207472616e7366657220746f20746865207a65726f206164647260448201526265737360e81b60648201526084016106d8565b611278838383611afc565b6001600160a01b038316600090815260336020526040902054818110156112f05760405162461bcd60e51b815260206004820152602660248201527f45524332303a207472616e7366657220616d6f756e7420657863656564732062604482015265616c616e636560d01b60648201526084016106d8565b6001600160a01b03808516600090815260336020526040808220858503905591851681529081208054849290611327908490612c3b565b92505081905550826001600160a01b0316846001600160a01b03167fddf252ad1be2c89b69c2b068fc378daa952ba7f163c4a11628f55a4df523b3ef8460405161137391815260200190565b60405180910390a36111a1848484611b07565b6040516001600160a01b03808516602483015283166044820152606481018290526111a19085906323b872dd60e01b906084016110f1565b610bbc8282611b12565b610163546040805163313ce56760e01b815290516000926001600160a01b03169163313ce5679160048083019260209291908290030181865afa92505050801561142f575060408051601f3d908101601f1916820190925261142c91810190612d5b565b60015b6114395750601290565b919050565b600061065a7f8b73c3c69bb8fe3d512ecc4cf759cc79239f7b179b0ffacaa9a75d522b39400f61146d60975490565b6098546040805160208101859052908101839052606081018290524660808201523060a082015260009060c0016040516020818303038152906040528051906020012090509392505050565b8154600090815b8181101561151d5760006114d48284611b1c565b9050848682815481106114e9576114e9612c61565b60009182526020909120015463ffffffff16111561150957809250611517565b611514816001612c3b565b91505b506114c0565b8115611561578461152f600184612c4e565b8154811061153f5761153f612c61565b60009182526020909120015464010000000090046001600160e01b0316611564565b60005b6001600160e01b031695945050505050565b600080600084116115c25760405162461bcd60e51b815260206004820152601660248201527504552433230536e617073686f743a20696420697320360541b60448201526064016106d8565b6115ca611b37565b8411156116195760405162461bcd60e51b815260206004820152601d60248201527f4552433230536e617073686f743a206e6f6e6578697374656e7420696400000060448201526064016106d8565b60006116258486611b42565b8454909150810361163d576000809250925050611665565b600184600101828154811061165457611654612c61565b906000526020600020015492509250505b9250929050565b6001600160a01b03828116600081815260fe6020818152604080842080546033845282862054949093528787166001600160a01b03198416811790915590519190951694919391928592917f3134e8a2e6d97e929a7e54011ea5485d7d196dd5f0ba4d4ef95803e8e3fc257f9190a46111a1828483611c07565b600063ffffffff82111561174b5760405162461bcd60e51b815260206004820152602660248201527f53616665436173743a2076616c756520646f65736e27742066697420696e203360448201526532206269747360d01b60648201526084016106d8565b5090565b610131546001600160a01b0316331461079d5760405162461bcd60e51b815260206004820181905260248201527f4f776e61626c653a2063616c6c6572206973206e6f7420746865206f776e657260448201526064016106d8565b61013180546001600160a01b038381166001600160a01b0319831681179093556040519116919082907f8be0079c531659141344cd1fd0a4f28419497f9722a3daafe3b4186f6b6457e090600090a35050565b600054610100900460ff166118245760405162461bcd60e51b81526004016106d890612d78565b61076681611d44565b600054610100900460ff166118545760405162461bcd60e51b81526004016106d890612d78565b610bbc8282611d8e565b600054610100900460ff166118855760405162461bcd60e51b81526004016106d890612d78565b61076681604051806040016040528060018152602001603160f81b815250611dce565b6001600160e01b031980821690036119025760405162461bcd60e51b815260206004820152601c60248201527f4552433136353a20696e76616c696420696e746572666163652069640000000060448201526064016106d8565b6001600160e01b031916600090815261013060205260409020805460ff19166001179055565b600061052761193561143e565b8360405161190160f01b6020820152602281018390526042810182905260009060620160405160208183030381529060405280519060200120905092915050565b600080600061198787878787611e0f565b9150915061199481611efc565b5095945050505050565b6001600160a01b038116600090815260cb602052604090208054600181018255905b50919050565b60006119d6606880546001019055565b60006119e0611b37565b90507f8030e83b04d87bef53480e26263266d6ca66863aa8506aca6f2559d18aa1cb6781604051611a1391815260200190565b60405180910390a1919050565b610bbc82826120b2565b6000611a7f826040518060400160405280602081526020017f5361666545524332303a206c6f772d6c6576656c2063616c6c206661696c6564815250856001600160a01b03166120cb9092919063ffffffff16565b8051909150156111285780806020019051810190611a9d9190612dc3565b6111285760405162461bcd60e51b815260206004820152602a60248201527f5361666545524332303a204552433230206f7065726174696f6e20646964206e6044820152691bdd081cdd58d8d9595960b21b60648201526084016106d8565b6111288383836120da565b6111288383836120e5565b610bbc82826120f0565b6000611b2b6002848418612de5565b61062390848416612c3b565b600061065a60685490565b81546000908103611b5557506000610527565b82546000905b80821015611bb1576000611b6f8383611b1c565b905084868281548110611b8457611b84612c61565b90600052602060002001541115611b9d57809150611bab565b611ba8816001612c3b565b92505b50611b5b565b600082118015611be657508385611bc9600185612c4e565b81548110611bd957611bd9612c61565b9060005260206000200154145b15611bff57611bf6600183612c4e565b92505050610527565b509050610527565b816001600160a01b0316836001600160a01b031614158015611c295750600081115b15611128576001600160a01b03831615611cb7576001600160a01b038316600090815260ff602052604081208190611c649061217b85612187565b91509150846001600160a01b03167fdec2bacdd2f05b59de34da9b523dff8be42e5e38e818c82fdb0bae774387a7248383604051611cac929190918252602082015260400190565b60405180910390a250505b6001600160a01b03821615611128576001600160a01b038216600090815260ff602052604081208190611ced9061230085612187565b91509150836001600160a01b03167fdec2bacdd2f05b59de34da9b523dff8be42e5e38e818c82fdb0bae774387a7248383604051611d35929190918252602082015260400190565b60405180910390a25050505050565b600054610100900460ff16611d6b5760405162461bcd60e51b81526004016106d890612d78565b61016380546001600160a01b0319166001600160a01b0392909216919091179055565b600054610100900460ff16611db55760405162461bcd60e51b81526004016106d890612d78565b6036611dc18382612e55565b5060376111288282612e55565b600054610100900460ff16611df55760405162461bcd60e51b81526004016106d890612d78565b815160209283012081519190920120609791909155609855565b6000807f7fffffffffffffffffffffffffffffff5d576e7357a4501ddfe92f46681b20a0831115611e465750600090506003611ef3565b8460ff16601b14158015611e5e57508460ff16601c14155b15611e6f5750600090506004611ef3565b6040805160008082526020820180845289905260ff881692820192909252606081018690526080810185905260019060a0016020604051602081039080840390855afa158015611ec3573d6000803e3d6000fd5b5050604051601f1901519150506001600160a01b038116611eec57600060019250925050611ef3565b9150600090505b94509492505050565b6000816004811115611f1057611f10612f15565b03611f185750565b6001816004811115611f2c57611f2c612f15565b03611f795760405162461bcd60e51b815260206004820152601860248201527f45434453413a20696e76616c6964207369676e6174757265000000000000000060448201526064016106d8565b6002816004811115611f8d57611f8d612f15565b03611fda5760405162461bcd60e51b815260206004820152601f60248201527f45434453413a20696e76616c6964207369676e6174757265206c656e6774680060448201526064016106d8565b6003816004811115611fee57611fee612f15565b036120465760405162461bcd60e51b815260206004820152602260248201527f45434453413a20696e76616c6964207369676e6174757265202773272076616c604482015261756560f01b60648201526084016106d8565b600481600481111561205a5761205a612f15565b036107665760405162461bcd60e51b815260206004820152602260248201527f45434453413a20696e76616c6964207369676e6174757265202776272076616c604482015261756560f01b60648201526084016106d8565b6120bc828261230c565b6111a161010061217b83612187565b606061084c848460008561246d565b61112883838361259e565b6111288383836125e6565b6120fa8282612618565b6035546001600160e01b03101561216c5760405162461bcd60e51b815260206004820152603060248201527f4552433230566f7465733a20746f74616c20737570706c79207269736b73206f60448201526f766572666c6f77696e6720766f74657360801b60648201526084016106d8565b6111a161010061230083612187565b60006106238284612c4e565b8254600090819080156121d257856121a0600183612c4e565b815481106121b0576121b0612c61565b60009182526020909120015464010000000090046001600160e01b03166121d5565b60005b6001600160e01b031692506121ee83858763ffffffff16565b915060008111801561222c57504386612208600184612c4e565b8154811061221857612218612c61565b60009182526020909120015463ffffffff16145b1561228c5761223a8261270b565b86612246600184612c4e565b8154811061225657612256612c61565b9060005260206000200160000160046101000a8154816001600160e01b0302191690836001600160e01b031602179055506122f7565b8560405180604001604052806122a1436116e6565b63ffffffff1681526020016122b58561270b565b6001600160e01b0390811690915282546001810184556000938452602093849020835194909301519091166401000000000263ffffffff909316929092179101555b50935093915050565b60006106238284612c3b565b6001600160a01b03821661236c5760405162461bcd60e51b815260206004820152602160248201527f45524332303a206275726e2066726f6d20746865207a65726f206164647265736044820152607360f81b60648201526084016106d8565b61237882600083611afc565b6001600160a01b038216600090815260336020526040902054818110156123ec5760405162461bcd60e51b815260206004820152602260248201527f45524332303a206275726e20616d6f756e7420657863656564732062616c616e604482015261636560f01b60648201526084016106d8565b6001600160a01b038316600090815260336020526040812083830390556035805484929061241b908490612c4e565b90915550506040518281526000906001600160a01b038516907fddf252ad1be2c89b69c2b068fc378daa952ba7f163c4a11628f55a4df523b3ef9060200160405180910390a361112883600084611b07565b6060824710156124ce5760405162461bcd60e51b815260206004820152602660248201527f416464726573733a20696e73756666696369656e742062616c616e636520666f6044820152651c8818d85b1b60d21b60648201526084016106d8565b6001600160a01b0385163b6125255760405162461bcd60e51b815260206004820152601d60248201527f416464726573733a2063616c6c20746f206e6f6e2d636f6e747261637400000060448201526064016106d8565b600080866001600160a01b031685876040516125419190612f2b565b60006040518083038185875af1925050503d806000811461257e576040519150601f19603f3d011682016040523d82523d6000602084013e612583565b606091505b5091509150612593828286612774565b979650505050505050565b6001600160a01b0383166125bd576125b5826127ad565b6111286127e0565b6001600160a01b0382166125d4576125b5836127ad565b6125dd836127ad565b611128826127ad565b6001600160a01b03838116600090815260fe602052604080822054858416835291205461112892918216911683611c07565b6001600160a01b03821661266e5760405162461bcd60e51b815260206004820152601f60248201527f45524332303a206d696e7420746f20746865207a65726f20616464726573730060448201526064016106d8565b61267a60008383611afc565b806035600082825461268c9190612c3b565b90915550506001600160a01b038216600090815260336020526040812080548392906126b9908490612c3b565b90915550506040518181526001600160a01b038316906000907fddf252ad1be2c89b69c2b068fc378daa952ba7f163c4a11628f55a4df523b3ef9060200160405180910390a3610bbc60008383611b07565b60006001600160e01b0382111561174b5760405162461bcd60e51b815260206004820152602760248201527f53616665436173743a2076616c756520646f65736e27742066697420696e20326044820152663234206269747360c81b60648201526084016106d8565b60608315612783575081610623565b8251156127935782518084602001fd5b8160405162461bcd60e51b81526004016106d891906128cb565b6001600160a01b038116600090815260656020908152604080832060339092529091205461076691906127ee565b6127ee565b61079d60666127db60355490565b60006127f8611b37565b90508061280484612838565b1015611128578254600180820185556000858152602080822090930193909355938401805494850181558252902090910155565b8054600090810361284b57506000919050565b8154829061285b90600190612c4e565b8154811061286b5761286b612c61565b90600052602060002001549050919050565b60006020828403121561288f57600080fd5b81356001600160e01b03198116811461062357600080fd5b60005b838110156128c25781810151838201526020016128aa565b50506000910152565b60208152600082518060208401526128ea8160408501602087016128a7565b601f01601f19169190910160400192915050565b6001600160a01b038116811461076657600080fd5b6000806040838503121561292657600080fd5b8235612931816128fe565b946020939093013593505050565b60008060006060848603121561295457600080fd5b833561295f816128fe565b9250602084013561296f816128fe565b929592945050506040919091013590565b60006020828403121561299257600080fd5b8135610623816128fe565b6000602082840312156129af57600080fd5b5035919050565b634e487b7160e01b600052604160045260246000fd5b604051601f8201601f1916810167ffffffffffffffff811182821017156129f5576129f56129b6565b604052919050565b600067ffffffffffffffff821115612a1757612a176129b6565b50601f01601f191660200190565b600060208284031215612a3757600080fd5b813567ffffffffffffffff811115612a4e57600080fd5b8201601f81018413612a5f57600080fd5b8035612a72612a6d826129fd565b6129cc565b818152856020838501011115612a8757600080fd5b81602084016020830137600091810160200191909152949350505050565b60ff8116811461076657600080fd5b60008060008060008060c08789031215612acd57600080fd5b8635612ad8816128fe565b955060208701359450604087013593506060870135612af681612aa5565b9598949750929560808101359460a0909101359350915050565b600080600080600080600060e0888a031215612b2b57600080fd5b8735612b36816128fe565b96506020880135612b46816128fe565b955060408801359450606088013593506080880135612b6481612aa5565b9699959850939692959460a0840135945060c09093013592915050565b60008060408385031215612b9457600080fd5b8235612b9f816128fe565b91506020830135612baf816128fe565b809150509250929050565b60008060408385031215612bcd57600080fd5b8235612bd8816128fe565b9150602083013563ffffffff81168114612baf57600080fd5b600181811c90821680612c0557607f821691505b6020821081036119c057634e487b7160e01b600052602260045260246000fd5b634e487b7160e01b600052601160045260246000fd5b8082018082111561052757610527612c25565b8181038181111561052757610527612c25565b634e487b7160e01b600052603260045260246000fd5b600060208284031215612c8957600080fd5b8151610623816128fe565b600060208284031215612ca657600080fd5b815167ffffffffffffffff811115612cbd57600080fd5b8201601f81018413612cce57600080fd5b8051612cdc612a6d826129fd565b818152856020838501011115612cf157600080fd5b6107538260208301602086016128a7565b6702bb930b83832b2160c51b815260008251612d258160088501602087016128a7565b9190910160080192915050565b605760f81b815260008251612d4e8160018501602087016128a7565b9190910160010192915050565b600060208284031215612d6d57600080fd5b815161062381612aa5565b6020808252602b908201527f496e697469616c697a61626c653a20636f6e7472616374206973206e6f74206960408201526a6e697469616c697a696e6760a81b606082015260800190565b600060208284031215612dd557600080fd5b8151801515811461062357600080fd5b600082612e0257634e487b7160e01b600052601260045260246000fd5b500490565b601f82111561112857600081815260208120601f850160051c81016020861015612e2e5750805b601f850160051c820191505b81811015612e4d57828155600101612e3a565b505050505050565b815167ffffffffffffffff811115612e6f57612e6f6129b6565b612e8381612e7d8454612bf1565b84612e07565b602080601f831160018114612eb85760008415612ea05750858301515b600019600386901b1c1916600185901b178555612e4d565b600085815260208120601f198616915b82811015612ee757888601518255948401946001909101908401612ec8565b5085821015612f055787850151600019600388901b60f8161c191681555b5050505050600190811b01905550565b634e487b7160e01b600052602160045260246000fd5b60008251612f3d8184602087016128a7565b919091019291505056fea2646970667358221220d9f78d06341977d998c7c8d540fb393c803494d356f56c9222bb39905b46d77f64736f6c63430008130033",
  "devdoc": {
    "events": {
      "Approval(address,address,uint256)": {
        "details": "Emitted when the allowance of a `spender` for an `owner` is set by a call to {approve}. `value` is the new allowance."
      },
      "DelegateChanged(address,address,address)": {
        "details": "Emitted when an account changes their delegate."
      },
      "DelegateVotesChanged(address,uint256,uint256)": {
        "details": "Emitted when a token transfer or delegate change results in changes to a delegate's number of votes."
      },
      "Initialized(uint8)": {
        "details": "Triggered when the contract has been initialized or reinitialized."
      },
      "Snapshot(uint256)": {
        "details": "Emitted by {_snapshot} when a snapshot identified by `id` is created."
      },
      "Transfer(address,address,uint256)": {
        "details": "Emitted when `value` tokens are moved from one account (`from`) to another (`to`). Note that `value` may be zero."
      }
    },
    "kind": "dev",
    "methods": {
      "DOMAIN_SEPARATOR()": {
        "details": "See {IERC20Permit-DOMAIN_SEPARATOR}."
      },
      "allowance(address,address)": {
        "details": "See {IERC20-allowance}."
      },
      "approve(address,uint256)": {
        "details": "See {IERC20-approve}. NOTE: If `amount` is the maximum `uint256`, the allowance is not updated on `transferFrom`. This is semantically equivalent to an infinite approval. Requirements: - `spender` cannot be the zero address."
      },
      "balanceOf(address)": {
        "details": "See {IERC20-balanceOf}."
      },
      "balanceOfAt(address,uint256)": {
        "details": "Retrieves the balance of `account` at the time `snapshotId` was created."
      },
      "checkpoints(address,uint32)": {
        "details": "Get the `pos`-th checkpoint for `account`."
      },
      "decreaseAllowance(address,uint256)": {
        "details": "Atomically decreases the allowance granted to `spender` by the caller. This is an alternative to {approve} that can be used as a mitigation for problems described in {IERC20-approve}. Emits an {Approval} event indicating the updated allowance. Requirements: - `spender` cannot be the zero address. - `spender` must have allowance for the caller of at least `subtractedValue`."
      },
      "delegate(address)": {
        "details": "Delegate votes from the sender to `delegatee`."
      },
      "delegateBySig(address,uint256,uint256,uint8,bytes32,bytes32)": {
        "details": "Delegates votes from signer to `delegatee`"
      },
      "delegates(address)": {
        "details": "Get the address `account` is currently delegating to."
      },
      "depositFor(address,uint256)": {
        "details": "Allow a user to deposit underlying tokens and mint the corresponding number of wrapped tokens."
      },
      "getPastTotalSupply(uint256)": {
        "details": "Retrieve the `totalSupply` at the end of `blockNumber`. Note, this value is the sum of all balances. It is but NOT the sum of all the delegated votes! Requirements: - `blockNumber` must have been already mined"
      },
      "getPastVotes(address,uint256)": {
        "details": "Retrieve the number of votes for `account` at the end of `blockNumber`. Requirements: - `blockNumber` must have been already mined"
      },
      "getVotes(address)": {
        "details": "Gets the current votes balance for `account`"
      },
      "increaseAllowance(address,uint256)": {
        "details": "Atomically increases the allowance granted to `spender` by the caller. This is an alternative to {approve} that can be used as a mitigation for problems described in {IERC20-approve}. Emits an {Approval} event indicating the updated allowance. Requirements: - `spender` cannot be the zero address."
      },
      "name()": {
        "details": "Returns the name of the token."
      },
      "nonces(address)": {
        "details": "See {IERC20Permit-nonces}."
      },
      "numCheckpoints(address)": {
        "details": "Get number of checkpoints for `account`."
      },
      "owner()": {
        "details": "Returns the address of the current owner."
      },
      "permit(address,address,uint256,uint256,uint8,bytes32,bytes32)": {
        "details": "See {IERC20Permit-permit}."
      },
      "renounceOwnership()": {
        "details": "Leaves the contract without owner. It will not be possible to call `onlyOwner` functions anymore. Can only be called by the current owner. NOTE: Renouncing ownership will leave the contract without an owner, thereby removing any functionality that is only available to the owner."
      },
      "setUp(bytes)": {
        "params": {
          "initializeParams": "encoded initialization parameters: `address _underlyingTokenAddress`"
        }
      },
      "supportsInterface(bytes4)": {
        "details": "See {IERC165-supportsInterface}."
      },
      "symbol()": {
        "details": "Returns the symbol of the token, usually a shorter version of the name."
      },
      "totalSupply()": {
        "details": "See {IERC20-totalSupply}."
      },
      "totalSupplyAt(uint256)": {
        "details": "Retrieves the total supply at the time `snapshotId` was created."
      },
      "transfer(address,uint256)": {
        "details": "See {IERC20-transfer}. Requirements: - `to` cannot be the zero address. - the caller must have a balance of at least `amount`."
      },
      "transferFrom(address,address,uint256)": {
        "details": "See {IERC20-transferFrom}. Emits an {Approval} event indicating the updated allowance. This is not required by the EIP. See the note at the beginning of {ERC20}. NOTE: Does not update the allowance if the current allowance is the maximum `uint256`. Requirements: - `from` and `to` cannot be the zero address. - `from` must have a balance of at least `amount`. - the caller must have allowance for ``from``'s tokens of at least `amount`."
      },
      "transferOwnership(address)": {
        "details": "Transfers ownership of the contract to a new account (`newOwner`). Can only be called by the current owner."
      },
      "withdrawTo(address,uint256)": {
        "details": "Allow a user to burn a number of wrapped tokens and withdraw the corresponding number of underlying tokens."
      }
    },
    "version": 1
  },
  "userdoc": {
    "kind": "user",
    "methods": {
      "captureSnapShot()": {
        "notice": "See `ERC20SnapshotUpgradeable._snapshot()`."
      },
      "decimals()": {
        "notice": "Overridden without modification. "
      },
      "setUp(bytes)": {
        "notice": "Initialize function, will be triggered when a new instance is deployed."
      }
    },
    "notice": "An extension of `VotesERC20` which supports wrapping / unwrapping an existing ERC20 token, to allow for importing an existing token into the Azorius governance framework.",
    "version": 1
  },
  "storageLayout": {
    "storage": [
      {
        "astId": 3006,
        "contract": "contracts/VotesERC20Wrapper.sol:VotesERC20Wrapper",
        "label": "_initialized",
        "offset": 0,
        "slot": "0",
        "type": "t_uint8"
      },
      {
        "astId": 3009,
        "contract": "contracts/VotesERC20Wrapper.sol:VotesERC20Wrapper",
        "label": "_initializing",
        "offset": 1,
        "slot": "0",
        "type": "t_bool"
      },
      {
        "astId": 5908,
        "contract": "contracts/VotesERC20Wrapper.sol:VotesERC20Wrapper",
        "label": "__gap",
        "offset": 0,
        "slot": "1",
        "type": "t_array(t_uint256)50_storage"
      },
      {
        "astId": 3169,
        "contract": "contracts/VotesERC20Wrapper.sol:VotesERC20Wrapper",
        "label": "_balances",
        "offset": 0,
        "slot": "51",
        "type": "t_mapping(t_address,t_uint256)"
      },
      {
        "astId": 3175,
        "contract": "contracts/VotesERC20Wrapper.sol:VotesERC20Wrapper",
        "label": "_allowances",
        "offset": 0,
        "slot": "52",
        "type": "t_mapping(t_address,t_mapping(t_address,t_uint256))"
      },
      {
        "astId": 3177,
        "contract": "contracts/VotesERC20Wrapper.sol:VotesERC20Wrapper",
        "label": "_totalSupply",
        "offset": 0,
        "slot": "53",
        "type": "t_uint256"
      },
      {
        "astId": 3179,
        "contract": "contracts/VotesERC20Wrapper.sol:VotesERC20Wrapper",
        "label": "_name",
        "offset": 0,
        "slot": "54",
        "type": "t_string_storage"
      },
      {
        "astId": 3181,
        "contract": "contracts/VotesERC20Wrapper.sol:VotesERC20Wrapper",
        "label": "_symbol",
        "offset": 0,
        "slot": "55",
        "type": "t_string_storage"
      },
      {
        "astId": 3760,
        "contract": "contracts/VotesERC20Wrapper.sol:VotesERC20Wrapper",
        "label": "__gap",
        "offset": 0,
        "slot": "56",
        "type": "t_array(t_uint256)45_storage"
      },
      {
        "astId": 3882,
        "contract": "contracts/VotesERC20Wrapper.sol:VotesERC20Wrapper",
        "label": "_accountBalanceSnapshots",
        "offset": 0,
        "slot": "101",
        "type": "t_mapping(t_address,t_struct(Snapshots)3877_storage)"
      },
      {
        "astId": 3885,
        "contract": "contracts/VotesERC20Wrapper.sol:VotesERC20Wrapper",
        "label": "_totalSupplySnapshots",
        "offset": 0,
        "slot": "102",
        "type": "t_struct(Snapshots)3877_storage"
      },
      {
        "astId": 3888,
        "contract": "contracts/VotesERC20Wrapper.sol:VotesERC20Wrapper",
        "label": "_currentSnapshotId",
        "offset": 0,
        "slot": "104",
        "type": "t_struct(Counter)5915_storage"
      },
      {
        "astId": 4186,
        "contract": "contracts/VotesERC20Wrapper.sol:VotesERC20Wrapper",
        "label": "__gap",
        "offset": 0,
        "slot": "105",
        "type": "t_array(t_uint256)46_storage"
      },
      {
        "astId": 6606,
        "contract": "contracts/VotesERC20Wrapper.sol:VotesERC20Wrapper",
        "label": "_HASHED_NAME",
        "offset": 0,
        "slot": "151",
        "type": "t_bytes32"
      },
      {
        "astId": 6608,
        "contract": "contracts/VotesERC20Wrapper.sol:VotesERC20Wrapper",
        "label": "_HASHED_VERSION",
        "offset": 0,
        "slot": "152",
        "type": "t_bytes32"
      },
      {
        "astId": 6746,
        "contract": "contracts/VotesERC20Wrapper.sol:VotesERC20Wrapper",
        "label": "__gap",
        "offset": 0,
        "slot": "153",
        "type": "t_array(t_uint256)50_storage"
      },
      {
        "astId": 5057,
        "contract": "contracts/VotesERC20Wrapper.sol:VotesERC20Wrapper",
        "label": "_nonces",
        "offset": 0,
        "slot": "203",
        "type": "t_mapping(t_address,t_struct(Counter)5915_storage)"
      },
      {
        "astId": 5065,
        "contract": "contracts/VotesERC20Wrapper.sol:VotesERC20Wrapper",
        "label": "_PERMIT_TYPEHASH_DEPRECATED_SLOT",
        "offset": 0,
        "slot": "204",
        "type": "t_bytes32"
      },
      {
        "astId": 5221,
        "contract": "contracts/VotesERC20Wrapper.sol:VotesERC20Wrapper",
        "label": "__gap",
        "offset": 0,
        "slot": "205",
        "type": "t_array(t_uint256)49_storage"
      },
      {
        "astId": 4228,
        "contract": "contracts/VotesERC20Wrapper.sol:VotesERC20Wrapper",
        "label": "_delegates",
        "offset": 0,
        "slot": "254",
        "type": "t_mapping(t_address,t_address)"
      },
      {
        "astId": 4234,
        "contract": "contracts/VotesERC20Wrapper.sol:VotesERC20Wrapper",
        "label": "_checkpoints",
        "offset": 0,
        "slot": "255",
        "type": "t_mapping(t_address,t_array(t_struct(Checkpoint)4219_storage)dyn_storage)"
      },
      {
        "astId": 4238,
        "contract": "contracts/VotesERC20Wrapper.sol:VotesERC20Wrapper",
        "label": "_totalSupplyCheckpoints",
        "offset": 0,
        "slot": "256",
        "type": "t_array(t_struct(Checkpoint)4219_storage)dyn_storage"
      },
      {
        "astId": 4843,
        "contract": "contracts/VotesERC20Wrapper.sol:VotesERC20Wrapper",
        "label": "__gap",
        "offset": 0,
        "slot": "257",
        "type": "t_array(t_uint256)47_storage"
      },
      {
        "astId": 11792,
        "contract": "contracts/VotesERC20Wrapper.sol:VotesERC20Wrapper",
        "label": "_supportedInterfaces",
        "offset": 0,
        "slot": "304",
        "type": "t_mapping(t_bytes4,t_bool)"
      },
      {
        "astId": 2800,
        "contract": "contracts/VotesERC20Wrapper.sol:VotesERC20Wrapper",
        "label": "_owner",
        "offset": 0,
        "slot": "305",
        "type": "t_address"
      },
      {
        "astId": 2920,
        "contract": "contracts/VotesERC20Wrapper.sol:VotesERC20Wrapper",
        "label": "__gap",
        "offset": 0,
        "slot": "306",
        "type": "t_array(t_uint256)49_storage"
      },
      {
        "astId": 4857,
        "contract": "contracts/VotesERC20Wrapper.sol:VotesERC20Wrapper",
        "label": "underlying",
        "offset": 0,
        "slot": "355",
        "type": "t_contract(IERC20Upgradeable)3839"
      },
      {
        "astId": 5005,
        "contract": "contracts/VotesERC20Wrapper.sol:VotesERC20Wrapper",
        "label": "__gap",
        "offset": 0,
        "slot": "356",
        "type": "t_array(t_uint256)50_storage"
      }
    ],
    "types": {
      "t_address": {
        "encoding": "inplace",
        "label": "address",
        "numberOfBytes": "20"
      },
      "t_array(t_struct(Checkpoint)4219_storage)dyn_storage": {
        "base": "t_struct(Checkpoint)4219_storage",
        "encoding": "dynamic_array",
        "label": "struct ERC20VotesUpgradeable.Checkpoint[]",
        "numberOfBytes": "32"
      },
      "t_array(t_uint256)45_storage": {
        "base": "t_uint256",
        "encoding": "inplace",
        "label": "uint256[45]",
        "numberOfBytes": "1440"
      },
      "t_array(t_uint256)46_storage": {
        "base": "t_uint256",
        "encoding": "inplace",
        "label": "uint256[46]",
        "numberOfBytes": "1472"
      },
      "t_array(t_uint256)47_storage": {
        "base": "t_uint256",
        "encoding": "inplace",
        "label": "uint256[47]",
        "numberOfBytes": "1504"
      },
      "t_array(t_uint256)49_storage": {
        "base": "t_uint256",
        "encoding": "inplace",
        "label": "uint256[49]",
        "numberOfBytes": "1568"
      },
      "t_array(t_uint256)50_storage": {
        "base": "t_uint256",
        "encoding": "inplace",
        "label": "uint256[50]",
        "numberOfBytes": "1600"
      },
      "t_array(t_uint256)dyn_storage": {
        "base": "t_uint256",
        "encoding": "dynamic_array",
        "label": "uint256[]",
        "numberOfBytes": "32"
      },
      "t_bool": {
        "encoding": "inplace",
        "label": "bool",
        "numberOfBytes": "1"
      },
      "t_bytes32": {
        "encoding": "inplace",
        "label": "bytes32",
        "numberOfBytes": "32"
      },
      "t_bytes4": {
        "encoding": "inplace",
        "label": "bytes4",
        "numberOfBytes": "4"
      },
      "t_contract(IERC20Upgradeable)3839": {
        "encoding": "inplace",
        "label": "contract IERC20Upgradeable",
        "numberOfBytes": "20"
      },
      "t_mapping(t_address,t_address)": {
        "encoding": "mapping",
        "key": "t_address",
        "label": "mapping(address => address)",
        "numberOfBytes": "32",
        "value": "t_address"
      },
      "t_mapping(t_address,t_array(t_struct(Checkpoint)4219_storage)dyn_storage)": {
        "encoding": "mapping",
        "key": "t_address",
        "label": "mapping(address => struct ERC20VotesUpgradeable.Checkpoint[])",
        "numberOfBytes": "32",
        "value": "t_array(t_struct(Checkpoint)4219_storage)dyn_storage"
      },
      "t_mapping(t_address,t_mapping(t_address,t_uint256))": {
        "encoding": "mapping",
        "key": "t_address",
        "label": "mapping(address => mapping(address => uint256))",
        "numberOfBytes": "32",
        "value": "t_mapping(t_address,t_uint256)"
      },
      "t_mapping(t_address,t_struct(Counter)5915_storage)": {
        "encoding": "mapping",
        "key": "t_address",
        "label": "mapping(address => struct CountersUpgradeable.Counter)",
        "numberOfBytes": "32",
        "value": "t_struct(Counter)5915_storage"
      },
      "t_mapping(t_address,t_struct(Snapshots)3877_storage)": {
        "encoding": "mapping",
        "key": "t_address",
        "label": "mapping(address => struct ERC20SnapshotUpgradeable.Snapshots)",
        "numberOfBytes": "32",
        "value": "t_struct(Snapshots)3877_storage"
      },
      "t_mapping(t_address,t_uint256)": {
        "encoding": "mapping",
        "key": "t_address",
        "label": "mapping(address => uint256)",
        "numberOfBytes": "32",
        "value": "t_uint256"
      },
      "t_mapping(t_bytes4,t_bool)": {
        "encoding": "mapping",
        "key": "t_bytes4",
        "label": "mapping(bytes4 => bool)",
        "numberOfBytes": "32",
        "value": "t_bool"
      },
      "t_string_storage": {
        "encoding": "bytes",
        "label": "string",
        "numberOfBytes": "32"
      },
      "t_struct(Checkpoint)4219_storage": {
        "encoding": "inplace",
        "label": "struct ERC20VotesUpgradeable.Checkpoint",
        "members": [
          {
            "astId": 4216,
            "contract": "contracts/VotesERC20Wrapper.sol:VotesERC20Wrapper",
            "label": "fromBlock",
            "offset": 0,
            "slot": "0",
            "type": "t_uint32"
          },
          {
            "astId": 4218,
            "contract": "contracts/VotesERC20Wrapper.sol:VotesERC20Wrapper",
            "label": "votes",
            "offset": 4,
            "slot": "0",
            "type": "t_uint224"
          }
        ],
        "numberOfBytes": "32"
      },
      "t_struct(Counter)5915_storage": {
        "encoding": "inplace",
        "label": "struct CountersUpgradeable.Counter",
        "members": [
          {
            "astId": 5914,
            "contract": "contracts/VotesERC20Wrapper.sol:VotesERC20Wrapper",
            "label": "_value",
            "offset": 0,
            "slot": "0",
            "type": "t_uint256"
          }
        ],
        "numberOfBytes": "32"
      },
      "t_struct(Snapshots)3877_storage": {
        "encoding": "inplace",
        "label": "struct ERC20SnapshotUpgradeable.Snapshots",
        "members": [
          {
            "astId": 3873,
            "contract": "contracts/VotesERC20Wrapper.sol:VotesERC20Wrapper",
            "label": "ids",
            "offset": 0,
            "slot": "0",
            "type": "t_array(t_uint256)dyn_storage"
          },
          {
            "astId": 3876,
            "contract": "contracts/VotesERC20Wrapper.sol:VotesERC20Wrapper",
            "label": "values",
            "offset": 0,
            "slot": "1",
            "type": "t_array(t_uint256)dyn_storage"
          }
        ],
        "numberOfBytes": "64"
      },
      "t_uint224": {
        "encoding": "inplace",
        "label": "uint224",
        "numberOfBytes": "28"
      },
      "t_uint256": {
        "encoding": "inplace",
        "label": "uint256",
        "numberOfBytes": "32"
      },
      "t_uint32": {
        "encoding": "inplace",
        "label": "uint32",
        "numberOfBytes": "4"
      },
      "t_uint8": {
        "encoding": "inplace",
        "label": "uint8",
        "numberOfBytes": "1"
      }
    }
  }
}