{
  "address": "0xD16368a8b709cBAfd47c480607a843144Bcd27Dc",
  "abi": [
    {
      "inputs": [],
      "stateMutability": "nonpayable",
      "type": "constructor"
    },
    {
      "inputs": [],
      "name": "InvalidArrayLengths",
      "type": "error"
    },
    {
      "inputs": [],
      "name": "InvalidProposal",
      "type": "error"
    },
    {
      "inputs": [],
      "name": "InvalidProposer",
      "type": "error"
    },
    {
      "inputs": [],
      "name": "InvalidStrategy",
      "type": "error"
    },
    {
      "inputs": [],
      "name": "InvalidTxHash",
      "type": "error"
    },
    {
      "inputs": [],
      "name": "InvalidTxs",
      "type": "error"
    },
    {
      "inputs": [
        {
          "internalType": "address",
          "name": "guard_",
          "type": "address"
        }
      ],
      "name": "NotIERC165Compliant",
      "type": "error"
    },
    {
      "inputs": [],
      "name": "ProposalNotExecutable",
      "type": "error"
    },
    {
      "inputs": [],
      "name": "StrategyDisabled",
      "type": "error"
    },
    {
      "inputs": [],
      "name": "StrategyEnabled",
      "type": "error"
    },
    {
      "inputs": [],
      "name": "TxFailed",
      "type": "error"
    },
    {
      "anonymous": false,
      "inputs": [
        {
          "indexed": true,
          "internalType": "address",
          "name": "previousAvatar",
          "type": "address"
        },
        {
          "indexed": true,
          "internalType": "address",
          "name": "newAvatar",
          "type": "address"
        }
      ],
      "name": "AvatarSet",
      "type": "event"
    },
    {
      "anonymous": false,
      "inputs": [
        {
          "indexed": true,
          "internalType": "address",
          "name": "creator",
          "type": "address"
        },
        {
          "indexed": true,
          "internalType": "address",
          "name": "owner",
          "type": "address"
        },
        {
          "indexed": true,
          "internalType": "address",
          "name": "avatar",
          "type": "address"
        },
        {
          "indexed": false,
          "internalType": "address",
          "name": "target",
          "type": "address"
        }
      ],
      "name": "AzoriusSetUp",
      "type": "event"
    },
    {
      "anonymous": false,
      "inputs": [
        {
          "indexed": false,
          "internalType": "address",
          "name": "guard",
          "type": "address"
        }
      ],
      "name": "ChangedGuard",
      "type": "event"
    },
    {
      "anonymous": false,
      "inputs": [
        {
          "indexed": false,
          "internalType": "address",
          "name": "strategy",
          "type": "address"
        }
      ],
      "name": "DisabledStrategy",
      "type": "event"
    },
    {
      "anonymous": false,
      "inputs": [
        {
          "indexed": false,
          "internalType": "address",
          "name": "strategy",
          "type": "address"
        }
      ],
      "name": "EnabledStrategy",
      "type": "event"
    },
    {
      "anonymous": false,
      "inputs": [
        {
          "indexed": false,
          "internalType": "uint32",
          "name": "executionPeriod",
          "type": "uint32"
        }
      ],
      "name": "ExecutionPeriodUpdated",
      "type": "event"
    },
    {
      "anonymous": false,
      "inputs": [
        {
          "indexed": false,
          "internalType": "uint8",
          "name": "version",
          "type": "uint8"
        }
      ],
      "name": "Initialized",
      "type": "event"
    },
    {
      "anonymous": false,
      "inputs": [
        {
          "indexed": true,
          "internalType": "address",
          "name": "previousOwner",
          "type": "address"
        },
        {
          "indexed": true,
          "internalType": "address",
          "name": "newOwner",
          "type": "address"
        }
      ],
      "name": "OwnershipTransferred",
      "type": "event"
    },
    {
      "anonymous": false,
      "inputs": [
        {
          "indexed": false,
          "internalType": "address",
          "name": "strategy",
          "type": "address"
        },
        {
          "indexed": false,
          "internalType": "uint256",
          "name": "proposalId",
          "type": "uint256"
        },
        {
          "indexed": false,
          "internalType": "address",
          "name": "proposer",
          "type": "address"
        },
        {
          "components": [
            {
              "internalType": "address",
              "name": "to",
              "type": "address"
            },
            {
              "internalType": "uint256",
              "name": "value",
              "type": "uint256"
            },
            {
              "internalType": "bytes",
              "name": "data",
              "type": "bytes"
            },
            {
              "internalType": "enum Enum.Operation",
              "name": "operation",
              "type": "uint8"
            }
          ],
          "indexed": false,
          "internalType": "struct IAzorius.Transaction[]",
          "name": "transactions",
          "type": "tuple[]"
        },
        {
          "indexed": false,
          "internalType": "string",
          "name": "metadata",
          "type": "string"
        }
      ],
      "name": "ProposalCreated",
      "type": "event"
    },
    {
      "anonymous": false,
      "inputs": [
        {
          "indexed": false,
          "internalType": "uint32",
          "name": "proposalId",
          "type": "uint32"
        },
        {
          "indexed": false,
          "internalType": "bytes32[]",
          "name": "txHashes",
          "type": "bytes32[]"
        }
      ],
      "name": "ProposalExecuted",
      "type": "event"
    },
    {
      "anonymous": false,
      "inputs": [
        {
          "indexed": true,
          "internalType": "address",
          "name": "previousTarget",
          "type": "address"
        },
        {
          "indexed": true,
          "internalType": "address",
          "name": "newTarget",
          "type": "address"
        }
      ],
      "name": "TargetSet",
      "type": "event"
    },
    {
      "anonymous": false,
      "inputs": [
        {
          "indexed": false,
          "internalType": "uint32",
          "name": "timelockPeriod",
          "type": "uint32"
        }
      ],
      "name": "TimelockPeriodUpdated",
      "type": "event"
    },
    {
      "inputs": [],
      "name": "DOMAIN_SEPARATOR_TYPEHASH",
      "outputs": [
        {
          "internalType": "bytes32",
          "name": "",
          "type": "bytes32"
        }
      ],
      "stateMutability": "view",
      "type": "function"
    },
    {
      "inputs": [],
      "name": "TRANSACTION_TYPEHASH",
      "outputs": [
        {
          "internalType": "bytes32",
          "name": "",
          "type": "bytes32"
        }
      ],
      "stateMutability": "view",
      "type": "function"
    },
    {
      "inputs": [],
      "name": "avatar",
      "outputs": [
        {
          "internalType": "address",
          "name": "",
          "type": "address"
        }
      ],
      "stateMutability": "view",
      "type": "function"
    },
    {
      "inputs": [
        {
          "internalType": "address",
          "name": "_prevStrategy",
          "type": "address"
        },
        {
          "internalType": "address",
          "name": "_strategy",
          "type": "address"
        }
      ],
      "name": "disableStrategy",
      "outputs": [],
      "stateMutability": "nonpayable",
      "type": "function"
    },
    {
      "inputs": [
        {
          "internalType": "address",
          "name": "_strategy",
          "type": "address"
        }
      ],
      "name": "enableStrategy",
      "outputs": [],
      "stateMutability": "nonpayable",
      "type": "function"
    },
    {
      "inputs": [
        {
          "internalType": "uint32",
          "name": "_proposalId",
          "type": "uint32"
        },
        {
          "internalType": "address[]",
          "name": "_targets",
          "type": "address[]"
        },
        {
          "internalType": "uint256[]",
          "name": "_values",
          "type": "uint256[]"
        },
        {
          "internalType": "bytes[]",
          "name": "_data",
          "type": "bytes[]"
        },
        {
          "internalType": "enum Enum.Operation[]",
          "name": "_operations",
          "type": "uint8[]"
        }
      ],
      "name": "executeProposal",
      "outputs": [],
      "stateMutability": "nonpayable",
      "type": "function"
    },
    {
      "inputs": [],
      "name": "executionPeriod",
      "outputs": [
        {
          "internalType": "uint32",
          "name": "",
          "type": "uint32"
        }
      ],
      "stateMutability": "view",
      "type": "function"
    },
    {
      "inputs": [
        {
          "internalType": "address",
          "name": "_to",
          "type": "address"
        },
        {
          "internalType": "uint256",
          "name": "_value",
          "type": "uint256"
        },
        {
          "internalType": "bytes",
          "name": "_data",
          "type": "bytes"
        },
        {
          "internalType": "enum Enum.Operation",
          "name": "_operation",
          "type": "uint8"
        },
        {
          "internalType": "uint256",
          "name": "_nonce",
          "type": "uint256"
        }
      ],
      "name": "generateTxHashData",
      "outputs": [
        {
          "internalType": "bytes",
          "name": "",
          "type": "bytes"
        }
      ],
      "stateMutability": "view",
      "type": "function"
    },
    {
      "inputs": [],
      "name": "getGuard",
      "outputs": [
        {
          "internalType": "address",
          "name": "_guard",
          "type": "address"
        }
      ],
      "stateMutability": "view",
      "type": "function"
    },
    {
      "inputs": [
        {
          "internalType": "uint32",
          "name": "_proposalId",
          "type": "uint32"
        }
      ],
      "name": "getProposal",
      "outputs": [
        {
          "internalType": "address",
          "name": "_strategy",
          "type": "address"
        },
        {
          "internalType": "bytes32[]",
          "name": "_txHashes",
          "type": "bytes32[]"
        },
        {
          "internalType": "uint32",
          "name": "_timelockPeriod",
          "type": "uint32"
        },
        {
          "internalType": "uint32",
          "name": "_executionPeriod",
          "type": "uint32"
        },
        {
          "internalType": "uint32",
          "name": "_executionCounter",
          "type": "uint32"
        }
      ],
      "stateMutability": "view",
      "type": "function"
    },
    {
      "inputs": [
        {
          "internalType": "uint32",
          "name": "_proposalId",
          "type": "uint32"
        },
        {
          "internalType": "uint32",
          "name": "_txIndex",
          "type": "uint32"
        }
      ],
      "name": "getProposalTxHash",
      "outputs": [
        {
          "internalType": "bytes32",
          "name": "",
          "type": "bytes32"
        }
      ],
      "stateMutability": "view",
      "type": "function"
    },
    {
      "inputs": [
        {
          "internalType": "uint32",
          "name": "_proposalId",
          "type": "uint32"
        }
      ],
      "name": "getProposalTxHashes",
      "outputs": [
        {
          "internalType": "bytes32[]",
          "name": "",
          "type": "bytes32[]"
        }
      ],
      "stateMutability": "view",
      "type": "function"
    },
    {
      "inputs": [
        {
          "internalType": "address",
          "name": "_startAddress",
          "type": "address"
        },
        {
          "internalType": "uint256",
          "name": "_count",
          "type": "uint256"
        }
      ],
      "name": "getStrategies",
      "outputs": [
        {
          "internalType": "address[]",
          "name": "_strategies",
          "type": "address[]"
        },
        {
          "internalType": "address",
          "name": "_next",
          "type": "address"
        }
      ],
      "stateMutability": "view",
      "type": "function"
    },
    {
      "inputs": [
        {
          "internalType": "address",
          "name": "_to",
          "type": "address"
        },
        {
          "internalType": "uint256",
          "name": "_value",
          "type": "uint256"
        },
        {
          "internalType": "bytes",
          "name": "_data",
          "type": "bytes"
        },
        {
          "internalType": "enum Enum.Operation",
          "name": "_operation",
          "type": "uint8"
        }
      ],
      "name": "getTxHash",
      "outputs": [
        {
          "internalType": "bytes32",
          "name": "",
          "type": "bytes32"
        }
      ],
      "stateMutability": "view",
      "type": "function"
    },
    {
      "inputs": [],
      "name": "guard",
      "outputs": [
        {
          "internalType": "address",
          "name": "",
          "type": "address"
        }
      ],
      "stateMutability": "view",
      "type": "function"
    },
    {
      "inputs": [
        {
          "internalType": "address",
          "name": "_strategy",
          "type": "address"
        }
      ],
      "name": "isStrategyEnabled",
      "outputs": [
        {
          "internalType": "bool",
          "name": "",
          "type": "bool"
        }
      ],
      "stateMutability": "view",
      "type": "function"
    },
    {
      "inputs": [],
      "name": "owner",
      "outputs": [
        {
          "internalType": "address",
          "name": "",
          "type": "address"
        }
      ],
      "stateMutability": "view",
      "type": "function"
    },
    {
      "inputs": [
        {
          "internalType": "uint32",
          "name": "_proposalId",
          "type": "uint32"
        }
      ],
      "name": "proposalState",
      "outputs": [
        {
          "internalType": "enum IAzorius.ProposalState",
          "name": "",
          "type": "uint8"
        }
      ],
      "stateMutability": "view",
      "type": "function"
    },
    {
      "inputs": [],
      "name": "renounceOwnership",
      "outputs": [],
      "stateMutability": "nonpayable",
      "type": "function"
    },
    {
      "inputs": [
        {
          "internalType": "address",
          "name": "_avatar",
          "type": "address"
        }
      ],
      "name": "setAvatar",
      "outputs": [],
      "stateMutability": "nonpayable",
      "type": "function"
    },
    {
      "inputs": [
        {
          "internalType": "address",
          "name": "_guard",
          "type": "address"
        }
      ],
      "name": "setGuard",
      "outputs": [],
      "stateMutability": "nonpayable",
      "type": "function"
    },
    {
      "inputs": [
        {
          "internalType": "address",
          "name": "_target",
          "type": "address"
        }
      ],
      "name": "setTarget",
      "outputs": [],
      "stateMutability": "nonpayable",
      "type": "function"
    },
    {
      "inputs": [
        {
          "internalType": "bytes",
          "name": "initializeParams",
          "type": "bytes"
        }
      ],
      "name": "setUp",
      "outputs": [],
      "stateMutability": "nonpayable",
      "type": "function"
    },
    {
      "inputs": [
        {
          "internalType": "address",
          "name": "_strategy",
          "type": "address"
        },
        {
          "internalType": "bytes",
          "name": "_data",
          "type": "bytes"
        },
        {
          "components": [
            {
              "internalType": "address",
              "name": "to",
              "type": "address"
            },
            {
              "internalType": "uint256",
              "name": "value",
              "type": "uint256"
            },
            {
              "internalType": "bytes",
              "name": "data",
              "type": "bytes"
            },
            {
              "internalType": "enum Enum.Operation",
              "name": "operation",
              "type": "uint8"
            }
          ],
          "internalType": "struct IAzorius.Transaction[]",
          "name": "_transactions",
          "type": "tuple[]"
        },
        {
          "internalType": "string",
          "name": "_metadata",
          "type": "string"
        }
      ],
      "name": "submitProposal",
      "outputs": [],
      "stateMutability": "nonpayable",
      "type": "function"
    },
    {
      "inputs": [],
      "name": "target",
      "outputs": [
        {
          "internalType": "address",
          "name": "",
          "type": "address"
        }
      ],
      "stateMutability": "view",
      "type": "function"
    },
    {
      "inputs": [],
      "name": "timelockPeriod",
      "outputs": [
        {
          "internalType": "uint32",
          "name": "",
          "type": "uint32"
        }
      ],
      "stateMutability": "view",
      "type": "function"
    },
    {
      "inputs": [],
      "name": "totalProposalCount",
      "outputs": [
        {
          "internalType": "uint32",
          "name": "",
          "type": "uint32"
        }
      ],
      "stateMutability": "view",
      "type": "function"
    },
    {
      "inputs": [
        {
          "internalType": "address",
          "name": "newOwner",
          "type": "address"
        }
      ],
      "name": "transferOwnership",
      "outputs": [],
      "stateMutability": "nonpayable",
      "type": "function"
    },
    {
      "inputs": [
        {
          "internalType": "uint32",
          "name": "_executionPeriod",
          "type": "uint32"
        }
      ],
      "name": "updateExecutionPeriod",
      "outputs": [],
      "stateMutability": "nonpayable",
      "type": "function"
    },
    {
      "inputs": [
        {
          "internalType": "uint32",
          "name": "_timelockPeriod",
          "type": "uint32"
        }
      ],
      "name": "updateTimelockPeriod",
      "outputs": [],
      "stateMutability": "nonpayable",
      "type": "function"
    }
  ],
  "transactionHash": "0xc350101975aa8ec51a07f33a496b8b2a3afa714c68d720a9cacc9292b78225e0",
  "args": [],
  "numDeployments": 1,
  "solcInputHash": "b8c7aa0effc37dd90ed61297cca6b0b3",
  "bytecode": "0x60806040523480156200001157600080fd5b506200001c62000022565b620000e4565b600054610100900460ff16156200008f5760405162461bcd60e51b815260206004820152602760248201527f496e697469616c697a61626c653a20636f6e747261637420697320696e697469604482015266616c697a696e6760c81b606482015260840160405180910390fd5b60005460ff9081161015620000e2576000805460ff191660ff9081179091556040519081527f7f26b83ff96e1f2b6a682f133852f6798a09c465da95921460cefb38474024989060200160405180910390a15b565b612a6480620000f46000396000f3fe608060405234801561001057600080fd5b50600436106101da5760003560e01c806388633b7b11610104578063d11d0d58116100a2578063ea49ba9711610071578063ea49ba971461046d578063ead0eedf14610490578063f2fde38b146104a7578063fe2474be146104ba57600080fd5b8063d11d0d581461041d578063d4b8399214610434578063dcac459514610447578063e19a9dd91461045a57600080fd5b8063a4f9edbf116100de578063a4f9edbf146103c6578063b4c3c145146103d9578063c818c57f146103f9578063c91063891461040c57600080fd5b806388633b7b1461037b5780638da5cb5b146103a25780639e4d46d1146103b357600080fd5b80633742fcc91161017c578063715018a61161014b578063715018a61461032d578063776d1a011461033557806377c79fa2146103485780637ceab3b11461036857600080fd5b80633742fcc9146102c95780635aef7de6146102dc578063608244a6146103075780637079b4661461031a57600080fd5b8063114f00ab116101b8578063114f00ab1461021a5780631db61b541461024757806326bae4f21461027c5780632ecaf6751461029d57600080fd5b80630494294e146101df578063086cfca8146101f45780630901830814610207575b600080fd5b6101f26101ed366004611de7565b6104da565b005b6101f2610202366004611ebe565b61092c565b6101f2610215366004612077565b610986565b61022d610228366004612196565b610b5d565b60405161023e9594939291906121ee565b60405180910390f35b61026e7f47e79534a245952e8b16893a336b85a3d9ea9fa8c573f3d803afb92a7946921881565b60405190815260200161023e565b61028f61028a366004612239565b610c18565b60405161023e929190612265565b6067546102b490600160c01b900463ffffffff1681565b60405163ffffffff909116815260200161023e565b6101f26102d7366004611ebe565b610d11565b6066546102ef906001600160a01b031681565b6040516001600160a01b03909116815260200161023e565b6101f26103153660046122c2565b610e25565b61026e6103283660046122fb565b610f24565b6101f2610f6d565b6101f2610343366004611ebe565b610f81565b61035b610356366004612196565b610fdb565b60405161023e9190612329565b6065546102ef906001600160a01b031681565b61026e7f72e9670a7ee00f5fbf1049b8c38e3f22fab7e9b85029e85cf9412f17fdd5c2ad81565b6033546001600160a01b03166102ef565b6101f26103c1366004612196565b611047565b6101f26103d436600461233c565b61105b565b6103ec6103e7366004612196565b611238565b60405161023e9190612386565b61026e6104073660046123a0565b6114b7565b6065546001600160a01b03166102ef565b6067546102b490600160e01b900463ffffffff1681565b6067546102ef906001600160a01b031681565b6101f2610455366004612196565b6114d9565b6101f2610468366004611ebe565b6114ea565b61048061047b366004611ebe565b6115e6565b604051901515815260200161023e565b6067546102b490600160a01b900463ffffffff1681565b6101f26104b5366004611ebe565b61161e565b6104cd6104c8366004612409565b611694565b60405161023e91906124c0565b6104e3866115e6565b610500576040516346c26e4b60e01b815260040160405180910390fd5b6040516303a7614d60e51b81523360048201526001600160a01b038716906374ec29a090602401602060405180830381865afa158015610544573d6000803e3d6000fd5b505050506040513d601f19601f8201168201806040525081019061056891906124d3565b61058557604051634100ac0360e01b815260040160405180910390fd5b6000836001600160401b0381111561059f5761059f611cea565b6040519080825280602002602001820160405280156105c8578160200160208202803683370190505b5090508360005b818110156106f7576106d28787838181106105ec576105ec6124f5565b90506020028101906105fe919061250b565b61060c906020810190611ebe565b88888481811061061e5761061e6124f5565b9050602002810190610630919061250b565b60200135898985818110610646576106466124f5565b9050602002810190610658919061250b565b61066690604081019061252b565b8080601f0160208091040260200160405190810160405280939291908181526020018383808284376000920191909152508d92508c91508790508181106106af576106af6124f5565b90506020028101906106c1919061250b565b610407906080810190606001612571565b8382815181106106e4576106e46124f5565b60209081029190910101526001016105cf565b508760686000606760149054906101000a900463ffffffff1663ffffffff168152602001908152602001600020600001600c6101000a8154816001600160a01b0302191690836001600160a01b031602179055508160686000606760149054906101000a900463ffffffff1663ffffffff168152602001908152602001600020600101908051906020019061078d929190611c75565b506067805463ffffffff600160a01b80830482166000908152606860209081526040808320805467ffffffff000000001916600160c01b909704861664010000000002969096179095558554838104851683529185902080546bffffffff00000000000000001916600160e01b9093048516600160401b0292909217909155935492516001600160a01b038d169463a77a81d094610836949390049092169187918d910161258c565b6040516020818303038152906040526040518263ffffffff1660e01b815260040161086191906124c0565b600060405180830381600087803b15801561087b57600080fd5b505af115801561088f573d6000803e3d6000fd5b50506067546040517f8258c07d193e540ae88674ae10036488a140887e2bc5508728475592dff175d993506108de92508b91600160a01b900463ffffffff169033908b908b908b908b90612604565b60405180910390a160678054600160a01b900463ffffffff169060146109038361274f565b91906101000a81548163ffffffff021916908363ffffffff160217905550505050505050505050565b610934611790565b606680546001600160a01b038381166001600160a01b0319831681179093556040519116919082907f52ae88b092de36f87fb43fe794eb1381023b9c1bce563a871154022c63dce34290600090a35050565b83516000036109a857604051637e706b9360e01b815260040160405180910390fd5b825184511415806109bb57508151845114155b806109c857508051845114155b156109e65760405163a9854bc960e01b815260040160405180910390fd5b63ffffffff80861660009081526068602052604090206001810154865191549092610a12929116612772565b1115610a3157604051637e706b9360e01b815260040160405180910390fd5b83516000816001600160401b03811115610a4d57610a4d611cea565b604051908082528060200260200182016040528015610a76578160200160208202803683370190505b50905060005b82811015610b1a57610af588888381518110610a9a57610a9a6124f5565b6020026020010151888481518110610ab457610ab46124f5565b6020026020010151888581518110610ace57610ace6124f5565b6020026020010151888681518110610ae857610ae86124f5565b60200260200101516117ea565b828281518110610b0757610b076124f5565b6020908102919091010152600101610a7c565b507ff5fc56659e0b6c903005a71d52094697092f176b254fa07acf65b99c702416e58782604051610b4c929190612785565b60405180910390a150505050505050565b63ffffffff81166000908152606860209081526040808320805460019091018054835181860281018601909452808452600160601b9092046001600160a01b0316946060949093849384939192830182828015610bd957602002820191906000526020600020905b815481526020019060010190808311610bc5575b50505063ffffffff988916600090815260686020526040902054979992986401000000008904811698600160401b810482169850169550919350505050565b60606000826001600160401b03811115610c3457610c34611cea565b604051908082528060200260200182016040528015610c5d578160200160208202803683370190505b506001600160a01b0380861660009081526069602052604081205492945091165b6001600160a01b03811615801590610ca057506001600160a01b038116600114155b8015610cab57508482105b15610d035780848381518110610cc357610cc36124f5565b6001600160a01b03928316602091820292909201810191909152918116600090815260699092526040909120541681610cfb816127a4565b925050610c7e565b908352919491935090915050565b610d19611790565b6001600160a01b0381161580610d3857506001600160a01b0381166001145b15610d5657604051632711b74d60e11b815260040160405180910390fd5b6001600160a01b038181166000908152606960205260409020541615610d8f576040516308779a2960e11b815260040160405180910390fd5b606960209081527fc073f36c05b6a60b24c30a48974b549770d8fa354751fb3170c9dfd8ca536add80546001600160a01b03848116600081815260408082208054949095166001600160a01b0319948516179094556001905283549091168117909255519081527f532492ef4d4edd78444556c1b5038901e11c232361675fe6d5e6bea2f0864e1991015b60405180910390a150565b610e2d611790565b6001600160a01b0381161580610e4c57506001600160a01b0381166001145b15610e6a57604051632711b74d60e11b815260040160405180910390fd5b6001600160a01b03828116600090815260696020526040902054811690821614610ea7576040516346c26e4b60e01b815260040160405180910390fd5b6001600160a01b038181166000818152606960209081526040808320805488871685528285208054919097166001600160a01b03199182161790965592849052825490941690915591519081527fc31c3a4f175b634ee48f8db1a8cc8c16f594ea7511e6552684b87a1481f63b6f91015b60405180910390a15050565b6000606860008463ffffffff1681526020019081526020016000206001018263ffffffff1681548110610f5957610f596124f5565b906000526020600020015490505b92915050565b610f75611790565b610f7f6000611902565b565b610f89611790565b606780546001600160a01b038381166001600160a01b0319831681179093556040519116919082907f90cc2f570a6eb594b1580ea3e41247d2d73a55281889e86bd4ec2fc29c7e62d690600090a35050565b63ffffffff811660009081526068602090815260409182902060010180548351818402810184019094528084526060939283018282801561103b57602002820191906000526020600020905b815481526020019060010190808311611027575b50505050509050919050565b61104f611790565b61105881611954565b50565b600054610100900460ff161580801561107b5750600054600160ff909116105b806110955750303b158015611095575060005460ff166001145b6110fd5760405162461bcd60e51b815260206004820152602e60248201527f496e697469616c697a61626c653a20636f6e747261637420697320616c72656160448201526d191e481a5b9a5d1a585b1a5e995960921b60648201526084015b60405180910390fd5b6000805460ff191660011790558015611120576000805461ff0019166101001790555b6000806000806000808780602001905181019061113d91906127c8565b9550955095509550955095506111516119a8565b606680546001600160a01b038088166001600160a01b031992831617909255606780549287169290911691909117905561118a836119d7565b6111938661161e565b61119c82611954565b6111a581611a51565b6040516001600160a01b038581168252808716919088169033907fa539013922d7c2d2bb4f8734a445f094f297b18ff6de5ac1faa3ba2c0ad0f5579060200160405180910390a45050505050508015611234576000805461ff0019169055604051600181527f7f26b83ff96e1f2b6a682f133852f6798a09c465da95921460cefb384740249890602001610f18565b5050565b63ffffffff8181166000908152606860209081526040808320815160a081018352815480871682526401000000008104871682860152600160401b810490961681840152600160601b9095046001600160a01b0316606086015260018101805483518186028101860190945280845294958695909492936080860193909291908301828280156112e757602002820191906000526020600020905b8154815260200190600101908083116112d3575b5050509190925250505060608101519091506001600160a01b031661131f57604051631dc0650160e31b815260040160405180910390fd5b60608101516040516355a9dbd960e01b815263ffffffff851660048201526000906001600160a01b038316906355a9dbd990602401602060405180830381865afa158015611371573d6000803e3d6000fd5b505050506040513d601f19601f8201168201806040525081019061139591906128bf565b63ffffffff1690508043116113af57506000949350505050565b60405163029d459960e51b815263ffffffff861660048201526001600160a01b038316906353a8b32090602401602060405180830381865afa1580156113f9573d6000803e3d6000fd5b505050506040513d601f19601f8201168201806040525081019061141d91906124d3565b61142c57506005949350505050565b608083015151835163ffffffff160361144a57506003949350505050565b602083015161145f9063ffffffff1682612772565b431161147057506001949350505050565b826040015163ffffffff16836020015163ffffffff16826114919190612772565b61149b9190612772565b43116114ac57506002949350505050565b506004949350505050565b60006114c7858585856000611694565b8051906020012090505b949350505050565b6114e1611790565b61105881611a51565b6114f2611790565b6001600160a01b03811615611598576040516301ffc9a760e01b815263736bd41d60e11b60048201526001600160a01b038216906301ffc9a790602401602060405180830381865afa15801561154c573d6000803e3d6000fd5b505050506040513d601f19601f8201168201806040525081019061157091906124d3565b611598576040516358b7533f60e11b81526001600160a01b03821660048201526024016110f4565b606580546001600160a01b0319166001600160a01b0383169081179091556040519081527f1151116914515bc0891ff9047a6cb32cf902546f83066499bcf8ba33d2353fa290602001610e1a565b600060016001600160a01b03831614801590610f675750506001600160a01b0390811660009081526069602052604090205416151590565b611626611790565b6001600160a01b03811661168b5760405162461bcd60e51b815260206004820152602660248201527f4f776e61626c653a206e6577206f776e657220697320746865207a65726f206160448201526564647265737360d01b60648201526084016110f4565b61105881611902565b604080517f47e79534a245952e8b16893a336b85a3d9ea9fa8c573f3d803afb92a7946921860208201524691810182905230606080830191909152919060009060800160408051601f19818403018152908290528051602091820120885189830120909350600092611730927f72e9670a7ee00f5fbf1049b8c38e3f22fab7e9b85029e85cf9412f17fdd5c2ad928d928d928c918c91016128dc565b60408051808303601f19018152908290528051602091820120601960f81b91830191909152600160f81b60218301526022820184905260428201819052915060620160405160208183030381529060405293505050505b95945050505050565b6033546001600160a01b03163314610f7f5760405162461bcd60e51b815260206004820181905260248201527f4f776e61626c653a2063616c6c6572206973206e6f7420746865206f776e657260448201526064016110f4565b600060026117f787611238565b600581111561180857611808612370565b1461182657604051633c7e994560e11b815260040160405180910390fd5b611832858585856114b7565b63ffffffff8088166000908152606860205260409020805460019091018054939450849390929190911690811061186b5761186b6124f5565b906000526020600020015414611894576040516319cb4eb360e31b815260040160405180910390fd5b63ffffffff8087166000908152606860205260408120805490921691906118ba8361274f565b91906101000a81548163ffffffff021916908363ffffffff160217905550506118e585858585611aa4565b61178757604051632b96f51360e01b815260040160405180910390fd5b603380546001600160a01b038381166001600160a01b0319831681179093556040519116919082907f8be0079c531659141344cd1fd0a4f28419497f9722a3daafe3b4186f6b6457e090600090a35050565b6067805463ffffffff60c01b1916600160c01b63ffffffff8416908102919091179091556040519081527fd77111479e78432e5a7ffc7e7e62e2e8396f86c2bf010dacc17c30ee9106eb4c90602001610e1a565b600054610100900460ff166119cf5760405162461bcd60e51b81526004016110f49061291e565b610f7f611c45565b6001600081815260696020527fc073f36c05b6a60b24c30a48974b549770d8fa354751fb3170c9dfd8ca536add80546001600160a01b0319169092179091558151905b81811015611a4c57611a44838281518110611a3757611a376124f5565b6020026020010151610d11565b600101611a1a565b505050565b606780546001600160e01b0316600160e01b63ffffffff8416908102919091179091556040519081527fdd32d105a69c09ad9be1f41189460750cc26fb733a7da8f5cb47499c6a37799990602001610e1a565b6065546000906001600160a01b031615611b46576065546040805180820182526002815261060f60f31b60208201529051633af85da960e11b81526001600160a01b03909216916375f0bb5291611b139189918991899189916000918291829182918291903390600401612969565b600060405180830381600087803b158015611b2d57600080fd5b505af1158015611b41573d6000803e3d6000fd5b505050505b60675460405163468721a760e01b81526001600160a01b039091169063468721a790611b7c9088908890889088906004016129f8565b6020604051808303816000875af1158015611b9b573d6000803e3d6000fd5b505050506040513d601f19601f82011682018060405250810190611bbf91906124d3565b6065549091506001600160a01b0316156114d157606554604051631264e26d60e31b815261060f60f31b600482015282151560248201526001600160a01b0390911690639327136890604401600060405180830381600087803b158015611c2557600080fd5b505af1158015611c39573d6000803e3d6000fd5b50505050949350505050565b600054610100900460ff16611c6c5760405162461bcd60e51b81526004016110f49061291e565b610f7f33611902565b828054828255906000526020600020908101928215611cb0579160200282015b82811115611cb0578251825591602001919060010190611c95565b50611cbc929150611cc0565b5090565b5b80821115611cbc5760008155600101611cc1565b6001600160a01b038116811461105857600080fd5b634e487b7160e01b600052604160045260246000fd5b604051601f8201601f191681016001600160401b0381118282101715611d2857611d28611cea565b604052919050565b600082601f830112611d4157600080fd5b81356001600160401b03811115611d5a57611d5a611cea565b611d6d601f8201601f1916602001611d00565b818152846020838601011115611d8257600080fd5b816020850160208301376000918101602001919091529392505050565b60008083601f840112611db157600080fd5b5081356001600160401b03811115611dc857600080fd5b602083019150836020828501011115611de057600080fd5b9250929050565b60008060008060008060808789031215611e0057600080fd5b8635611e0b81611cd5565b955060208701356001600160401b0380821115611e2757600080fd5b611e338a838b01611d30565b96506040890135915080821115611e4957600080fd5b818901915089601f830112611e5d57600080fd5b813581811115611e6c57600080fd5b8a60208260051b8501011115611e8157600080fd5b602083019650809550506060890135915080821115611e9f57600080fd5b50611eac89828a01611d9f565b979a9699509497509295939492505050565b600060208284031215611ed057600080fd5b8135611edb81611cd5565b9392505050565b63ffffffff8116811461105857600080fd5b60006001600160401b03821115611f0d57611f0d611cea565b5060051b60200190565b600082601f830112611f2857600080fd5b81356020611f3d611f3883611ef4565b611d00565b82815260059290921b84018101918181019086841115611f5c57600080fd5b8286015b84811015611f775780358352918301918301611f60565b509695505050505050565b600082601f830112611f9357600080fd5b81356020611fa3611f3883611ef4565b82815260059290921b84018101918181019086841115611fc257600080fd5b8286015b84811015611f775780356001600160401b03811115611fe55760008081fd5b611ff38986838b0101611d30565b845250918301918301611fc6565b80356002811061201057600080fd5b919050565b600082601f83011261202657600080fd5b81356020612036611f3883611ef4565b82815260059290921b8401810191818101908684111561205557600080fd5b8286015b84811015611f775761206a81612001565b8352918301918301612059565b600080600080600060a0868803121561208f57600080fd5b853561209a81611ee2565b94506020868101356001600160401b03808211156120b757600080fd5b818901915089601f8301126120cb57600080fd5b81356120d9611f3882611ef4565b81815260059190911b8301840190848101908c8311156120f857600080fd5b938501935b8285101561211f57843561211081611cd5565b825293850193908501906120fd565b98505050604089013592508083111561213757600080fd5b6121438a848b01611f17565b9550606089013592508083111561215957600080fd5b6121658a848b01611f82565b9450608089013592508083111561217b57600080fd5b505061218988828901612015565b9150509295509295909350565b6000602082840312156121a857600080fd5b8135611edb81611ee2565b600081518084526020808501945080840160005b838110156121e3578151875295820195908201906001016121c7565b509495945050505050565b6001600160a01b038616815260a060208201819052600090612212908301876121b3565b63ffffffff9586166040840152938516606083015250921660809092019190915292915050565b6000806040838503121561224c57600080fd5b823561225781611cd5565b946020939093013593505050565b604080825283519082018190526000906020906060840190828701845b828110156122a75781516001600160a01b031684529284019290840190600101612282565b5050506001600160a01b039490941692019190915250919050565b600080604083850312156122d557600080fd5b82356122e081611cd5565b915060208301356122f081611cd5565b809150509250929050565b6000806040838503121561230e57600080fd5b823561231981611ee2565b915060208301356122f081611ee2565b602081526000611edb60208301846121b3565b60006020828403121561234e57600080fd5b81356001600160401b0381111561236457600080fd5b6114d184828501611d30565b634e487b7160e01b600052602160045260246000fd5b602081016006831061239a5761239a612370565b91905290565b600080600080608085870312156123b657600080fd5b84356123c181611cd5565b93506020850135925060408501356001600160401b038111156123e357600080fd5b6123ef87828801611d30565b9250506123fe60608601612001565b905092959194509250565b600080600080600060a0868803121561242157600080fd5b853561242c81611cd5565b94506020860135935060408601356001600160401b0381111561244e57600080fd5b61245a88828901611d30565b93505061246960608701612001565b949793965091946080013592915050565b6000815180845260005b818110156124a057602081850181015186830182015201612484565b506000602082860101526020601f19601f83011685010191505092915050565b602081526000611edb602083018461247a565b6000602082840312156124e557600080fd5b81518015158114611edb57600080fd5b634e487b7160e01b600052603260045260246000fd5b60008235607e1983360301811261252157600080fd5b9190910192915050565b6000808335601e1984360301811261254257600080fd5b8301803591506001600160401b0382111561255c57600080fd5b602001915036819003821315611de057600080fd5b60006020828403121561258357600080fd5b611edb82612001565b63ffffffff841681526060602082015260006125ab60608301856121b3565b82810360408401526125bd818561247a565b9695505050505050565b81835281816020850137506000828201602090810191909152601f909101601f19169091010190565b6002811061260057612600612370565b9052565b600060a0820160018060a01b03808b168452602063ffffffff8b16818601526040828b1681870152606060a081880152848a865260c08801905060c08b60051b89010195508b60005b8c8110156127115789880360bf190183528135368f9003607e1901811261267357600080fd5b8e016080813561268281611cd5565b89168a5281880135888b01528682013536839003601e190181126126a557600080fd5b820188810190356001600160401b038111156126c057600080fd5b8036038213156126cf57600080fd5b82898d01526126e1838d0182846125c7565b925050506126f0868301612001565b91506126fe868b01836125f0565b985050918501919085019060010161264d565b50505050505050828103608084015261272b8185876125c7565b9a9950505050505050505050565b634e487b7160e01b600052601160045260246000fd5b600063ffffffff80831681810361276857612768612739565b6001019392505050565b80820180821115610f6757610f67612739565b63ffffffff831681526040602082015260006114d160408301846121b3565b6000600182016127b6576127b6612739565b5060010190565b805161201081611ee2565b60008060008060008060c087890312156127e157600080fd5b86516127ec81611cd5565b809650506020808801516127ff81611cd5565b604089015190965061281081611cd5565b60608901519095506001600160401b0381111561282c57600080fd5b8801601f81018a1361283d57600080fd5b805161284b611f3882611ef4565b81815260059190911b8201830190838101908c83111561286a57600080fd5b928401925b8284101561289157835161288281611cd5565b8252928401929084019061286f565b80975050505050506128a5608088016127bd565b91506128b360a088016127bd565b90509295509295509295565b6000602082840312156128d157600080fd5b8151611edb81611ee2565b8681526001600160a01b0386166020820152604081018590526060810184905260c0810161290d60808301856125f0565b8260a0830152979650505050505050565b6020808252602b908201527f496e697469616c697a61626c653a20636f6e7472616374206973206e6f74206960408201526a6e697469616c697a696e6760a81b606082015260800190565b6001600160a01b038c81168252602082018c9052610160604083018190526000916129968483018e61247a565b91506129a5606085018d6125f0565b8a60808501528960a08501528860c085015280881660e08501528087166101008501528382036101208501526129db828761247a565b925080851661014085015250509c9b505050505050505050505050565b60018060a01b0385168152836020820152608060408201526000612a1f608083018561247a565b905061178760608301846125f056fea2646970667358221220a7b50443e6cae3c4c2f70b03fb1cb1a1b6cd7e356c12d7e2903d841ed343b0cc64736f6c63430008130033",
  "devdoc": {
    "events": {
      "AvatarSet(address,address)": {
        "details": "Emitted each time the avatar is set."
      },
      "Initialized(uint8)": {
        "details": "Triggered when the contract has been initialized or reinitialized."
      },
      "TargetSet(address,address)": {
        "details": "Emitted each time the Target is set."
      }
    },
    "kind": "dev",
    "methods": {
      "disableStrategy(address,address)": {
        "params": {
          "_prevStrategy": "BaseStrategy address that pointed in the linked list to the strategy to be removed",
          "_strategy": "address of the BaseStrategy to be removed"
        }
      },
      "enableStrategy(address)": {
        "params": {
          "_strategy": "contract address of the BaseStrategy to be enabled"
        }
      },
      "executeProposal(uint32,address[],uint256[],bytes[],uint8[])": {
        "params": {
          "_data": "transaction data to be executed",
          "_operations": "Calls or Delegatecalls",
          "_proposalId": "identifier of the Proposal",
          "_targets": "target contracts for each transaction",
          "_values": "ETH values to be sent with each transaction"
        }
      },
      "generateTxHashData(address,uint256,bytes,uint8,uint256)": {
        "params": {
          "_data": "encoded function call data of the transaction",
          "_nonce": "Safe nonce of the transaction",
          "_operation": "Enum.Operation to use for the transaction",
          "_to": "target address of the transaction",
          "_value": "ETH value to send with the transaction"
        },
        "returns": {
          "_0": "bytes hashed transaction data"
        }
      },
      "getProposal(uint32)": {
        "params": {
          "_proposalId": "identifier of the Proposal"
        },
        "returns": {
          "_executionCounter": "counter of how many of the Proposals transactions have been executed",
          "_executionPeriod": "time (in blocks) the Proposal must be executed within, after timelock ends",
          "_strategy": "address of the BaseStrategy contract the Proposal is on",
          "_timelockPeriod": "time (in blocks) the Proposal is timelocked for",
          "_txHashes": "hashes of the transactions the Proposal contains"
        }
      },
      "getProposalTxHash(uint32,uint32)": {
        "params": {
          "_proposalId": "identifier of the Proposal",
          "_txIndex": "index of the transaction within the Proposal"
        },
        "returns": {
          "_0": "bytes32 hash of the specified transaction"
        }
      },
      "getProposalTxHashes(uint32)": {
        "params": {
          "_proposalId": "identifier of the Proposal to get transaction hashes for"
        },
        "returns": {
          "_0": "bytes32[] array of transaction hashes"
        }
      },
      "getStrategies(address,uint256)": {
        "params": {
          "_count": "maximum number of BaseStrategies that should be returned",
          "_startAddress": "contract address of the BaseStrategy to start with"
        },
        "returns": {
          "_next": "next BaseStrategy contract address in the linked list",
          "_strategies": "array of BaseStrategies"
        }
      },
      "getTxHash(address,uint256,bytes,uint8)": {
        "params": {
          "_data": "encoded function call data of the transaction",
          "_operation": "Enum.Operation to use for the transaction",
          "_to": "target address of the transaction",
          "_value": "ETH value to send with the transaction"
        },
        "returns": {
          "_0": "bytes32 transaction hash"
        }
      },
      "isStrategyEnabled(address)": {
        "params": {
          "_strategy": "contract address of the BaseStrategy to check"
        },
        "returns": {
          "_0": "bool True if the strategy is enabled, otherwise False"
        }
      },
      "owner()": {
        "details": "Returns the address of the current owner."
      },
      "proposalState(uint32)": {
        "params": {
          "_proposalId": "identifier of the Proposal"
        },
        "returns": {
          "_0": "ProposalState uint256 ProposalState enum value representing the         current state of the proposal"
        }
      },
      "renounceOwnership()": {
        "details": "Leaves the contract without owner. It will not be possible to call `onlyOwner` functions anymore. Can only be called by the current owner. NOTE: Renouncing ownership will leave the contract without an owner, thereby removing any functionality that is only available to the owner."
      },
      "setAvatar(address)": {
        "details": "Sets the avatar to a new avatar (`newAvatar`)."
      },
      "setGuard(address)": {
        "details": "Set a guard that checks transactions before execution.",
        "params": {
          "_guard": "The address of the guard to be used or the 0 address to disable the guard."
        }
      },
      "setTarget(address)": {
        "details": "Sets the target to a new target (`newTarget`)."
      },
      "setUp(bytes)": {
        "params": {
          "initializeParams": "encoded initialization parameters: `address _owner`,  `address _avatar`, `address _target`, `address[] memory _strategies`, `uint256 _timelockPeriod`, `uint256 _executionPeriod`"
        }
      },
      "submitProposal(address,bytes,(address,uint256,bytes,uint8)[],string)": {
        "params": {
          "_data": "arbitrary data passed to the BaseStrategy implementation. This may not be used by all strategies,  but is included in case future strategy contracts have a need for it",
          "_metadata": "additional data such as a title/description to submit with the proposal",
          "_strategy": "address of the BaseStrategy implementation which the Proposal will use",
          "_transactions": "array of transactions to propose"
        }
      },
      "transferOwnership(address)": {
        "details": "Transfers ownership of the contract to a new account (`newOwner`). Can only be called by the current owner."
      },
      "updateExecutionPeriod(uint32)": {
        "params": {
          "_executionPeriod": "new execution period (in blocks)"
        }
      },
      "updateTimelockPeriod(uint32)": {
        "params": {
          "_timelockPeriod": "timelockPeriod (in blocks) to be used for new Proposals"
        }
      }
    },
    "version": 1
  },
  "userdoc": {
    "errors": {
      "NotIERC165Compliant(address)": [
        {
          "notice": "`guard_` does not implement IERC165."
        }
      ]
    },
    "kind": "user",
    "methods": {
      "DOMAIN_SEPARATOR_TYPEHASH()": {
        "notice": "``` keccak256(      \"EIP712Domain(uint256 chainId,address verifyingContract)\" ); ``` A unique hash intended to prevent signature collisions. See https://eips.ethereum.org/EIPS/eip-712."
      },
      "TRANSACTION_TYPEHASH()": {
        "notice": "``` keccak256(      \"Transaction(address to,uint256 value,bytes data,uint8 operation,uint256 nonce)\" ); ``` See https://eips.ethereum.org/EIPS/eip-712."
      },
      "disableStrategy(address,address)": {
        "notice": "Disables a previously enabled [BaseStrategy](../BaseStrategy.md) implementation for new proposals. This has no effect on existing Proposals, either `ACTIVE` or completed."
      },
      "enableStrategy(address)": {
        "notice": "Enables a [BaseStrategy](../BaseStrategy.md) implementation for newly created Proposals. Multiple strategies can be enabled, and new Proposals will be able to be created using any of the currently enabled strategies."
      },
      "executeProposal(uint32,address[],uint256[],bytes[],uint8[])": {
        "notice": "Executes all transactions within a Proposal. This will only be able to be called if the Proposal passed."
      },
      "executionPeriod()": {
        "notice": "Time (in blocks) between when timelock ends and the Proposal expires. "
      },
      "generateTxHashData(address,uint256,bytes,uint8,uint256)": {
        "notice": "Generates the data for the module transaction hash (required for signing)."
      },
      "getProposal(uint32)": {
        "notice": "Returns details about the specified Proposal."
      },
      "getProposalTxHash(uint32,uint32)": {
        "notice": "Returns the hash of a transaction in a Proposal."
      },
      "getProposalTxHashes(uint32)": {
        "notice": "Returns the transaction hashes associated with a given `proposalId`."
      },
      "getStrategies(address,uint256)": {
        "notice": "Returns an array of enabled [BaseStrategy](../BaseStrategy.md) contract addresses. Because the list of BaseStrategies is technically unbounded, this requires the address of the first strategy you would like, along with the total count of strategies to return, rather than returning the whole list at once."
      },
      "getTxHash(address,uint256,bytes,uint8)": {
        "notice": "Returns the `keccak256` hash of the specified transaction."
      },
      "isStrategyEnabled(address)": {
        "notice": "Returns whether a [BaseStrategy](../BaseStrategy.md) implementation is enabled."
      },
      "proposalState(uint32)": {
        "notice": "Gets the state of a Proposal."
      },
      "setAvatar(address)": {
        "notice": "Can only be called by the current owner."
      },
      "setTarget(address)": {
        "notice": "Can only be called by the current owner."
      },
      "setUp(bytes)": {
        "notice": "Initial setup of the Azorius instance."
      },
      "submitProposal(address,bytes,(address,uint256,bytes,uint8)[],string)": {
        "notice": "Submits a new Proposal, using one of the enabled [BaseStrategies](../BaseStrategy.md). New Proposals begin immediately in the `ACTIVE` state."
      },
      "timelockPeriod()": {
        "notice": "Delay (in blocks) between when a Proposal is passed and when it can be executed. "
      },
      "totalProposalCount()": {
        "notice": "Total number of submitted Proposals. "
      },
      "updateExecutionPeriod(uint32)": {
        "notice": "Updates the execution period for future Proposals."
      },
      "updateTimelockPeriod(uint32)": {
        "notice": "Updates the `timelockPeriod` for newly created Proposals. This has no effect on existing Proposals, either `ACTIVE` or completed."
      }
    },
    "notice": "A Safe module which allows for composable governance. Azorius conforms to the [Zodiac pattern](https://github.com/gnosis/zodiac) for Safe modules. The Azorius contract acts as a central manager of DAO Proposals, maintaining the specifications of the transactions that comprise a Proposal, but notably not the state of voting. All voting details are delegated to [BaseStrategy](./BaseStrategy.md) implementations, of which an Azorius DAO can have any number.",
    "version": 1
  },
  "storageLayout": {
    "storage": [
      {
        "astId": 3158,
        "contract": "contracts/azorius/Azorius.sol:Azorius",
        "label": "_initialized",
        "offset": 0,
        "slot": "0",
        "type": "t_uint8"
      },
      {
        "astId": 3161,
        "contract": "contracts/azorius/Azorius.sol:Azorius",
        "label": "_initializing",
        "offset": 1,
        "slot": "0",
        "type": "t_bool"
      },
      {
        "astId": 6060,
        "contract": "contracts/azorius/Azorius.sol:Azorius",
        "label": "__gap",
        "offset": 0,
        "slot": "1",
        "type": "t_array(t_uint256)50_storage"
      },
      {
        "astId": 2952,
        "contract": "contracts/azorius/Azorius.sol:Azorius",
        "label": "_owner",
        "offset": 0,
        "slot": "51",
        "type": "t_address"
      },
      {
        "astId": 3072,
        "contract": "contracts/azorius/Azorius.sol:Azorius",
        "label": "__gap",
        "offset": 0,
        "slot": "52",
        "type": "t_array(t_uint256)49_storage"
      },
      {
        "astId": 2759,
        "contract": "contracts/azorius/Azorius.sol:Azorius",
        "label": "guard",
        "offset": 0,
        "slot": "101",
        "type": "t_address"
      },
      {
        "astId": 2437,
        "contract": "contracts/azorius/Azorius.sol:Azorius",
        "label": "avatar",
        "offset": 0,
        "slot": "102",
        "type": "t_address"
      },
      {
        "astId": 2440,
        "contract": "contracts/azorius/Azorius.sol:Azorius",
        "label": "target",
        "offset": 0,
        "slot": "103",
        "type": "t_address"
      },
      {
        "astId": 14294,
        "contract": "contracts/azorius/Azorius.sol:Azorius",
        "label": "totalProposalCount",
        "offset": 20,
        "slot": "103",
        "type": "t_uint32"
      },
      {
        "astId": 14297,
        "contract": "contracts/azorius/Azorius.sol:Azorius",
        "label": "timelockPeriod",
        "offset": 24,
        "slot": "103",
        "type": "t_uint32"
      },
      {
        "astId": 14300,
        "contract": "contracts/azorius/Azorius.sol:Azorius",
        "label": "executionPeriod",
        "offset": 28,
        "slot": "103",
        "type": "t_uint32"
      },
      {
        "astId": 14306,
        "contract": "contracts/azorius/Azorius.sol:Azorius",
        "label": "proposals",
        "offset": 0,
        "slot": "104",
        "type": "t_mapping(t_uint256,t_struct(Proposal)17364_storage)"
      },
      {
        "astId": 14311,
        "contract": "contracts/azorius/Azorius.sol:Azorius",
        "label": "strategies",
        "offset": 0,
        "slot": "105",
        "type": "t_mapping(t_address,t_address)"
      }
    ],
    "types": {
      "t_address": {
        "encoding": "inplace",
        "label": "address",
        "numberOfBytes": "20"
      },
      "t_array(t_bytes32)dyn_storage": {
        "base": "t_bytes32",
        "encoding": "dynamic_array",
        "label": "bytes32[]",
        "numberOfBytes": "32"
      },
      "t_array(t_uint256)49_storage": {
        "base": "t_uint256",
        "encoding": "inplace",
        "label": "uint256[49]",
        "numberOfBytes": "1568"
      },
      "t_array(t_uint256)50_storage": {
        "base": "t_uint256",
        "encoding": "inplace",
        "label": "uint256[50]",
        "numberOfBytes": "1600"
      },
      "t_bool": {
        "encoding": "inplace",
        "label": "bool",
        "numberOfBytes": "1"
      },
      "t_bytes32": {
        "encoding": "inplace",
        "label": "bytes32",
        "numberOfBytes": "32"
      },
      "t_mapping(t_address,t_address)": {
        "encoding": "mapping",
        "key": "t_address",
        "label": "mapping(address => address)",
        "numberOfBytes": "32",
        "value": "t_address"
      },
      "t_mapping(t_uint256,t_struct(Proposal)17364_storage)": {
        "encoding": "mapping",
        "key": "t_uint256",
        "label": "mapping(uint256 => struct IAzorius.Proposal)",
        "numberOfBytes": "32",
        "value": "t_struct(Proposal)17364_storage"
      },
      "t_struct(Proposal)17364_storage": {
        "encoding": "inplace",
        "label": "struct IAzorius.Proposal",
        "members": [
          {
            "astId": 17354,
            "contract": "contracts/azorius/Azorius.sol:Azorius",
            "label": "executionCounter",
            "offset": 0,
            "slot": "0",
            "type": "t_uint32"
          },
          {
            "astId": 17356,
            "contract": "contracts/azorius/Azorius.sol:Azorius",
            "label": "timelockPeriod",
            "offset": 4,
            "slot": "0",
            "type": "t_uint32"
          },
          {
            "astId": 17358,
            "contract": "contracts/azorius/Azorius.sol:Azorius",
            "label": "executionPeriod",
            "offset": 8,
            "slot": "0",
            "type": "t_uint32"
          },
          {
            "astId": 17360,
            "contract": "contracts/azorius/Azorius.sol:Azorius",
            "label": "strategy",
            "offset": 12,
            "slot": "0",
            "type": "t_address"
          },
          {
            "astId": 17363,
            "contract": "contracts/azorius/Azorius.sol:Azorius",
            "label": "txHashes",
            "offset": 0,
            "slot": "1",
            "type": "t_array(t_bytes32)dyn_storage"
          }
        ],
        "numberOfBytes": "64"
      },
      "t_uint256": {
        "encoding": "inplace",
        "label": "uint256",
        "numberOfBytes": "32"
      },
      "t_uint32": {
        "encoding": "inplace",
        "label": "uint32",
        "numberOfBytes": "4"
      },
      "t_uint8": {
        "encoding": "inplace",
        "label": "uint8",
        "numberOfBytes": "1"
      }
    }
  }
}