{
  "address": "0x00b089E0A6fdE24cf8978994c7BcD24fc1D79825",
  "abi": [
    {
      "inputs": [],
      "name": "NAME",
      "outputs": [
        {
          "internalType": "string",
          "name": "",
          "type": "string"
        }
      ],
      "stateMutability": "view",
      "type": "function"
    },
    {
      "inputs": [
        {
          "components": [
            {
              "internalType": "contract IHats",
              "name": "hatsProtocol",
              "type": "address"
            },
            {
              "internalType": "address",
              "name": "hatsAccountImplementation",
              "type": "address"
            },
            {
              "internalType": "contract IERC6551Registry",
              "name": "registry",
              "type": "address"
            },
            {
              "internalType": "address",
              "name": "keyValuePairs",
              "type": "address"
            },
            {
              "internalType": "string",
              "name": "topHatDetails",
              "type": "string"
            },
            {
              "internalType": "string",
              "name": "topHatImageURI",
              "type": "string"
            },
            {
              "components": [
                {
                  "internalType": "uint32",
                  "name": "maxSupply",
                  "type": "uint32"
                },
                {
                  "internalType": "string",
                  "name": "details",
                  "type": "string"
                },
                {
                  "internalType": "string",
                  "name": "imageURI",
                  "type": "string"
                },
                {
                  "internalType": "bool",
                  "name": "isMutable",
                  "type": "bool"
                },
                {
                  "internalType": "address",
                  "name": "wearer",
                  "type": "address"
                },
                {
                  "components": [
                    {
                      "internalType": "contract ISablierV2LockupLinear",
                      "name": "sablier",
                      "type": "address"
                    },
                    {
                      "internalType": "address",
                      "name": "sender",
                      "type": "address"
                    },
                    {
                      "internalType": "uint128",
                      "name": "totalAmount",
                      "type": "uint128"
                    },
                    {
                      "internalType": "address",
                      "name": "asset",
                      "type": "address"
                    },
                    {
                      "internalType": "bool",
                      "name": "cancelable",
                      "type": "bool"
                    },
                    {
                      "internalType": "bool",
                      "name": "transferable",
                      "type": "bool"
                    },
                    {
                      "components": [
                        {
                          "internalType": "uint40",
                          "name": "start",
                          "type": "uint40"
                        },
                        {
                          "internalType": "uint40",
                          "name": "cliff",
                          "type": "uint40"
                        },
                        {
                          "internalType": "uint40",
                          "name": "end",
                          "type": "uint40"
                        }
                      ],
                      "internalType": "struct LockupLinear.Timestamps",
                      "name": "timestamps",
                      "type": "tuple"
                    },
                    {
                      "components": [
                        {
                          "internalType": "address",
                          "name": "account",
                          "type": "address"
                        },
                        {
                          "internalType": "uint256",
                          "name": "fee",
                          "type": "uint256"
                        }
                      ],
                      "internalType": "struct LockupLinear.Broker",
                      "name": "broker",
                      "type": "tuple"
                    }
                  ],
                  "internalType": "struct DecentHats_0_1_0.SablierStreamParams[]",
                  "name": "sablierParams",
                  "type": "tuple[]"
                }
              ],
              "internalType": "struct DecentHats_0_1_0.Hat",
              "name": "adminHat",
              "type": "tuple"
            },
            {
              "components": [
                {
                  "internalType": "uint32",
                  "name": "maxSupply",
                  "type": "uint32"
                },
                {
                  "internalType": "string",
                  "name": "details",
                  "type": "string"
                },
                {
                  "internalType": "string",
                  "name": "imageURI",
                  "type": "string"
                },
                {
                  "internalType": "bool",
                  "name": "isMutable",
                  "type": "bool"
                },
                {
                  "internalType": "address",
                  "name": "wearer",
                  "type": "address"
                },
                {
                  "components": [
                    {
                      "internalType": "contract ISablierV2LockupLinear",
                      "name": "sablier",
                      "type": "address"
                    },
                    {
                      "internalType": "address",
                      "name": "sender",
                      "type": "address"
                    },
                    {
                      "internalType": "uint128",
                      "name": "totalAmount",
                      "type": "uint128"
                    },
                    {
                      "internalType": "address",
                      "name": "asset",
                      "type": "address"
                    },
                    {
                      "internalType": "bool",
                      "name": "cancelable",
                      "type": "bool"
                    },
                    {
                      "internalType": "bool",
                      "name": "transferable",
                      "type": "bool"
                    },
                    {
                      "components": [
                        {
                          "internalType": "uint40",
                          "name": "start",
                          "type": "uint40"
                        },
                        {
                          "internalType": "uint40",
                          "name": "cliff",
                          "type": "uint40"
                        },
                        {
                          "internalType": "uint40",
                          "name": "end",
                          "type": "uint40"
                        }
                      ],
                      "internalType": "struct LockupLinear.Timestamps",
                      "name": "timestamps",
                      "type": "tuple"
                    },
                    {
                      "components": [
                        {
                          "internalType": "address",
                          "name": "account",
                          "type": "address"
                        },
                        {
                          "internalType": "uint256",
                          "name": "fee",
                          "type": "uint256"
                        }
                      ],
                      "internalType": "struct LockupLinear.Broker",
                      "name": "broker",
                      "type": "tuple"
                    }
                  ],
                  "internalType": "struct DecentHats_0_1_0.SablierStreamParams[]",
                  "name": "sablierParams",
                  "type": "tuple[]"
                }
              ],
              "internalType": "struct DecentHats_0_1_0.Hat[]",
              "name": "hats",
              "type": "tuple[]"
            }
          ],
          "internalType": "struct DecentHats_0_1_0.CreateTreeParams",
          "name": "params",
          "type": "tuple"
        }
      ],
      "name": "createAndDeclareTree",
      "outputs": [],
      "stateMutability": "nonpayable",
      "type": "function"
    },
    {
      "inputs": [],
      "name": "getSalt",
      "outputs": [
        {
          "internalType": "bytes32",
          "name": "salt",
          "type": "bytes32"
        }
      ],
      "stateMutability": "pure",
      "type": "function"
    }
  ],
  "transactionHash": "0x838e49f34e0c5da270a3ee8945c11b664f1cc242cb6b3c794464795333813910",
  "args": [],
  "numDeployments": 3,
  "solcInputHash": "6ceb8d75a501322d052845dbe517017d",
  "bytecode": "0x608060405234801561001057600080fd5b50611410806100206000396000f3fe608060405234801561001057600080fd5b50600436106100415760003560e01c806313a9589c146100465780638c5f591a14610079578063a3f4df7e1461008e575b600080fd5b6040517f5d0e6ce4fd951366cc55da93f6e79d8b81483109d79676a04bcc2bed6a4b507281526020015b60405180910390f35b61008c610087366004610aa8565b6100ca565b005b6100bd6040518060400160405280601081526020016f0446563656e74486174735f305f315f360841b81525081565b6040516100709190610b30565b7f5d0e6ce4fd951366cc55da93f6e79d8b81483109d79676a04bcc2bed6a4b50726000806101a86100fe6020860186610b5b565b61010b6080870187610b78565b8080601f01602080910402602001604051908101604052809392919081815260200183838082843760009201919091525061014d9250505060a0880188610b78565b8080601f016020809104026020016040519081016040528093929190818152602001838380828437600092019190915250610192925050506060890160408a01610b5b565b6101a260408a0160208b01610b5b565b88610317565b90925090506101c66101c06080860160608701610b5b565b836103a9565b600061020d6101d86020870187610b5b565b846101e660c0890189610bd5565b856101f760608b0160408c01610b5b565b61020760408c0160208d01610b5b565b8a610529565b50905060005b61022060e0870187610bf5565b905081101561029a576102906102396020880188610b5b565b8361024760e08a018a610bf5565b8581811061025757610257610c3e565b90506020028101906102699190610bd5565b8661027a60608c0160408d01610b5b565b61028a60408d0160208e01610b5b565b8b610529565b5050600101610213565b506102a86020860186610b5b565b6040516329287c1b60e21b8152600481018590523060248201523360448201526001600160a01b03919091169063a4a1f06c90606401600060405180830381600087803b1580156102f857600080fd5b505af115801561030c573d6000803e3d6000fd5b505050505050505050565b600080876001600160a01b0316631a64dfad3089896040518463ffffffff1660e01b815260040161034a93929190610c54565b6020604051808303816000875af1158015610369573d6000803e3d6000fd5b505050506040513d601f19601f8201168201806040525081019061038d9190610c8a565b915061039c8585858b86610878565b9050965096945050505050565b604080516001808252818301909252600091816020015b60608152602001906001900390816103c057505060408051600180825281830190925291925060009190602082015b60608152602001906001900390816103ef579050509050604051806040016040528060088152602001671d1bdc12185d125960c21b8152508260008151811061043a5761043a610c3e565b602002602001018190525061044e8361090e565b8160008151811061046157610461610c3e565b6020026020010181905250336001600160a01b031663468721a78560008585604051602401610491929190610d11565b60408051601f198184030181529181526020820180516001600160e01b031663579374b960e11b1790525160e085901b6001600160e01b03191681526104df93929190600090600401610d36565b6020604051808303816000875af11580156104fe573d6000803e3d6000fd5b505050506040513d601f19601f820116820180604052508101906105229190610d9a565b5050505050565b600080610540898961053a8a6110d4565b89610a16565b915061054f8585858c86610878565b9050600061056360a0890160808a01610b5b565b6001600160a01b031614610603576001600160a01b03891663641f776e8361059160a08b0160808c01610b5b565b6040516001600160e01b031960e085901b16815260048101929092526001600160a01b031660248201526044016020604051808303816000875af11580156105dd573d6000803e3d6000fd5b505050506040513d601f19601f820116820180604052508101906106019190610d9a565b505b60005b61061360a0890189611198565b905081101561086b57600061062b60a08a018a611198565b8381811061063b5761063b610c3e565b9050610160020180360381019061065291906111e1565b6060810151815160408084015190516001600160a01b0390921660248301526001600160801b03166044820152919250339163468721a7919060009060640160408051601f198184030181529181526020820180516001600160e01b031663095ea7b360e01b1790525160e085901b6001600160e01b03191681526106df93929190600090600401610d36565b6020604051808303816000875af11580156106fe573d6000803e3d6000fd5b505050506040513d601f19601f820116820180604052508101906107229190610d9a565b50600060405180610100016040528083602001516001600160a01b03168152602001856001600160a01b0316815260200183604001516001600160801b0316815260200183606001516001600160a01b031681526020018360800151151581526020018360a00151151581526020018360c0015181526020018360e001518152509050336001600160a01b031663468721a783600001516000846040516024016107cc91906111fe565b60408051601f198184030181529181526020820180516001600160e01b03166353b1572760e01b1790525160e085901b6001600160e01b031916815261081a93929190600090600401610d36565b6020604051808303816000875af1158015610839573d6000803e3d6000fd5b505050506040513d601f19601f8201168201806040525081019061085d9190610d9a565b508260010192505050610606565b5097509795505050505050565b604051638a54c52f60e01b81526001600160a01b0385811660048301526024820185905246604483015283811660648301526084820183905260009190871690638a54c52f9060a4016020604051808303816000875af11580156108e0573d6000803e3d6000fd5b505050506040513d601f19601f8201168201806040525081019061090491906112c0565b9695505050505050565b6060816000036109355750506040805180820190915260018152600360fc1b602082015290565b8160005b811561095f5780610949816112f3565b91506109589050600a83611322565b9150610939565b6000816001600160401b0381111561097957610979610ca3565b6040519080825280601f01601f1916602001820160405280156109a3576020820181803683370190505b5090505b8415610a0e576109b8600183611336565b91506109c5600a8661134f565b6109d0906030611363565b60f81b8183815181106109e5576109e5610c3e565b60200101906001600160f81b031916908160001a905350610a07600a86611322565b94506109a7565b949350505050565b6020820151825160608401516040808601519051635829492f60e11b81526000946001600160a01b038a169463b052925e94610a5c948b948a9283929091600401611376565b6020604051808303816000875af1158015610a7b573d6000803e3d6000fd5b505050506040513d601f19601f82011682018060405250810190610a9f9190610c8a565b95945050505050565b600060208284031215610aba57600080fd5b81356001600160401b03811115610ad057600080fd5b82016101008185031215610ae357600080fd5b9392505050565b6000815180845260005b81811015610b1057602081850181015186830182015201610af4565b506000602082860101526020601f19601f83011685010191505092915050565b602081526000610ae36020830184610aea565b6001600160a01b0381168114610b5857600080fd5b50565b600060208284031215610b6d57600080fd5b8135610ae381610b43565b6000808335601e19843603018112610b8f57600080fd5b8301803591506001600160401b03821115610ba957600080fd5b602001915036819003821315610bbe57600080fd5b9250929050565b8035610bd081610b43565b919050565b6000823560be19833603018112610beb57600080fd5b9190910192915050565b6000808335601e19843603018112610c0c57600080fd5b8301803591506001600160401b03821115610c2657600080fd5b6020019150600581901b3603821315610bbe57600080fd5b634e487b7160e01b600052603260045260246000fd5b6001600160a01b0384168152606060208201819052600090610c7890830185610aea565b82810360408401526109048185610aea565b600060208284031215610c9c57600080fd5b5051919050565b634e487b7160e01b600052604160045260246000fd5b600082825180855260208086019550808260051b84010181860160005b84811015610d0457601f19868403018952610cf2838351610aea565b98840198925090830190600101610cd6565b5090979650505050505050565b604081526000610d246040830185610cb9565b8281036020840152610a9f8185610cb9565b60018060a01b0385168152836020820152608060408201526000610d5d6080830185610aea565b905060028310610d7d57634e487b7160e01b600052602160045260246000fd5b82606083015295945050505050565b8015158114610b5857600080fd5b600060208284031215610dac57600080fd5b8151610ae381610d8c565b60405160c081016001600160401b0381118282101715610dd957610dd9610ca3565b60405290565b604051601f8201601f191681016001600160401b0381118282101715610e0757610e07610ca3565b604052919050565b803563ffffffff81168114610bd057600080fd5b600082601f830112610e3457600080fd5b81356001600160401b03811115610e4d57610e4d610ca3565b610e60601f8201601f1916602001610ddf565b818152846020838601011115610e7557600080fd5b816020850160208301376000918101602001919091529392505050565b8035610bd081610d8c565b80356001600160801b0381168114610bd057600080fd5b803564ffffffffff81168114610bd057600080fd5b600060608284031215610edb57600080fd5b604051606081018181106001600160401b0382111715610efd57610efd610ca3565b604052905080610f0c83610eb4565b8152610f1a60208401610eb4565b6020820152610f2b60408401610eb4565b60408201525092915050565b600060408284031215610f4957600080fd5b604051604081018181106001600160401b0382111715610f6b57610f6b610ca3565b6040529050808235610f7c81610b43565b8152602092830135920191909152919050565b60006101608284031215610fa257600080fd5b60405161010081018181106001600160401b0382111715610fc557610fc5610ca3565b604052905080610fd483610bc5565b8152610fe260208401610bc5565b6020820152610ff360408401610e9d565b604082015261100460608401610bc5565b606082015261101560808401610e92565b608082015261102660a08401610e92565b60a08201526110388460c08501610ec9565b60c082015261104b846101208501610f37565b60e08201525092915050565b600082601f83011261106857600080fd5b813560206001600160401b0382111561108357611083610ca3565b611091818360051b01610ddf565b82815261016092830285018201928282019190878511156110b157600080fd5b8387015b85811015610d04576110c78982610f8f565b84529284019281016110b5565b600060c082360312156110e657600080fd5b6110ee610db7565b6110f783610e0f565b815260208301356001600160401b038082111561111357600080fd5b61111f36838701610e23565b6020840152604085013591508082111561113857600080fd5b61114436838701610e23565b604084015261115560608601610e92565b606084015261116660808601610bc5565b608084015260a085013591508082111561117f57600080fd5b5061118c36828601611057565b60a08301525092915050565b6000808335601e198436030181126111af57600080fd5b8301803591506001600160401b038211156111c957600080fd5b602001915061016081023603821315610bbe57600080fd5b600061016082840312156111f457600080fd5b610ae38383610f8f565b81516001600160a01b0390811682526020808401518216908301526040808401516001600160801b031690830152606080840151909116908201526080808301516101608301916112529084018215159052565b5060a083015161126660a084018215159052565b5060c083015161129960c0840182805164ffffffffff908116835260208083015182169084015260409182015116910152565b5060e0929092015180516001600160a01b0316610120830152602001516101409091015290565b6000602082840312156112d257600080fd5b8151610ae381610b43565b634e487b7160e01b600052601160045260246000fd5b600060018201611305576113056112dd565b5060010190565b634e487b7160e01b600052601260045260246000fd5b6000826113315761133161130c565b500490565b81810381811115611349576113496112dd565b92915050565b60008261135e5761135e61130c565b500690565b80820180821115611349576113496112dd565b87815260e06020820152600061138f60e0830189610aea565b63ffffffff881660408401526001600160a01b0387811660608501528616608084015284151560a084015282810360c08401526113cc8185610aea565b9a995050505050505050505056fea2646970667358221220fcb8ad75991fd171fd33998d718d5f54883d99a48d56657e7e938e34a55d6a2664736f6c63430008130033",
  "devdoc": {
    "kind": "dev",
    "methods": {},
    "version": 1
  },
  "userdoc": {
    "kind": "user",
    "methods": {},
    "version": 1
  },
  "storageLayout": {
    "storage": [],
    "types": null
  }
}