{
  "address": "0xd71e2bdC28BFa907652Cfb8BeAfdF59822B71B1B",
  "abi": [
    {
      "inputs": [
        {
          "internalType": "contract IHats",
          "name": "_hats",
          "type": "address"
        },
        {
          "internalType": "address",
          "name": "_hatsAccountImplementation",
          "type": "address"
        },
        {
          "internalType": "contract IERC6551Registry",
          "name": "_registry",
          "type": "address"
        },
        {
          "internalType": "address",
          "name": "_keyValuePairs",
          "type": "address"
        }
      ],
      "stateMutability": "nonpayable",
      "type": "constructor"
    },
    {
      "inputs": [],
      "name": "SALT",
      "outputs": [
        {
          "internalType": "bytes32",
          "name": "",
          "type": "bytes32"
        }
      ],
      "stateMutability": "view",
      "type": "function"
    },
    {
      "inputs": [
        {
          "internalType": "string",
          "name": "_topHatDetails",
          "type": "string"
        },
        {
          "internalType": "string",
          "name": "_topHatImageURI",
          "type": "string"
        },
        {
          "components": [
            {
              "internalType": "address",
              "name": "eligibility",
              "type": "address"
            },
            {
              "internalType": "uint32",
              "name": "maxSupply",
              "type": "uint32"
            },
            {
              "internalType": "address",
              "name": "toggle",
              "type": "address"
            },
            {
              "internalType": "string",
              "name": "details",
              "type": "string"
            },
            {
              "internalType": "string",
              "name": "imageURI",
              "type": "string"
            },
            {
              "internalType": "bool",
              "name": "isMutable",
              "type": "bool"
            },
            {
              "internalType": "address",
              "name": "wearer",
              "type": "address"
            }
          ],
          "internalType": "struct DecentHats.Hat",
          "name": "_adminHat",
          "type": "tuple"
        },
        {
          "components": [
            {
              "internalType": "address",
              "name": "eligibility",
              "type": "address"
            },
            {
              "internalType": "uint32",
              "name": "maxSupply",
              "type": "uint32"
            },
            {
              "internalType": "address",
              "name": "toggle",
              "type": "address"
            },
            {
              "internalType": "string",
              "name": "details",
              "type": "string"
            },
            {
              "internalType": "string",
              "name": "imageURI",
              "type": "string"
            },
            {
              "internalType": "bool",
              "name": "isMutable",
              "type": "bool"
            },
            {
              "internalType": "address",
              "name": "wearer",
              "type": "address"
            }
          ],
          "internalType": "struct DecentHats.Hat[]",
          "name": "_hats",
          "type": "tuple[]"
        }
      ],
      "name": "createAndDeclareTree",
      "outputs": [],
      "stateMutability": "nonpayable",
      "type": "function"
    },
    {
      "inputs": [],
      "name": "hats",
      "outputs": [
        {
          "internalType": "contract IHats",
          "name": "",
          "type": "address"
        }
      ],
      "stateMutability": "view",
      "type": "function"
    },
    {
      "inputs": [],
      "name": "hatsAccountImplementation",
      "outputs": [
        {
          "internalType": "address",
          "name": "",
          "type": "address"
        }
      ],
      "stateMutability": "view",
      "type": "function"
    },
    {
      "inputs": [],
      "name": "keyValuePairs",
      "outputs": [
        {
          "internalType": "address",
          "name": "",
          "type": "address"
        }
      ],
      "stateMutability": "view",
      "type": "function"
    },
    {
      "inputs": [],
      "name": "registry",
      "outputs": [
        {
          "internalType": "contract IERC6551Registry",
          "name": "",
          "type": "address"
        }
      ],
      "stateMutability": "view",
      "type": "function"
    }
  ],
  "transactionHash": "0xd189b0d54a1475487eb3684c2cdfc21e1903c73f8debe3c09b53410390d0d1fa",
  "args": [
    "0x3bc1A0Ad72417f2d411118085256fC53CBdDd137",
    "0xfEf83A660b7C10a3EdaFdCF62DEee1fD8a875D29",
    "0x000000006551c19487814612e58FE06813775758",
    "0x535B64f9Ef529Ac8B34Ac7273033bBE67B34f131"
  ],
  "numDeployments": 1,
  "solcInputHash": "54669e5a6b69e2447f2d408fa1eb61fc",
  "bytecode": "0x608060405234801561001057600080fd5b50604051620011d8380380620011d88339810160408190526100319161009c565b600080546001600160a01b039586166001600160a01b03199182161790915560018054948616948216949094179093556002805492851692841692909217909155600380549190931691161790556100fb565b6001600160a01b038116811461009957600080fd5b50565b600080600080608085870312156100b257600080fd5b84516100bd81610084565b60208601519094506100ce81610084565b60408601519093506100df81610084565b60608601519092506100f081610084565b939692955090935050565b6110cd806200010b6000396000f3fe608060405234801561001057600080fd5b50600436106100625760003560e01c8063447a7a85146100675780637b10399914610097578063ba9a91a5146100aa578063bb70162b146100cd578063ecd1d997146100e2578063f99f0238146100f5575b600080fd5b60035461007a906001600160a01b031681565b6040516001600160a01b0390911681526020015b60405180910390f35b60025461007a906001600160a01b031681565b6100bf60008051602061107883398151915281565b60405190815260200161008e565b6100e06100db366004610a58565b610108565b005b60015461007a906001600160a01b031681565b60005461007a906001600160a01b031681565b60008054604051631a64dfad60e01b81526001600160a01b0390911690631a64dfad9061013d9030908a908a90600401610b5a565b6020604051808303816000875af115801561015c573d6000803e3d6000fd5b505050506040513d601f19601f820116820180604052508101906101809190610b9a565b600254600154600054604051638a54c52f60e01b81529394506001600160a01b0392831693638a54c52f936101d293811692600080516020611078833981519152924692909116908890600401610bb3565b6020604051808303816000875af11580156101f1573d6000803e3d6000fd5b505050506040513d601f19601f820116820180604052508101906102159190610bfe565b50604080516001808252818301909252600091816020015b606081526020019060019003908161022d579050509050604051806040016040528060088152602001671d1bdc12185d125960c21b8152508160008151811061027857610278610c22565b6020908102919091010152604080516001808252818301909252600091816020015b606081526020019060019003908161029a5790505090506102ba83610837565b816000815181106102cd576102cd610c22565b6020908102919091010152600354604051339163468721a7916001600160a01b03909116906000906103059087908790602401610c8d565b60408051601f198184030181529181526020820180516001600160e01b031663579374b960e11b1790525160e085901b6001600160e01b031916815261035393929190600090600401610cbb565b6020604051808303816000875af1158015610372573d6000803e3d6000fd5b505050506040513d601f19601f820116820180604052508101906103969190610d1f565b50600080546001600160a01b031663b052925e856103b760608b018b610d3c565b6103c760408d0160208e01610d9c565b6103d460208e018e610dc2565b8d60400160208101906103e79190610dc2565b8e60a00160208101906103fa9190610dea565b8f806080019061040a9190610d3c565b6040518a63ffffffff1660e01b815260040161042e99989796959493929190610e30565b6020604051808303816000875af115801561044d573d6000803e3d6000fd5b505050506040513d601f19601f820116820180604052508101906104719190610b9a565b600254600154600054604051638a54c52f60e01b81529394506001600160a01b0392831693638a54c52f936104c393811692600080516020611078833981519152924692909116908890600401610bb3565b6020604051808303816000875af11580156104e2573d6000803e3d6000fd5b505050506040513d601f19601f820116820180604052508101906105069190610bfe565b50600061051960e0890160c08a01610dc2565b6001600160a01b0316146105bb576000546001600160a01b031663641f776e8261054960e08b0160c08c01610dc2565b6040516001600160e01b031960e085901b16815260048101929092526001600160a01b031660248201526044016020604051808303816000875af1158015610595573d6000803e3d6000fd5b505050506040513d601f19601f820116820180604052508101906105b99190610d1f565b505b60005b858110156107c15760008787838181106105da576105da610c22565b90506020028101906105ec9190610e98565b6105f590610eb8565b6000805460608301516020840151845160408087015160a088015160808901519251635829492f60e11b815298995096976001600160a01b039096169663b052925e9661064e968d969095909490939291600401610f7a565b6020604051808303816000875af115801561066d573d6000803e3d6000fd5b505050506040513d601f19601f820116820180604052508101906106919190610b9a565b600254600154600054604051638a54c52f60e01b81529394506001600160a01b0392831693638a54c52f936106e393811692600080516020611078833981519152924692909116908890600401610bb3565b6020604051808303816000875af1158015610702573d6000803e3d6000fd5b505050506040513d601f19601f820116820180604052508101906107269190610bfe565b5060c08201516001600160a01b0316156107b75760005460c083015160405163320fbbb760e11b8152600481018490526001600160a01b03918216602482015291169063641f776e906044016020604051808303816000875af1158015610791573d6000803e3d6000fd5b505050506040513d601f19601f820116820180604052508101906107b59190610d1f565b505b50506001016105be565b506000546040516329287c1b60e21b8152600481018690523060248201523360448201526001600160a01b039091169063a4a1f06c90606401600060405180830381600087803b15801561081457600080fd5b505af1158015610828573d6000803e3d6000fd5b50505050505050505050505050565b60608160000361085e5750506040805180820190915260018152600360fc1b602082015290565b8160005b8115610888578061087281610ff4565b91506108819050600a83611023565b9150610862565b60008167ffffffffffffffff8111156108a3576108a3610940565b6040519080825280601f01601f1916602001820160405280156108cd576020820181803683370190505b5090505b8415610938576108e2600183611037565b91506108ef600a86611050565b6108fa906030611064565b60f81b81838151811061090f5761090f610c22565b60200101906001600160f81b031916908160001a905350610931600a86611023565b94506108d1565b949350505050565b634e487b7160e01b600052604160045260246000fd5b60405160e0810167ffffffffffffffff8111828210171561097957610979610940565b60405290565b600082601f83011261099057600080fd5b813567ffffffffffffffff808211156109ab576109ab610940565b604051601f8301601f19908116603f011681019082821181831017156109d3576109d3610940565b816040528381528660208588010111156109ec57600080fd5b836020870160208301376000602085830101528094505050505092915050565b60008083601f840112610a1e57600080fd5b50813567ffffffffffffffff811115610a3657600080fd5b6020830191508360208260051b8501011115610a5157600080fd5b9250929050565b600080600080600060808688031215610a7057600080fd5b853567ffffffffffffffff80821115610a8857600080fd5b610a9489838a0161097f565b96506020880135915080821115610aaa57600080fd5b610ab689838a0161097f565b95506040880135915080821115610acc57600080fd5b9087019060e0828a031215610ae057600080fd5b90935060608701359080821115610af657600080fd5b50610b0388828901610a0c565b969995985093965092949392505050565b6000815180845260005b81811015610b3a57602081850181015186830182015201610b1e565b506000602082860101526020601f19601f83011685010191505092915050565b6001600160a01b0384168152606060208201819052600090610b7e90830185610b14565b8281036040840152610b908185610b14565b9695505050505050565b600060208284031215610bac57600080fd5b5051919050565b6001600160a01b039586168152602081019490945260408401929092529092166060820152608081019190915260a00190565b6001600160a01b0381168114610bfb57600080fd5b50565b600060208284031215610c1057600080fd5b8151610c1b81610be6565b9392505050565b634e487b7160e01b600052603260045260246000fd5b600081518084526020808501808196508360051b8101915082860160005b85811015610c80578284038952610c6e848351610b14565b98850198935090840190600101610c56565b5091979650505050505050565b604081526000610ca06040830185610c38565b8281036020840152610cb28185610c38565b95945050505050565b60018060a01b0385168152836020820152608060408201526000610ce26080830185610b14565b905060028310610d0257634e487b7160e01b600052602160045260246000fd5b82606083015295945050505050565b8015158114610bfb57600080fd5b600060208284031215610d3157600080fd5b8151610c1b81610d11565b6000808335601e19843603018112610d5357600080fd5b83018035915067ffffffffffffffff821115610d6e57600080fd5b602001915036819003821315610a5157600080fd5b803563ffffffff81168114610d9757600080fd5b919050565b600060208284031215610dae57600080fd5b610c1b82610d83565b8035610d9781610be6565b600060208284031215610dd457600080fd5b8135610c1b81610be6565b8035610d9781610d11565b600060208284031215610dfc57600080fd5b8135610c1b81610d11565b81835281816020850137506000828201602090810191909152601f909101601f19169091010190565b89815260e060208201526000610e4a60e083018a8c610e07565b63ffffffff891660408401526001600160a01b0388811660608501528716608084015285151560a084015282810360c0840152610e88818587610e07565b9c9b505050505050505050505050565b6000823560de19833603018112610eae57600080fd5b9190910192915050565b600060e08236031215610eca57600080fd5b610ed2610956565b610edb83610db7565b8152610ee960208401610d83565b6020820152610efa60408401610db7565b6040820152606083013567ffffffffffffffff80821115610f1a57600080fd5b610f263683870161097f565b60608401526080850135915080821115610f3f57600080fd5b50610f4c3682860161097f565b608083015250610f5e60a08401610ddf565b60a0820152610f6f60c08401610db7565b60c082015292915050565b87815260e060208201526000610f9360e0830189610b14565b63ffffffff881660408401526001600160a01b0387811660608501528616608084015284151560a084015282810360c0840152610fd08185610b14565b9a9950505050505050505050565b634e487b7160e01b600052601160045260246000fd5b60006001820161100657611006610fde565b5060010190565b634e487b7160e01b600052601260045260246000fd5b6000826110325761103261100d565b500490565b8181038181111561104a5761104a610fde565b92915050565b60008261105f5761105f61100d565b500690565b8082018082111561104a5761104a610fde56feaeaaac369e030e75c8cdbcd1be01d9a187f25a5fe71be28726ca140c1684cb1ba2646970667358221220548256f341d96807e2fd3cea9c3f2467f75e042683d7ca48f31e2c56a026e64d64736f6c63430008130033",
  "devdoc": {
    "kind": "dev",
    "methods": {},
    "version": 1
  },
  "userdoc": {
    "kind": "user",
    "methods": {},
    "version": 1
  },
  "storageLayout": {
    "storage": [
      {
        "astId": 349,
        "contract": "contracts/DecentHats.sol:DecentHats",
        "label": "hats",
        "offset": 0,
        "slot": "0",
        "type": "t_contract(IHats)725"
      },
      {
        "astId": 351,
        "contract": "contracts/DecentHats.sol:DecentHats",
        "label": "hatsAccountImplementation",
        "offset": 0,
        "slot": "1",
        "type": "t_address"
      },
      {
        "astId": 354,
        "contract": "contracts/DecentHats.sol:DecentHats",
        "label": "registry",
        "offset": 0,
        "slot": "2",
        "type": "t_contract(IERC6551Registry)674"
      },
      {
        "astId": 356,
        "contract": "contracts/DecentHats.sol:DecentHats",
        "label": "keyValuePairs",
        "offset": 0,
        "slot": "3",
        "type": "t_address"
      }
    ],
    "types": {
      "t_address": {
        "encoding": "inplace",
        "label": "address",
        "numberOfBytes": "20"
      },
      "t_contract(IERC6551Registry)674": {
        "encoding": "inplace",
        "label": "contract IERC6551Registry",
        "numberOfBytes": "20"
      },
      "t_contract(IHats)725": {
        "encoding": "inplace",
        "label": "contract IHats",
        "numberOfBytes": "20"
      }
    }
  }
}