{
  "address": "0x87326A981fc56823e26599Ff4D0A4eceAFfF3be0",
  "abi": [
    {
      "inputs": [],
      "stateMutability": "nonpayable",
      "type": "constructor"
    },
    {
      "inputs": [
        {
          "internalType": "address",
          "name": "guard_",
          "type": "address"
        }
      ],
      "name": "NotIERC165Compliant",
      "type": "error"
    },
    {
      "inputs": [],
      "name": "TxFailed",
      "type": "error"
    },
    {
      "inputs": [],
      "name": "Unauthorized",
      "type": "error"
    },
    {
      "anonymous": false,
      "inputs": [
        {
          "indexed": true,
          "internalType": "address",
          "name": "previousAvatar",
          "type": "address"
        },
        {
          "indexed": true,
          "internalType": "address",
          "name": "newAvatar",
          "type": "address"
        }
      ],
      "name": "AvatarSet",
      "type": "event"
    },
    {
      "anonymous": false,
      "inputs": [
        {
          "indexed": false,
          "internalType": "address",
          "name": "guard",
          "type": "address"
        }
      ],
      "name": "ChangedGuard",
      "type": "event"
    },
    {
      "anonymous": false,
      "inputs": [
        {
          "indexed": false,
          "internalType": "address[]",
          "name": "controllers",
          "type": "address[]"
        }
      ],
      "name": "ControllersAdded",
      "type": "event"
    },
    {
      "anonymous": false,
      "inputs": [
        {
          "indexed": false,
          "internalType": "address[]",
          "name": "controllers",
          "type": "address[]"
        }
      ],
      "name": "ControllersRemoved",
      "type": "event"
    },
    {
      "anonymous": false,
      "inputs": [
        {
          "indexed": false,
          "internalType": "uint8",
          "name": "version",
          "type": "uint8"
        }
      ],
      "name": "Initialized",
      "type": "event"
    },
    {
      "anonymous": false,
      "inputs": [
        {
          "indexed": true,
          "internalType": "address",
          "name": "previousOwner",
          "type": "address"
        },
        {
          "indexed": true,
          "internalType": "address",
          "name": "newOwner",
          "type": "address"
        }
      ],
      "name": "OwnershipTransferred",
      "type": "event"
    },
    {
      "anonymous": false,
      "inputs": [
        {
          "indexed": true,
          "internalType": "address",
          "name": "previousTarget",
          "type": "address"
        },
        {
          "indexed": true,
          "internalType": "address",
          "name": "newTarget",
          "type": "address"
        }
      ],
      "name": "TargetSet",
      "type": "event"
    },
    {
      "inputs": [
        {
          "internalType": "address[]",
          "name": "_controllers",
          "type": "address[]"
        }
      ],
      "name": "addControllers",
      "outputs": [],
      "stateMutability": "nonpayable",
      "type": "function"
    },
    {
      "inputs": [],
      "name": "avatar",
      "outputs": [
        {
          "internalType": "address",
          "name": "",
          "type": "address"
        }
      ],
      "stateMutability": "view",
      "type": "function"
    },
    {
      "inputs": [
        {
          "internalType": "address",
          "name": "",
          "type": "address"
        }
      ],
      "name": "controllers",
      "outputs": [
        {
          "internalType": "bool",
          "name": "",
          "type": "bool"
        }
      ],
      "stateMutability": "view",
      "type": "function"
    },
    {
      "inputs": [
        {
          "internalType": "bytes",
          "name": "execTxData",
          "type": "bytes"
        }
      ],
      "name": "execTx",
      "outputs": [],
      "stateMutability": "nonpayable",
      "type": "function"
    },
    {
      "inputs": [],
      "name": "getGuard",
      "outputs": [
        {
          "internalType": "address",
          "name": "_guard",
          "type": "address"
        }
      ],
      "stateMutability": "view",
      "type": "function"
    },
    {
      "inputs": [],
      "name": "guard",
      "outputs": [
        {
          "internalType": "address",
          "name": "",
          "type": "address"
        }
      ],
      "stateMutability": "view",
      "type": "function"
    },
    {
      "inputs": [],
      "name": "owner",
      "outputs": [
        {
          "internalType": "address",
          "name": "",
          "type": "address"
        }
      ],
      "stateMutability": "view",
      "type": "function"
    },
    {
      "inputs": [
        {
          "internalType": "address[]",
          "name": "_controllers",
          "type": "address[]"
        }
      ],
      "name": "removeControllers",
      "outputs": [],
      "stateMutability": "nonpayable",
      "type": "function"
    },
    {
      "inputs": [],
      "name": "renounceOwnership",
      "outputs": [],
      "stateMutability": "nonpayable",
      "type": "function"
    },
    {
      "inputs": [
        {
          "internalType": "address",
          "name": "_avatar",
          "type": "address"
        }
      ],
      "name": "setAvatar",
      "outputs": [],
      "stateMutability": "nonpayable",
      "type": "function"
    },
    {
      "inputs": [
        {
          "internalType": "address",
          "name": "_guard",
          "type": "address"
        }
      ],
      "name": "setGuard",
      "outputs": [],
      "stateMutability": "nonpayable",
      "type": "function"
    },
    {
      "inputs": [
        {
          "internalType": "address",
          "name": "_target",
          "type": "address"
        }
      ],
      "name": "setTarget",
      "outputs": [],
      "stateMutability": "nonpayable",
      "type": "function"
    },
    {
      "inputs": [
        {
          "internalType": "bytes",
          "name": "initializeParams",
          "type": "bytes"
        }
      ],
      "name": "setUp",
      "outputs": [],
      "stateMutability": "nonpayable",
      "type": "function"
    },
    {
      "inputs": [],
      "name": "target",
      "outputs": [
        {
          "internalType": "address",
          "name": "",
          "type": "address"
        }
      ],
      "stateMutability": "view",
      "type": "function"
    },
    {
      "inputs": [
        {
          "internalType": "address",
          "name": "newOwner",
          "type": "address"
        }
      ],
      "name": "transferOwnership",
      "outputs": [],
      "stateMutability": "nonpayable",
      "type": "function"
    }
  ],
  "transactionHash": "0x7a8a7160cf7f8d00c03b4748dd94b2f1f8be85172958ce867862e208bdc9e570",
  "args": [],
  "numDeployments": 1,
  "solcInputHash": "b8c7aa0effc37dd90ed61297cca6b0b3",
  "bytecode": "0x608060405234801561001057600080fd5b5061001961001e565b6100de565b600054610100900460ff161561008a5760405162461bcd60e51b815260206004820152602760248201527f496e697469616c697a61626c653a20636f6e747261637420697320696e697469604482015266616c697a696e6760c81b606482015260840160405180910390fd5b60005460ff90811610156100dc576000805460ff191660ff9081179091556040519081527f7f26b83ff96e1f2b6a682f133852f6798a09c465da95921460cefb38474024989060200160405180910390a15b565b611026806100ed6000396000f3fe608060405234801561001057600080fd5b50600436106100f55760003560e01c8063a4f9edbf11610097578063da8c229e11610066578063da8c229e146101db578063db9253bb1461020e578063e19a9dd914610221578063f2fde38b1461023457600080fd5b8063a4f9edbf14610191578063c9106389146101a4578063d2a1ba91146101b5578063d4b83992146101c857600080fd5b8063776d1a01116100d3578063776d1a01146101475780637ceab3b11461015a5780637f2d6b521461016d5780638da5cb5b1461018057600080fd5b8063086cfca8146100fa5780635aef7de61461010f578063715018a61461013f575b600080fd5b61010d610108366004610a8c565b610247565b005b606654610122906001600160a01b031681565b6040516001600160a01b0390911681526020015b60405180910390f35b61010d6102a1565b61010d610155366004610a8c565b6102b5565b606554610122906001600160a01b031681565b61010d61017b366004610b1b565b61030f565b6033546001600160a01b0316610122565b61010d61019f366004610be2565b6103b2565b6065546001600160a01b0316610122565b61010d6101c3366004610b1b565b61050f565b606754610122906001600160a01b031681565b6101fe6101e9366004610a8c565b60686020526000908152604090205460ff1681565b6040519015158152602001610136565b61010d61021c366004610be2565b6105a6565b61010d61022f366004610a8c565b61064f565b61010d610242366004610a8c565b610751565b61024f6107ca565b606680546001600160a01b038381166001600160a01b0319831681179093556040519116919082907f52ae88b092de36f87fb43fe794eb1381023b9c1bce563a871154022c63dce34290600090a35050565b6102a96107ca565b6102b36000610824565b565b6102bd6107ca565b606780546001600160a01b038381166001600160a01b0319831681179093556040519116919082907f90cc2f570a6eb594b1580ea3e41247d2d73a55281889e86bd4ec2fc29c7e62d690600090a35050565b6103176107ca565b805160005b818110156103765760006068600085848151811061033c5761033c610c5d565b6020908102919091018101516001600160a01b03168252810191909152604001600020805460ff191691151591909117905560010161031c565b507fb5f92e548cdd019bd2a27508fd74c89e6c8e0f176b3c704b1cb75b465c78b308826040516103a69190610c73565b60405180910390a15050565b600054610100900460ff16158080156103d25750600054600160ff909116105b806103ec5750303b1580156103ec575060005460ff166001145b6104545760405162461bcd60e51b815260206004820152602e60248201527f496e697469616c697a61626c653a20636f6e747261637420697320616c72656160448201526d191e481a5b9a5d1a585b1a5e995960921b60648201526084015b60405180910390fd5b6000805460ff191660011790558015610477576000805461ff0019166101001790555b61047f610876565b600080600080858060200190518101906104999190610cc0565b93509350935093506104aa83610247565b6104b3826102b5565b6104bc8161050f565b6104c584610751565b50505050801561050b576000805461ff0019169055604051600181527f7f26b83ff96e1f2b6a682f133852f6798a09c465da95921460cefb3847402498906020016103a6565b5050565b6105176107ca565b805160005b818110156105765760016068600085848151811061053c5761053c610c5d565b6020908102919091018101516001600160a01b03168252810191909152604001600020805460ff191691151591909117905560010161051c565b507f94fa36754b82a6daa4c5fdab179c4d32d1bcf70e7aaf53537e0928b9be800a91826040516103a69190610c73565b336105b96033546001600160a01b031690565b6001600160a01b0316141580156105e057503360009081526068602052604090205460ff16155b156105fd576040516282b42960e81b815260040160405180910390fd5b600080600080848060200190518101906106179190610dba565b935093509350935061062b848484846108a5565b61064857604051632b96f51360e01b815260040160405180910390fd5b5050505050565b6106576107ca565b6001600160a01b038116156106fd576040516301ffc9a760e01b815263736bd41d60e11b60048201526001600160a01b038216906301ffc9a790602401602060405180830381865afa1580156106b1573d6000803e3d6000fd5b505050506040513d601f19601f820116820180604052508101906106d59190610e67565b6106fd576040516358b7533f60e11b81526001600160a01b038216600482015260240161044b565b606580546001600160a01b0319166001600160a01b0383169081179091556040519081527f1151116914515bc0891ff9047a6cb32cf902546f83066499bcf8ba33d2353fa29060200160405180910390a150565b6107596107ca565b6001600160a01b0381166107be5760405162461bcd60e51b815260206004820152602660248201527f4f776e61626c653a206e6577206f776e657220697320746865207a65726f206160448201526564647265737360d01b606482015260840161044b565b6107c781610824565b50565b6033546001600160a01b031633146102b35760405162461bcd60e51b815260206004820181905260248201527f4f776e61626c653a2063616c6c6572206973206e6f7420746865206f776e6572604482015260640161044b565b603380546001600160a01b038381166001600160a01b0319831681179093556040519116919082907f8be0079c531659141344cd1fd0a4f28419497f9722a3daafe3b4186f6b6457e090600090a35050565b600054610100900460ff1661089d5760405162461bcd60e51b815260040161044b90610e89565b6102b3610a47565b6065546000906001600160a01b031615610947576065546040805180820182526002815261060f60f31b60208201529051633af85da960e11b81526001600160a01b03909216916375f0bb52916109149189918991899189916000918291829182918291903390600401610f22565b600060405180830381600087803b15801561092e57600080fd5b505af1158015610942573d6000803e3d6000fd5b505050505b60675460405163468721a760e01b81526001600160a01b039091169063468721a79061097d908890889088908890600401610fb1565b6020604051808303816000875af115801561099c573d6000803e3d6000fd5b505050506040513d601f19601f820116820180604052508101906109c09190610e67565b6065549091506001600160a01b031615610a3f57606554604051631264e26d60e31b815261060f60f31b600482015282151560248201526001600160a01b0390911690639327136890604401600060405180830381600087803b158015610a2657600080fd5b505af1158015610a3a573d6000803e3d6000fd5b505050505b949350505050565b600054610100900460ff16610a6e5760405162461bcd60e51b815260040161044b90610e89565b6102b333610824565b6001600160a01b03811681146107c757600080fd5b600060208284031215610a9e57600080fd5b8135610aa981610a77565b9392505050565b634e487b7160e01b600052604160045260246000fd5b604051601f8201601f1916810167ffffffffffffffff81118282101715610aef57610aef610ab0565b604052919050565b600067ffffffffffffffff821115610b1157610b11610ab0565b5060051b60200190565b60006020808385031215610b2e57600080fd5b823567ffffffffffffffff811115610b4557600080fd5b8301601f81018513610b5657600080fd5b8035610b69610b6482610af7565b610ac6565b81815260059190911b82018301908381019087831115610b8857600080fd5b928401925b82841015610baf578335610ba081610a77565b82529284019290840190610b8d565b979650505050505050565b600067ffffffffffffffff821115610bd457610bd4610ab0565b50601f01601f191660200190565b600060208284031215610bf457600080fd5b813567ffffffffffffffff811115610c0b57600080fd5b8201601f81018413610c1c57600080fd5b8035610c2a610b6482610bba565b818152856020838501011115610c3f57600080fd5b81602084016020830137600091810160200191909152949350505050565b634e487b7160e01b600052603260045260246000fd5b6020808252825182820181905260009190848201906040850190845b81811015610cb45783516001600160a01b031683529284019291840191600101610c8f565b50909695505050505050565b60008060008060808587031215610cd657600080fd5b8451610ce181610a77565b80945050602080860151610cf481610a77565b6040870151909450610d0581610a77565b606087015190935067ffffffffffffffff811115610d2257600080fd5b8601601f81018813610d3357600080fd5b8051610d41610b6482610af7565b81815260059190911b8201830190838101908a831115610d6057600080fd5b928401925b82841015610d87578351610d7881610a77565b82529284019290840190610d65565b979a9699509497505050505050565b60005b83811015610db1578181015183820152602001610d99565b50506000910152565b60008060008060808587031215610dd057600080fd5b8451610ddb81610a77565b60208601516040870151919550935067ffffffffffffffff811115610dff57600080fd5b8501601f81018713610e1057600080fd5b8051610e1e610b6482610bba565b818152886020838501011115610e3357600080fd5b610e44826020830160208601610d96565b809450505050606085015160028110610e5c57600080fd5b939692955090935050565b600060208284031215610e7957600080fd5b81518015158114610aa957600080fd5b6020808252602b908201527f496e697469616c697a61626c653a20636f6e7472616374206973206e6f74206960408201526a6e697469616c697a696e6760a81b606082015260800190565b60008151808452610eec816020860160208601610d96565b601f01601f19169290920160200192915050565b60028110610f1e57634e487b7160e01b600052602160045260246000fd5b9052565b6001600160a01b038c81168252602082018c905261016060408301819052600091610f4f8483018e610ed4565b9150610f5e606085018d610f00565b8a60808501528960a08501528860c085015280881660e0850152808716610100850152838203610120850152610f948287610ed4565b925080851661014085015250509c9b505050505050505050505050565b60018060a01b0385168152836020820152608060408201526000610fd86080830185610ed4565b9050610fe76060830184610f00565b9594505050505056fea2646970667358221220e3ee36e1993480ae3d92d8837d0752b79a0c0aaf62aa17ba91e9a9980f2b3dcf64736f6c63430008130033",
  "devdoc": {
    "events": {
      "AvatarSet(address,address)": {
        "details": "Emitted each time the avatar is set."
      },
      "Initialized(uint8)": {
        "details": "Triggered when the contract has been initialized or reinitialized."
      },
      "TargetSet(address,address)": {
        "details": "Emitted each time the Target is set."
      }
    },
    "kind": "dev",
    "methods": {
      "addControllers(address[])": {
        "params": {
          "_controllers": "addresses to add to the contoller list"
        }
      },
      "execTx(bytes)": {
        "params": {
          "execTxData": "data of the transaction to execute"
        }
      },
      "owner()": {
        "details": "Returns the address of the current owner."
      },
      "removeControllers(address[])": {
        "params": {
          "_controllers": "addresses to remove from the controller list"
        }
      },
      "renounceOwnership()": {
        "details": "Leaves the contract without owner. It will not be possible to call `onlyOwner` functions anymore. Can only be called by the current owner. NOTE: Renouncing ownership will leave the contract without an owner, thereby removing any functionality that is only available to the owner."
      },
      "setAvatar(address)": {
        "details": "Sets the avatar to a new avatar (`newAvatar`)."
      },
      "setGuard(address)": {
        "details": "Set a guard that checks transactions before execution.",
        "params": {
          "_guard": "The address of the guard to be used or the 0 address to disable the guard."
        }
      },
      "setTarget(address)": {
        "details": "Sets the target to a new target (`newTarget`)."
      },
      "setUp(bytes)": {
        "params": {
          "initializeParams": "encoded initialization parameters: `address _owner`, `address _avatar`, `address _target`, `address[] memory _controllers`"
        }
      },
      "transferOwnership(address)": {
        "details": "Transfers ownership of the contract to a new account (`newOwner`). Can only be called by the current owner."
      }
    },
    "version": 1
  },
  "userdoc": {
    "errors": {
      "NotIERC165Compliant(address)": [
        {
          "notice": "`guard_` does not implement IERC165."
        }
      ]
    },
    "kind": "user",
    "methods": {
      "addControllers(address[])": {
        "notice": "Adds `_controllers` to the list of controllers, which are allowed to execute transactions on the Safe."
      },
      "controllers(address)": {
        "notice": "Mapping of whether an address is a controller (typically a parentDAO). "
      },
      "execTx(bytes)": {
        "notice": "Allows an authorized address to execute arbitrary transactions on the Safe."
      },
      "removeControllers(address[])": {
        "notice": "Removes `_controllers` from the list of controllers."
      },
      "setAvatar(address)": {
        "notice": "Can only be called by the current owner."
      },
      "setTarget(address)": {
        "notice": "Can only be called by the current owner."
      },
      "setUp(bytes)": {
        "notice": "Initialize function, will be triggered when a new instance is deployed."
      }
    },
    "notice": "Implementation of [IFractalModule](./interfaces/IFractalModule.md). A Safe module contract that allows for a \"parent-child\" DAO relationship. Adding the module allows for a designated set of addresses to execute transactions on the Safe, which in our implementation is the set of parent DAOs.",
    "version": 1
  },
  "storageLayout": {
    "storage": [
      {
        "astId": 3158,
        "contract": "contracts/FractalModule.sol:FractalModule",
        "label": "_initialized",
        "offset": 0,
        "slot": "0",
        "type": "t_uint8"
      },
      {
        "astId": 3161,
        "contract": "contracts/FractalModule.sol:FractalModule",
        "label": "_initializing",
        "offset": 1,
        "slot": "0",
        "type": "t_bool"
      },
      {
        "astId": 6060,
        "contract": "contracts/FractalModule.sol:FractalModule",
        "label": "__gap",
        "offset": 0,
        "slot": "1",
        "type": "t_array(t_uint256)50_storage"
      },
      {
        "astId": 2952,
        "contract": "contracts/FractalModule.sol:FractalModule",
        "label": "_owner",
        "offset": 0,
        "slot": "51",
        "type": "t_address"
      },
      {
        "astId": 3072,
        "contract": "contracts/FractalModule.sol:FractalModule",
        "label": "__gap",
        "offset": 0,
        "slot": "52",
        "type": "t_array(t_uint256)49_storage"
      },
      {
        "astId": 2759,
        "contract": "contracts/FractalModule.sol:FractalModule",
        "label": "guard",
        "offset": 0,
        "slot": "101",
        "type": "t_address"
      },
      {
        "astId": 2437,
        "contract": "contracts/FractalModule.sol:FractalModule",
        "label": "avatar",
        "offset": 0,
        "slot": "102",
        "type": "t_address"
      },
      {
        "astId": 2440,
        "contract": "contracts/FractalModule.sol:FractalModule",
        "label": "target",
        "offset": 0,
        "slot": "103",
        "type": "t_address"
      },
      {
        "astId": 13086,
        "contract": "contracts/FractalModule.sol:FractalModule",
        "label": "controllers",
        "offset": 0,
        "slot": "104",
        "type": "t_mapping(t_address,t_bool)"
      }
    ],
    "types": {
      "t_address": {
        "encoding": "inplace",
        "label": "address",
        "numberOfBytes": "20"
      },
      "t_array(t_uint256)49_storage": {
        "base": "t_uint256",
        "encoding": "inplace",
        "label": "uint256[49]",
        "numberOfBytes": "1568"
      },
      "t_array(t_uint256)50_storage": {
        "base": "t_uint256",
        "encoding": "inplace",
        "label": "uint256[50]",
        "numberOfBytes": "1600"
      },
      "t_bool": {
        "encoding": "inplace",
        "label": "bool",
        "numberOfBytes": "1"
      },
      "t_mapping(t_address,t_bool)": {
        "encoding": "mapping",
        "key": "t_address",
        "label": "mapping(address => bool)",
        "numberOfBytes": "32",
        "value": "t_bool"
      },
      "t_uint256": {
        "encoding": "inplace",
        "label": "uint256",
        "numberOfBytes": "32"
      },
      "t_uint8": {
        "encoding": "inplace",
        "label": "uint8",
        "numberOfBytes": "1"
      }
    }
  }
}