{
  "address": "0xcd6c149b3C0FE7284005869fa15080e85887c8F1",
  "abi": [
    {
      "inputs": [],
      "stateMutability": "nonpayable",
      "type": "constructor"
    },
    {
      "inputs": [],
      "name": "AlreadyTimelocked",
      "type": "error"
    },
    {
      "inputs": [],
      "name": "DAOFrozen",
      "type": "error"
    },
    {
      "inputs": [],
      "name": "Expired",
      "type": "error"
    },
    {
      "inputs": [],
      "name": "NotTimelocked",
      "type": "error"
    },
    {
      "inputs": [],
      "name": "Timelocked",
      "type": "error"
    },
    {
      "anonymous": false,
      "inputs": [
        {
          "indexed": false,
          "internalType": "uint32",
          "name": "executionPeriod",
          "type": "uint32"
        }
      ],
      "name": "ExecutionPeriodUpdated",
      "type": "event"
    },
    {
      "anonymous": false,
      "inputs": [
        {
          "indexed": false,
          "internalType": "uint8",
          "name": "version",
          "type": "uint8"
        }
      ],
      "name": "Initialized",
      "type": "event"
    },
    {
      "anonymous": false,
      "inputs": [
        {
          "indexed": false,
          "internalType": "address",
          "name": "creator",
          "type": "address"
        },
        {
          "indexed": true,
          "internalType": "address",
          "name": "owner",
          "type": "address"
        },
        {
          "indexed": true,
          "internalType": "address",
          "name": "freezeVoting",
          "type": "address"
        },
        {
          "indexed": true,
          "internalType": "address",
          "name": "childGnosisSafe",
          "type": "address"
        }
      ],
      "name": "MultisigFreezeGuardSetup",
      "type": "event"
    },
    {
      "anonymous": false,
      "inputs": [
        {
          "indexed": true,
          "internalType": "address",
          "name": "previousOwner",
          "type": "address"
        },
        {
          "indexed": true,
          "internalType": "address",
          "name": "newOwner",
          "type": "address"
        }
      ],
      "name": "OwnershipTransferred",
      "type": "event"
    },
    {
      "anonymous": false,
      "inputs": [
        {
          "indexed": false,
          "internalType": "uint32",
          "name": "timelockPeriod",
          "type": "uint32"
        }
      ],
      "name": "TimelockPeriodUpdated",
      "type": "event"
    },
    {
      "anonymous": false,
      "inputs": [
        {
          "indexed": true,
          "internalType": "address",
          "name": "timelocker",
          "type": "address"
        },
        {
          "indexed": true,
          "internalType": "bytes32",
          "name": "transactionHash",
          "type": "bytes32"
        },
        {
          "indexed": true,
          "internalType": "bytes",
          "name": "signatures",
          "type": "bytes"
        }
      ],
      "name": "TransactionTimelocked",
      "type": "event"
    },
    {
      "inputs": [
        {
          "internalType": "bytes32",
          "name": "",
          "type": "bytes32"
        },
        {
          "internalType": "bool",
          "name": "",
          "type": "bool"
        }
      ],
      "name": "checkAfterExecution",
      "outputs": [],
      "stateMutability": "view",
      "type": "function"
    },
    {
      "inputs": [
        {
          "internalType": "address",
          "name": "",
          "type": "address"
        },
        {
          "internalType": "uint256",
          "name": "",
          "type": "uint256"
        },
        {
          "internalType": "bytes",
          "name": "",
          "type": "bytes"
        },
        {
          "internalType": "enum Enum.Operation",
          "name": "",
          "type": "uint8"
        },
        {
          "internalType": "uint256",
          "name": "",
          "type": "uint256"
        },
        {
          "internalType": "uint256",
          "name": "",
          "type": "uint256"
        },
        {
          "internalType": "uint256",
          "name": "",
          "type": "uint256"
        },
        {
          "internalType": "address",
          "name": "",
          "type": "address"
        },
        {
          "internalType": "address payable",
          "name": "",
          "type": "address"
        },
        {
          "internalType": "bytes",
          "name": "signatures",
          "type": "bytes"
        },
        {
          "internalType": "address",
          "name": "",
          "type": "address"
        }
      ],
      "name": "checkTransaction",
      "outputs": [],
      "stateMutability": "view",
      "type": "function"
    },
    {
      "inputs": [],
      "name": "childGnosisSafe",
      "outputs": [
        {
          "internalType": "contract ISafe",
          "name": "",
          "type": "address"
        }
      ],
      "stateMutability": "view",
      "type": "function"
    },
    {
      "inputs": [],
      "name": "executionPeriod",
      "outputs": [
        {
          "internalType": "uint32",
          "name": "",
          "type": "uint32"
        }
      ],
      "stateMutability": "view",
      "type": "function"
    },
    {
      "inputs": [],
      "name": "freezeVoting",
      "outputs": [
        {
          "internalType": "contract IBaseFreezeVoting",
          "name": "",
          "type": "address"
        }
      ],
      "stateMutability": "view",
      "type": "function"
    },
    {
      "inputs": [
        {
          "internalType": "bytes32",
          "name": "_signaturesHash",
          "type": "bytes32"
        }
      ],
      "name": "getTransactionTimelockedBlock",
      "outputs": [
        {
          "internalType": "uint32",
          "name": "",
          "type": "uint32"
        }
      ],
      "stateMutability": "view",
      "type": "function"
    },
    {
      "inputs": [],
      "name": "owner",
      "outputs": [
        {
          "internalType": "address",
          "name": "",
          "type": "address"
        }
      ],
      "stateMutability": "view",
      "type": "function"
    },
    {
      "inputs": [],
      "name": "renounceOwnership",
      "outputs": [],
      "stateMutability": "nonpayable",
      "type": "function"
    },
    {
      "inputs": [
        {
          "internalType": "bytes",
          "name": "initializeParams",
          "type": "bytes"
        }
      ],
      "name": "setUp",
      "outputs": [],
      "stateMutability": "nonpayable",
      "type": "function"
    },
    {
      "inputs": [
        {
          "internalType": "bytes4",
          "name": "interfaceId",
          "type": "bytes4"
        }
      ],
      "name": "supportsInterface",
      "outputs": [
        {
          "internalType": "bool",
          "name": "",
          "type": "bool"
        }
      ],
      "stateMutability": "pure",
      "type": "function"
    },
    {
      "inputs": [],
      "name": "timelockPeriod",
      "outputs": [
        {
          "internalType": "uint32",
          "name": "",
          "type": "uint32"
        }
      ],
      "stateMutability": "view",
      "type": "function"
    },
    {
      "inputs": [
        {
          "internalType": "address",
          "name": "to",
          "type": "address"
        },
        {
          "internalType": "uint256",
          "name": "value",
          "type": "uint256"
        },
        {
          "internalType": "bytes",
          "name": "data",
          "type": "bytes"
        },
        {
          "internalType": "enum Enum.Operation",
          "name": "operation",
          "type": "uint8"
        },
        {
          "internalType": "uint256",
          "name": "safeTxGas",
          "type": "uint256"
        },
        {
          "internalType": "uint256",
          "name": "baseGas",
          "type": "uint256"
        },
        {
          "internalType": "uint256",
          "name": "gasPrice",
          "type": "uint256"
        },
        {
          "internalType": "address",
          "name": "gasToken",
          "type": "address"
        },
        {
          "internalType": "address payable",
          "name": "refundReceiver",
          "type": "address"
        },
        {
          "internalType": "bytes",
          "name": "signatures",
          "type": "bytes"
        },
        {
          "internalType": "uint256",
          "name": "nonce",
          "type": "uint256"
        }
      ],
      "name": "timelockTransaction",
      "outputs": [],
      "stateMutability": "nonpayable",
      "type": "function"
    },
    {
      "inputs": [
        {
          "internalType": "address",
          "name": "newOwner",
          "type": "address"
        }
      ],
      "name": "transferOwnership",
      "outputs": [],
      "stateMutability": "nonpayable",
      "type": "function"
    },
    {
      "inputs": [
        {
          "internalType": "uint32",
          "name": "_executionPeriod",
          "type": "uint32"
        }
      ],
      "name": "updateExecutionPeriod",
      "outputs": [],
      "stateMutability": "nonpayable",
      "type": "function"
    },
    {
      "inputs": [
        {
          "internalType": "uint32",
          "name": "_timelockPeriod",
          "type": "uint32"
        }
      ],
      "name": "updateTimelockPeriod",
      "outputs": [],
      "stateMutability": "nonpayable",
      "type": "function"
    }
  ],
  "transactionHash": "0x9d4e833142fc91a2c4870cd0bfe7c12e7ed60662d2ac4d4115599ae14f9f1252",
  "args": [],
  "numDeployments": 1,
  "solcInputHash": "b8c7aa0effc37dd90ed61297cca6b0b3",
  "bytecode": "0x608060405234801561001057600080fd5b5061001961001e565b6100de565b600054610100900460ff161561008a5760405162461bcd60e51b815260206004820152602760248201527f496e697469616c697a61626c653a20636f6e747261637420697320696e697469604482015266616c697a696e6760c81b606482015260840160405180910390fd5b60005460ff90811610156100dc576000805460ff191660ff9081179091556040519081527f7f26b83ff96e1f2b6a682f133852f6798a09c465da95921460cefb38474024989060200160405180910390a15b565b61110c806100ed6000396000f3fe608060405234801561001057600080fd5b50600436106100f55760003560e01c80639327136811610097578063d11d0d5811610066578063d11d0d5814610218578063dcac459514610230578063e1a25e2e14610243578063f2fde38b1461025657600080fd5b806393271368146101ba5780639e4d46d1146101cc578063a4f9edbf146101df578063c316528e146101f257600080fd5b8063715018a6116100d3578063715018a61461017957806375f0bb5214610183578063834aaec3146101965780638da5cb5b146101a957600080fd5b806301ffc9a7146100fa5780632ecaf675146101225780636f4b1e8e14610147575b600080fd5b61010d610108366004610a47565b610269565b60405190151581526020015b60405180910390f35b6065546101329063ffffffff1681565b60405163ffffffff9091168152602001610119565b60655461016190600160401b90046001600160a01b031681565b6040516001600160a01b039091168152602001610119565b6101816102a0565b005b610181610191366004610b71565b6102b4565b6101816101a4366004610c56565b610445565b6033546001600160a01b0316610161565b6101816101c8366004610d42565b5050565b6101816101da366004610d84565b610601565b6101816101ed366004610da1565b610615565b610132610200366004610dde565b60009081526067602052604090205463ffffffff1690565b60655461013290640100000000900463ffffffff1681565b61018161023e366004610d84565b6107f1565b606654610161906001600160a01b031681565b610181610264366004610df7565b610821565b60006001600160e01b0319821663736bd41d60e11b148061029a57506001600160e01b031982166301ffc9a760e01b145b92915050565b6102a8610897565b6102b260006108f1565b565b8151602080840191909120600081815260679092526040822054909163ffffffff90911690036102f75760405163b48b74db60e01b815260040160405180910390fd5b60655460008281526067602052604090205461031c9163ffffffff9081169116610e14565b63ffffffff164310156103425760405163774ae17d60e01b815260040160405180910390fd5b60655460008281526067602052604090205463ffffffff6401000000008304811692610372929082169116610e14565b61037c9190610e14565b63ffffffff164311156103a257604051630407b05b60e31b815260040160405180910390fd5b606560089054906101000a90046001600160a01b03166001600160a01b03166333eeb1476040518163ffffffff1660e01b8152600401602060405180830381865afa1580156103f5573d6000803e3d6000fd5b505050506040513d601f19601f820116820180604052508101906104199190610e46565b1561043757604051638a60474160e01b815260040160405180910390fd5b505050505050505050505050565b81516020808401919091206000818152606790925260409091205463ffffffff16156104845760405163071b2ed560e11b815260040160405180910390fd5b6000606660009054906101000a90046001600160a01b03166001600160a01b031663e86637db8e8e8e8e8e8e8e8e8e8d6040518b63ffffffff1660e01b81526004016104d99a99989796959493929190610eb3565b600060405180830381865afa1580156104f6573d6000803e3d6000fd5b505050506040513d6000823e601f3d908101601f1916820160405261051e9190810190610f4e565b8051602082012060665460405163934f3a1160e01b815292935090916001600160a01b039091169063934f3a119061055e90849086908a90600401610fc5565b60006040518083038186803b15801561057657600080fd5b505afa15801561058a573d6000803e3d6000fd5b50505060008481526067602052604090819020805463ffffffff19164363ffffffff16179055516105bd91508690610ffa565b60405190819003812090829033907f7a7ebe7c7e8597cf029fe5476000367a47b961d62c14031c6526e23aceb5b56f90600090a45050505050505050505050505050565b610609610897565b61061281610943565b50565b600054610100900460ff16158080156106355750600054600160ff909116105b8061064f5750303b15801561064f575060005460ff166001145b6106b75760405162461bcd60e51b815260206004820152602e60248201527f496e697469616c697a61626c653a20636f6e747261637420697320616c72656160448201526d191e481a5b9a5d1a585b1a5e995960921b60648201526084015b60405180910390fd5b6000805460ff1916600117905580156106da576000805461ff0019166101001790555b6106e2610992565b6000806000806000868060200190518101906106fe9190611016565b9450945094509450945061071185610943565b61071a846109c1565b61072383610821565b6065805468010000000000000000600160e01b031916600160401b6001600160a01b0385811691820292909217909255606680546001600160a01b0319168483169081179091556040513381529092918616907f39f33edda2c658eba4b4ab836cf6e9d201f8f4ac295529d2839ec442d1bbc36c9060200160405180910390a4505050505080156101c8576000805461ff0019169055604051600181527f7f26b83ff96e1f2b6a682f133852f6798a09c465da95921460cefb38474024989060200160405180910390a15050565b6107f9610897565b6065805463ffffffff9092166401000000000267ffffffff0000000019909216919091179055565b610829610897565b6001600160a01b03811661088e5760405162461bcd60e51b815260206004820152602660248201527f4f776e61626c653a206e6577206f776e657220697320746865207a65726f206160448201526564647265737360d01b60648201526084016106ae565b610612816108f1565b6033546001600160a01b031633146102b25760405162461bcd60e51b815260206004820181905260248201527f4f776e61626c653a2063616c6c6572206973206e6f7420746865206f776e657260448201526064016106ae565b603380546001600160a01b038381166001600160a01b0319831681179093556040519116919082907f8be0079c531659141344cd1fd0a4f28419497f9722a3daafe3b4186f6b6457e090600090a35050565b6065805463ffffffff191663ffffffff83169081179091556040519081527fd77111479e78432e5a7ffc7e7e62e2e8396f86c2bf010dacc17c30ee9106eb4c906020015b60405180910390a150565b600054610100900460ff166109b95760405162461bcd60e51b81526004016106ae9061108b565b6102b2610a17565b6065805467ffffffff00000000191664010000000063ffffffff8416908102919091179091556040519081527fdd32d105a69c09ad9be1f41189460750cc26fb733a7da8f5cb47499c6a37799990602001610987565b600054610100900460ff16610a3e5760405162461bcd60e51b81526004016106ae9061108b565b6102b2336108f1565b600060208284031215610a5957600080fd5b81356001600160e01b031981168114610a7157600080fd5b9392505050565b6001600160a01b038116811461061257600080fd5b8035610a9881610a78565b919050565b634e487b7160e01b600052604160045260246000fd5b604051601f8201601f1916810167ffffffffffffffff81118282101715610adc57610adc610a9d565b604052919050565b600067ffffffffffffffff821115610afe57610afe610a9d565b50601f01601f191660200190565b600082601f830112610b1d57600080fd5b8135610b30610b2b82610ae4565b610ab3565b818152846020838601011115610b4557600080fd5b816020850160208301376000918101602001919091529392505050565b803560028110610a9857600080fd5b60008060008060008060008060008060006101608c8e031215610b9357600080fd5b610b9c8c610a8d565b9a5060208c0135995067ffffffffffffffff8060408e01351115610bbf57600080fd5b610bcf8e60408f01358f01610b0c565b9950610bdd60608e01610b62565b985060808d0135975060a08d0135965060c08d01359550610c0060e08e01610a8d565b9450610c0f6101008e01610a8d565b9350806101208e01351115610c2357600080fd5b50610c358d6101208e01358e01610b0c565b9150610c446101408d01610a8d565b90509295989b509295989b9093969950565b60008060008060008060008060008060006101608c8e031215610c7857600080fd5b610c818c610a8d565b9a5060208c0135995067ffffffffffffffff8060408e01351115610ca457600080fd5b610cb48e60408f01358f01610b0c565b9950610cc260608e01610b62565b985060808d0135975060a08d0135965060c08d01359550610ce560e08e01610a8d565b9450610cf46101008e01610a8d565b9350806101208e01351115610d0857600080fd5b50610d1a8d6101208e01358e01610b0c565b91506101408c013590509295989b509295989b9093969950565b801515811461061257600080fd5b60008060408385031215610d5557600080fd5b823591506020830135610d6781610d34565b809150509250929050565b63ffffffff8116811461061257600080fd5b600060208284031215610d9657600080fd5b8135610a7181610d72565b600060208284031215610db357600080fd5b813567ffffffffffffffff811115610dca57600080fd5b610dd684828501610b0c565b949350505050565b600060208284031215610df057600080fd5b5035919050565b600060208284031215610e0957600080fd5b8135610a7181610a78565b63ffffffff818116838216019080821115610e3f57634e487b7160e01b600052601160045260246000fd5b5092915050565b600060208284031215610e5857600080fd5b8151610a7181610d34565b60005b83811015610e7e578181015183820152602001610e66565b50506000910152565b60008151808452610e9f816020860160208601610e63565b601f01601f19169290920160200192915050565b6001600160a01b038b81168252602082018b905261014060408301819052600091610ee08483018d610e87565b925060028b10610f0057634e487b7160e01b600052602160045260246000fd5b8a60608501528960808501528860a08501528760c085015280871660e08501525050610f386101008301856001600160a01b03169052565b826101208301529b9a5050505050505050505050565b600060208284031215610f6057600080fd5b815167ffffffffffffffff811115610f7757600080fd5b8201601f81018413610f8857600080fd5b8051610f96610b2b82610ae4565b818152856020838501011115610fab57600080fd5b610fbc826020830160208601610e63565b95945050505050565b838152606060208201526000610fde6060830185610e87565b8281036040840152610ff08185610e87565b9695505050505050565b6000825161100c818460208701610e63565b9190910192915050565b600080600080600060a0868803121561102e57600080fd5b855161103981610d72565b602087015190955061104a81610d72565b604087015190945061105b81610a78565b606087015190935061106c81610a78565b608087015190925061107d81610a78565b809150509295509295909350565b6020808252602b908201527f496e697469616c697a61626c653a20636f6e7472616374206973206e6f74206960408201526a6e697469616c697a696e6760a81b60608201526080019056fea26469706673582212204d31a0921e8a9b30f053ff5a07573ba027f9213ed29ed01553add03bc9a7330864736f6c63430008130033",
  "devdoc": {
    "events": {
      "Initialized(uint8)": {
        "details": "Triggered when the contract has been initialized or reinitialized."
      }
    },
    "kind": "dev",
    "methods": {
      "getTransactionTimelockedBlock(bytes32)": {
        "params": {
          "_signaturesHash": "hash of the transaction signatures"
        },
        "returns": {
          "_0": "uint32 block number in which the transaction began its timelock period"
        }
      },
      "owner()": {
        "details": "Returns the address of the current owner."
      },
      "renounceOwnership()": {
        "details": "Leaves the contract without owner. It will not be possible to call `onlyOwner` functions anymore. Can only be called by the current owner. NOTE: Renouncing ownership will leave the contract without an owner, thereby removing any functionality that is only available to the owner."
      },
      "setUp(bytes)": {
        "params": {
          "initializeParams": "encoded initialization parameters: `uint256 _timelockPeriod`, `uint256 _executionPeriod`, `address _owner`, `address _freezeVoting`, `address _childGnosisSafe`"
        }
      },
      "supportsInterface(bytes4)": {
        "details": "Returns true if this contract implements the interface defined by `interfaceId`. See the corresponding https://eips.ethereum.org/EIPS/eip-165#how-interfaces-are-identified[EIP section] to learn more about how these ids are created. This function call must use less than 30 000 gas."
      },
      "timelockTransaction(address,uint256,bytes,uint8,uint256,uint256,uint256,address,address,bytes,uint256)": {
        "params": {
          "_baseGas": "gas costs that are independent of the transaction execution",
          "_data": "data payload",
          "_gasPrice": "max gas price that should be used for this transaction",
          "_gasToken": "token address (or 0 if ETH) that is used for the payment",
          "_nonce": "nonce to use for the safe transaction",
          "_operation": "Operation type, Call or DelegateCall",
          "_refundReceiver": "address of the receiver of gas payment (or 0 if tx.origin)",
          "_safeTxGas": "gas that should be used for the safe transaction",
          "_signatures": "packed signature data",
          "_to": "destination address",
          "_value": "ETH value"
        }
      },
      "transferOwnership(address)": {
        "details": "Transfers ownership of the contract to a new account (`newOwner`). Can only be called by the current owner."
      },
      "updateExecutionPeriod(uint32)": {
        "params": {
          "_executionPeriod": "number of blocks a transaction has to be executed within"
        }
      },
      "updateTimelockPeriod(uint32)": {
        "params": {
          "_timelockPeriod": "new timelock period for the subDAO (in blocks)"
        }
      }
    },
    "version": 1
  },
  "userdoc": {
    "kind": "user",
    "methods": {
      "checkAfterExecution(bytes32,bool)": {
        "notice": "A callback performed after a transaction is executed on the Safe. This is a required function of the `BaseGuard` and `IGuard` interfaces that we do not make use of."
      },
      "checkTransaction(address,uint256,bytes,uint8,uint256,uint256,uint256,address,address,bytes,address)": {
        "notice": "Called by the Safe to check if the transaction is able to be executed and reverts if the guard conditions are not met."
      },
      "childGnosisSafe()": {
        "notice": "Reference to the Safe that can be frozen. "
      },
      "executionPeriod()": {
        "notice": "Execution period (in blocks). "
      },
      "freezeVoting()": {
        "notice": "Reference to the [IBaseFreezeVoting](./interfaces/IBaseFreezeVoting.md) implementation that determines whether the Safe is frozen."
      },
      "getTransactionTimelockedBlock(bytes32)": {
        "notice": "Gets the block number that the given transaction was timelocked at."
      },
      "setUp(bytes)": {
        "notice": "Initialize function, will be triggered when a new instance is deployed."
      },
      "timelockPeriod()": {
        "notice": "Timelock period (in blocks). "
      },
      "timelockTransaction(address,uint256,bytes,uint8,uint256,uint256,uint256,address,address,bytes,uint256)": {
        "notice": "Allows the caller to begin the `timelock` of a transaction. Timelock is the period during which a proposed transaction must wait before being executed, after it has passed.  This period is intended to allow the parent DAO sufficient time to potentially freeze the DAO, if they should vote to do so. The parameters for doing so are identical to [ISafe's](./ISafe.md) `execTransaction` function."
      },
      "updateExecutionPeriod(uint32)": {
        "notice": "Updates the execution period. Execution period is the time period during which a subDAO's passed Proposals must be executed, otherwise they will be expired. This period begins immediately after the timelock period has ended."
      },
      "updateTimelockPeriod(uint32)": {
        "notice": "Sets the subDAO's timelock period."
      }
    },
    "notice": "Implementation of [IMultisigFreezeGuard](./interfaces/IMultisigFreezeGuard.md).",
    "version": 1
  },
  "storageLayout": {
    "storage": [
      {
        "astId": 3158,
        "contract": "contracts/MultisigFreezeGuard.sol:MultisigFreezeGuard",
        "label": "_initialized",
        "offset": 0,
        "slot": "0",
        "type": "t_uint8"
      },
      {
        "astId": 3161,
        "contract": "contracts/MultisigFreezeGuard.sol:MultisigFreezeGuard",
        "label": "_initializing",
        "offset": 1,
        "slot": "0",
        "type": "t_bool"
      },
      {
        "astId": 6060,
        "contract": "contracts/MultisigFreezeGuard.sol:MultisigFreezeGuard",
        "label": "__gap",
        "offset": 0,
        "slot": "1",
        "type": "t_array(t_uint256)50_storage"
      },
      {
        "astId": 2952,
        "contract": "contracts/MultisigFreezeGuard.sol:MultisigFreezeGuard",
        "label": "_owner",
        "offset": 0,
        "slot": "51",
        "type": "t_address"
      },
      {
        "astId": 3072,
        "contract": "contracts/MultisigFreezeGuard.sol:MultisigFreezeGuard",
        "label": "__gap",
        "offset": 0,
        "slot": "52",
        "type": "t_array(t_uint256)49_storage"
      },
      {
        "astId": 13330,
        "contract": "contracts/MultisigFreezeGuard.sol:MultisigFreezeGuard",
        "label": "timelockPeriod",
        "offset": 0,
        "slot": "101",
        "type": "t_uint32"
      },
      {
        "astId": 13333,
        "contract": "contracts/MultisigFreezeGuard.sol:MultisigFreezeGuard",
        "label": "executionPeriod",
        "offset": 4,
        "slot": "101",
        "type": "t_uint32"
      },
      {
        "astId": 13337,
        "contract": "contracts/MultisigFreezeGuard.sol:MultisigFreezeGuard",
        "label": "freezeVoting",
        "offset": 8,
        "slot": "101",
        "type": "t_contract(IBaseFreezeVoting)17622"
      },
      {
        "astId": 13341,
        "contract": "contracts/MultisigFreezeGuard.sol:MultisigFreezeGuard",
        "label": "childGnosisSafe",
        "offset": 0,
        "slot": "102",
        "type": "t_contract(ISafe)17815"
      },
      {
        "astId": 13346,
        "contract": "contracts/MultisigFreezeGuard.sol:MultisigFreezeGuard",
        "label": "transactionTimelockedBlock",
        "offset": 0,
        "slot": "103",
        "type": "t_mapping(t_bytes32,t_uint32)"
      }
    ],
    "types": {
      "t_address": {
        "encoding": "inplace",
        "label": "address",
        "numberOfBytes": "20"
      },
      "t_array(t_uint256)49_storage": {
        "base": "t_uint256",
        "encoding": "inplace",
        "label": "uint256[49]",
        "numberOfBytes": "1568"
      },
      "t_array(t_uint256)50_storage": {
        "base": "t_uint256",
        "encoding": "inplace",
        "label": "uint256[50]",
        "numberOfBytes": "1600"
      },
      "t_bool": {
        "encoding": "inplace",
        "label": "bool",
        "numberOfBytes": "1"
      },
      "t_bytes32": {
        "encoding": "inplace",
        "label": "bytes32",
        "numberOfBytes": "32"
      },
      "t_contract(IBaseFreezeVoting)17622": {
        "encoding": "inplace",
        "label": "contract IBaseFreezeVoting",
        "numberOfBytes": "20"
      },
      "t_contract(ISafe)17815": {
        "encoding": "inplace",
        "label": "contract ISafe",
        "numberOfBytes": "20"
      },
      "t_mapping(t_bytes32,t_uint32)": {
        "encoding": "mapping",
        "key": "t_bytes32",
        "label": "mapping(bytes32 => uint32)",
        "numberOfBytes": "32",
        "value": "t_uint32"
      },
      "t_uint256": {
        "encoding": "inplace",
        "label": "uint256",
        "numberOfBytes": "32"
      },
      "t_uint32": {
        "encoding": "inplace",
        "label": "uint32",
        "numberOfBytes": "4"
      },
      "t_uint8": {
        "encoding": "inplace",
        "label": "uint8",
        "numberOfBytes": "1"
      }
    }
  }
}