{
  "address": "0x9fE46736679d2D9a65F0992F2272dE9f3c7fa6e0",
  "abi": [
    {
      "anonymous": false,
      "inputs": [
        {
          "indexed": true,
          "internalType": "address",
          "name": "daoAddress",
          "type": "address"
        },
        {
          "indexed": false,
          "internalType": "string",
          "name": "daoName",
          "type": "string"
        }
      ],
      "name": "FractalNameUpdated",
      "type": "event"
    },
    {
      "inputs": [
        {
          "internalType": "string",
          "name": "_name",
          "type": "string"
        }
      ],
      "name": "updateDAOName",
      "outputs": [],
      "stateMutability": "nonpayable",
      "type": "function"
    }
  ],
  "transactionHash": "0x175957ae5c09453724d2e90c6f708ad2e5f469d30d05c405290eb6d9876781f3",
  "args": [],
  "numDeployments": 1,
  "solcInputHash": "8e9c8975cc1d30c84b66e8533260d1a3",
  "bytecode": "0x608060405234801561001057600080fd5b506101db806100206000396000f3fe608060405234801561001057600080fd5b506004361061002b5760003560e01c8063ad25ee4a14610030575b600080fd5b61004361003e36600461009f565b610045565b005b336001600160a01b03167f3c7e9162ed121fd2c775c8c39886daeaede693a6e24ac0fa81e50c47833a9e088260405161007e9190610150565b60405180910390a250565b634e487b7160e01b600052604160045260246000fd5b6000602082840312156100b157600080fd5b813567ffffffffffffffff808211156100c957600080fd5b818401915084601f8301126100dd57600080fd5b8135818111156100ef576100ef610089565b604051601f8201601f19908116603f0116810190838211818310171561011757610117610089565b8160405282815287602084870101111561013057600080fd5b826020860160208301376000928101602001929092525095945050505050565b600060208083528351808285015260005b8181101561017d57858101830151858201604001528201610161565b8181111561018f576000604083870101525b50601f01601f191692909201604001939250505056fea2646970667358221220ed2348379b33280c2c401c5faae7c82436b9f355dddf5902bb0552137745fc2564736f6c634300080d0033",
  "devdoc": {
    "kind": "dev",
    "methods": {
      "updateDAOName(string)": {
        "params": {
          "_name": "The new DAO name"
        }
      }
    },
    "version": 1
  },
  "userdoc": {
    "kind": "user",
    "methods": {
      "updateDAOName(string)": {
        "notice": "Updates the DAO's registered aname"
      }
    },
    "notice": "A contract for registering Fractal DAO name stringsThese names are non-unique, and should not be used as the identifer of a DAO",
    "version": 1
  },
  "storageLayout": {
    "storage": [],
    "types": null
  }
}