{
  "address": "0x8250B3b8BcD854750B0ACdEE7298C6626D6ba9b9",
  "abi": [
    {
      "inputs": [],
      "name": "NAME",
      "outputs": [
        {
          "internalType": "string",
          "name": "",
          "type": "string"
        }
      ],
      "stateMutability": "view",
      "type": "function"
    },
    {
      "inputs": [
        {
          "components": [
            {
              "internalType": "contract IHats",
              "name": "hatsProtocol",
              "type": "address"
            },
            {
              "internalType": "address",
              "name": "hatsAccountImplementation",
              "type": "address"
            },
            {
              "internalType": "contract IERC6551Registry",
              "name": "registry",
              "type": "address"
            },
            {
              "internalType": "address",
              "name": "keyValuePairs",
              "type": "address"
            },
            {
              "internalType": "string",
              "name": "topHatDetails",
              "type": "string"
            },
            {
              "internalType": "string",
              "name": "topHatImageURI",
              "type": "string"
            },
            {
              "components": [
                {
                  "internalType": "uint32",
                  "name": "maxSupply",
                  "type": "uint32"
                },
                {
                  "internalType": "string",
                  "name": "details",
                  "type": "string"
                },
                {
                  "internalType": "string",
                  "name": "imageURI",
                  "type": "string"
                },
                {
                  "internalType": "bool",
                  "name": "isMutable",
                  "type": "bool"
                },
                {
                  "internalType": "address",
                  "name": "wearer",
                  "type": "address"
                },
                {
                  "components": [
                    {
                      "internalType": "contract ISablierV2LockupLinear",
                      "name": "sablier",
                      "type": "address"
                    },
                    {
                      "internalType": "address",
                      "name": "sender",
                      "type": "address"
                    },
                    {
                      "internalType": "uint128",
                      "name": "totalAmount",
                      "type": "uint128"
                    },
                    {
                      "internalType": "address",
                      "name": "asset",
                      "type": "address"
                    },
                    {
                      "internalType": "bool",
                      "name": "cancelable",
                      "type": "bool"
                    },
                    {
                      "internalType": "bool",
                      "name": "transferable",
                      "type": "bool"
                    },
                    {
                      "components": [
                        {
                          "internalType": "uint40",
                          "name": "start",
                          "type": "uint40"
                        },
                        {
                          "internalType": "uint40",
                          "name": "cliff",
                          "type": "uint40"
                        },
                        {
                          "internalType": "uint40",
                          "name": "end",
                          "type": "uint40"
                        }
                      ],
                      "internalType": "struct LockupLinear.Timestamps",
                      "name": "timestamps",
                      "type": "tuple"
                    },
                    {
                      "components": [
                        {
                          "internalType": "address",
                          "name": "account",
                          "type": "address"
                        },
                        {
                          "internalType": "uint256",
                          "name": "fee",
                          "type": "uint256"
                        }
                      ],
                      "internalType": "struct LockupLinear.Broker",
                      "name": "broker",
                      "type": "tuple"
                    }
                  ],
                  "internalType": "struct DecentHats_0_1_0.SablierStreamParams[]",
                  "name": "sablierParams",
                  "type": "tuple[]"
                }
              ],
              "internalType": "struct DecentHats_0_1_0.Hat",
              "name": "adminHat",
              "type": "tuple"
            },
            {
              "components": [
                {
                  "internalType": "uint32",
                  "name": "maxSupply",
                  "type": "uint32"
                },
                {
                  "internalType": "string",
                  "name": "details",
                  "type": "string"
                },
                {
                  "internalType": "string",
                  "name": "imageURI",
                  "type": "string"
                },
                {
                  "internalType": "bool",
                  "name": "isMutable",
                  "type": "bool"
                },
                {
                  "internalType": "address",
                  "name": "wearer",
                  "type": "address"
                },
                {
                  "components": [
                    {
                      "internalType": "contract ISablierV2LockupLinear",
                      "name": "sablier",
                      "type": "address"
                    },
                    {
                      "internalType": "address",
                      "name": "sender",
                      "type": "address"
                    },
                    {
                      "internalType": "uint128",
                      "name": "totalAmount",
                      "type": "uint128"
                    },
                    {
                      "internalType": "address",
                      "name": "asset",
                      "type": "address"
                    },
                    {
                      "internalType": "bool",
                      "name": "cancelable",
                      "type": "bool"
                    },
                    {
                      "internalType": "bool",
                      "name": "transferable",
                      "type": "bool"
                    },
                    {
                      "components": [
                        {
                          "internalType": "uint40",
                          "name": "start",
                          "type": "uint40"
                        },
                        {
                          "internalType": "uint40",
                          "name": "cliff",
                          "type": "uint40"
                        },
                        {
                          "internalType": "uint40",
                          "name": "end",
                          "type": "uint40"
                        }
                      ],
                      "internalType": "struct LockupLinear.Timestamps",
                      "name": "timestamps",
                      "type": "tuple"
                    },
                    {
                      "components": [
                        {
                          "internalType": "address",
                          "name": "account",
                          "type": "address"
                        },
                        {
                          "internalType": "uint256",
                          "name": "fee",
                          "type": "uint256"
                        }
                      ],
                      "internalType": "struct LockupLinear.Broker",
                      "name": "broker",
                      "type": "tuple"
                    }
                  ],
                  "internalType": "struct DecentHats_0_1_0.SablierStreamParams[]",
                  "name": "sablierParams",
                  "type": "tuple[]"
                }
              ],
              "internalType": "struct DecentHats_0_1_0.Hat[]",
              "name": "hats",
              "type": "tuple[]"
            }
          ],
          "internalType": "struct DecentHats_0_1_0.CreateTreeParams",
          "name": "params",
          "type": "tuple"
        }
      ],
      "name": "createAndDeclareTree",
      "outputs": [],
      "stateMutability": "nonpayable",
      "type": "function"
    }
  ],
  "transactionHash": "0x42be72ca7992fefb68ef43f7e03262d9592787b97513170a23fa0093c49caff1",
  "args": [],
  "numDeployments": 4,
  "solcInputHash": "512807b5d71481c693c202ae23158904",
  "bytecode": "0x608060405234801561001057600080fd5b50611477806100206000396000f3fe608060405234801561001057600080fd5b50600436106100365760003560e01c80638c5f591a1461003b578063a3f4df7e14610050575b600080fd5b61004e610049366004610ac2565b610095565b005b61007f6040518060400160405280601081526020016f0446563656e74486174735f305f315f360841b81525081565b60405161008c9190610b54565b60405180910390f35b600061009f6102cd565b905060008061015e6100b46020860186610b7f565b6100c16080870187610b9c565b8080601f0160208091040260200160405190810160405280939291908181526020018383808284376000920191909152506101039250505060a0880188610b9c565b8080601f016020809104026020016040519081016040528093929190818152602001838380828437600092019190915250610148925050506060890160408a01610b7f565b61015860408a0160208b01610b7f565b88610331565b909250905061017c6101766080860160608701610b7f565b836103c3565b60006101c361018e6020870187610b7f565b8461019c60c0890189610bf9565b856101ad60608b0160408c01610b7f565b6101bd60408c0160208d01610b7f565b8a610543565b50905060005b6101d660e0870187610c19565b9050811015610250576102466101ef6020880188610b7f565b836101fd60e08a018a610c19565b8581811061020d5761020d610c62565b905060200281019061021f9190610bf9565b8661023060608c0160408d01610b7f565b61024060408d0160208e01610b7f565b8b610543565b50506001016101c9565b5061025e6020860186610b7f565b6040516329287c1b60e21b8152600481018590523060248201523360448201526001600160a01b03919091169063a4a1f06c90606401600060405180830381600087803b1580156102ae57600080fd5b505af11580156102c2573d6000803e3d6000fd5b505050505050505050565b60008046905060006040518060400160405280601081526020016f0446563656e74486174735f305f315f360841b815250823060405160200161031293929190610c78565b60408051601f1981840301815291905280516020909101209392505050565b600080876001600160a01b0316631a64dfad3089896040518463ffffffff1660e01b815260040161036493929190610cb1565b6020604051808303816000875af1158015610383573d6000803e3d6000fd5b505050506040513d601f19601f820116820180604052508101906103a79190610ce7565b91506103b68585858b86610892565b9050965096945050505050565b604080516001808252818301909252600091816020015b60608152602001906001900390816103da57505060408051600180825281830190925291925060009190602082015b6060815260200190600190039081610409579050509050604051806040016040528060088152602001671d1bdc12185d125960c21b8152508260008151811061045457610454610c62565b602002602001018190525061046883610928565b8160008151811061047b5761047b610c62565b6020026020010181905250336001600160a01b031663468721a785600085856040516024016104ab929190610d6b565b60408051601f198184030181529181526020820180516001600160e01b031663579374b960e11b1790525160e085901b6001600160e01b03191681526104f993929190600090600401610d90565b6020604051808303816000875af1158015610518573d6000803e3d6000fd5b505050506040513d601f19601f8201168201806040525081019061053c9190610df4565b5050505050565b60008061055a89896105548a61113b565b89610a30565b91506105698585858c86610892565b9050600061057d60a0890160808a01610b7f565b6001600160a01b03161461061d576001600160a01b03891663641f776e836105ab60a08b0160808c01610b7f565b6040516001600160e01b031960e085901b16815260048101929092526001600160a01b031660248201526044016020604051808303816000875af11580156105f7573d6000803e3d6000fd5b505050506040513d601f19601f8201168201806040525081019061061b9190610df4565b505b60005b61062d60a08901896111ff565b905081101561088557600061064560a08a018a6111ff565b8381811061065557610655610c62565b9050610160020180360381019061066c9190611248565b6060810151815160408084015190516001600160a01b0390921660248301526001600160801b03166044820152919250339163468721a7919060009060640160408051601f198184030181529181526020820180516001600160e01b031663095ea7b360e01b1790525160e085901b6001600160e01b03191681526106f993929190600090600401610d90565b6020604051808303816000875af1158015610718573d6000803e3d6000fd5b505050506040513d601f19601f8201168201806040525081019061073c9190610df4565b50600060405180610100016040528083602001516001600160a01b03168152602001856001600160a01b0316815260200183604001516001600160801b0316815260200183606001516001600160a01b031681526020018360800151151581526020018360a00151151581526020018360c0015181526020018360e001518152509050336001600160a01b031663468721a783600001516000846040516024016107e69190611265565b60408051601f198184030181529181526020820180516001600160e01b03166353b1572760e01b1790525160e085901b6001600160e01b031916815261083493929190600090600401610d90565b6020604051808303816000875af1158015610853573d6000803e3d6000fd5b505050506040513d601f19601f820116820180604052508101906108779190610df4565b508260010192505050610620565b5097509795505050505050565b604051638a54c52f60e01b81526001600160a01b0385811660048301526024820185905246604483015283811660648301526084820183905260009190871690638a54c52f9060a4016020604051808303816000875af11580156108fa573d6000803e3d6000fd5b505050506040513d601f19601f8201168201806040525081019061091e9190611327565b9695505050505050565b60608160000361094f5750506040805180820190915260018152600360fc1b602082015290565b8160005b811561097957806109638161135a565b91506109729050600a83611389565b9150610953565b6000816001600160401b0381111561099357610993610d00565b6040519080825280601f01601f1916602001820160405280156109bd576020820181803683370190505b5090505b8415610a28576109d260018361139d565b91506109df600a866113b6565b6109ea9060306113ca565b60f81b8183815181106109ff576109ff610c62565b60200101906001600160f81b031916908160001a905350610a21600a86611389565b94506109c1565b949350505050565b6020820151825160608401516040808601519051635829492f60e11b81526000946001600160a01b038a169463b052925e94610a76948b948a92839290916004016113dd565b6020604051808303816000875af1158015610a95573d6000803e3d6000fd5b505050506040513d601f19601f82011682018060405250810190610ab99190610ce7565b95945050505050565b600060208284031215610ad457600080fd5b81356001600160401b03811115610aea57600080fd5b82016101008185031215610afd57600080fd5b9392505050565b60005b83811015610b1f578181015183820152602001610b07565b50506000910152565b60008151808452610b40816020860160208601610b04565b601f01601f19169290920160200192915050565b602081526000610afd6020830184610b28565b6001600160a01b0381168114610b7c57600080fd5b50565b600060208284031215610b9157600080fd5b8135610afd81610b67565b6000808335601e19843603018112610bb357600080fd5b8301803591506001600160401b03821115610bcd57600080fd5b602001915036819003821315610be257600080fd5b9250929050565b8035610bf481610b67565b919050565b6000823560be19833603018112610c0f57600080fd5b9190910192915050565b6000808335601e19843603018112610c3057600080fd5b8301803591506001600160401b03821115610c4a57600080fd5b6020019150600581901b3603821315610be257600080fd5b634e487b7160e01b600052603260045260246000fd5b60008451610c8a818460208901610b04565b919091019283525060601b6bffffffffffffffffffffffff19166020820152603401919050565b6001600160a01b0384168152606060208201819052600090610cd590830185610b28565b828103604084015261091e8185610b28565b600060208284031215610cf957600080fd5b5051919050565b634e487b7160e01b600052604160045260246000fd5b600081518084526020808501808196508360051b8101915082860160005b85811015610d5e578284038952610d4c848351610b28565b98850198935090840190600101610d34565b5091979650505050505050565b604081526000610d7e6040830185610d16565b8281036020840152610ab98185610d16565b60018060a01b0385168152836020820152608060408201526000610db76080830185610b28565b905060028310610dd757634e487b7160e01b600052602160045260246000fd5b82606083015295945050505050565b8015158114610b7c57600080fd5b600060208284031215610e0657600080fd5b8151610afd81610de6565b60405160c081016001600160401b0381118282101715610e3357610e33610d00565b60405290565b604051601f8201601f191681016001600160401b0381118282101715610e6157610e61610d00565b604052919050565b803563ffffffff81168114610bf457600080fd5b600082601f830112610e8e57600080fd5b81356001600160401b03811115610ea757610ea7610d00565b610eba601f8201601f1916602001610e39565b818152846020838601011115610ecf57600080fd5b816020850160208301376000918101602001919091529392505050565b8035610bf481610de6565b80356001600160801b0381168114610bf457600080fd5b803564ffffffffff81168114610bf457600080fd5b600060608284031215610f3557600080fd5b604051606081018181106001600160401b0382111715610f5757610f57610d00565b604052905080610f6683610f0e565b8152610f7460208401610f0e565b6020820152610f8560408401610f0e565b60408201525092915050565b600060408284031215610fa357600080fd5b604051604081018181106001600160401b0382111715610fc557610fc5610d00565b6040529050808235610fd681610b67565b8152602092830135920191909152919050565b60006101608284031215610ffc57600080fd5b60405161010081018181106001600160401b038211171561101f5761101f610d00565b60405290508061102e83610be9565b815261103c60208401610be9565b602082015261104d60408401610ef7565b604082015261105e60608401610be9565b606082015261106f60808401610eec565b608082015261108060a08401610eec565b60a08201526110928460c08501610f23565b60c08201526110a5846101208501610f91565b60e08201525092915050565b600082601f8301126110c257600080fd5b813560206001600160401b038211156110dd576110dd610d00565b6110eb818360051b01610e39565b828152610160928302850182019282820191908785111561110b57600080fd5b8387015b8581101561112e576111218982610fe9565b845292840192810161110f565b5090979650505050505050565b600060c0823603121561114d57600080fd5b611155610e11565b61115e83610e69565b815260208301356001600160401b038082111561117a57600080fd5b61118636838701610e7d565b6020840152604085013591508082111561119f57600080fd5b6111ab36838701610e7d565b60408401526111bc60608601610eec565b60608401526111cd60808601610be9565b608084015260a08501359150808211156111e657600080fd5b506111f3368286016110b1565b60a08301525092915050565b6000808335601e1984360301811261121657600080fd5b8301803591506001600160401b0382111561123057600080fd5b602001915061016081023603821315610be257600080fd5b6000610160828403121561125b57600080fd5b610afd8383610fe9565b81516001600160a01b0390811682526020808401518216908301526040808401516001600160801b031690830152606080840151909116908201526080808301516101608301916112b99084018215159052565b5060a08301516112cd60a084018215159052565b5060c083015161130060c0840182805164ffffffffff908116835260208083015182169084015260409182015116910152565b5060e0929092015180516001600160a01b0316610120830152602001516101409091015290565b60006020828403121561133957600080fd5b8151610afd81610b67565b634e487b7160e01b600052601160045260246000fd5b60006001820161136c5761136c611344565b5060010190565b634e487b7160e01b600052601260045260246000fd5b60008261139857611398611373565b500490565b818103818111156113b0576113b0611344565b92915050565b6000826113c5576113c5611373565b500690565b808201808211156113b0576113b0611344565b87815260e0602082015260006113f660e0830189610b28565b63ffffffff881660408401526001600160a01b0387811660608501528616608084015284151560a084015282810360c08401526114338185610b28565b9a995050505050505050505056fea2646970667358221220d17954ba81bca52da6ca1f1cf74a0e04f2ce3c50651d1d806611eb18ab0d551e64736f6c63430008130033",
  "devdoc": {
    "kind": "dev",
    "methods": {},
    "version": 1
  },
  "userdoc": {
    "kind": "user",
    "methods": {},
    "version": 1
  },
  "storageLayout": {
    "storage": [],
    "types": null
  }
}