{
  "address": "0xB1ba8caa9a65f4Bf53a5D1A1bD5514dFc9bB7E35",
  "abi": [
    {
      "inputs": [],
      "name": "NAME",
      "outputs": [
        {
          "internalType": "string",
          "name": "",
          "type": "string"
        }
      ],
      "stateMutability": "view",
      "type": "function"
    },
    {
      "inputs": [
        {
          "components": [
            {
              "internalType": "contract IHats",
              "name": "hatsProtocol",
              "type": "address"
            },
            {
              "internalType": "address",
              "name": "hatsAccountImplementation",
              "type": "address"
            },
            {
              "internalType": "contract IERC6551Registry",
              "name": "registry",
              "type": "address"
            },
            {
              "internalType": "address",
              "name": "keyValuePairs",
              "type": "address"
            },
            {
              "internalType": "string",
              "name": "topHatDetails",
              "type": "string"
            },
            {
              "internalType": "string",
              "name": "topHatImageURI",
              "type": "string"
            },
            {
              "components": [
                {
                  "internalType": "uint32",
                  "name": "maxSupply",
                  "type": "uint32"
                },
                {
                  "internalType": "string",
                  "name": "details",
                  "type": "string"
                },
                {
                  "internalType": "string",
                  "name": "imageURI",
                  "type": "string"
                },
                {
                  "internalType": "bool",
                  "name": "isMutable",
                  "type": "bool"
                },
                {
                  "internalType": "address",
                  "name": "wearer",
                  "type": "address"
                },
                {
                  "components": [
                    {
                      "internalType": "contract ISablierV2LockupLinear",
                      "name": "sablier",
                      "type": "address"
                    },
                    {
                      "internalType": "address",
                      "name": "sender",
                      "type": "address"
                    },
                    {
                      "internalType": "uint128",
                      "name": "totalAmount",
                      "type": "uint128"
                    },
                    {
                      "internalType": "address",
                      "name": "asset",
                      "type": "address"
                    },
                    {
                      "internalType": "bool",
                      "name": "cancelable",
                      "type": "bool"
                    },
                    {
                      "internalType": "bool",
                      "name": "transferable",
                      "type": "bool"
                    },
                    {
                      "components": [
                        {
                          "internalType": "uint40",
                          "name": "start",
                          "type": "uint40"
                        },
                        {
                          "internalType": "uint40",
                          "name": "cliff",
                          "type": "uint40"
                        },
                        {
                          "internalType": "uint40",
                          "name": "end",
                          "type": "uint40"
                        }
                      ],
                      "internalType": "struct LockupLinear.Timestamps",
                      "name": "timestamps",
                      "type": "tuple"
                    },
                    {
                      "components": [
                        {
                          "internalType": "address",
                          "name": "account",
                          "type": "address"
                        },
                        {
                          "internalType": "uint256",
                          "name": "fee",
                          "type": "uint256"
                        }
                      ],
                      "internalType": "struct LockupLinear.Broker",
                      "name": "broker",
                      "type": "tuple"
                    }
                  ],
                  "internalType": "struct DecentHats_0_1_0.SablierStreamParams[]",
                  "name": "sablierParams",
                  "type": "tuple[]"
                }
              ],
              "internalType": "struct DecentHats_0_1_0.Hat",
              "name": "adminHat",
              "type": "tuple"
            },
            {
              "components": [
                {
                  "internalType": "uint32",
                  "name": "maxSupply",
                  "type": "uint32"
                },
                {
                  "internalType": "string",
                  "name": "details",
                  "type": "string"
                },
                {
                  "internalType": "string",
                  "name": "imageURI",
                  "type": "string"
                },
                {
                  "internalType": "bool",
                  "name": "isMutable",
                  "type": "bool"
                },
                {
                  "internalType": "address",
                  "name": "wearer",
                  "type": "address"
                },
                {
                  "components": [
                    {
                      "internalType": "contract ISablierV2LockupLinear",
                      "name": "sablier",
                      "type": "address"
                    },
                    {
                      "internalType": "address",
                      "name": "sender",
                      "type": "address"
                    },
                    {
                      "internalType": "uint128",
                      "name": "totalAmount",
                      "type": "uint128"
                    },
                    {
                      "internalType": "address",
                      "name": "asset",
                      "type": "address"
                    },
                    {
                      "internalType": "bool",
                      "name": "cancelable",
                      "type": "bool"
                    },
                    {
                      "internalType": "bool",
                      "name": "transferable",
                      "type": "bool"
                    },
                    {
                      "components": [
                        {
                          "internalType": "uint40",
                          "name": "start",
                          "type": "uint40"
                        },
                        {
                          "internalType": "uint40",
                          "name": "cliff",
                          "type": "uint40"
                        },
                        {
                          "internalType": "uint40",
                          "name": "end",
                          "type": "uint40"
                        }
                      ],
                      "internalType": "struct LockupLinear.Timestamps",
                      "name": "timestamps",
                      "type": "tuple"
                    },
                    {
                      "components": [
                        {
                          "internalType": "address",
                          "name": "account",
                          "type": "address"
                        },
                        {
                          "internalType": "uint256",
                          "name": "fee",
                          "type": "uint256"
                        }
                      ],
                      "internalType": "struct LockupLinear.Broker",
                      "name": "broker",
                      "type": "tuple"
                    }
                  ],
                  "internalType": "struct DecentHats_0_1_0.SablierStreamParams[]",
                  "name": "sablierParams",
                  "type": "tuple[]"
                }
              ],
              "internalType": "struct DecentHats_0_1_0.Hat[]",
              "name": "hats",
              "type": "tuple[]"
            }
          ],
          "internalType": "struct DecentHats_0_1_0.CreateTreeParams",
          "name": "params",
          "type": "tuple"
        }
      ],
      "name": "createAndDeclareTree",
      "outputs": [],
      "stateMutability": "nonpayable",
      "type": "function"
    },
    {
      "inputs": [
        {
          "internalType": "contract IHats",
          "name": "hatsProtocol",
          "type": "address"
        },
        {
          "internalType": "uint256",
          "name": "adminHatId",
          "type": "uint256"
        },
        {
          "components": [
            {
              "internalType": "uint32",
              "name": "maxSupply",
              "type": "uint32"
            },
            {
              "internalType": "string",
              "name": "details",
              "type": "string"
            },
            {
              "internalType": "string",
              "name": "imageURI",
              "type": "string"
            },
            {
              "internalType": "bool",
              "name": "isMutable",
              "type": "bool"
            },
            {
              "internalType": "address",
              "name": "wearer",
              "type": "address"
            },
            {
              "components": [
                {
                  "internalType": "contract ISablierV2LockupLinear",
                  "name": "sablier",
                  "type": "address"
                },
                {
                  "internalType": "address",
                  "name": "sender",
                  "type": "address"
                },
                {
                  "internalType": "uint128",
                  "name": "totalAmount",
                  "type": "uint128"
                },
                {
                  "internalType": "address",
                  "name": "asset",
                  "type": "address"
                },
                {
                  "internalType": "bool",
                  "name": "cancelable",
                  "type": "bool"
                },
                {
                  "internalType": "bool",
                  "name": "transferable",
                  "type": "bool"
                },
                {
                  "components": [
                    {
                      "internalType": "uint40",
                      "name": "start",
                      "type": "uint40"
                    },
                    {
                      "internalType": "uint40",
                      "name": "cliff",
                      "type": "uint40"
                    },
                    {
                      "internalType": "uint40",
                      "name": "end",
                      "type": "uint40"
                    }
                  ],
                  "internalType": "struct LockupLinear.Timestamps",
                  "name": "timestamps",
                  "type": "tuple"
                },
                {
                  "components": [
                    {
                      "internalType": "address",
                      "name": "account",
                      "type": "address"
                    },
                    {
                      "internalType": "uint256",
                      "name": "fee",
                      "type": "uint256"
                    }
                  ],
                  "internalType": "struct LockupLinear.Broker",
                  "name": "broker",
                  "type": "tuple"
                }
              ],
              "internalType": "struct DecentHats_0_1_0.SablierStreamParams[]",
              "name": "sablierParams",
              "type": "tuple[]"
            }
          ],
          "internalType": "struct DecentHats_0_1_0.Hat",
          "name": "hat",
          "type": "tuple"
        },
        {
          "internalType": "uint256",
          "name": "topHatId",
          "type": "uint256"
        },
        {
          "internalType": "address",
          "name": "topHatAccount",
          "type": "address"
        },
        {
          "internalType": "contract IERC6551Registry",
          "name": "registry",
          "type": "address"
        },
        {
          "internalType": "address",
          "name": "hatsAccountImplementation",
          "type": "address"
        },
        {
          "internalType": "bytes32",
          "name": "salt",
          "type": "bytes32"
        }
      ],
      "name": "createRoleHat",
      "outputs": [
        {
          "internalType": "uint256",
          "name": "hatId",
          "type": "uint256"
        },
        {
          "internalType": "address",
          "name": "accountAddress",
          "type": "address"
        }
      ],
      "stateMutability": "nonpayable",
      "type": "function"
    },
    {
      "inputs": [],
      "name": "getSalt",
      "outputs": [
        {
          "internalType": "bytes32",
          "name": "salt",
          "type": "bytes32"
        }
      ],
      "stateMutability": "pure",
      "type": "function"
    }
  ],
  "transactionHash": "0x120ac49ebb96472eb64f1252708ce2409a3e59965dc6e562da7e3bb8c4d9dae8",
  "args": [],
  "numDeployments": 11,
  "solcInputHash": "868499c9bf8e01dcdf8b61017b8261aa",
  "bytecode": "0x608060405234801561001057600080fd5b5061158a806100206000396000f3fe608060405234801561001057600080fd5b506004361061004c5760003560e01c806313a9589c146100515780636592b2ac146100845780638c5f591a146100b4578063a3f4df7e146100c9575b600080fd5b6040517f5d0e6ce4fd951366cc55da93f6e79d8b81483109d79676a04bcc2bed6a4b507281526020015b60405180910390f35b610097610092366004610b95565b610105565b604080519283526001600160a01b0390911660208301520161007b565b6100c76100c2366004610c40565b61018f565b005b6100f86040518060400160405280601081526020016f0446563656e74486174735f305f315f360841b81525081565b60405161007b9190610cc8565b6000806101178a8a8a898989896103dc565b6040516329287c1b60e21b8152600481018a905230602482015233604482015291935091506001600160a01b038b169063a4a1f06c90606401600060405180830381600087803b15801561016a57600080fd5b505af115801561017e573d6000803e3d6000fd5b505050509850989650505050505050565b7f5d0e6ce4fd951366cc55da93f6e79d8b81483109d79676a04bcc2bed6a4b507260008061026d6101c36020860186610cdb565b6101d06080870187610cf8565b8080601f0160208091040260200160405190810160405280939291908181526020018383808284376000920191909152506102129250505060a0880188610cf8565b8080601f016020809104026020016040519081016040528093929190818152602001838380828437600092019190915250610257925050506060890160408a01610cdb565b61026760408a0160208b01610cdb565b8861072b565b909250905061028b6102856080860160608701610cdb565b836107bd565b60006102d261029d6020870187610cdb565b846102ab60c0890189610d45565b856102bc60608b0160408c01610cdb565b6102cc60408c0160208d01610cdb565b8a6103dc565b50905060005b6102e560e0870187610d65565b905081101561035f576103556102fe6020880188610cdb565b8361030c60e08a018a610d65565b8581811061031c5761031c610dae565b905060200281019061032e9190610d45565b8661033f60608c0160408d01610cdb565b61034f60408d0160208e01610cdb565b8b6103dc565b50506001016102d8565b5061036d6020860186610cdb565b6040516329287c1b60e21b8152600481018590523060248201523360448201526001600160a01b03919091169063a4a1f06c90606401600060405180830381600087803b1580156103bd57600080fd5b505af11580156103d1573d6000803e3d6000fd5b505050505050505050565b6000806103f389896103ed8a611112565b8961093d565b91506104028585858c866109cf565b9050600061041660a0890160808a01610cdb565b6001600160a01b0316146104b6576001600160a01b03891663641f776e8361044460a08b0160808c01610cdb565b6040516001600160e01b031960e085901b16815260048101929092526001600160a01b031660248201526044016020604051808303816000875af1158015610490573d6000803e3d6000fd5b505050506040513d601f19601f820116820180604052508101906104b491906111d6565b505b60005b6104c660a08901896111f3565b905081101561071e5760006104de60a08a018a6111f3565b838181106104ee576104ee610dae565b90506101600201803603810190610505919061123c565b6060810151815160408084015190516001600160a01b0390921660248301526001600160801b03166044820152919250339163468721a7919060009060640160408051601f198184030181529181526020820180516001600160e01b031663095ea7b360e01b1790525160e085901b6001600160e01b031916815261059293929190600090600401611259565b6020604051808303816000875af11580156105b1573d6000803e3d6000fd5b505050506040513d601f19601f820116820180604052508101906105d591906111d6565b50600060405180610100016040528083602001516001600160a01b03168152602001856001600160a01b0316815260200183604001516001600160801b0316815260200183606001516001600160a01b031681526020018360800151151581526020018360a00151151581526020018360c0015181526020018360e001518152509050336001600160a01b031663468721a7836000015160008460405160240161067f91906112af565b60408051601f198184030181529181526020820180516001600160e01b03166353b1572760e01b1790525160e085901b6001600160e01b03191681526106cd93929190600090600401611259565b6020604051808303816000875af11580156106ec573d6000803e3d6000fd5b505050506040513d601f19601f8201168201806040525081019061071091906111d6565b5082600101925050506104b9565b5097509795505050505050565b600080876001600160a01b0316631a64dfad3089896040518463ffffffff1660e01b815260040161075e93929190611371565b6020604051808303816000875af115801561077d573d6000803e3d6000fd5b505050506040513d601f19601f820116820180604052508101906107a191906113a7565b91506107b08585858b866109cf565b9050965096945050505050565b604080516001808252818301909252600091816020015b60608152602001906001900390816107d457505060408051600180825281830190925291925060009190602082015b6060815260200190600190039081610803579050509050604051806040016040528060088152602001671d1bdc12185d125960c21b8152508260008151811061084e5761084e610dae565b602002602001018190525061086283610a65565b8160008151811061087557610875610dae565b6020026020010181905250336001600160a01b031663468721a785600085856040516024016108a5929190611415565b60408051601f198184030181529181526020820180516001600160e01b031663579374b960e11b1790525160e085901b6001600160e01b03191681526108f393929190600090600401611259565b6020604051808303816000875af1158015610912573d6000803e3d6000fd5b505050506040513d601f19601f8201168201806040525081019061093691906111d6565b5050505050565b6020820151825160608401516040808601519051635829492f60e11b81526000946001600160a01b038a169463b052925e94610983948b948a928392909160040161143a565b6020604051808303816000875af11580156109a2573d6000803e3d6000fd5b505050506040513d601f19601f820116820180604052508101906109c691906113a7565b95945050505050565b604051638a54c52f60e01b81526001600160a01b0385811660048301526024820185905246604483015283811660648301526084820183905260009190871690638a54c52f9060a4016020604051808303816000875af1158015610a37573d6000803e3d6000fd5b505050506040513d601f19601f82011682018060405250810190610a5b919061149e565b9695505050505050565b606081600003610a8c5750506040805180820190915260018152600360fc1b602082015290565b8160005b8115610ab65780610aa0816114d1565b9150610aaf9050600a83611500565b9150610a90565b6000816001600160401b03811115610ad057610ad0610dc4565b6040519080825280601f01601f191660200182016040528015610afa576020820181803683370190505b5090505b8415610b6557610b0f600183611514565b9150610b1c600a8661152d565b610b27906030611541565b60f81b818381518110610b3c57610b3c610dae565b60200101906001600160f81b031916908160001a905350610b5e600a86611500565b9450610afe565b949350505050565b6001600160a01b0381168114610b8257600080fd5b50565b8035610b9081610b6d565b919050565b600080600080600080600080610100898b031215610bb257600080fd5b8835610bbd81610b6d565b97506020890135965060408901356001600160401b03811115610bdf57600080fd5b890160c0818c031215610bf157600080fd5b9550606089013594506080890135610c0881610b6d565b935060a0890135610c1881610b6d565b925060c0890135610c2881610b6d565b8092505060e089013590509295985092959890939650565b600060208284031215610c5257600080fd5b81356001600160401b03811115610c6857600080fd5b82016101008185031215610c7b57600080fd5b9392505050565b6000815180845260005b81811015610ca857602081850181015186830182015201610c8c565b506000602082860101526020601f19601f83011685010191505092915050565b602081526000610c7b6020830184610c82565b600060208284031215610ced57600080fd5b8135610c7b81610b6d565b6000808335601e19843603018112610d0f57600080fd5b8301803591506001600160401b03821115610d2957600080fd5b602001915036819003821315610d3e57600080fd5b9250929050565b6000823560be19833603018112610d5b57600080fd5b9190910192915050565b6000808335601e19843603018112610d7c57600080fd5b8301803591506001600160401b03821115610d9657600080fd5b6020019150600581901b3603821315610d3e57600080fd5b634e487b7160e01b600052603260045260246000fd5b634e487b7160e01b600052604160045260246000fd5b60405160c081016001600160401b0381118282101715610dfc57610dfc610dc4565b60405290565b604051601f8201601f191681016001600160401b0381118282101715610e2a57610e2a610dc4565b604052919050565b803563ffffffff81168114610b9057600080fd5b600082601f830112610e5757600080fd5b81356001600160401b03811115610e7057610e70610dc4565b610e83601f8201601f1916602001610e02565b818152846020838601011115610e9857600080fd5b816020850160208301376000918101602001919091529392505050565b8015158114610b8257600080fd5b8035610b9081610eb5565b80356001600160801b0381168114610b9057600080fd5b803564ffffffffff81168114610b9057600080fd5b600060608284031215610f0c57600080fd5b604051606081018181106001600160401b0382111715610f2e57610f2e610dc4565b604052905080610f3d83610ee5565b8152610f4b60208401610ee5565b6020820152610f5c60408401610ee5565b60408201525092915050565b600060408284031215610f7a57600080fd5b604051604081018181106001600160401b0382111715610f9c57610f9c610dc4565b6040529050808235610fad81610b6d565b8152602092830135920191909152919050565b60006101608284031215610fd357600080fd5b60405161010081018181106001600160401b0382111715610ff657610ff6610dc4565b60405290508061100583610b85565b815261101360208401610b85565b602082015261102460408401610ece565b604082015261103560608401610b85565b606082015261104660808401610ec3565b608082015261105760a08401610ec3565b60a08201526110698460c08501610efa565b60c082015261107c846101208501610f68565b60e08201525092915050565b600082601f83011261109957600080fd5b813560206001600160401b038211156110b4576110b4610dc4565b6110c2818360051b01610e02565b82815261016092830285018201928282019190878511156110e257600080fd5b8387015b85811015611105576110f88982610fc0565b84529284019281016110e6565b5090979650505050505050565b600060c0823603121561112457600080fd5b61112c610dda565b61113583610e32565b815260208301356001600160401b038082111561115157600080fd5b61115d36838701610e46565b6020840152604085013591508082111561117657600080fd5b61118236838701610e46565b604084015261119360608601610ec3565b60608401526111a460808601610b85565b608084015260a08501359150808211156111bd57600080fd5b506111ca36828601611088565b60a08301525092915050565b6000602082840312156111e857600080fd5b8151610c7b81610eb5565b6000808335601e1984360301811261120a57600080fd5b8301803591506001600160401b0382111561122457600080fd5b602001915061016081023603821315610d3e57600080fd5b6000610160828403121561124f57600080fd5b610c7b8383610fc0565b60018060a01b03851681528360208201526080604082015260006112806080830185610c82565b9050600283106112a057634e487b7160e01b600052602160045260246000fd5b82606083015295945050505050565b81516001600160a01b0390811682526020808401518216908301526040808401516001600160801b031690830152606080840151909116908201526080808301516101608301916113039084018215159052565b5060a083015161131760a084018215159052565b5060c083015161134a60c0840182805164ffffffffff908116835260208083015182169084015260409182015116910152565b5060e0929092015180516001600160a01b0316610120830152602001516101409091015290565b6001600160a01b038416815260606020820181905260009061139590830185610c82565b8281036040840152610a5b8185610c82565b6000602082840312156113b957600080fd5b5051919050565b600081518084526020808501808196508360051b8101915082860160005b858110156114085782840389526113f6848351610c82565b988501989350908401906001016113de565b5091979650505050505050565b60408152600061142860408301856113c0565b82810360208401526109c681856113c0565b87815260e06020820152600061145360e0830189610c82565b63ffffffff881660408401526001600160a01b0387811660608501528616608084015284151560a084015282810360c08401526114908185610c82565b9a9950505050505050505050565b6000602082840312156114b057600080fd5b8151610c7b81610b6d565b634e487b7160e01b600052601160045260246000fd5b6000600182016114e3576114e36114bb565b5060010190565b634e487b7160e01b600052601260045260246000fd5b60008261150f5761150f6114ea565b500490565b81810381811115611527576115276114bb565b92915050565b60008261153c5761153c6114ea565b500690565b80820180821115611527576115276114bb56fea264697066735822122048ef86ec0b25aed489e983eeea91e1834819fb066f709e998fda6ce0bf00349f64736f6c63430008130033",
  "devdoc": {
    "kind": "dev",
    "methods": {},
    "version": 1
  },
  "userdoc": {
    "kind": "user",
    "methods": {},
    "version": 1
  },
  "storageLayout": {
    "storage": [],
    "types": null
  }
}