{
  "address": "0x4F5d44477C0Da5df31c2c5Bdd291224035708C39",
  "abi": [
    {
      "inputs": [],
      "name": "AlreadyVoted",
      "type": "error"
    },
    {
      "inputs": [],
      "name": "HatAlreadyWhitelisted",
      "type": "error"
    },
    {
      "inputs": [],
      "name": "HatNotWhitelisted",
      "type": "error"
    },
    {
      "inputs": [],
      "name": "InvalidBasisNumerator",
      "type": "error"
    },
    {
      "inputs": [],
      "name": "InvalidHatsContract",
      "type": "error"
    },
    {
      "inputs": [],
      "name": "InvalidProposal",
      "type": "error"
    },
    {
      "inputs": [],
      "name": "InvalidQuorumNumerator",
      "type": "error"
    },
    {
      "inputs": [],
      "name": "InvalidTokenAddress",
      "type": "error"
    },
    {
      "inputs": [],
      "name": "InvalidVote",
      "type": "error"
    },
    {
      "inputs": [],
      "name": "NoHatsWhitelisted",
      "type": "error"
    },
    {
      "inputs": [],
      "name": "OnlyAzorius",
      "type": "error"
    },
    {
      "inputs": [],
      "name": "VotingEnded",
      "type": "error"
    },
    {
      "anonymous": false,
      "inputs": [
        {
          "indexed": true,
          "internalType": "address",
          "name": "azoriusModule",
          "type": "address"
        }
      ],
      "name": "AzoriusSet",
      "type": "event"
    },
    {
      "anonymous": false,
      "inputs": [
        {
          "indexed": false,
          "internalType": "uint256",
          "name": "basisNumerator",
          "type": "uint256"
        }
      ],
      "name": "BasisNumeratorUpdated",
      "type": "event"
    },
    {
      "anonymous": false,
      "inputs": [
        {
          "indexed": false,
          "internalType": "uint256",
          "name": "hatId",
          "type": "uint256"
        }
      ],
      "name": "HatRemovedFromWhitelist",
      "type": "event"
    },
    {
      "anonymous": false,
      "inputs": [
        {
          "indexed": false,
          "internalType": "uint256",
          "name": "hatId",
          "type": "uint256"
        }
      ],
      "name": "HatWhitelisted",
      "type": "event"
    },
    {
      "anonymous": false,
      "inputs": [
        {
          "indexed": false,
          "internalType": "uint8",
          "name": "version",
          "type": "uint8"
        }
      ],
      "name": "Initialized",
      "type": "event"
    },
    {
      "anonymous": false,
      "inputs": [
        {
          "indexed": true,
          "internalType": "address",
          "name": "previousOwner",
          "type": "address"
        },
        {
          "indexed": true,
          "internalType": "address",
          "name": "newOwner",
          "type": "address"
        }
      ],
      "name": "OwnershipTransferred",
      "type": "event"
    },
    {
      "anonymous": false,
      "inputs": [
        {
          "indexed": false,
          "internalType": "uint32",
          "name": "proposalId",
          "type": "uint32"
        },
        {
          "indexed": false,
          "internalType": "uint32",
          "name": "votingEndBlock",
          "type": "uint32"
        }
      ],
      "name": "ProposalInitialized",
      "type": "event"
    },
    {
      "anonymous": false,
      "inputs": [
        {
          "indexed": false,
          "internalType": "uint256",
          "name": "quorumNumerator",
          "type": "uint256"
        }
      ],
      "name": "QuorumNumeratorUpdated",
      "type": "event"
    },
    {
      "anonymous": false,
      "inputs": [
        {
          "indexed": false,
          "internalType": "uint256",
          "name": "requiredProposerWeight",
          "type": "uint256"
        }
      ],
      "name": "RequiredProposerWeightUpdated",
      "type": "event"
    },
    {
      "anonymous": false,
      "inputs": [
        {
          "indexed": true,
          "internalType": "address",
          "name": "azoriusModule",
          "type": "address"
        },
        {
          "indexed": true,
          "internalType": "address",
          "name": "owner",
          "type": "address"
        }
      ],
      "name": "StrategySetUp",
      "type": "event"
    },
    {
      "anonymous": false,
      "inputs": [
        {
          "indexed": false,
          "internalType": "address",
          "name": "voter",
          "type": "address"
        },
        {
          "indexed": false,
          "internalType": "uint32",
          "name": "proposalId",
          "type": "uint32"
        },
        {
          "indexed": false,
          "internalType": "uint8",
          "name": "voteType",
          "type": "uint8"
        },
        {
          "indexed": false,
          "internalType": "uint256",
          "name": "weight",
          "type": "uint256"
        }
      ],
      "name": "Voted",
      "type": "event"
    },
    {
      "anonymous": false,
      "inputs": [
        {
          "indexed": false,
          "internalType": "uint32",
          "name": "votingPeriod",
          "type": "uint32"
        }
      ],
      "name": "VotingPeriodUpdated",
      "type": "event"
    },
    {
      "inputs": [],
      "name": "BASIS_DENOMINATOR",
      "outputs": [
        {
          "internalType": "uint256",
          "name": "",
          "type": "uint256"
        }
      ],
      "stateMutability": "view",
      "type": "function"
    },
    {
      "inputs": [],
      "name": "QUORUM_DENOMINATOR",
      "outputs": [
        {
          "internalType": "uint256",
          "name": "",
          "type": "uint256"
        }
      ],
      "stateMutability": "view",
      "type": "function"
    },
    {
      "inputs": [],
      "name": "azoriusModule",
      "outputs": [
        {
          "internalType": "contract IAzorius",
          "name": "",
          "type": "address"
        }
      ],
      "stateMutability": "view",
      "type": "function"
    },
    {
      "inputs": [],
      "name": "basisNumerator",
      "outputs": [
        {
          "internalType": "uint256",
          "name": "",
          "type": "uint256"
        }
      ],
      "stateMutability": "view",
      "type": "function"
    },
    {
      "inputs": [
        {
          "internalType": "uint32",
          "name": "_proposalId",
          "type": "uint32"
        }
      ],
      "name": "getProposalVotes",
      "outputs": [
        {
          "internalType": "uint256",
          "name": "noVotes",
          "type": "uint256"
        },
        {
          "internalType": "uint256",
          "name": "yesVotes",
          "type": "uint256"
        },
        {
          "internalType": "uint256",
          "name": "abstainVotes",
          "type": "uint256"
        },
        {
          "internalType": "uint32",
          "name": "startBlock",
          "type": "uint32"
        },
        {
          "internalType": "uint32",
          "name": "endBlock",
          "type": "uint32"
        },
        {
          "internalType": "uint256",
          "name": "votingSupply",
          "type": "uint256"
        }
      ],
      "stateMutability": "view",
      "type": "function"
    },
    {
      "inputs": [
        {
          "internalType": "uint32",
          "name": "_proposalId",
          "type": "uint32"
        }
      ],
      "name": "getProposalVotingSupply",
      "outputs": [
        {
          "internalType": "uint256",
          "name": "",
          "type": "uint256"
        }
      ],
      "stateMutability": "view",
      "type": "function"
    },
    {
      "inputs": [
        {
          "internalType": "address",
          "name": "_voter",
          "type": "address"
        },
        {
          "internalType": "uint32",
          "name": "_proposalId",
          "type": "uint32"
        }
      ],
      "name": "getVotingWeight",
      "outputs": [
        {
          "internalType": "uint256",
          "name": "",
          "type": "uint256"
        }
      ],
      "stateMutability": "view",
      "type": "function"
    },
    {
      "inputs": [],
      "name": "getWhitelistedHatsCount",
      "outputs": [
        {
          "internalType": "uint256",
          "name": "",
          "type": "uint256"
        }
      ],
      "stateMutability": "view",
      "type": "function"
    },
    {
      "inputs": [],
      "name": "governanceToken",
      "outputs": [
        {
          "internalType": "contract IVotes",
          "name": "",
          "type": "address"
        }
      ],
      "stateMutability": "view",
      "type": "function"
    },
    {
      "inputs": [
        {
          "internalType": "uint32",
          "name": "_proposalId",
          "type": "uint32"
        },
        {
          "internalType": "address",
          "name": "_address",
          "type": "address"
        }
      ],
      "name": "hasVoted",
      "outputs": [
        {
          "internalType": "bool",
          "name": "",
          "type": "bool"
        }
      ],
      "stateMutability": "view",
      "type": "function"
    },
    {
      "inputs": [],
      "name": "hatsContract",
      "outputs": [
        {
          "internalType": "contract IHats",
          "name": "",
          "type": "address"
        }
      ],
      "stateMutability": "view",
      "type": "function"
    },
    {
      "inputs": [
        {
          "internalType": "bytes",
          "name": "_data",
          "type": "bytes"
        }
      ],
      "name": "initializeProposal",
      "outputs": [],
      "stateMutability": "nonpayable",
      "type": "function"
    },
    {
      "inputs": [
        {
          "internalType": "uint256",
          "name": "_hatId",
          "type": "uint256"
        }
      ],
      "name": "isHatWhitelisted",
      "outputs": [
        {
          "internalType": "bool",
          "name": "",
          "type": "bool"
        }
      ],
      "stateMutability": "view",
      "type": "function"
    },
    {
      "inputs": [
        {
          "internalType": "uint32",
          "name": "_proposalId",
          "type": "uint32"
        }
      ],
      "name": "isPassed",
      "outputs": [
        {
          "internalType": "bool",
          "name": "",
          "type": "bool"
        }
      ],
      "stateMutability": "view",
      "type": "function"
    },
    {
      "inputs": [
        {
          "internalType": "address",
          "name": "_address",
          "type": "address"
        }
      ],
      "name": "isProposer",
      "outputs": [
        {
          "internalType": "bool",
          "name": "",
          "type": "bool"
        }
      ],
      "stateMutability": "view",
      "type": "function"
    },
    {
      "inputs": [
        {
          "internalType": "uint256",
          "name": "_yesVotes",
          "type": "uint256"
        },
        {
          "internalType": "uint256",
          "name": "_noVotes",
          "type": "uint256"
        }
      ],
      "name": "meetsBasis",
      "outputs": [
        {
          "internalType": "bool",
          "name": "",
          "type": "bool"
        }
      ],
      "stateMutability": "view",
      "type": "function"
    },
    {
      "inputs": [
        {
          "internalType": "uint256",
          "name": "_totalSupply",
          "type": "uint256"
        },
        {
          "internalType": "uint256",
          "name": "_yesVotes",
          "type": "uint256"
        },
        {
          "internalType": "uint256",
          "name": "_abstainVotes",
          "type": "uint256"
        }
      ],
      "name": "meetsQuorum",
      "outputs": [
        {
          "internalType": "bool",
          "name": "",
          "type": "bool"
        }
      ],
      "stateMutability": "view",
      "type": "function"
    },
    {
      "inputs": [],
      "name": "owner",
      "outputs": [
        {
          "internalType": "address",
          "name": "",
          "type": "address"
        }
      ],
      "stateMutability": "view",
      "type": "function"
    },
    {
      "inputs": [],
      "name": "quorumNumerator",
      "outputs": [
        {
          "internalType": "uint256",
          "name": "",
          "type": "uint256"
        }
      ],
      "stateMutability": "view",
      "type": "function"
    },
    {
      "inputs": [
        {
          "internalType": "uint32",
          "name": "_proposalId",
          "type": "uint32"
        }
      ],
      "name": "quorumVotes",
      "outputs": [
        {
          "internalType": "uint256",
          "name": "",
          "type": "uint256"
        }
      ],
      "stateMutability": "view",
      "type": "function"
    },
    {
      "inputs": [
        {
          "internalType": "uint256",
          "name": "_hatId",
          "type": "uint256"
        }
      ],
      "name": "removeHatFromWhitelist",
      "outputs": [],
      "stateMutability": "nonpayable",
      "type": "function"
    },
    {
      "inputs": [],
      "name": "renounceOwnership",
      "outputs": [],
      "stateMutability": "nonpayable",
      "type": "function"
    },
    {
      "inputs": [],
      "name": "requiredProposerWeight",
      "outputs": [
        {
          "internalType": "uint256",
          "name": "",
          "type": "uint256"
        }
      ],
      "stateMutability": "view",
      "type": "function"
    },
    {
      "inputs": [
        {
          "internalType": "address",
          "name": "_azoriusModule",
          "type": "address"
        }
      ],
      "name": "setAzorius",
      "outputs": [],
      "stateMutability": "nonpayable",
      "type": "function"
    },
    {
      "inputs": [
        {
          "internalType": "bytes",
          "name": "initializeParams",
          "type": "bytes"
        }
      ],
      "name": "setUp",
      "outputs": [],
      "stateMutability": "nonpayable",
      "type": "function"
    },
    {
      "inputs": [
        {
          "internalType": "address",
          "name": "newOwner",
          "type": "address"
        }
      ],
      "name": "transferOwnership",
      "outputs": [],
      "stateMutability": "nonpayable",
      "type": "function"
    },
    {
      "inputs": [
        {
          "internalType": "uint256",
          "name": "_basisNumerator",
          "type": "uint256"
        }
      ],
      "name": "updateBasisNumerator",
      "outputs": [],
      "stateMutability": "nonpayable",
      "type": "function"
    },
    {
      "inputs": [
        {
          "internalType": "uint256",
          "name": "_quorumNumerator",
          "type": "uint256"
        }
      ],
      "name": "updateQuorumNumerator",
      "outputs": [],
      "stateMutability": "nonpayable",
      "type": "function"
    },
    {
      "inputs": [
        {
          "internalType": "uint256",
          "name": "_requiredProposerWeight",
          "type": "uint256"
        }
      ],
      "name": "updateRequiredProposerWeight",
      "outputs": [],
      "stateMutability": "nonpayable",
      "type": "function"
    },
    {
      "inputs": [
        {
          "internalType": "uint32",
          "name": "_votingPeriod",
          "type": "uint32"
        }
      ],
      "name": "updateVotingPeriod",
      "outputs": [],
      "stateMutability": "nonpayable",
      "type": "function"
    },
    {
      "inputs": [
        {
          "internalType": "uint32",
          "name": "_proposalId",
          "type": "uint32"
        },
        {
          "internalType": "uint8",
          "name": "_voteType",
          "type": "uint8"
        }
      ],
      "name": "vote",
      "outputs": [],
      "stateMutability": "nonpayable",
      "type": "function"
    },
    {
      "inputs": [
        {
          "internalType": "uint32",
          "name": "_proposalId",
          "type": "uint32"
        }
      ],
      "name": "votingEndBlock",
      "outputs": [
        {
          "internalType": "uint32",
          "name": "",
          "type": "uint32"
        }
      ],
      "stateMutability": "view",
      "type": "function"
    },
    {
      "inputs": [],
      "name": "votingPeriod",
      "outputs": [
        {
          "internalType": "uint32",
          "name": "",
          "type": "uint32"
        }
      ],
      "stateMutability": "view",
      "type": "function"
    },
    {
      "inputs": [
        {
          "internalType": "uint256",
          "name": "_hatId",
          "type": "uint256"
        }
      ],
      "name": "whitelistHat",
      "outputs": [],
      "stateMutability": "nonpayable",
      "type": "function"
    },
    {
      "inputs": [
        {
          "internalType": "uint256",
          "name": "",
          "type": "uint256"
        }
      ],
      "name": "whitelistedHatIds",
      "outputs": [
        {
          "internalType": "uint256",
          "name": "",
          "type": "uint256"
        }
      ],
      "stateMutability": "view",
      "type": "function"
    }
  ],
  "transactionHash": "0x255f465108d54babaeea38632f8e99557a06dada02576b8e47df05c3c02fa065",
  "args": [],
  "numDeployments": 1,
  "solcInputHash": "8098c390a54ad5a8bcff70bed7c24a3c",
  "bytecode": "0x608060405234801561001057600080fd5b5061001961001e565b6100de565b600054610100900460ff161561008a5760405162461bcd60e51b815260206004820152602760248201527f496e697469616c697a61626c653a20636f6e747261637420697320696e697469604482015266616c697a696e6760c81b606482015260840160405180910390fd5b60005460ff90811610156100dc576000805460ff191660ff9081179091556040519081527f7f26b83ff96e1f2b6a682f133852f6798a09c465da95921460cefb38474024989060200160405180910390a15b565b611b81806100ed6000396000f3fe608060405234801561001057600080fd5b50600436106102115760003560e01c80638a2f2c8a11610125578063a7713a70116100ad578063d3c22b381161007c578063d3c22b3814610472578063deb61c15146104b6578063e8575a7f146104ff578063f2fde38b14610512578063f96dae0a1461052557600080fd5b8063a7713a701461043a578063a77a81d014610443578063bf7e2c7f14610456578063ca1dc30b1461045f57600080fd5b806397e39fef116100f457806397e39fef146103e55780639bff4df4146103f85780639dd783c214610401578063a09c4f6814610414578063a4f9edbf1461042757600080fd5b80638a2f2c8a1461039b5780638da5cb5b146103ae578063918f84bf146103bf5780639767fb72146103d257600080fd5b806350631bfe116101a85780636fef541a116101775780636fef541a1461036e578063709e23f814610378578063715018a61461038057806374ec29a0146103885780638081be911461036e57600080fd5b806350631bfe146102dc57806353a8b320146102ff57806355a9dbd91461031257806366b629551461034357600080fd5b80631e2972e8116101e45780631e2972e81461029057806333f48a5e146102a357806337938ab3146102b65780633a622c52146102c957600080fd5b806302a251a31461021657806306f3f9e61461024757806308453ad21461025c5780631236af7c1461027d575b600080fd5b606a5461022d90600160a01b900463ffffffff1681565b60405163ffffffff90911681526020015b60405180910390f35b61025a610255366004611532565b610538565b005b61026f61026a36600461155d565b61054c565b60405190815260200161023e565b61026f61028b36600461155d565b6105d5565b61026f61029e366004611532565b6105fb565b61025a6102b136600461155d565b61061c565b61025a6102c436600461158f565b61062d565b61025a6102d7366004611532565b61067f565b6102ef6102ea366004611532565b61079c565b604051901515815260200161023e565b6102ef61030d36600461155d565b6107f2565b61022d61032036600461155d565b63ffffffff9081166000908152606c602052604090205464010000000090041690565b606754610356906001600160a01b031681565b6040516001600160a01b03909116815260200161023e565b61026f620f424081565b60665461026f565b61025a610880565b6102ef61039636600461158f565b610894565b61025a6103a9366004611532565b61089f565b6033546001600160a01b0316610356565b6102ef6103cd3660046115ac565b6108b0565b61025a6103e03660046115ce565b6108e2565b606554610356906001600160a01b031681565b61026f606b5481565b6102ef61040f36600461160d565b6108fb565b61025a610422366004611532565b61092d565b61025a610435366004611680565b61093e565b61026f60685481565b61025a610451366004611680565b610a0a565b61026f60695481565b61026f61046d366004611715565b610af1565b6102ef610480366004611743565b63ffffffff82166000908152606c602090815260408083206001600160a01b038516845260040190915290205460ff1692915050565b6104c96104c436600461155d565b610b86565b6040805196875260208701959095529385019290925263ffffffff908116606085015216608083015260a082015260c00161023e565b61025a61050d366004611532565b610bd5565b61025a61052036600461158f565b610be6565b606a54610356906001600160a01b031681565b610540610c61565b61054981610cbb565b50565b606a5463ffffffff8281166000908152606c6020526040808220549051632394e7a360e21b815292166004830152916001600160a01b031690638e539e8c90602401602060405180830381865afa1580156105ab573d6000803e3d6000fd5b505050506040513d601f19601f820116820180604052508101906105cf9190611771565b92915050565b6000620f42406105e48361054c565b6068546105f191906117a0565b6105cf91906117b7565b6066818154811061060b57600080fd5b600091825260209091200154905081565b610624610c61565b61054981610d1b565b610635610c61565b606780546001600160a01b0319166001600160a01b0383169081179091556040517fac8d831a6ed53a98387842e08d9e0893c1d478f4a3710b254e22bd58c06b269090600090a250565b610687610c61565b6000805b6066548110156107455782606682815481106106a9576106a96117d9565b90600052602060002001540361073357606680546106c9906001906117ef565b815481106106d9576106d96117d9565b9060005260206000200154606682815481106106f7576106f76117d9565b600091825260209091200155606680548061071457610714611802565b6001900381819060005260206000200160009055905560019150610745565b8061073d81611818565b91505061068b565b508061076457604051634b8d041f60e01b815260040160405180910390fd5b6040518281527f50544666722f5a4554f2716b5efb2ce814101451643c8856221fef06b5e9803b906020015b60405180910390a15050565b6000805b6066548110156107e95782606682815481106107be576107be6117d9565b9060005260206000200154036107d75750600192915050565b806107e181611818565b9150506107a0565b50600092915050565b63ffffffff8082166000908152606c60205260408120549091640100000000909104164311801561084f575061084f61082a8361054c565b63ffffffff84166000908152606c6020526040902060028101546003909101546108fb565b80156105cf575063ffffffff82166000908152606c6020526040902060028101546001909101546105cf91906108b0565b610888610c61565b6108926000610d6f565b565b60006105cf82610dc1565b6108a7610c61565b61054981610e93565b6000620f424060695483856108c59190611831565b6108cf91906117a0565b6108d991906117b7565b90921192915050565b6108f78233836108f23387610af1565b610ec8565b5050565b6000620f42406068548561090f91906117a0565b61091991906117b7565b6109238385611831565b1015949350505050565b610935610c61565b610549816110e7565b6000806000806000806000808880602001905181019061095e91906118c4565b604080516001600160a01b03808b166020830152808a1692820192909252908716606082015263ffffffff86166080820152600060a082015260c0810185905260e08101849052979f50959d50939b5091995097509550935091506109d590610100016040516020818303038152906040526111a9565b6109ff82826040516020016109eb929190611978565b6040516020818303038152906040526113a2565b505050505050505050565b6067546001600160a01b03163314610a35576040516358c30ce160e01b815260040160405180910390fd5b600081806020019051810190610a4b91906119ce565b606a54909150600090610a6b90600160a01b900463ffffffff16436119eb565b63ffffffff8381166000818152606c6020908152604091829020805467ffffffffffffffff191664010000000087871690810263ffffffff1916919091174390961695909517905581519283528201929092529192507f80d0ad93bba25e53bf67fa9f2d13df59f04795ec2f91b9b3c1f607666daf9d64910160405180910390a1505050565b606a5463ffffffff8281166000908152606c6020526040808220549051630748d63560e31b81526001600160a01b03878116600483015291909316602484015290921690633a46b1a890604401602060405180830381865afa158015610b5b573d6000803e3d6000fd5b505050506040513d601f19601f82011682018060405250810190610b7f9190611771565b9392505050565b63ffffffff8082166000908152606c6020526040812060018101546002820154600383015492549194909382821692640100000000900490911690610bca8761054c565b905091939550919395565b610bdd610c61565b61054981611468565b610bee610c61565b6001600160a01b038116610c585760405162461bcd60e51b815260206004820152602660248201527f4f776e61626c653a206e6577206f776e657220697320746865207a65726f206160448201526564647265737360d01b60648201526084015b60405180910390fd5b61054981610d6f565b6033546001600160a01b031633146108925760405162461bcd60e51b815260206004820181905260248201527f4f776e61626c653a2063616c6c6572206973206e6f7420746865206f776e65726044820152606401610c4f565b620f4240811115610cdf57604051630d2a3fcb60e41b815260040160405180910390fd5b60688190556040518181527f0cc18e3862a55e514917eb8f248561dd65e0fbbba65f5468f203e92193635dd3906020015b60405180910390a150565b606a805463ffffffff60a01b1916600160a01b63ffffffff8416908102919091179091556040519081527f70770ce479f70673c3ed8fff63cfb758a6ffdddc30cab7c63d54c8d825e3948890602001610d10565b603380546001600160a01b038381166001600160a01b0319831681179093556040519116919082907f8be0079c531659141344cd1fd0a4f28419497f9722a3daafe3b4186f6b6457e090600090a35050565b6000805b6066548110156107e957606554606680546001600160a01b0390921691634352409a91869185908110610dfa57610dfa6117d9565b6000918252602090912001546040516001600160e01b031960e085901b1681526001600160a01b0390921660048301526024820152604401602060405180830381865afa158015610e4f573d6000803e3d6000fd5b505050506040513d601f19601f82011682018060405250810190610e739190611a0f565b15610e815750600192915050565b80610e8b81611818565b915050610dc5565b606b8190556040518181527f93deb5027728f04c9fd8d7bcea2efb36cc7a6a7876236649f2952de0aa89a01190602001610d10565b63ffffffff8085166000908152606c602052604081205464010000000090049091169003610f0957604051631dc0650160e31b815260040160405180910390fd5b63ffffffff8085166000908152606c6020526040902054640100000000900416431115610f4957604051637a19ed0560e01b815260040160405180910390fd5b63ffffffff84166000908152606c602090815260408083206001600160a01b038716845260040190915290205460ff1615610f9757604051637c9a1cf960e01b815260040160405180910390fd5b63ffffffff84166000908152606c602090815260408083206001600160a01b03871684526004019091529020805460ff1916600117905560ff82166110095763ffffffff84166000908152606c602052604081206001018054839290610ffe908490611831565b9091555061108a9050565b60001960ff83160161103d5763ffffffff84166000908152606c602052604081206002018054839290610ffe908490611831565b60011960ff8316016110715763ffffffff84166000908152606c602052604081206003018054839290610ffe908490611831565b604051636aee863360e11b815260040160405180910390fd5b604080516001600160a01b038516815263ffffffff8616602082015260ff8416818301526060810183905290517fe82b577bd384111662dd034b9114cbe59b26ea201f009d385006518ed28bed819181900360800190a150505050565b60005b606654811015611143578160668281548110611108576111086117d9565b9060005260206000200154036111315760405163634a456360e01b815260040160405180910390fd5b8061113b81611818565b9150506110ea565b50606680546001810182556000919091527f46501879b8ca8525e8c2fd519e2fbfcfa2ebea26501294aa02cbfcfb12e94354018190556040518181527f30590a8684cec4e5a2b48765f391c996b9a004652478a8f41dc46658ccb699ed90602001610d10565b600054610100900460ff16158080156111c95750600054600160ff909116105b806111e35750303b1580156111e3575060005460ff166001145b6112465760405162461bcd60e51b815260206004820152602e60248201527f496e697469616c697a61626c653a20636f6e747261637420697320616c72656160448201526d191e481a5b9a5d1a585b1a5e995960921b6064820152608401610c4f565b6000805460ff191660011790558015611269576000805461ff0019166101001790555b6000806000806000806000888060200190518101906112889190611a31565b959c50939a5091985096509450925090506001600160a01b0386166112c057604051630f58058360e11b815260040160405180910390fd5b606a80546001600160a01b0319166001600160a01b0388161790556112e36114d8565b6112ec87610be6565b6112f585610635565b6112fe82610cbb565b61130781611468565b61131084610d1b565b61131983610e93565b866001600160a01b0316856001600160a01b03167fca32f512f02914f6bc16a49e786443029061b9adc5a987fd2f6efa56c0116a1660405160405180910390a35050505050505080156108f7576000805461ff0019169055604051600181527f7f26b83ff96e1f2b6a682f133852f6798a09c465da95921460cefb384740249890602001610790565b600080828060200190518101906113b99190611aaf565b90925090506001600160a01b0382166113e5576040516350e80d4360e11b815260040160405180910390fd5b606580546001600160a01b0319166001600160a01b038416179055805160000361142257604051632a2b50e760e01b815260040160405180910390fd5b60005b815181101561146257611450828281518110611443576114436117d9565b60200260200101516110e7565b8061145a81611818565b915050611425565b50505050565b620f424081118061148557506114826002620f42406117b7565b81105b156114a3576040516302396b6b60e61b815260040160405180910390fd5b60698190556040518181527f406c076eac4d3dde1c5d55793e80239daa8c60ee971390ce3d9f90ca4206295390602001610d10565b600054610100900460ff166114ff5760405162461bcd60e51b8152600401610c4f90611b00565b610892600054610100900460ff166115295760405162461bcd60e51b8152600401610c4f90611b00565b61089233610d6f565b60006020828403121561154457600080fd5b5035919050565b63ffffffff8116811461054957600080fd5b60006020828403121561156f57600080fd5b8135610b7f8161154b565b6001600160a01b038116811461054957600080fd5b6000602082840312156115a157600080fd5b8135610b7f8161157a565b600080604083850312156115bf57600080fd5b50508035926020909101359150565b600080604083850312156115e157600080fd5b82356115ec8161154b565b9150602083013560ff8116811461160257600080fd5b809150509250929050565b60008060006060848603121561162257600080fd5b505081359360208301359350604090920135919050565b634e487b7160e01b600052604160045260246000fd5b604051601f8201601f1916810167ffffffffffffffff8111828210171561167857611678611639565b604052919050565b6000602080838503121561169357600080fd5b823567ffffffffffffffff808211156116ab57600080fd5b818501915085601f8301126116bf57600080fd5b8135818111156116d1576116d1611639565b6116e3601f8201601f1916850161164f565b915080825286848285010111156116f957600080fd5b8084840185840137600090820190930192909252509392505050565b6000806040838503121561172857600080fd5b82356117338161157a565b915060208301356116028161154b565b6000806040838503121561175657600080fd5b82356117618161154b565b915060208301356116028161157a565b60006020828403121561178357600080fd5b5051919050565b634e487b7160e01b600052601160045260246000fd5b80820281158282048414176105cf576105cf61178a565b6000826117d457634e487b7160e01b600052601260045260246000fd5b500490565b634e487b7160e01b600052603260045260246000fd5b818103818111156105cf576105cf61178a565b634e487b7160e01b600052603160045260246000fd5b60006001820161182a5761182a61178a565b5060010190565b808201808211156105cf576105cf61178a565b600082601f83011261185557600080fd5b8151602067ffffffffffffffff82111561187157611871611639565b8160051b61188082820161164f565b928352848101820192828101908785111561189a57600080fd5b83870192505b848310156118b9578251825291830191908301906118a0565b979650505050505050565b600080600080600080600080610100898b0312156118e157600080fd5b88516118ec8161157a565b60208a01519098506118fd8161157a565b60408a015190975061190e8161157a565b60608a015190965061191f8161154b565b809550506080890151935060a0890151925060c089015161193f8161157a565b60e08a015190925067ffffffffffffffff81111561195c57600080fd5b6119688b828c01611844565b9150509295985092959890939650565b6001600160a01b038316815260406020808301829052835191830182905260009184820191906060850190845b818110156119c1578451835293830193918301916001016119a5565b5090979650505050505050565b6000602082840312156119e057600080fd5b8151610b7f8161154b565b63ffffffff818116838216019080821115611a0857611a0861178a565b5092915050565b600060208284031215611a2157600080fd5b81518015158114610b7f57600080fd5b600080600080600080600060e0888a031215611a4c57600080fd5b8751611a578161157a565b6020890151909750611a688161157a565b6040890151909650611a798161157a565b6060890151909550611a8a8161154b565b809450506080880151925060a0880151915060c0880151905092959891949750929550565b60008060408385031215611ac257600080fd5b8251611acd8161157a565b602084015190925067ffffffffffffffff811115611aea57600080fd5b611af685828601611844565b9150509250929050565b6020808252602b908201527f496e697469616c697a61626c653a20636f6e7472616374206973206e6f74206960408201526a6e697469616c697a696e6760a81b60608201526080019056fea2646970667358221220ab328fb1a4e093d4d12859e26cec37e663125c61070ccda93b874f45821b408b64736f6c63430008130033",
  "devdoc": {
    "events": {
      "Initialized(uint8)": {
        "details": "Triggered when the contract has been initialized or reinitialized."
      }
    },
    "kind": "dev",
    "methods": {
      "getProposalVotes(uint32)": {
        "params": {
          "_proposalId": "id of the Proposal"
        },
        "returns": {
          "abstainVotes": "current count of \"ABSTAIN\" votes",
          "endBlock": "block number voting ends",
          "noVotes": "current count of \"NO\" votes",
          "startBlock": "block number voting starts",
          "yesVotes": "current count of \"YES\" votes"
        }
      },
      "getProposalVotingSupply(uint32)": {
        "params": {
          "_proposalId": "id of the Proposal"
        },
        "returns": {
          "_0": "uint256 voting supply snapshot for the given _proposalId"
        }
      },
      "getVotingWeight(address,uint32)": {
        "params": {
          "_proposalId": "id of the Proposal",
          "_voter": "address of the voter"
        },
        "returns": {
          "_0": "uint256 the address' voting weight"
        }
      },
      "getWhitelistedHatsCount()": {
        "returns": {
          "_0": "The number of whitelisted hats"
        }
      },
      "hasVoted(uint32,address)": {
        "params": {
          "_address": "address to check",
          "_proposalId": "id of the Proposal to check"
        },
        "returns": {
          "_0": "bool true if the address has voted on the Proposal, otherwise false"
        }
      },
      "initializeProposal(bytes)": {
        "params": {
          "_data": "arbitrary data to pass to this BaseStrategy"
        }
      },
      "isHatWhitelisted(uint256)": {
        "params": {
          "_hatId": "The ID of the Hat to check"
        },
        "returns": {
          "_0": "True if the hat is whitelisted, false otherwise"
        }
      },
      "isPassed(uint32)": {
        "params": {
          "_proposalId": "proposalId to check"
        },
        "returns": {
          "_0": "bool true if the proposal has passed, otherwise false"
        }
      },
      "isProposer(address)": {
        "details": "Checks if an address is authorized to create proposals.",
        "params": {
          "_address": "The address to check for proposal creation authorization."
        },
        "returns": {
          "_0": "bool Returns true if the address is wearing any of the whitelisted Hats, false otherwise."
        }
      },
      "meetsBasis(uint256,uint256)": {
        "params": {
          "_noVotes": "number of votes against",
          "_yesVotes": "number of votes in favor"
        },
        "returns": {
          "_0": "bool whether the yes votes meets the set basis"
        }
      },
      "meetsQuorum(uint256,uint256,uint256)": {
        "params": {
          "_abstainVotes": "number of votes abstaining",
          "_totalSupply": "the total supply of tokens",
          "_yesVotes": "number of votes in favor"
        },
        "returns": {
          "_0": "bool whether the total number of yes votes + abstain meets the quorum"
        }
      },
      "owner()": {
        "details": "Returns the address of the current owner."
      },
      "quorumVotes(uint32)": {
        "params": {
          "_proposalId": "The ID of the proposal to get quorum votes for"
        },
        "returns": {
          "_0": "uint256 The quantity of votes required to meet quorum"
        }
      },
      "removeHatFromWhitelist(uint256)": {
        "params": {
          "_hatId": "The ID of the Hat to remove from the whitelist"
        }
      },
      "renounceOwnership()": {
        "details": "Leaves the contract without owner. It will not be possible to call `onlyOwner` functions anymore. Can only be called by the current owner. NOTE: Renouncing ownership will leave the contract without an owner, thereby removing any functionality that is only available to the owner."
      },
      "setAzorius(address)": {
        "params": {
          "_azoriusModule": "address of the Azorius Safe module"
        }
      },
      "setUp(bytes)": {
        "params": {
          "initializeParams": "encoded initialization parameters: `address _owner`, `address _governanceToken`, `address _azoriusModule`, `uint32 _votingPeriod`, `uint256 _quorumNumerator`, `uint256 _basisNumerator`, `address _hatsContract`, `uint256[] _initialWhitelistedHats`"
        }
      },
      "transferOwnership(address)": {
        "details": "Transfers ownership of the contract to a new account (`newOwner`). Can only be called by the current owner."
      },
      "updateBasisNumerator(uint256)": {
        "params": {
          "_basisNumerator": "numerator to use"
        }
      },
      "updateQuorumNumerator(uint256)": {
        "params": {
          "_quorumNumerator": "numerator to use when calculating quorum (over 1,000,000)"
        }
      },
      "updateRequiredProposerWeight(uint256)": {
        "params": {
          "_requiredProposerWeight": "required token voting weight"
        }
      },
      "updateVotingPeriod(uint32)": {
        "params": {
          "_votingPeriod": "voting time period (in blocks)"
        }
      },
      "vote(uint32,uint8)": {
        "params": {
          "_proposalId": "id of the Proposal to vote on",
          "_voteType": "Proposal support as defined in VoteType (NO, YES, ABSTAIN)"
        }
      },
      "votingEndBlock(uint32)": {
        "params": {
          "_proposalId": "proposalId to check"
        },
        "returns": {
          "_0": "uint32 block number when voting ends on the Proposal"
        }
      },
      "whitelistHat(uint256)": {
        "params": {
          "_hatId": "The ID of the Hat to whitelist"
        }
      }
    },
    "version": 1
  },
  "userdoc": {
    "errors": {
      "InvalidQuorumNumerator()": [
        {
          "notice": "Ensures the numerator cannot be larger than the denominator. "
        }
      ]
    },
    "kind": "user",
    "methods": {
      "BASIS_DENOMINATOR()": {
        "notice": "The denominator to use when calculating basis (1,000,000). "
      },
      "QUORUM_DENOMINATOR()": {
        "notice": "The denominator to use when calculating quorum (1,000,000). "
      },
      "basisNumerator()": {
        "notice": "The numerator to use when calculating basis (adjustable). "
      },
      "getProposalVotes(uint32)": {
        "notice": "Returns the current state of the specified Proposal."
      },
      "getProposalVotingSupply(uint32)": {
        "notice": "Returns a snapshot of total voting supply for a given Proposal.  Because token supplies can change, it is necessary to calculate quorum from the supply available at the time of the Proposal's creation, not when it is being voted on passes / fails."
      },
      "getVotingWeight(address,uint32)": {
        "notice": "Calculates the voting weight an address has for a specific Proposal."
      },
      "getWhitelistedHatsCount()": {
        "notice": "Returns the number of whitelisted hats."
      },
      "hasVoted(uint32,address)": {
        "notice": "Returns whether an address has voted on the specified Proposal."
      },
      "initializeProposal(bytes)": {
        "notice": "Called by the [Azorius](../Azorius.md) module. This notifies this  [BaseStrategy](../BaseStrategy.md) that a new Proposal has been created."
      },
      "isHatWhitelisted(uint256)": {
        "notice": "Checks if a hat is whitelisted."
      },
      "isPassed(uint32)": {
        "notice": "Returns whether a Proposal has been passed."
      },
      "isProposer(address)": {
        "notice": "This function overrides the isProposer function from the parent contract. It iterates through all whitelisted Hat IDs and checks if the given address is wearing any of them using the Hats Protocol."
      },
      "meetsBasis(uint256,uint256)": {
        "notice": "Calculates whether a vote meets its basis."
      },
      "meetsQuorum(uint256,uint256,uint256)": {
        "notice": "Calculates whether a vote meets quorum. This is calculated based on yes votes + abstain votes."
      },
      "quorumNumerator()": {
        "notice": "The numerator to use when calculating quorum (adjustable). "
      },
      "quorumVotes(uint32)": {
        "notice": "Calculates the total number of votes required for a proposal to meet quorum. "
      },
      "removeHatFromWhitelist(uint256)": {
        "notice": "Removes a Hat from the whitelist for proposal creation."
      },
      "requiredProposerWeight()": {
        "notice": "Voting weight required to be able to submit Proposals. "
      },
      "setAzorius(address)": {
        "notice": "Sets the address of the [Azorius](../Azorius.md) contract this  [BaseStrategy](../BaseStrategy.md) is being used on."
      },
      "setUp(bytes)": {
        "notice": "Sets up the contract with its initial parameters."
      },
      "updateBasisNumerator(uint256)": {
        "notice": "Updates the `basisNumerator` for future Proposals."
      },
      "updateQuorumNumerator(uint256)": {
        "notice": "Updates the quorum required for future Proposals."
      },
      "updateRequiredProposerWeight(uint256)": {
        "notice": "Updates the voting weight required to submit new Proposals."
      },
      "updateVotingPeriod(uint32)": {
        "notice": "Updates the voting time period for new Proposals."
      },
      "vote(uint32,uint8)": {
        "notice": "Casts votes for a Proposal, equal to the caller's token delegation."
      },
      "votingEndBlock(uint32)": {
        "notice": "Returns the block number voting ends on a given Proposal."
      },
      "votingPeriod()": {
        "notice": "Number of blocks a new Proposal can be voted on. "
      },
      "whitelistHat(uint256)": {
        "notice": "Adds a Hat to the whitelist for proposal creation."
      },
      "whitelistedHatIds(uint256)": {
        "notice": "Array to store whitelisted Hat IDs. "
      }
    },
    "notice": "An [Azorius](./Azorius.md) [BaseStrategy](./BaseStrategy.md) implementation that enables linear (i.e. 1 to 1) ERC21 based token voting, with proposal creation restricted to users wearing whitelisted Hats.",
    "version": 1
  },
  "storageLayout": {
    "storage": [
      {
        "astId": 3585,
        "contract": "contracts/azorius/LinearERC20VotingWithHatsProposalCreation.sol:LinearERC20VotingWithHatsProposalCreation",
        "label": "_initialized",
        "offset": 0,
        "slot": "0",
        "type": "t_uint8"
      },
      {
        "astId": 3588,
        "contract": "contracts/azorius/LinearERC20VotingWithHatsProposalCreation.sol:LinearERC20VotingWithHatsProposalCreation",
        "label": "_initializing",
        "offset": 1,
        "slot": "0",
        "type": "t_bool"
      },
      {
        "astId": 6487,
        "contract": "contracts/azorius/LinearERC20VotingWithHatsProposalCreation.sol:LinearERC20VotingWithHatsProposalCreation",
        "label": "__gap",
        "offset": 0,
        "slot": "1",
        "type": "t_array(t_uint256)50_storage"
      },
      {
        "astId": 3379,
        "contract": "contracts/azorius/LinearERC20VotingWithHatsProposalCreation.sol:LinearERC20VotingWithHatsProposalCreation",
        "label": "_owner",
        "offset": 0,
        "slot": "51",
        "type": "t_address"
      },
      {
        "astId": 3499,
        "contract": "contracts/azorius/LinearERC20VotingWithHatsProposalCreation.sol:LinearERC20VotingWithHatsProposalCreation",
        "label": "__gap",
        "offset": 0,
        "slot": "52",
        "type": "t_array(t_uint256)49_storage"
      },
      {
        "astId": 16744,
        "contract": "contracts/azorius/LinearERC20VotingWithHatsProposalCreation.sol:LinearERC20VotingWithHatsProposalCreation",
        "label": "hatsContract",
        "offset": 0,
        "slot": "101",
        "type": "t_contract(IHats)22245"
      },
      {
        "astId": 16748,
        "contract": "contracts/azorius/LinearERC20VotingWithHatsProposalCreation.sol:LinearERC20VotingWithHatsProposalCreation",
        "label": "whitelistedHatIds",
        "offset": 0,
        "slot": "102",
        "type": "t_array(t_uint256)dyn_storage"
      },
      {
        "astId": 16551,
        "contract": "contracts/azorius/LinearERC20VotingWithHatsProposalCreation.sol:LinearERC20VotingWithHatsProposalCreation",
        "label": "azoriusModule",
        "offset": 0,
        "slot": "103",
        "type": "t_contract(IAzorius)21329"
      },
      {
        "astId": 16440,
        "contract": "contracts/azorius/LinearERC20VotingWithHatsProposalCreation.sol:LinearERC20VotingWithHatsProposalCreation",
        "label": "quorumNumerator",
        "offset": 0,
        "slot": "104",
        "type": "t_uint256"
      },
      {
        "astId": 16651,
        "contract": "contracts/azorius/LinearERC20VotingWithHatsProposalCreation.sol:LinearERC20VotingWithHatsProposalCreation",
        "label": "basisNumerator",
        "offset": 0,
        "slot": "105",
        "type": "t_uint256"
      },
      {
        "astId": 17692,
        "contract": "contracts/azorius/LinearERC20VotingWithHatsProposalCreation.sol:LinearERC20VotingWithHatsProposalCreation",
        "label": "governanceToken",
        "offset": 0,
        "slot": "106",
        "type": "t_contract(IVotes)9759"
      },
      {
        "astId": 17695,
        "contract": "contracts/azorius/LinearERC20VotingWithHatsProposalCreation.sol:LinearERC20VotingWithHatsProposalCreation",
        "label": "votingPeriod",
        "offset": 20,
        "slot": "106",
        "type": "t_uint32"
      },
      {
        "astId": 17698,
        "contract": "contracts/azorius/LinearERC20VotingWithHatsProposalCreation.sol:LinearERC20VotingWithHatsProposalCreation",
        "label": "requiredProposerWeight",
        "offset": 0,
        "slot": "107",
        "type": "t_uint256"
      },
      {
        "astId": 17704,
        "contract": "contracts/azorius/LinearERC20VotingWithHatsProposalCreation.sol:LinearERC20VotingWithHatsProposalCreation",
        "label": "proposalVotes",
        "offset": 0,
        "slot": "108",
        "type": "t_mapping(t_uint256,t_struct(ProposalVotes)17689_storage)"
      }
    ],
    "types": {
      "t_address": {
        "encoding": "inplace",
        "label": "address",
        "numberOfBytes": "20"
      },
      "t_array(t_uint256)49_storage": {
        "base": "t_uint256",
        "encoding": "inplace",
        "label": "uint256[49]",
        "numberOfBytes": "1568"
      },
      "t_array(t_uint256)50_storage": {
        "base": "t_uint256",
        "encoding": "inplace",
        "label": "uint256[50]",
        "numberOfBytes": "1600"
      },
      "t_array(t_uint256)dyn_storage": {
        "base": "t_uint256",
        "encoding": "dynamic_array",
        "label": "uint256[]",
        "numberOfBytes": "32"
      },
      "t_bool": {
        "encoding": "inplace",
        "label": "bool",
        "numberOfBytes": "1"
      },
      "t_contract(IAzorius)21329": {
        "encoding": "inplace",
        "label": "contract IAzorius",
        "numberOfBytes": "20"
      },
      "t_contract(IHats)22245": {
        "encoding": "inplace",
        "label": "contract IHats",
        "numberOfBytes": "20"
      },
      "t_contract(IVotes)9759": {
        "encoding": "inplace",
        "label": "contract IVotes",
        "numberOfBytes": "20"
      },
      "t_mapping(t_address,t_bool)": {
        "encoding": "mapping",
        "key": "t_address",
        "label": "mapping(address => bool)",
        "numberOfBytes": "32",
        "value": "t_bool"
      },
      "t_mapping(t_uint256,t_struct(ProposalVotes)17689_storage)": {
        "encoding": "mapping",
        "key": "t_uint256",
        "label": "mapping(uint256 => struct LinearERC20VotingExtensible.ProposalVotes)",
        "numberOfBytes": "32",
        "value": "t_struct(ProposalVotes)17689_storage"
      },
      "t_struct(ProposalVotes)17689_storage": {
        "encoding": "inplace",
        "label": "struct LinearERC20VotingExtensible.ProposalVotes",
        "members": [
          {
            "astId": 17676,
            "contract": "contracts/azorius/LinearERC20VotingWithHatsProposalCreation.sol:LinearERC20VotingWithHatsProposalCreation",
            "label": "votingStartBlock",
            "offset": 0,
            "slot": "0",
            "type": "t_uint32"
          },
          {
            "astId": 17678,
            "contract": "contracts/azorius/LinearERC20VotingWithHatsProposalCreation.sol:LinearERC20VotingWithHatsProposalCreation",
            "label": "votingEndBlock",
            "offset": 4,
            "slot": "0",
            "type": "t_uint32"
          },
          {
            "astId": 17680,
            "contract": "contracts/azorius/LinearERC20VotingWithHatsProposalCreation.sol:LinearERC20VotingWithHatsProposalCreation",
            "label": "noVotes",
            "offset": 0,
            "slot": "1",
            "type": "t_uint256"
          },
          {
            "astId": 17682,
            "contract": "contracts/azorius/LinearERC20VotingWithHatsProposalCreation.sol:LinearERC20VotingWithHatsProposalCreation",
            "label": "yesVotes",
            "offset": 0,
            "slot": "2",
            "type": "t_uint256"
          },
          {
            "astId": 17684,
            "contract": "contracts/azorius/LinearERC20VotingWithHatsProposalCreation.sol:LinearERC20VotingWithHatsProposalCreation",
            "label": "abstainVotes",
            "offset": 0,
            "slot": "3",
            "type": "t_uint256"
          },
          {
            "astId": 17688,
            "contract": "contracts/azorius/LinearERC20VotingWithHatsProposalCreation.sol:LinearERC20VotingWithHatsProposalCreation",
            "label": "hasVoted",
            "offset": 0,
            "slot": "4",
            "type": "t_mapping(t_address,t_bool)"
          }
        ],
        "numberOfBytes": "160"
      },
      "t_uint256": {
        "encoding": "inplace",
        "label": "uint256",
        "numberOfBytes": "32"
      },
      "t_uint32": {
        "encoding": "inplace",
        "label": "uint32",
        "numberOfBytes": "4"
      },
      "t_uint8": {
        "encoding": "inplace",
        "label": "uint8",
        "numberOfBytes": "1"
      }
    }
  }
}