{
  "address": "0x17C592C9Ce1ED1ba0e9a593d8c38978448D21157",
  "abi": [
    {
      "inputs": [],
      "name": "HatAlreadyWhitelisted",
      "type": "error"
    },
    {
      "inputs": [],
      "name": "HatNotWhitelisted",
      "type": "error"
    },
    {
      "inputs": [
        {
          "internalType": "uint256",
          "name": "tokenId",
          "type": "uint256"
        }
      ],
      "name": "IdAlreadyVoted",
      "type": "error"
    },
    {
      "inputs": [
        {
          "internalType": "uint256",
          "name": "tokenId",
          "type": "uint256"
        }
      ],
      "name": "IdNotOwned",
      "type": "error"
    },
    {
      "inputs": [],
      "name": "InvalidBasisNumerator",
      "type": "error"
    },
    {
      "inputs": [],
      "name": "InvalidHatsContract",
      "type": "error"
    },
    {
      "inputs": [],
      "name": "InvalidParams",
      "type": "error"
    },
    {
      "inputs": [],
      "name": "InvalidProposal",
      "type": "error"
    },
    {
      "inputs": [],
      "name": "InvalidTokenAddress",
      "type": "error"
    },
    {
      "inputs": [],
      "name": "InvalidVote",
      "type": "error"
    },
    {
      "inputs": [],
      "name": "NoHatsWhitelisted",
      "type": "error"
    },
    {
      "inputs": [],
      "name": "NoVotingWeight",
      "type": "error"
    },
    {
      "inputs": [],
      "name": "OnlyAzorius",
      "type": "error"
    },
    {
      "inputs": [],
      "name": "TokenAlreadySet",
      "type": "error"
    },
    {
      "inputs": [],
      "name": "TokenNotSet",
      "type": "error"
    },
    {
      "inputs": [],
      "name": "VotingEnded",
      "type": "error"
    },
    {
      "anonymous": false,
      "inputs": [
        {
          "indexed": true,
          "internalType": "address",
          "name": "azoriusModule",
          "type": "address"
        }
      ],
      "name": "AzoriusSet",
      "type": "event"
    },
    {
      "anonymous": false,
      "inputs": [
        {
          "indexed": false,
          "internalType": "uint256",
          "name": "basisNumerator",
          "type": "uint256"
        }
      ],
      "name": "BasisNumeratorUpdated",
      "type": "event"
    },
    {
      "anonymous": false,
      "inputs": [
        {
          "indexed": false,
          "internalType": "address",
          "name": "token",
          "type": "address"
        },
        {
          "indexed": false,
          "internalType": "uint256",
          "name": "weight",
          "type": "uint256"
        }
      ],
      "name": "GovernanceTokenAdded",
      "type": "event"
    },
    {
      "anonymous": false,
      "inputs": [
        {
          "indexed": false,
          "internalType": "address",
          "name": "token",
          "type": "address"
        }
      ],
      "name": "GovernanceTokenRemoved",
      "type": "event"
    },
    {
      "anonymous": false,
      "inputs": [
        {
          "indexed": false,
          "internalType": "uint256",
          "name": "hatId",
          "type": "uint256"
        }
      ],
      "name": "HatRemovedFromWhitelist",
      "type": "event"
    },
    {
      "anonymous": false,
      "inputs": [
        {
          "indexed": false,
          "internalType": "uint256",
          "name": "hatId",
          "type": "uint256"
        }
      ],
      "name": "HatWhitelisted",
      "type": "event"
    },
    {
      "anonymous": false,
      "inputs": [
        {
          "indexed": false,
          "internalType": "uint8",
          "name": "version",
          "type": "uint8"
        }
      ],
      "name": "Initialized",
      "type": "event"
    },
    {
      "anonymous": false,
      "inputs": [
        {
          "indexed": true,
          "internalType": "address",
          "name": "previousOwner",
          "type": "address"
        },
        {
          "indexed": true,
          "internalType": "address",
          "name": "newOwner",
          "type": "address"
        }
      ],
      "name": "OwnershipTransferred",
      "type": "event"
    },
    {
      "anonymous": false,
      "inputs": [
        {
          "indexed": false,
          "internalType": "uint32",
          "name": "proposalId",
          "type": "uint32"
        },
        {
          "indexed": false,
          "internalType": "uint32",
          "name": "votingEndBlock",
          "type": "uint32"
        }
      ],
      "name": "ProposalInitialized",
      "type": "event"
    },
    {
      "anonymous": false,
      "inputs": [
        {
          "indexed": false,
          "internalType": "uint256",
          "name": "proposerThreshold",
          "type": "uint256"
        }
      ],
      "name": "ProposerThresholdUpdated",
      "type": "event"
    },
    {
      "anonymous": false,
      "inputs": [
        {
          "indexed": false,
          "internalType": "uint256",
          "name": "quorumThreshold",
          "type": "uint256"
        }
      ],
      "name": "QuorumThresholdUpdated",
      "type": "event"
    },
    {
      "anonymous": false,
      "inputs": [
        {
          "indexed": true,
          "internalType": "address",
          "name": "azoriusModule",
          "type": "address"
        },
        {
          "indexed": true,
          "internalType": "address",
          "name": "owner",
          "type": "address"
        }
      ],
      "name": "StrategySetUp",
      "type": "event"
    },
    {
      "anonymous": false,
      "inputs": [
        {
          "indexed": false,
          "internalType": "address",
          "name": "voter",
          "type": "address"
        },
        {
          "indexed": false,
          "internalType": "uint32",
          "name": "proposalId",
          "type": "uint32"
        },
        {
          "indexed": false,
          "internalType": "uint8",
          "name": "voteType",
          "type": "uint8"
        },
        {
          "indexed": false,
          "internalType": "address[]",
          "name": "tokenAddresses",
          "type": "address[]"
        },
        {
          "indexed": false,
          "internalType": "uint256[]",
          "name": "tokenIds",
          "type": "uint256[]"
        }
      ],
      "name": "Voted",
      "type": "event"
    },
    {
      "anonymous": false,
      "inputs": [
        {
          "indexed": false,
          "internalType": "uint32",
          "name": "votingPeriod",
          "type": "uint32"
        }
      ],
      "name": "VotingPeriodUpdated",
      "type": "event"
    },
    {
      "inputs": [],
      "name": "BASIS_DENOMINATOR",
      "outputs": [
        {
          "internalType": "uint256",
          "name": "",
          "type": "uint256"
        }
      ],
      "stateMutability": "view",
      "type": "function"
    },
    {
      "inputs": [
        {
          "internalType": "address",
          "name": "_tokenAddress",
          "type": "address"
        },
        {
          "internalType": "uint256",
          "name": "_weight",
          "type": "uint256"
        }
      ],
      "name": "addGovernanceToken",
      "outputs": [],
      "stateMutability": "nonpayable",
      "type": "function"
    },
    {
      "inputs": [],
      "name": "azoriusModule",
      "outputs": [
        {
          "internalType": "contract IAzorius",
          "name": "",
          "type": "address"
        }
      ],
      "stateMutability": "view",
      "type": "function"
    },
    {
      "inputs": [],
      "name": "basisNumerator",
      "outputs": [
        {
          "internalType": "uint256",
          "name": "",
          "type": "uint256"
        }
      ],
      "stateMutability": "view",
      "type": "function"
    },
    {
      "inputs": [],
      "name": "getAllTokenAddresses",
      "outputs": [
        {
          "internalType": "address[]",
          "name": "",
          "type": "address[]"
        }
      ],
      "stateMutability": "view",
      "type": "function"
    },
    {
      "inputs": [
        {
          "internalType": "uint32",
          "name": "_proposalId",
          "type": "uint32"
        }
      ],
      "name": "getProposalVotes",
      "outputs": [
        {
          "internalType": "uint256",
          "name": "noVotes",
          "type": "uint256"
        },
        {
          "internalType": "uint256",
          "name": "yesVotes",
          "type": "uint256"
        },
        {
          "internalType": "uint256",
          "name": "abstainVotes",
          "type": "uint256"
        },
        {
          "internalType": "uint32",
          "name": "startBlock",
          "type": "uint32"
        },
        {
          "internalType": "uint32",
          "name": "endBlock",
          "type": "uint32"
        }
      ],
      "stateMutability": "view",
      "type": "function"
    },
    {
      "inputs": [
        {
          "internalType": "address",
          "name": "_tokenAddress",
          "type": "address"
        }
      ],
      "name": "getTokenWeight",
      "outputs": [
        {
          "internalType": "uint256",
          "name": "",
          "type": "uint256"
        }
      ],
      "stateMutability": "view",
      "type": "function"
    },
    {
      "inputs": [],
      "name": "getWhitelistedHatsCount",
      "outputs": [
        {
          "internalType": "uint256",
          "name": "",
          "type": "uint256"
        }
      ],
      "stateMutability": "view",
      "type": "function"
    },
    {
      "inputs": [
        {
          "internalType": "uint32",
          "name": "_proposalId",
          "type": "uint32"
        },
        {
          "internalType": "address",
          "name": "_tokenAddress",
          "type": "address"
        },
        {
          "internalType": "uint256",
          "name": "_tokenId",
          "type": "uint256"
        }
      ],
      "name": "hasVoted",
      "outputs": [
        {
          "internalType": "bool",
          "name": "",
          "type": "bool"
        }
      ],
      "stateMutability": "view",
      "type": "function"
    },
    {
      "inputs": [],
      "name": "hatsContract",
      "outputs": [
        {
          "internalType": "contract IHats",
          "name": "",
          "type": "address"
        }
      ],
      "stateMutability": "view",
      "type": "function"
    },
    {
      "inputs": [
        {
          "internalType": "bytes",
          "name": "_data",
          "type": "bytes"
        }
      ],
      "name": "initializeProposal",
      "outputs": [],
      "stateMutability": "nonpayable",
      "type": "function"
    },
    {
      "inputs": [
        {
          "internalType": "uint256",
          "name": "_hatId",
          "type": "uint256"
        }
      ],
      "name": "isHatWhitelisted",
      "outputs": [
        {
          "internalType": "bool",
          "name": "",
          "type": "bool"
        }
      ],
      "stateMutability": "view",
      "type": "function"
    },
    {
      "inputs": [
        {
          "internalType": "uint32",
          "name": "_proposalId",
          "type": "uint32"
        }
      ],
      "name": "isPassed",
      "outputs": [
        {
          "internalType": "bool",
          "name": "",
          "type": "bool"
        }
      ],
      "stateMutability": "view",
      "type": "function"
    },
    {
      "inputs": [
        {
          "internalType": "address",
          "name": "_address",
          "type": "address"
        }
      ],
      "name": "isProposer",
      "outputs": [
        {
          "internalType": "bool",
          "name": "",
          "type": "bool"
        }
      ],
      "stateMutability": "view",
      "type": "function"
    },
    {
      "inputs": [
        {
          "internalType": "uint256",
          "name": "_yesVotes",
          "type": "uint256"
        },
        {
          "internalType": "uint256",
          "name": "_noVotes",
          "type": "uint256"
        }
      ],
      "name": "meetsBasis",
      "outputs": [
        {
          "internalType": "bool",
          "name": "",
          "type": "bool"
        }
      ],
      "stateMutability": "view",
      "type": "function"
    },
    {
      "inputs": [],
      "name": "owner",
      "outputs": [
        {
          "internalType": "address",
          "name": "",
          "type": "address"
        }
      ],
      "stateMutability": "view",
      "type": "function"
    },
    {
      "inputs": [
        {
          "internalType": "uint256",
          "name": "",
          "type": "uint256"
        }
      ],
      "name": "proposalVotes",
      "outputs": [
        {
          "internalType": "uint32",
          "name": "votingStartBlock",
          "type": "uint32"
        },
        {
          "internalType": "uint32",
          "name": "votingEndBlock",
          "type": "uint32"
        },
        {
          "internalType": "uint256",
          "name": "noVotes",
          "type": "uint256"
        },
        {
          "internalType": "uint256",
          "name": "yesVotes",
          "type": "uint256"
        },
        {
          "internalType": "uint256",
          "name": "abstainVotes",
          "type": "uint256"
        }
      ],
      "stateMutability": "view",
      "type": "function"
    },
    {
      "inputs": [],
      "name": "proposerThreshold",
      "outputs": [
        {
          "internalType": "uint256",
          "name": "",
          "type": "uint256"
        }
      ],
      "stateMutability": "view",
      "type": "function"
    },
    {
      "inputs": [],
      "name": "quorumThreshold",
      "outputs": [
        {
          "internalType": "uint256",
          "name": "",
          "type": "uint256"
        }
      ],
      "stateMutability": "view",
      "type": "function"
    },
    {
      "inputs": [
        {
          "internalType": "address",
          "name": "_tokenAddress",
          "type": "address"
        }
      ],
      "name": "removeGovernanceToken",
      "outputs": [],
      "stateMutability": "nonpayable",
      "type": "function"
    },
    {
      "inputs": [
        {
          "internalType": "uint256",
          "name": "_hatId",
          "type": "uint256"
        }
      ],
      "name": "removeHatFromWhitelist",
      "outputs": [],
      "stateMutability": "nonpayable",
      "type": "function"
    },
    {
      "inputs": [],
      "name": "renounceOwnership",
      "outputs": [],
      "stateMutability": "nonpayable",
      "type": "function"
    },
    {
      "inputs": [
        {
          "internalType": "address",
          "name": "_azoriusModule",
          "type": "address"
        }
      ],
      "name": "setAzorius",
      "outputs": [],
      "stateMutability": "nonpayable",
      "type": "function"
    },
    {
      "inputs": [
        {
          "internalType": "bytes",
          "name": "initializeParams",
          "type": "bytes"
        }
      ],
      "name": "setUp",
      "outputs": [],
      "stateMutability": "nonpayable",
      "type": "function"
    },
    {
      "inputs": [
        {
          "internalType": "uint256",
          "name": "",
          "type": "uint256"
        }
      ],
      "name": "tokenAddresses",
      "outputs": [
        {
          "internalType": "address",
          "name": "",
          "type": "address"
        }
      ],
      "stateMutability": "view",
      "type": "function"
    },
    {
      "inputs": [
        {
          "internalType": "address",
          "name": "",
          "type": "address"
        }
      ],
      "name": "tokenWeights",
      "outputs": [
        {
          "internalType": "uint256",
          "name": "",
          "type": "uint256"
        }
      ],
      "stateMutability": "view",
      "type": "function"
    },
    {
      "inputs": [
        {
          "internalType": "address",
          "name": "newOwner",
          "type": "address"
        }
      ],
      "name": "transferOwnership",
      "outputs": [],
      "stateMutability": "nonpayable",
      "type": "function"
    },
    {
      "inputs": [
        {
          "internalType": "uint256",
          "name": "_basisNumerator",
          "type": "uint256"
        }
      ],
      "name": "updateBasisNumerator",
      "outputs": [],
      "stateMutability": "nonpayable",
      "type": "function"
    },
    {
      "inputs": [
        {
          "internalType": "uint256",
          "name": "_proposerThreshold",
          "type": "uint256"
        }
      ],
      "name": "updateProposerThreshold",
      "outputs": [],
      "stateMutability": "nonpayable",
      "type": "function"
    },
    {
      "inputs": [
        {
          "internalType": "uint256",
          "name": "_quorumThreshold",
          "type": "uint256"
        }
      ],
      "name": "updateQuorumThreshold",
      "outputs": [],
      "stateMutability": "nonpayable",
      "type": "function"
    },
    {
      "inputs": [
        {
          "internalType": "uint32",
          "name": "_votingPeriod",
          "type": "uint32"
        }
      ],
      "name": "updateVotingPeriod",
      "outputs": [],
      "stateMutability": "nonpayable",
      "type": "function"
    },
    {
      "inputs": [
        {
          "internalType": "uint32",
          "name": "_proposalId",
          "type": "uint32"
        },
        {
          "internalType": "uint8",
          "name": "_voteType",
          "type": "uint8"
        },
        {
          "internalType": "address[]",
          "name": "_tokenAddresses",
          "type": "address[]"
        },
        {
          "internalType": "uint256[]",
          "name": "_tokenIds",
          "type": "uint256[]"
        }
      ],
      "name": "vote",
      "outputs": [],
      "stateMutability": "nonpayable",
      "type": "function"
    },
    {
      "inputs": [
        {
          "internalType": "uint32",
          "name": "_proposalId",
          "type": "uint32"
        }
      ],
      "name": "votingEndBlock",
      "outputs": [
        {
          "internalType": "uint32",
          "name": "",
          "type": "uint32"
        }
      ],
      "stateMutability": "view",
      "type": "function"
    },
    {
      "inputs": [],
      "name": "votingPeriod",
      "outputs": [
        {
          "internalType": "uint32",
          "name": "",
          "type": "uint32"
        }
      ],
      "stateMutability": "view",
      "type": "function"
    },
    {
      "inputs": [
        {
          "internalType": "uint256",
          "name": "_hatId",
          "type": "uint256"
        }
      ],
      "name": "whitelistHat",
      "outputs": [],
      "stateMutability": "nonpayable",
      "type": "function"
    },
    {
      "inputs": [
        {
          "internalType": "uint256",
          "name": "",
          "type": "uint256"
        }
      ],
      "name": "whitelistedHatIds",
      "outputs": [
        {
          "internalType": "uint256",
          "name": "",
          "type": "uint256"
        }
      ],
      "stateMutability": "view",
      "type": "function"
    }
  ],
  "transactionHash": "0x6306fee4747b40bce95f1fd5331718451cafcf6ed959026f143e8d378e3dff06",
  "args": [],
  "numDeployments": 1,
  "solcInputHash": "8098c390a54ad5a8bcff70bed7c24a3c",
  "bytecode": "0x608060405234801561001057600080fd5b5061001961001e565b6100de565b600054610100900460ff161561008a5760405162461bcd60e51b815260206004820152602760248201527f496e697469616c697a61626c653a20636f6e747261637420697320696e697469604482015266616c697a696e6760c81b606482015260840160405180910390fd5b60005460ff90811610156100dc576000805460ff191660ff9081179091556040519081527f7f26b83ff96e1f2b6a682f133852f6798a09c465da95921460cefb38474024989060200160405180910390a15b565b61223980620000ee6000396000f3fe608060405234801561001057600080fd5b506004361061021c5760003560e01c80637b7a91dd11610125578063b1d1196f116100ad578063d877ee1d1161007c578063d877ee1d14610566578063deb61c151461056f578063e5df8b84146105e8578063e8575a7f146105fb578063f2fde38b1461060e57600080fd5b8063b1d1196f146104ea578063bf7e2c7f146104fd578063c0dce37f14610506578063c909c3b11461051957600080fd5b806397e39fef116100f457806397e39fef1461047e578063a09c4f6814610491578063a4f9edbf146104a4578063a77a81d0146104b7578063ab2f3ad4146104ca57600080fd5b80637b7a91dd146104475780638081be91146104505780638da5cb5b1461045a578063918f84bf1461046b57600080fd5b806350631bfe116101a857806366b629551161017757806366b62955146103e45780636d4ae6801461040f578063709e23f814610424578063715018a61461042c57806374ec29a01461043457600080fd5b806350631bfe1461030957806353a8b3201461032c578063544ffc9c1461033f57806355a9dbd9146103b457600080fd5b8063250aa683116101ef578063250aa6831461029457806333f48a5e146102bd57806337938ab3146102d05780633a622c52146102e35780634e2addad146102f657600080fd5b806302a251a3146102215780631dc489471461024b5780631e2972e814610260578063210a5e8714610281575b600080fd5b606c546102319063ffffffff1681565b60405163ffffffff90911681526020015b60405180910390f35b61025e6102593660046118d7565b610621565b005b61027361026e3660046118d7565b610635565b604051908152602001610242565b61025e61028f3660046118d7565b610656565b6102736102a2366004611905565b6001600160a01b03166000908152606b602052604090205490565b61025e6102cb36600461193b565b610667565b61025e6102de366004611905565b610678565b61025e6102f13660046118d7565b6106ca565b61025e610304366004611a2e565b6107e7565b61031c6103173660046118d7565b61081c565b6040519015158152602001610242565b61031c61033a36600461193b565b610872565b61038461034d3660046118d7565b606960205260009081526040902080546001820154600283015460039093015463ffffffff80841694600160201b90940416929085565b6040805163ffffffff9687168152959094166020860152928401919091526060830152608082015260a001610242565b6102316103c236600461193b565b63ffffffff908116600090815260696020526040902054600160201b90041690565b6067546103f7906001600160a01b031681565b6040516001600160a01b039091168152602001610242565b610417610904565b6040516102429190611b61565b606654610273565b61025e610966565b61031c610442366004611905565b61097a565b610273606d5481565b610273620f424081565b6033546001600160a01b03166103f7565b61031c610479366004611b74565b610985565b6065546103f7906001600160a01b031681565b61025e61049f3660046118d7565b6109b7565b61025e6104b2366004611b96565b6109c8565b61025e6104c5366004611b96565b610a69565b6102736104d8366004611905565b606b6020526000908152604090205481565b61025e6104f8366004611c2b565b610b48565b61027360685481565b61025e610514366004611905565b610b5e565b61031c610527366004611c57565b63ffffffff831660009081526069602090815260408083206001600160a01b0386168452600401825280832084845290915290205460ff169392505050565b610273606e5481565b6105b761057d36600461193b565b63ffffffff908116600090815260696020526040902060018101546002820154600383015492549194909382811692600160201b90041690565b6040805195865260208601949094529284019190915263ffffffff908116606084015216608082015260a001610242565b6103f76105f63660046118d7565b610ce8565b61025e6106093660046118d7565b610d12565b61025e61061c366004611905565b610d23565b610629610d9e565b61063281610df8565b50565b6066818154811061064557600080fd5b600091825260209091200154905081565b61065e610d9e565b61063281610e34565b61066f610d9e565b61063281610e69565b610680610d9e565b606780546001600160a01b0319166001600160a01b0383169081179091556040517fac8d831a6ed53a98387842e08d9e0893c1d478f4a3710b254e22bd58c06b269090600090a250565b6106d2610d9e565b6000805b6066548110156107905782606682815481106106f4576106f4611c98565b90600052602060002001540361077e576066805461071490600190611cc4565b8154811061072457610724611c98565b90600052602060002001546066828154811061074257610742611c98565b600091825260209091200155606680548061075f5761075f611cd7565b6001900381819060005260206000200160009055905560019150610790565b8061078881611ced565b9150506106d6565b50806107af57604051634b8d041f60e01b815260040160405180910390fd5b6040518281527f50544666722f5a4554f2716b5efb2ce814101451643c8856221fef06b5e9803b906020015b60405180910390a15050565b805182511461080957604051635435b28960e11b815260040160405180910390fd5b6108168433858585610eb1565b50505050565b6000805b60665481101561086957826066828154811061083e5761083e611c98565b9060005260206000200154036108575750600192915050565b8061086181611ced565b915050610820565b50600092915050565b63ffffffff8082166000908152606960205260408120549091600160201b90910416431180156108cd575063ffffffff8216600090815260696020526040902060038101546002909101546108c79190611d06565b606d5411155b80156108fe575063ffffffff8216600090815260696020526040902060028101546001909101546108fe9190610985565b92915050565b6060606a80548060200260200160405190810160405280929190818152602001828054801561095c57602002820191906000526020600020905b81546001600160a01b0316815260019091019060200180831161093e575b5050505050905090565b61096e610d9e565b61097860006111c8565b565b60006108fe8261121a565b6000620f4240606854838561099a9190611d06565b6109a49190611d19565b6109ae9190611d30565b90921192915050565b6109bf610d9e565b610632816112ec565b6000806000806000806000806000898060200190518101906109ea9190611e2c565b985098509850985098509850985098509850610a3389898989898960008a604051602001610a1f989796959493929190611f3b565b6040516020818303038152906040526113ae565b610a5d8282604051602001610a49929190611fa9565b6040516020818303038152906040526115d9565b50505050505050505050565b6067546001600160a01b03163314610a94576040516358c30ce160e01b815260040160405180910390fd5b600081806020019051810190610aaa9190611fd5565b606c54909150600090610ac39063ffffffff1643611ff2565b63ffffffff838116600081815260696020908152604091829020805467ffffffffffffffff1916600160201b87871690810263ffffffff1916919091174390961695909517905581519283528201929092529192507f80d0ad93bba25e53bf67fa9f2d13df59f04795ec2f91b9b3c1f607666daf9d64910160405180910390a1505050565b610b50610d9e565b610b5a8282611699565b5050565b610b66610d9e565b6001600160a01b0381166000908152606b60205260408120549003610b9e57604051634b62f01360e01b815260040160405180910390fd5b6001600160a01b0381166000908152606b60205260408120819055606a54905b81811015610cae57606a8181548110610bd957610bd9611c98565b6000918252602090912001546001600160a01b0390811690841603610ca6576000610c05600184611cc4565b9050606a8181548110610c1a57610c1a611c98565b600091825260209091200154606a80546001600160a01b039092169184908110610c4657610c46611c98565b9060005260206000200160006101000a8154816001600160a01b0302191690836001600160a01b03160217905550606a8181548110610c8757610c87611c98565b600091825260209091200180546001600160a01b031916905550610cae565b600101610bbe565b506040516001600160a01b03831681527f14236c39816f331325d02993fa15113b739aff01c21ab8f38cc5253205299fb1906020016107db565b606a8181548110610cf857600080fd5b6000918252602090912001546001600160a01b0316905081565b610d1a610d9e565b6106328161180d565b610d2b610d9e565b6001600160a01b038116610d955760405162461bcd60e51b815260206004820152602660248201527f4f776e61626c653a206e6577206f776e657220697320746865207a65726f206160448201526564647265737360d01b60648201526084015b60405180910390fd5b610632816111c8565b6033546001600160a01b031633146109785760405162461bcd60e51b815260206004820181905260248201527f4f776e61626c653a2063616c6c6572206973206e6f7420746865206f776e65726044820152606401610d8c565b606e8190556040518181527f48f79e03d92b3595f74bc3c64746cf148e464673dd036633d34f8afb029482c9906020015b60405180910390a150565b606d8190556040518181527fbc589fccf641d342b7853c2c6faca39631d4d19efbe77e71e5611e31678c220e90602001610e29565b606c805463ffffffff191663ffffffff83169081179091556040519081527f70770ce479f70673c3ed8fff63cfb758a6ffdddc30cab7c63d54c8d825e3948890602001610e29565b6000805b835181101561106d576000848281518110610ed257610ed2611c98565b602002602001015190506000848381518110610ef057610ef0611c98565b60200260200101519050816001600160a01b0316636352211e826040518263ffffffff1660e01b8152600401610f2891815260200190565b602060405180830381865afa158015610f45573d6000803e3d6000fd5b505050506040513d601f19601f82011682018060405250810190610f699190612016565b6001600160a01b0316886001600160a01b031614610f9d57604051639b936ae960e01b815260048101829052602401610d8c565b63ffffffff891660009081526069602090815260408083206001600160a01b0386168452600401825280832084845290915290205460ff161515600103610ffa57604051639602f71160e01b815260048101829052602401610d8c565b6001600160a01b0382166000908152606b602052604090205461101d9085611d06565b63ffffffff8a1660009081526069602090815260408083206001600160a01b0390961683526004909501815284822093825292909252919020805460ff1916600190811790915590925001610eb5565b508060000361108f5760405163923d21f560e01b815260040160405180910390fd5b63ffffffff808716600090815260696020526040812080549092600160201b9091041690036110d157604051631dc0650160e31b815260040160405180910390fd5b8054600160201b900463ffffffff1643111561110057604051637a19ed0560e01b815260040160405180910390fd5b60ff8516611127578181600101600082825461111c9190611d06565b909155506111809050565b60001960ff861601611147578181600201600082825461111c9190611d06565b60011960ff861601611167578181600301600082825461111c9190611d06565b604051636aee863360e11b815260040160405180910390fd5b7f08b8dec2438455807ba4dae88b27939d599858b97389310c0af8f42acd58d62086888787876040516111b7959493929190612033565b60405180910390a150505050505050565b603380546001600160a01b038381166001600160a01b0319831681179093556040519116919082907f8be0079c531659141344cd1fd0a4f28419497f9722a3daafe3b4186f6b6457e090600090a35050565b6000805b60665481101561086957606554606680546001600160a01b0390921691634352409a9186918590811061125357611253611c98565b6000918252602090912001546040516001600160e01b031960e085901b1681526001600160a01b0390921660048301526024820152604401602060405180830381865afa1580156112a8573d6000803e3d6000fd5b505050506040513d601f19601f820116820180604052508101906112cc919061208a565b156112da5750600192915050565b806112e481611ced565b91505061121e565b60005b60665481101561134857816066828154811061130d5761130d611c98565b9060005260206000200154036113365760405163634a456360e01b815260040160405180910390fd5b8061134081611ced565b9150506112ef565b50606680546001810182556000919091527f46501879b8ca8525e8c2fd519e2fbfcfa2ebea26501294aa02cbfcfb12e94354018190556040518181527f30590a8684cec4e5a2b48765f391c996b9a004652478a8f41dc46658ccb699ed90602001610e29565b600054610100900460ff16158080156113ce5750600054600160ff909116105b806113e85750303b1580156113e8575060005460ff166001145b61144b5760405162461bcd60e51b815260206004820152602e60248201527f496e697469616c697a61626c653a20636f6e747261637420697320616c72656160448201526d191e481a5b9a5d1a585b1a5e995960921b6064820152608401610d8c565b6000805460ff19166001179055801561146e576000805461ff0019166101001790555b6000806000806000806000808980602001905181019061148e91906120ac565b9750975097509750975097509750975085518751146114c057604051635435b28960e11b815260040160405180910390fd5b60005b8751811015611510576115088882815181106114e1576114e1611c98565b60200260200101518883815181106114fb576114fb611c98565b6020026020010151611699565b6001016114c3565b5061151961187d565b61152288610d23565b61152b85610680565b61153483610e34565b61153d82610df8565b6115468161180d565b61154f84610e69565b876001600160a01b0316856001600160a01b03167fca32f512f02914f6bc16a49e786443029061b9adc5a987fd2f6efa56c0116a1660405160405180910390a350505050505050508015610b5a576000805461ff0019169055604051600181527f7f26b83ff96e1f2b6a682f133852f6798a09c465da95921460cefb3847402498906020016107db565b600080828060200190518101906115f09190612167565b90925090506001600160a01b03821661161c576040516350e80d4360e11b815260040160405180910390fd5b606580546001600160a01b0319166001600160a01b038416179055805160000361165957604051632a2b50e760e01b815260040160405180910390fd5b60005b81518110156108165761168782828151811061167a5761167a611c98565b60200260200101516112ec565b8061169181611ced565b91505061165c565b6040516301ffc9a760e01b81526380ac58cd60e01b60048201526001600160a01b038316906301ffc9a790602401602060405180830381865afa1580156116e4573d6000803e3d6000fd5b505050506040513d601f19601f82011682018060405250810190611708919061208a565b61172557604051630f58058360e11b815260040160405180910390fd5b806000036117465760405163923d21f560e01b815260040160405180910390fd5b6001600160a01b0382166000908152606b60205260409020541561177d576040516371168e4f60e11b815260040160405180910390fd5b606a8054600181019091557f116fea137db6e131133e7f2bab296045d8f41cc5607279db17b218cab0929a510180546001600160a01b0319166001600160a01b0384169081179091556000818152606b6020908152604091829020849055815192835282018390527fbf2b7f9fc6e849fdef9ff7366d8b63b608bc69ca778200c53d77372d953dc6b691016107db565b620f424081118061182a57506118276002620f4240611d30565b81105b15611848576040516302396b6b60e61b815260040160405180910390fd5b60688190556040518181527f406c076eac4d3dde1c5d55793e80239daa8c60ee971390ce3d9f90ca4206295390602001610e29565b600054610100900460ff166118a45760405162461bcd60e51b8152600401610d8c906121b8565b610978600054610100900460ff166118ce5760405162461bcd60e51b8152600401610d8c906121b8565b610978336111c8565b6000602082840312156118e957600080fd5b5035919050565b6001600160a01b038116811461063257600080fd5b60006020828403121561191757600080fd5b8135611922816118f0565b9392505050565b63ffffffff8116811461063257600080fd5b60006020828403121561194d57600080fd5b813561192281611929565b634e487b7160e01b600052604160045260246000fd5b604051601f8201601f1916810167ffffffffffffffff8111828210171561199757611997611958565b604052919050565b600067ffffffffffffffff8211156119b9576119b9611958565b5060051b60200190565b600082601f8301126119d457600080fd5b813560206119e96119e48361199f565b61196e565b82815260059290921b84018101918181019086841115611a0857600080fd5b8286015b84811015611a235780358352918301918301611a0c565b509695505050505050565b60008060008060808587031215611a4457600080fd5b8435611a4f81611929565b935060208581013560ff81168114611a6657600080fd5b9350604086013567ffffffffffffffff80821115611a8357600080fd5b818801915088601f830112611a9757600080fd5b8135611aa56119e48261199f565b81815260059190911b8301840190848101908b831115611ac457600080fd5b938501935b82851015611aeb578435611adc816118f0565b82529385019390850190611ac9565b965050506060880135925080831115611b0357600080fd5b5050611b11878288016119c3565b91505092959194509250565b600081518084526020808501945080840160005b83811015611b565781516001600160a01b031687529582019590820190600101611b31565b509495945050505050565b6020815260006119226020830184611b1d565b60008060408385031215611b8757600080fd5b50508035926020909101359150565b60006020808385031215611ba957600080fd5b823567ffffffffffffffff80821115611bc157600080fd5b818501915085601f830112611bd557600080fd5b813581811115611be757611be7611958565b611bf9601f8201601f1916850161196e565b91508082528684828501011115611c0f57600080fd5b8084840185840137600090820190930192909252509392505050565b60008060408385031215611c3e57600080fd5b8235611c49816118f0565b946020939093013593505050565b600080600060608486031215611c6c57600080fd5b8335611c7781611929565b92506020840135611c87816118f0565b929592945050506040919091013590565b634e487b7160e01b600052603260045260246000fd5b634e487b7160e01b600052601160045260246000fd5b818103818111156108fe576108fe611cae565b634e487b7160e01b600052603160045260246000fd5b600060018201611cff57611cff611cae565b5060010190565b808201808211156108fe576108fe611cae565b80820281158282048414176108fe576108fe611cae565b600082611d4d57634e487b7160e01b600052601260045260246000fd5b500490565b8051611d5d816118f0565b919050565b600082601f830112611d7357600080fd5b81516020611d836119e48361199f565b82815260059290921b84018101918181019086841115611da257600080fd5b8286015b84811015611a23578051611db9816118f0565b8352918301918301611da6565b600082601f830112611dd757600080fd5b81516020611de76119e48361199f565b82815260059290921b84018101918181019086841115611e0657600080fd5b8286015b84811015611a235780518352918301918301611e0a565b8051611d5d81611929565b60008060008060008060008060006101208a8c031215611e4b57600080fd5b611e548a611d52565b985060208a015167ffffffffffffffff80821115611e7157600080fd5b611e7d8d838e01611d62565b995060408c0151915080821115611e9357600080fd5b611e9f8d838e01611dc6565b9850611ead60608d01611d52565b9750611ebb60808d01611e21565b965060a08c0151955060c08c01519450611ed760e08d01611d52565b93506101008c0151915080821115611eee57600080fd5b50611efb8c828d01611dc6565b9150509295985092959850929598565b600081518084526020808501945080840160005b83811015611b5657815187529582019590820190600101611f1f565b6001600160a01b03898116825261010060208301819052600091611f618483018c611b1d565b91508382036040850152611f75828b611f0b565b98166060840152505063ffffffff94909416608085015260a084019290925260ff1660c083015260e0909101529392505050565b6001600160a01b0383168152604060208201819052600090611fcd90830184611f0b565b949350505050565b600060208284031215611fe757600080fd5b815161192281611929565b63ffffffff81811683821601908082111561200f5761200f611cae565b5092915050565b60006020828403121561202857600080fd5b8151611922816118f0565b6001600160a01b038616815263ffffffff8516602082015260ff8416604082015260a06060820181905260009061206c90830185611b1d565b828103608084015261207e8185611f0b565b98975050505050505050565b60006020828403121561209c57600080fd5b8151801515811461192257600080fd5b600080600080600080600080610100898b0312156120c957600080fd5b88516120d4816118f0565b60208a015190985067ffffffffffffffff808211156120f257600080fd5b6120fe8c838d01611d62565b985060408b015191508082111561211457600080fd5b506121218b828c01611dc6565b9650506060890151612132816118f0565b60808a015190955061214381611929565b60a08a015160c08b015160e0909b0151999c989b5096999598909790945092505050565b6000806040838503121561217a57600080fd5b8251612185816118f0565b602084015190925067ffffffffffffffff8111156121a257600080fd5b6121ae85828601611dc6565b9150509250929050565b6020808252602b908201527f496e697469616c697a61626c653a20636f6e7472616374206973206e6f74206960408201526a6e697469616c697a696e6760a81b60608201526080019056fea2646970667358221220bb754b0bc3ef0d5463f585b4dc19fd29e3f578723e930e7b4c5479339b4b953d64736f6c63430008130033",
  "devdoc": {
    "events": {
      "Initialized(uint8)": {
        "details": "Triggered when the contract has been initialized or reinitialized."
      }
    },
    "kind": "dev",
    "methods": {
      "addGovernanceToken(address,uint256)": {
        "params": {
          "_tokenAddress": "the address of the ERC-721 token",
          "_weight": "the number of votes each NFT id is worth"
        }
      },
      "getProposalVotes(uint32)": {
        "params": {
          "_proposalId": "id of the Proposal"
        },
        "returns": {
          "abstainVotes": "current count of \"ABSTAIN\" votes",
          "endBlock": "block number voting ends",
          "noVotes": "current count of \"NO\" votes",
          "startBlock": "block number voting starts",
          "yesVotes": "current count of \"YES\" votes"
        }
      },
      "getTokenWeight(address)": {
        "params": {
          "_tokenAddress": "the ERC-721 token address"
        }
      },
      "getWhitelistedHatsCount()": {
        "returns": {
          "_0": "The number of whitelisted hats"
        }
      },
      "hasVoted(uint32,address,uint256)": {
        "params": {
          "_proposalId": "the id of the Proposal",
          "_tokenAddress": "the ERC-721 contract address",
          "_tokenId": "the unique id of the NFT"
        }
      },
      "initializeProposal(bytes)": {
        "params": {
          "_data": "arbitrary data to pass to this BaseStrategy"
        }
      },
      "isHatWhitelisted(uint256)": {
        "params": {
          "_hatId": "The ID of the Hat to check"
        },
        "returns": {
          "_0": "True if the hat is whitelisted, false otherwise"
        }
      },
      "isPassed(uint32)": {
        "params": {
          "_proposalId": "proposalId to check"
        },
        "returns": {
          "_0": "bool true if the proposal has passed, otherwise false"
        }
      },
      "isProposer(address)": {
        "details": "Checks if an address is authorized to create proposals.",
        "params": {
          "_address": "The address to check for proposal creation authorization."
        },
        "returns": {
          "_0": "bool Returns true if the address is wearing any of the whitelisted Hats, false otherwise."
        }
      },
      "meetsBasis(uint256,uint256)": {
        "params": {
          "_noVotes": "number of votes against",
          "_yesVotes": "number of votes in favor"
        },
        "returns": {
          "_0": "bool whether the yes votes meets the set basis"
        }
      },
      "owner()": {
        "details": "Returns the address of the current owner."
      },
      "removeGovernanceToken(address)": {
        "params": {
          "_tokenAddress": "the ERC-721 token to remove"
        }
      },
      "removeHatFromWhitelist(uint256)": {
        "params": {
          "_hatId": "The ID of the Hat to remove from the whitelist"
        }
      },
      "renounceOwnership()": {
        "details": "Leaves the contract without owner. It will not be possible to call `onlyOwner` functions anymore. Can only be called by the current owner. NOTE: Renouncing ownership will leave the contract without an owner, thereby removing any functionality that is only available to the owner."
      },
      "setAzorius(address)": {
        "params": {
          "_azoriusModule": "address of the Azorius Safe module"
        }
      },
      "setUp(bytes)": {
        "params": {
          "initializeParams": "encoded initialization parameters: `address _owner`, `address[] memory _tokens`, `uint256[] memory _weights`, `address _azoriusModule`, `uint32 _votingPeriod`, `uint256 _quorumThreshold`, `uint256 _basisNumerator`, `address _hatsContract`, `uint256[] _initialWhitelistedHats`"
        }
      },
      "transferOwnership(address)": {
        "details": "Transfers ownership of the contract to a new account (`newOwner`). Can only be called by the current owner."
      },
      "updateBasisNumerator(uint256)": {
        "params": {
          "_basisNumerator": "numerator to use"
        }
      },
      "updateProposerThreshold(uint256)": {
        "params": {
          "_proposerThreshold": "required voting weight"
        }
      },
      "updateQuorumThreshold(uint256)": {
        "params": {
          "_quorumThreshold": "total voting weight required to achieve quorum"
        }
      },
      "updateVotingPeriod(uint32)": {
        "params": {
          "_votingPeriod": "voting time period (in blocks)"
        }
      },
      "vote(uint32,uint8,address[],uint256[])": {
        "params": {
          "_proposalId": "id of the Proposal to vote on",
          "_tokenAddresses": "list of ERC-721 addresses that correspond to ids in _tokenIds",
          "_tokenIds": "list of unique token ids that correspond to their ERC-721 address in _tokenAddresses",
          "_voteType": "Proposal support as defined in VoteType (NO, YES, ABSTAIN)"
        }
      },
      "votingEndBlock(uint32)": {
        "params": {
          "_proposalId": "proposalId to check"
        },
        "returns": {
          "_0": "uint32 block number when voting ends on the Proposal"
        }
      },
      "whitelistHat(uint256)": {
        "params": {
          "_hatId": "The ID of the Hat to whitelist"
        }
      }
    },
    "version": 1
  },
  "userdoc": {
    "kind": "user",
    "methods": {
      "BASIS_DENOMINATOR()": {
        "notice": "The denominator to use when calculating basis (1,000,000). "
      },
      "addGovernanceToken(address,uint256)": {
        "notice": "Adds a new ERC-721 token as a governance token, along with its associated weight."
      },
      "basisNumerator()": {
        "notice": "The numerator to use when calculating basis (adjustable). "
      },
      "getAllTokenAddresses()": {
        "notice": "Returns whole list of governance tokens addresses"
      },
      "getProposalVotes(uint32)": {
        "notice": "Returns the current state of the specified Proposal."
      },
      "getTokenWeight(address)": {
        "notice": "Returns the current token weight for the given ERC-721 token address."
      },
      "getWhitelistedHatsCount()": {
        "notice": "Returns the number of whitelisted hats."
      },
      "hasVoted(uint32,address,uint256)": {
        "notice": "Returns whether an NFT id has already voted."
      },
      "initializeProposal(bytes)": {
        "notice": "Called by the [Azorius](../Azorius.md) module. This notifies this  [BaseStrategy](../BaseStrategy.md) that a new Proposal has been created."
      },
      "isHatWhitelisted(uint256)": {
        "notice": "Checks if a hat is whitelisted."
      },
      "isPassed(uint32)": {
        "notice": "Returns whether a Proposal has been passed."
      },
      "isProposer(address)": {
        "notice": "This function overrides the isProposer function from the parent contract. It iterates through all whitelisted Hat IDs and checks if the given address is wearing any of them using the Hats Protocol."
      },
      "meetsBasis(uint256,uint256)": {
        "notice": "Calculates whether a vote meets its basis."
      },
      "proposalVotes(uint256)": {
        "notice": "`proposalId` to `ProposalVotes`, the voting state of a Proposal. "
      },
      "proposerThreshold()": {
        "notice": "The minimum number of voting power required to create a new proposal."
      },
      "quorumThreshold()": {
        "notice": "The total number of votes required to achieve quorum. \"Quorum threshold\" is used instead of a quorum percent because IERC721 has no totalSupply function, so the contract cannot determine this."
      },
      "removeGovernanceToken(address)": {
        "notice": "Removes the given ERC-721 token address from the list of governance tokens."
      },
      "removeHatFromWhitelist(uint256)": {
        "notice": "Removes a Hat from the whitelist for proposal creation."
      },
      "setAzorius(address)": {
        "notice": "Sets the address of the [Azorius](../Azorius.md) contract this  [BaseStrategy](../BaseStrategy.md) is being used on."
      },
      "setUp(bytes)": {
        "notice": "Sets up the contract with its initial parameters."
      },
      "tokenAddresses(uint256)": {
        "notice": "The list of ERC-721 tokens that can vote. "
      },
      "tokenWeights(address)": {
        "notice": "ERC-721 address to its voting weight per NFT id.  "
      },
      "updateBasisNumerator(uint256)": {
        "notice": "Updates the `basisNumerator` for future Proposals."
      },
      "updateProposerThreshold(uint256)": {
        "notice": "Updates the voting weight required to submit new Proposals."
      },
      "updateQuorumThreshold(uint256)": {
        "notice": "Updates the quorum required for future Proposals."
      },
      "updateVotingPeriod(uint32)": {
        "notice": "Updates the voting time period for new Proposals."
      },
      "vote(uint32,uint8,address[],uint256[])": {
        "notice": "Submits a vote on an existing Proposal."
      },
      "votingEndBlock(uint32)": {
        "notice": "Returns the block number voting ends on a given Proposal."
      },
      "votingPeriod()": {
        "notice": "Number of blocks a new Proposal can be voted on. "
      },
      "whitelistHat(uint256)": {
        "notice": "Adds a Hat to the whitelist for proposal creation."
      },
      "whitelistedHatIds(uint256)": {
        "notice": "Array to store whitelisted Hat IDs. "
      }
    },
    "notice": "An [Azorius](./Azorius.md) [BaseStrategy](./BaseStrategy.md) implementation that enables linear (i.e. 1 to 1) ERC721 based token voting, with proposal creation restricted to users wearing whitelisted Hats.",
    "version": 1
  },
  "storageLayout": {
    "storage": [
      {
        "astId": 3585,
        "contract": "contracts/azorius/LinearERC721VotingWithHatsProposalCreation.sol:LinearERC721VotingWithHatsProposalCreation",
        "label": "_initialized",
        "offset": 0,
        "slot": "0",
        "type": "t_uint8"
      },
      {
        "astId": 3588,
        "contract": "contracts/azorius/LinearERC721VotingWithHatsProposalCreation.sol:LinearERC721VotingWithHatsProposalCreation",
        "label": "_initializing",
        "offset": 1,
        "slot": "0",
        "type": "t_bool"
      },
      {
        "astId": 6487,
        "contract": "contracts/azorius/LinearERC721VotingWithHatsProposalCreation.sol:LinearERC721VotingWithHatsProposalCreation",
        "label": "__gap",
        "offset": 0,
        "slot": "1",
        "type": "t_array(t_uint256)50_storage"
      },
      {
        "astId": 3379,
        "contract": "contracts/azorius/LinearERC721VotingWithHatsProposalCreation.sol:LinearERC721VotingWithHatsProposalCreation",
        "label": "_owner",
        "offset": 0,
        "slot": "51",
        "type": "t_address"
      },
      {
        "astId": 3499,
        "contract": "contracts/azorius/LinearERC721VotingWithHatsProposalCreation.sol:LinearERC721VotingWithHatsProposalCreation",
        "label": "__gap",
        "offset": 0,
        "slot": "52",
        "type": "t_array(t_uint256)49_storage"
      },
      {
        "astId": 16744,
        "contract": "contracts/azorius/LinearERC721VotingWithHatsProposalCreation.sol:LinearERC721VotingWithHatsProposalCreation",
        "label": "hatsContract",
        "offset": 0,
        "slot": "101",
        "type": "t_contract(IHats)22245"
      },
      {
        "astId": 16748,
        "contract": "contracts/azorius/LinearERC721VotingWithHatsProposalCreation.sol:LinearERC721VotingWithHatsProposalCreation",
        "label": "whitelistedHatIds",
        "offset": 0,
        "slot": "102",
        "type": "t_array(t_uint256)dyn_storage"
      },
      {
        "astId": 16551,
        "contract": "contracts/azorius/LinearERC721VotingWithHatsProposalCreation.sol:LinearERC721VotingWithHatsProposalCreation",
        "label": "azoriusModule",
        "offset": 0,
        "slot": "103",
        "type": "t_contract(IAzorius)21329"
      },
      {
        "astId": 16651,
        "contract": "contracts/azorius/LinearERC721VotingWithHatsProposalCreation.sol:LinearERC721VotingWithHatsProposalCreation",
        "label": "basisNumerator",
        "offset": 0,
        "slot": "104",
        "type": "t_uint256"
      },
      {
        "astId": 20121,
        "contract": "contracts/azorius/LinearERC721VotingWithHatsProposalCreation.sol:LinearERC721VotingWithHatsProposalCreation",
        "label": "proposalVotes",
        "offset": 0,
        "slot": "105",
        "type": "t_mapping(t_uint256,t_struct(ProposalVotes)20115_storage)"
      },
      {
        "astId": 20125,
        "contract": "contracts/azorius/LinearERC721VotingWithHatsProposalCreation.sol:LinearERC721VotingWithHatsProposalCreation",
        "label": "tokenAddresses",
        "offset": 0,
        "slot": "106",
        "type": "t_array(t_address)dyn_storage"
      },
      {
        "astId": 20130,
        "contract": "contracts/azorius/LinearERC721VotingWithHatsProposalCreation.sol:LinearERC721VotingWithHatsProposalCreation",
        "label": "tokenWeights",
        "offset": 0,
        "slot": "107",
        "type": "t_mapping(t_address,t_uint256)"
      },
      {
        "astId": 20133,
        "contract": "contracts/azorius/LinearERC721VotingWithHatsProposalCreation.sol:LinearERC721VotingWithHatsProposalCreation",
        "label": "votingPeriod",
        "offset": 0,
        "slot": "108",
        "type": "t_uint32"
      },
      {
        "astId": 20136,
        "contract": "contracts/azorius/LinearERC721VotingWithHatsProposalCreation.sol:LinearERC721VotingWithHatsProposalCreation",
        "label": "quorumThreshold",
        "offset": 0,
        "slot": "109",
        "type": "t_uint256"
      },
      {
        "astId": 20139,
        "contract": "contracts/azorius/LinearERC721VotingWithHatsProposalCreation.sol:LinearERC721VotingWithHatsProposalCreation",
        "label": "proposerThreshold",
        "offset": 0,
        "slot": "110",
        "type": "t_uint256"
      }
    ],
    "types": {
      "t_address": {
        "encoding": "inplace",
        "label": "address",
        "numberOfBytes": "20"
      },
      "t_array(t_address)dyn_storage": {
        "base": "t_address",
        "encoding": "dynamic_array",
        "label": "address[]",
        "numberOfBytes": "32"
      },
      "t_array(t_uint256)49_storage": {
        "base": "t_uint256",
        "encoding": "inplace",
        "label": "uint256[49]",
        "numberOfBytes": "1568"
      },
      "t_array(t_uint256)50_storage": {
        "base": "t_uint256",
        "encoding": "inplace",
        "label": "uint256[50]",
        "numberOfBytes": "1600"
      },
      "t_array(t_uint256)dyn_storage": {
        "base": "t_uint256",
        "encoding": "dynamic_array",
        "label": "uint256[]",
        "numberOfBytes": "32"
      },
      "t_bool": {
        "encoding": "inplace",
        "label": "bool",
        "numberOfBytes": "1"
      },
      "t_contract(IAzorius)21329": {
        "encoding": "inplace",
        "label": "contract IAzorius",
        "numberOfBytes": "20"
      },
      "t_contract(IHats)22245": {
        "encoding": "inplace",
        "label": "contract IHats",
        "numberOfBytes": "20"
      },
      "t_mapping(t_address,t_mapping(t_uint256,t_bool))": {
        "encoding": "mapping",
        "key": "t_address",
        "label": "mapping(address => mapping(uint256 => bool))",
        "numberOfBytes": "32",
        "value": "t_mapping(t_uint256,t_bool)"
      },
      "t_mapping(t_address,t_uint256)": {
        "encoding": "mapping",
        "key": "t_address",
        "label": "mapping(address => uint256)",
        "numberOfBytes": "32",
        "value": "t_uint256"
      },
      "t_mapping(t_uint256,t_bool)": {
        "encoding": "mapping",
        "key": "t_uint256",
        "label": "mapping(uint256 => bool)",
        "numberOfBytes": "32",
        "value": "t_bool"
      },
      "t_mapping(t_uint256,t_struct(ProposalVotes)20115_storage)": {
        "encoding": "mapping",
        "key": "t_uint256",
        "label": "mapping(uint256 => struct LinearERC721VotingExtensible.ProposalVotes)",
        "numberOfBytes": "32",
        "value": "t_struct(ProposalVotes)20115_storage"
      },
      "t_struct(ProposalVotes)20115_storage": {
        "encoding": "inplace",
        "label": "struct LinearERC721VotingExtensible.ProposalVotes",
        "members": [
          {
            "astId": 20099,
            "contract": "contracts/azorius/LinearERC721VotingWithHatsProposalCreation.sol:LinearERC721VotingWithHatsProposalCreation",
            "label": "votingStartBlock",
            "offset": 0,
            "slot": "0",
            "type": "t_uint32"
          },
          {
            "astId": 20101,
            "contract": "contracts/azorius/LinearERC721VotingWithHatsProposalCreation.sol:LinearERC721VotingWithHatsProposalCreation",
            "label": "votingEndBlock",
            "offset": 4,
            "slot": "0",
            "type": "t_uint32"
          },
          {
            "astId": 20103,
            "contract": "contracts/azorius/LinearERC721VotingWithHatsProposalCreation.sol:LinearERC721VotingWithHatsProposalCreation",
            "label": "noVotes",
            "offset": 0,
            "slot": "1",
            "type": "t_uint256"
          },
          {
            "astId": 20105,
            "contract": "contracts/azorius/LinearERC721VotingWithHatsProposalCreation.sol:LinearERC721VotingWithHatsProposalCreation",
            "label": "yesVotes",
            "offset": 0,
            "slot": "2",
            "type": "t_uint256"
          },
          {
            "astId": 20107,
            "contract": "contracts/azorius/LinearERC721VotingWithHatsProposalCreation.sol:LinearERC721VotingWithHatsProposalCreation",
            "label": "abstainVotes",
            "offset": 0,
            "slot": "3",
            "type": "t_uint256"
          },
          {
            "astId": 20114,
            "contract": "contracts/azorius/LinearERC721VotingWithHatsProposalCreation.sol:LinearERC721VotingWithHatsProposalCreation",
            "label": "hasVoted",
            "offset": 0,
            "slot": "4",
            "type": "t_mapping(t_address,t_mapping(t_uint256,t_bool))"
          }
        ],
        "numberOfBytes": "160"
      },
      "t_uint256": {
        "encoding": "inplace",
        "label": "uint256",
        "numberOfBytes": "32"
      },
      "t_uint32": {
        "encoding": "inplace",
        "label": "uint32",
        "numberOfBytes": "4"
      },
      "t_uint8": {
        "encoding": "inplace",
        "label": "uint8",
        "numberOfBytes": "1"
      }
    }
  }
}