{
  "address": "0xe04BC1f515Af4276d8d3907aBe359DC03b2f141b",
  "abi": [
    {
      "inputs": [],
      "name": "AlreadyVoted",
      "type": "error"
    },
    {
      "inputs": [],
      "name": "InvalidBasisNumerator",
      "type": "error"
    },
    {
      "inputs": [],
      "name": "InvalidProposal",
      "type": "error"
    },
    {
      "inputs": [],
      "name": "InvalidQuorumNumerator",
      "type": "error"
    },
    {
      "inputs": [],
      "name": "InvalidTokenAddress",
      "type": "error"
    },
    {
      "inputs": [],
      "name": "InvalidVote",
      "type": "error"
    },
    {
      "inputs": [],
      "name": "OnlyAzorius",
      "type": "error"
    },
    {
      "inputs": [],
      "name": "VotingEnded",
      "type": "error"
    },
    {
      "anonymous": false,
      "inputs": [
        {
          "indexed": true,
          "internalType": "address",
          "name": "azoriusModule",
          "type": "address"
        }
      ],
      "name": "AzoriusSet",
      "type": "event"
    },
    {
      "anonymous": false,
      "inputs": [
        {
          "indexed": false,
          "internalType": "uint256",
          "name": "basisNumerator",
          "type": "uint256"
        }
      ],
      "name": "BasisNumeratorUpdated",
      "type": "event"
    },
    {
      "anonymous": false,
      "inputs": [
        {
          "indexed": false,
          "internalType": "uint8",
          "name": "version",
          "type": "uint8"
        }
      ],
      "name": "Initialized",
      "type": "event"
    },
    {
      "anonymous": false,
      "inputs": [
        {
          "indexed": true,
          "internalType": "address",
          "name": "previousOwner",
          "type": "address"
        },
        {
          "indexed": true,
          "internalType": "address",
          "name": "newOwner",
          "type": "address"
        }
      ],
      "name": "OwnershipTransferred",
      "type": "event"
    },
    {
      "anonymous": false,
      "inputs": [
        {
          "indexed": false,
          "internalType": "uint32",
          "name": "proposalId",
          "type": "uint32"
        },
        {
          "indexed": false,
          "internalType": "uint32",
          "name": "votingEndBlock",
          "type": "uint32"
        }
      ],
      "name": "ProposalInitialized",
      "type": "event"
    },
    {
      "anonymous": false,
      "inputs": [
        {
          "indexed": false,
          "internalType": "uint256",
          "name": "quorumNumerator",
          "type": "uint256"
        }
      ],
      "name": "QuorumNumeratorUpdated",
      "type": "event"
    },
    {
      "anonymous": false,
      "inputs": [
        {
          "indexed": false,
          "internalType": "uint256",
          "name": "requiredProposerWeight",
          "type": "uint256"
        }
      ],
      "name": "RequiredProposerWeightUpdated",
      "type": "event"
    },
    {
      "anonymous": false,
      "inputs": [
        {
          "indexed": true,
          "internalType": "address",
          "name": "azoriusModule",
          "type": "address"
        },
        {
          "indexed": true,
          "internalType": "address",
          "name": "owner",
          "type": "address"
        }
      ],
      "name": "StrategySetUp",
      "type": "event"
    },
    {
      "anonymous": false,
      "inputs": [
        {
          "indexed": false,
          "internalType": "address",
          "name": "voter",
          "type": "address"
        },
        {
          "indexed": false,
          "internalType": "uint32",
          "name": "proposalId",
          "type": "uint32"
        },
        {
          "indexed": false,
          "internalType": "uint8",
          "name": "voteType",
          "type": "uint8"
        },
        {
          "indexed": false,
          "internalType": "uint256",
          "name": "weight",
          "type": "uint256"
        }
      ],
      "name": "Voted",
      "type": "event"
    },
    {
      "anonymous": false,
      "inputs": [
        {
          "indexed": false,
          "internalType": "uint32",
          "name": "votingPeriod",
          "type": "uint32"
        }
      ],
      "name": "VotingPeriodUpdated",
      "type": "event"
    },
    {
      "inputs": [],
      "name": "BASIS_DENOMINATOR",
      "outputs": [
        {
          "internalType": "uint256",
          "name": "",
          "type": "uint256"
        }
      ],
      "stateMutability": "view",
      "type": "function"
    },
    {
      "inputs": [],
      "name": "QUORUM_DENOMINATOR",
      "outputs": [
        {
          "internalType": "uint256",
          "name": "",
          "type": "uint256"
        }
      ],
      "stateMutability": "view",
      "type": "function"
    },
    {
      "inputs": [],
      "name": "azoriusModule",
      "outputs": [
        {
          "internalType": "contract IAzorius",
          "name": "",
          "type": "address"
        }
      ],
      "stateMutability": "view",
      "type": "function"
    },
    {
      "inputs": [],
      "name": "basisNumerator",
      "outputs": [
        {
          "internalType": "uint256",
          "name": "",
          "type": "uint256"
        }
      ],
      "stateMutability": "view",
      "type": "function"
    },
    {
      "inputs": [
        {
          "internalType": "uint32",
          "name": "_proposalId",
          "type": "uint32"
        }
      ],
      "name": "getProposalVotes",
      "outputs": [
        {
          "internalType": "uint256",
          "name": "noVotes",
          "type": "uint256"
        },
        {
          "internalType": "uint256",
          "name": "yesVotes",
          "type": "uint256"
        },
        {
          "internalType": "uint256",
          "name": "abstainVotes",
          "type": "uint256"
        },
        {
          "internalType": "uint32",
          "name": "startBlock",
          "type": "uint32"
        },
        {
          "internalType": "uint32",
          "name": "endBlock",
          "type": "uint32"
        },
        {
          "internalType": "uint256",
          "name": "votingSupply",
          "type": "uint256"
        }
      ],
      "stateMutability": "view",
      "type": "function"
    },
    {
      "inputs": [
        {
          "internalType": "uint32",
          "name": "_proposalId",
          "type": "uint32"
        }
      ],
      "name": "getProposalVotingSupply",
      "outputs": [
        {
          "internalType": "uint256",
          "name": "",
          "type": "uint256"
        }
      ],
      "stateMutability": "view",
      "type": "function"
    },
    {
      "inputs": [
        {
          "internalType": "address",
          "name": "_voter",
          "type": "address"
        },
        {
          "internalType": "uint32",
          "name": "_proposalId",
          "type": "uint32"
        }
      ],
      "name": "getVotingWeight",
      "outputs": [
        {
          "internalType": "uint256",
          "name": "",
          "type": "uint256"
        }
      ],
      "stateMutability": "view",
      "type": "function"
    },
    {
      "inputs": [],
      "name": "governanceToken",
      "outputs": [
        {
          "internalType": "contract IVotes",
          "name": "",
          "type": "address"
        }
      ],
      "stateMutability": "view",
      "type": "function"
    },
    {
      "inputs": [
        {
          "internalType": "uint32",
          "name": "_proposalId",
          "type": "uint32"
        },
        {
          "internalType": "address",
          "name": "_address",
          "type": "address"
        }
      ],
      "name": "hasVoted",
      "outputs": [
        {
          "internalType": "bool",
          "name": "",
          "type": "bool"
        }
      ],
      "stateMutability": "view",
      "type": "function"
    },
    {
      "inputs": [
        {
          "internalType": "bytes",
          "name": "_data",
          "type": "bytes"
        }
      ],
      "name": "initializeProposal",
      "outputs": [],
      "stateMutability": "nonpayable",
      "type": "function"
    },
    {
      "inputs": [
        {
          "internalType": "uint32",
          "name": "_proposalId",
          "type": "uint32"
        }
      ],
      "name": "isPassed",
      "outputs": [
        {
          "internalType": "bool",
          "name": "",
          "type": "bool"
        }
      ],
      "stateMutability": "view",
      "type": "function"
    },
    {
      "inputs": [
        {
          "internalType": "address",
          "name": "_address",
          "type": "address"
        }
      ],
      "name": "isProposer",
      "outputs": [
        {
          "internalType": "bool",
          "name": "",
          "type": "bool"
        }
      ],
      "stateMutability": "view",
      "type": "function"
    },
    {
      "inputs": [
        {
          "internalType": "uint256",
          "name": "_yesVotes",
          "type": "uint256"
        },
        {
          "internalType": "uint256",
          "name": "_noVotes",
          "type": "uint256"
        }
      ],
      "name": "meetsBasis",
      "outputs": [
        {
          "internalType": "bool",
          "name": "",
          "type": "bool"
        }
      ],
      "stateMutability": "view",
      "type": "function"
    },
    {
      "inputs": [
        {
          "internalType": "uint256",
          "name": "_totalSupply",
          "type": "uint256"
        },
        {
          "internalType": "uint256",
          "name": "_yesVotes",
          "type": "uint256"
        },
        {
          "internalType": "uint256",
          "name": "_abstainVotes",
          "type": "uint256"
        }
      ],
      "name": "meetsQuorum",
      "outputs": [
        {
          "internalType": "bool",
          "name": "",
          "type": "bool"
        }
      ],
      "stateMutability": "view",
      "type": "function"
    },
    {
      "inputs": [],
      "name": "owner",
      "outputs": [
        {
          "internalType": "address",
          "name": "",
          "type": "address"
        }
      ],
      "stateMutability": "view",
      "type": "function"
    },
    {
      "inputs": [],
      "name": "quorumNumerator",
      "outputs": [
        {
          "internalType": "uint256",
          "name": "",
          "type": "uint256"
        }
      ],
      "stateMutability": "view",
      "type": "function"
    },
    {
      "inputs": [
        {
          "internalType": "uint32",
          "name": "_proposalId",
          "type": "uint32"
        }
      ],
      "name": "quorumVotes",
      "outputs": [
        {
          "internalType": "uint256",
          "name": "",
          "type": "uint256"
        }
      ],
      "stateMutability": "view",
      "type": "function"
    },
    {
      "inputs": [],
      "name": "renounceOwnership",
      "outputs": [],
      "stateMutability": "nonpayable",
      "type": "function"
    },
    {
      "inputs": [],
      "name": "requiredProposerWeight",
      "outputs": [
        {
          "internalType": "uint256",
          "name": "",
          "type": "uint256"
        }
      ],
      "stateMutability": "view",
      "type": "function"
    },
    {
      "inputs": [
        {
          "internalType": "address",
          "name": "_azoriusModule",
          "type": "address"
        }
      ],
      "name": "setAzorius",
      "outputs": [],
      "stateMutability": "nonpayable",
      "type": "function"
    },
    {
      "inputs": [
        {
          "internalType": "bytes",
          "name": "initializeParams",
          "type": "bytes"
        }
      ],
      "name": "setUp",
      "outputs": [],
      "stateMutability": "nonpayable",
      "type": "function"
    },
    {
      "inputs": [
        {
          "internalType": "address",
          "name": "newOwner",
          "type": "address"
        }
      ],
      "name": "transferOwnership",
      "outputs": [],
      "stateMutability": "nonpayable",
      "type": "function"
    },
    {
      "inputs": [
        {
          "internalType": "uint256",
          "name": "_basisNumerator",
          "type": "uint256"
        }
      ],
      "name": "updateBasisNumerator",
      "outputs": [],
      "stateMutability": "nonpayable",
      "type": "function"
    },
    {
      "inputs": [
        {
          "internalType": "uint256",
          "name": "_quorumNumerator",
          "type": "uint256"
        }
      ],
      "name": "updateQuorumNumerator",
      "outputs": [],
      "stateMutability": "nonpayable",
      "type": "function"
    },
    {
      "inputs": [
        {
          "internalType": "uint256",
          "name": "_requiredProposerWeight",
          "type": "uint256"
        }
      ],
      "name": "updateRequiredProposerWeight",
      "outputs": [],
      "stateMutability": "nonpayable",
      "type": "function"
    },
    {
      "inputs": [
        {
          "internalType": "uint32",
          "name": "_votingPeriod",
          "type": "uint32"
        }
      ],
      "name": "updateVotingPeriod",
      "outputs": [],
      "stateMutability": "nonpayable",
      "type": "function"
    },
    {
      "inputs": [
        {
          "internalType": "uint32",
          "name": "_proposalId",
          "type": "uint32"
        },
        {
          "internalType": "uint8",
          "name": "_voteType",
          "type": "uint8"
        }
      ],
      "name": "vote",
      "outputs": [],
      "stateMutability": "nonpayable",
      "type": "function"
    },
    {
      "inputs": [
        {
          "internalType": "uint32",
          "name": "_proposalId",
          "type": "uint32"
        }
      ],
      "name": "votingEndBlock",
      "outputs": [
        {
          "internalType": "uint32",
          "name": "",
          "type": "uint32"
        }
      ],
      "stateMutability": "view",
      "type": "function"
    },
    {
      "inputs": [],
      "name": "votingPeriod",
      "outputs": [
        {
          "internalType": "uint32",
          "name": "",
          "type": "uint32"
        }
      ],
      "stateMutability": "view",
      "type": "function"
    }
  ],
  "transactionHash": "0x1fc6aa1949028527ecb96665eecb147ca30818293fc7f58aa0d734f859ae4834",
  "args": [],
  "numDeployments": 1,
  "solcInputHash": "f38f4478c70bad79f1e003d8a946fa0f",
  "bytecode": "0x608060405234801561001057600080fd5b5061001961001e565b6100de565b600054610100900460ff161561008a5760405162461bcd60e51b815260206004820152602760248201527f496e697469616c697a61626c653a20636f6e747261637420697320696e697469604482015266616c697a696e6760c81b606482015260840160405180910390fd5b60005460ff90811610156100dc576000805460ff191660ff9081179091556040519081527f7f26b83ff96e1f2b6a682f133852f6798a09c465da95921460cefb38474024989060200160405180910390a15b565b611450806100ed6000396000f3fe608060405234801561001057600080fd5b50600436106101cf5760003560e01c80638da5cb5b11610104578063a77a81d0116100a2578063deb61c1511610071578063deb61c151461040d578063e8575a7f14610456578063f2fde38b14610469578063f96dae0a1461047c57600080fd5b8063a77a81d01461039a578063bf7e2c7f146103ad578063ca1dc30b146103b6578063d3c22b38146103c957600080fd5b80639bff4df4116100de5780639bff4df4146103625780639dd783c21461036b578063a4f9edbf1461037e578063a7713a701461039157600080fd5b80638da5cb5b1461032b578063918f84bf1461033c5780639767fb721461034f57600080fd5b806355a9dbd911610171578063715018a61161014b578063715018a6146102fd57806374ec29a0146103055780638081be91146102f35780638a2f2c8a1461031857600080fd5b806355a9dbd91461029757806366b62955146102c85780636fef541a146102f357600080fd5b80631236af7c116101ad5780631236af7c1461023b57806333f48a5e1461024e57806337938ab31461026157806353a8b3201461027457600080fd5b806302a251a3146101d457806306f3f9e61461020557806308453ad21461021a575b600080fd5b6068546101eb90600160a01b900463ffffffff1681565b60405163ffffffff90911681526020015b60405180910390f35b610218610213366004611058565b61048f565b005b61022d610228366004611083565b6104a3565b6040519081526020016101fc565b61022d610249366004611083565b61052c565b61021861025c366004611083565b610552565b61021861026f3660046110b5565b610563565b610287610282366004611083565b6105b5565b60405190151581526020016101fc565b6101eb6102a5366004611083565b63ffffffff9081166000908152606a602052604090205464010000000090041690565b6065546102db906001600160a01b031681565b6040516001600160a01b0390911681526020016101fc565b61022d620f424081565b610218610643565b6102876103133660046110b5565b610657565b610218610326366004611058565b6106f0565b6033546001600160a01b03166102db565b61028761034a3660046110d2565b610701565b61021861035d3660046110f4565b610733565b61022d60695481565b610287610379366004611133565b61074c565b61021861038c366004611175565b61077e565b61022d60665481565b6102186103a8366004611175565b610983565b61022d60675481565b61022d6103c4366004611226565b610a6a565b6102876103d7366004611254565b63ffffffff82166000908152606a602090815260408083206001600160a01b038516845260040190915290205460ff1692915050565b61042061041b366004611083565b610aff565b6040805196875260208701959095529385019290925263ffffffff908116606085015216608083015260a082015260c0016101fc565b610218610464366004611058565b610b4e565b6102186104773660046110b5565b610b5f565b6068546102db906001600160a01b031681565b610497610bd5565b6104a081610c2f565b50565b60685463ffffffff8281166000908152606a6020526040808220549051632394e7a360e21b815292166004830152916001600160a01b031690638e539e8c90602401602060405180830381865afa158015610502573d6000803e3d6000fd5b505050506040513d601f19601f820116820180604052508101906105269190611282565b92915050565b6000620f424061053b836104a3565b60665461054891906112b1565b61052691906112c8565b61055a610bd5565b6104a081610c8f565b61056b610bd5565b606580546001600160a01b0319166001600160a01b0383169081179091556040517fac8d831a6ed53a98387842e08d9e0893c1d478f4a3710b254e22bd58c06b269090600090a250565b63ffffffff8082166000908152606a60205260408120549091640100000000909104164311801561061257506106126105ed836104a3565b63ffffffff84166000908152606a60205260409020600281015460039091015461074c565b8015610526575063ffffffff82166000908152606a6020526040902060028101546001909101546105269190610701565b61064b610bd5565b6106556000610ce3565b565b606954606854600091906001600160a01b0316633a46b1a88461067b6001436112ea565b6040516001600160e01b031960e085901b1681526001600160a01b0390921660048301526024820152604401602060405180830381865afa1580156106c4573d6000803e3d6000fd5b505050506040513d601f19601f820116820180604052508101906106e89190611282565b101592915050565b6106f8610bd5565b6104a081610d35565b6000620f4240606754838561071691906112fd565b61072091906112b1565b61072a91906112c8565b90921192915050565b6107488233836107433387610a6a565b610d6a565b5050565b6000620f42406066548561076091906112b1565b61076a91906112c8565b61077483856112fd565b1015949350505050565b600054610100900460ff161580801561079e5750600054600160ff909116105b806107b85750303b1580156107b8575060005460ff166001145b6108205760405162461bcd60e51b815260206004820152602e60248201527f496e697469616c697a61626c653a20636f6e747261637420697320616c72656160448201526d191e481a5b9a5d1a585b1a5e995960921b60648201526084015b60405180910390fd5b6000805460ff191660011790558015610843576000805461ff0019166101001790555b6000806000806000806000888060200190518101906108629190611310565b959c50939a5091985096509450925090506001600160a01b03861661089a57604051630f58058360e11b815260040160405180910390fd5b606880546001600160a01b0319166001600160a01b0388161790556108bd610f89565b6108c687610b5f565b6108cf8561056b565b6108d882610c2f565b6108e181610fb8565b6108ea84610c8f565b6108f383610d35565b866001600160a01b0316856001600160a01b03167fca32f512f02914f6bc16a49e786443029061b9adc5a987fd2f6efa56c0116a1660405160405180910390a3505050505050508015610748576000805461ff0019169055604051600181527f7f26b83ff96e1f2b6a682f133852f6798a09c465da95921460cefb38474024989060200160405180910390a15050565b6065546001600160a01b031633146109ae576040516358c30ce160e01b815260040160405180910390fd5b6000818060200190518101906109c4919061138e565b6068549091506000906109e490600160a01b900463ffffffff16436113ab565b63ffffffff8381166000818152606a6020908152604091829020805467ffffffffffffffff191664010000000087871690810263ffffffff1916919091174390961695909517905581519283528201929092529192507f80d0ad93bba25e53bf67fa9f2d13df59f04795ec2f91b9b3c1f607666daf9d64910160405180910390a1505050565b60685463ffffffff8281166000908152606a6020526040808220549051630748d63560e31b81526001600160a01b03878116600483015291909316602484015290921690633a46b1a890604401602060405180830381865afa158015610ad4573d6000803e3d6000fd5b505050506040513d601f19601f82011682018060405250810190610af89190611282565b9392505050565b63ffffffff8082166000908152606a6020526040812060018101546002820154600383015492549194909382821692640100000000900490911690610b43876104a3565b905091939550919395565b610b56610bd5565b6104a081610fb8565b610b67610bd5565b6001600160a01b038116610bcc5760405162461bcd60e51b815260206004820152602660248201527f4f776e61626c653a206e6577206f776e657220697320746865207a65726f206160448201526564647265737360d01b6064820152608401610817565b6104a081610ce3565b6033546001600160a01b031633146106555760405162461bcd60e51b815260206004820181905260248201527f4f776e61626c653a2063616c6c6572206973206e6f7420746865206f776e65726044820152606401610817565b620f4240811115610c5357604051630d2a3fcb60e41b815260040160405180910390fd5b60668190556040518181527f0cc18e3862a55e514917eb8f248561dd65e0fbbba65f5468f203e92193635dd3906020015b60405180910390a150565b6068805463ffffffff60a01b1916600160a01b63ffffffff8416908102919091179091556040519081527f70770ce479f70673c3ed8fff63cfb758a6ffdddc30cab7c63d54c8d825e3948890602001610c84565b603380546001600160a01b038381166001600160a01b0319831681179093556040519116919082907f8be0079c531659141344cd1fd0a4f28419497f9722a3daafe3b4186f6b6457e090600090a35050565b60698190556040518181527f93deb5027728f04c9fd8d7bcea2efb36cc7a6a7876236649f2952de0aa89a01190602001610c84565b63ffffffff8085166000908152606a602052604081205464010000000090049091169003610dab57604051631dc0650160e31b815260040160405180910390fd5b63ffffffff8085166000908152606a6020526040902054640100000000900416431115610deb57604051637a19ed0560e01b815260040160405180910390fd5b63ffffffff84166000908152606a602090815260408083206001600160a01b038716845260040190915290205460ff1615610e3957604051637c9a1cf960e01b815260040160405180910390fd5b63ffffffff84166000908152606a602090815260408083206001600160a01b03871684526004019091529020805460ff1916600117905560ff8216610eab5763ffffffff84166000908152606a602052604081206001018054839290610ea09084906112fd565b90915550610f2c9050565b60001960ff831601610edf5763ffffffff84166000908152606a602052604081206002018054839290610ea09084906112fd565b60011960ff831601610f135763ffffffff84166000908152606a602052604081206003018054839290610ea09084906112fd565b604051636aee863360e11b815260040160405180910390fd5b604080516001600160a01b038516815263ffffffff8616602082015260ff8416818301526060810183905290517fe82b577bd384111662dd034b9114cbe59b26ea201f009d385006518ed28bed819181900360800190a150505050565b600054610100900460ff16610fb05760405162461bcd60e51b8152600401610817906113cf565b610655611028565b620f4240811180610fd55750610fd26002620f42406112c8565b81105b15610ff3576040516302396b6b60e61b815260040160405180910390fd5b60678190556040518181527f406c076eac4d3dde1c5d55793e80239daa8c60ee971390ce3d9f90ca4206295390602001610c84565b600054610100900460ff1661104f5760405162461bcd60e51b8152600401610817906113cf565b61065533610ce3565b60006020828403121561106a57600080fd5b5035919050565b63ffffffff811681146104a057600080fd5b60006020828403121561109557600080fd5b8135610af881611071565b6001600160a01b03811681146104a057600080fd5b6000602082840312156110c757600080fd5b8135610af8816110a0565b600080604083850312156110e557600080fd5b50508035926020909101359150565b6000806040838503121561110757600080fd5b823561111281611071565b9150602083013560ff8116811461112857600080fd5b809150509250929050565b60008060006060848603121561114857600080fd5b505081359360208301359350604090920135919050565b634e487b7160e01b600052604160045260246000fd5b60006020828403121561118757600080fd5b813567ffffffffffffffff8082111561119f57600080fd5b818401915084601f8301126111b357600080fd5b8135818111156111c5576111c561115f565b604051601f8201601f19908116603f011681019083821181831017156111ed576111ed61115f565b8160405282815287602084870101111561120657600080fd5b826020860160208301376000928101602001929092525095945050505050565b6000806040838503121561123957600080fd5b8235611244816110a0565b9150602083013561112881611071565b6000806040838503121561126757600080fd5b823561127281611071565b91506020830135611128816110a0565b60006020828403121561129457600080fd5b5051919050565b634e487b7160e01b600052601160045260246000fd5b80820281158282048414176105265761052661129b565b6000826112e557634e487b7160e01b600052601260045260246000fd5b500490565b818103818111156105265761052661129b565b808201808211156105265761052661129b565b600080600080600080600060e0888a03121561132b57600080fd5b8751611336816110a0565b6020890151909750611347816110a0565b6040890151909650611358816110a0565b606089015190955061136981611071565b809450506080880151925060a0880151915060c0880151905092959891949750929550565b6000602082840312156113a057600080fd5b8151610af881611071565b63ffffffff8181168382160190808211156113c8576113c861129b565b5092915050565b6020808252602b908201527f496e697469616c697a61626c653a20636f6e7472616374206973206e6f74206960408201526a6e697469616c697a696e6760a81b60608201526080019056fea2646970667358221220ae92700fa701f288638cb5833a15005ef99e8a471edabeda78d80c40032ee3b964736f6c63430008130033",
  "devdoc": {
    "events": {
      "Initialized(uint8)": {
        "details": "Triggered when the contract has been initialized or reinitialized."
      }
    },
    "kind": "dev",
    "methods": {
      "getProposalVotes(uint32)": {
        "params": {
          "_proposalId": "id of the Proposal"
        },
        "returns": {
          "abstainVotes": "current count of \"ABSTAIN\" votes",
          "endBlock": "block number voting ends",
          "noVotes": "current count of \"NO\" votes",
          "startBlock": "block number voting starts",
          "yesVotes": "current count of \"YES\" votes"
        }
      },
      "getProposalVotingSupply(uint32)": {
        "params": {
          "_proposalId": "id of the Proposal"
        },
        "returns": {
          "_0": "uint256 voting supply snapshot for the given _proposalId"
        }
      },
      "getVotingWeight(address,uint32)": {
        "params": {
          "_proposalId": "id of the Proposal",
          "_voter": "address of the voter"
        },
        "returns": {
          "_0": "uint256 the address' voting weight"
        }
      },
      "hasVoted(uint32,address)": {
        "params": {
          "_address": "address to check",
          "_proposalId": "id of the Proposal to check"
        },
        "returns": {
          "_0": "bool true if the address has voted on the Proposal, otherwise false"
        }
      },
      "initializeProposal(bytes)": {
        "params": {
          "_data": "arbitrary data to pass to this BaseStrategy"
        }
      },
      "isPassed(uint32)": {
        "params": {
          "_proposalId": "proposalId to check"
        },
        "returns": {
          "_0": "bool true if the proposal has passed, otherwise false"
        }
      },
      "isProposer(address)": {
        "params": {
          "_address": "address to check"
        },
        "returns": {
          "_0": "bool true if the address can submit a Proposal, otherwise false"
        }
      },
      "meetsBasis(uint256,uint256)": {
        "params": {
          "_noVotes": "number of votes against",
          "_yesVotes": "number of votes in favor"
        },
        "returns": {
          "_0": "bool whether the yes votes meets the set basis"
        }
      },
      "meetsQuorum(uint256,uint256,uint256)": {
        "params": {
          "_abstainVotes": "number of votes abstaining",
          "_totalSupply": "the total supply of tokens",
          "_yesVotes": "number of votes in favor"
        },
        "returns": {
          "_0": "bool whether the total number of yes votes + abstain meets the quorum"
        }
      },
      "owner()": {
        "details": "Returns the address of the current owner."
      },
      "quorumVotes(uint32)": {
        "params": {
          "_proposalId": "The ID of the proposal to get quorum votes for"
        },
        "returns": {
          "_0": "uint256 The quantity of votes required to meet quorum"
        }
      },
      "renounceOwnership()": {
        "details": "Leaves the contract without owner. It will not be possible to call `onlyOwner` functions anymore. Can only be called by the current owner. NOTE: Renouncing ownership will leave the contract without an owner, thereby removing any functionality that is only available to the owner."
      },
      "setAzorius(address)": {
        "params": {
          "_azoriusModule": "address of the Azorius Safe module"
        }
      },
      "setUp(bytes)": {
        "params": {
          "initializeParams": "encoded initialization parameters: `address _owner`, `ERC20Votes _governanceToken`, `address _azoriusModule`, `uint32 _votingPeriod`, `uint256 _quorumNumerator`, `uint256 _basisNumerator`"
        }
      },
      "transferOwnership(address)": {
        "details": "Transfers ownership of the contract to a new account (`newOwner`). Can only be called by the current owner."
      },
      "updateBasisNumerator(uint256)": {
        "params": {
          "_basisNumerator": "numerator to use"
        }
      },
      "updateQuorumNumerator(uint256)": {
        "params": {
          "_quorumNumerator": "numerator to use when calculating quorum (over 1,000,000)"
        }
      },
      "updateRequiredProposerWeight(uint256)": {
        "params": {
          "_requiredProposerWeight": "required token voting weight"
        }
      },
      "updateVotingPeriod(uint32)": {
        "params": {
          "_votingPeriod": "voting time period (in blocks)"
        }
      },
      "vote(uint32,uint8)": {
        "params": {
          "_proposalId": "id of the Proposal to vote on",
          "_voteType": "Proposal support as defined in VoteType (NO, YES, ABSTAIN)"
        }
      },
      "votingEndBlock(uint32)": {
        "params": {
          "_proposalId": "proposalId to check"
        },
        "returns": {
          "_0": "uint32 block number when voting ends on the Proposal"
        }
      }
    },
    "version": 1
  },
  "userdoc": {
    "errors": {
      "InvalidQuorumNumerator()": [
        {
          "notice": "Ensures the numerator cannot be larger than the denominator. "
        }
      ]
    },
    "kind": "user",
    "methods": {
      "BASIS_DENOMINATOR()": {
        "notice": "The denominator to use when calculating basis (1,000,000). "
      },
      "QUORUM_DENOMINATOR()": {
        "notice": "The denominator to use when calculating quorum (1,000,000). "
      },
      "basisNumerator()": {
        "notice": "The numerator to use when calculating basis (adjustable). "
      },
      "getProposalVotes(uint32)": {
        "notice": "Returns the current state of the specified Proposal."
      },
      "getProposalVotingSupply(uint32)": {
        "notice": "Returns a snapshot of total voting supply for a given Proposal.  Because token supplies can change, it is necessary to calculate quorum from the supply available at the time of the Proposal's creation, not when it is being voted on passes / fails."
      },
      "getVotingWeight(address,uint32)": {
        "notice": "Calculates the voting weight an address has for a specific Proposal."
      },
      "hasVoted(uint32,address)": {
        "notice": "Returns whether an address has voted on the specified Proposal."
      },
      "initializeProposal(bytes)": {
        "notice": "Called by the [Azorius](../Azorius.md) module. This notifies this  [BaseStrategy](../BaseStrategy.md) that a new Proposal has been created."
      },
      "isPassed(uint32)": {
        "notice": "Returns whether a Proposal has been passed."
      },
      "isProposer(address)": {
        "notice": "Returns whether the specified address can submit a Proposal with this [BaseStrategy](../BaseStrategy.md). This allows a BaseStrategy to place any limits it would like on who can create new Proposals, such as requiring a minimum token delegation."
      },
      "meetsBasis(uint256,uint256)": {
        "notice": "Calculates whether a vote meets its basis."
      },
      "meetsQuorum(uint256,uint256,uint256)": {
        "notice": "Calculates whether a vote meets quorum. This is calculated based on yes votes + abstain votes."
      },
      "quorumNumerator()": {
        "notice": "The numerator to use when calculating quorum (adjustable). "
      },
      "quorumVotes(uint32)": {
        "notice": "Calculates the total number of votes required for a proposal to meet quorum. "
      },
      "requiredProposerWeight()": {
        "notice": "Voting weight required to be able to submit Proposals. "
      },
      "setAzorius(address)": {
        "notice": "Sets the address of the [Azorius](../Azorius.md) contract this  [BaseStrategy](../BaseStrategy.md) is being used on."
      },
      "setUp(bytes)": {
        "notice": "Sets up the contract with its initial parameters."
      },
      "updateBasisNumerator(uint256)": {
        "notice": "Updates the `basisNumerator` for future Proposals."
      },
      "updateQuorumNumerator(uint256)": {
        "notice": "Updates the quorum required for future Proposals."
      },
      "updateRequiredProposerWeight(uint256)": {
        "notice": "Updates the voting weight required to submit new Proposals."
      },
      "updateVotingPeriod(uint32)": {
        "notice": "Updates the voting time period for new Proposals."
      },
      "vote(uint32,uint8)": {
        "notice": "Casts votes for a Proposal, equal to the caller's token delegation."
      },
      "votingEndBlock(uint32)": {
        "notice": "Returns the block number voting ends on a given Proposal."
      },
      "votingPeriod()": {
        "notice": "Number of blocks a new Proposal can be voted on. "
      }
    },
    "notice": "An [Azorius](./Azorius.md) [BaseStrategy](./BaseStrategy.md) implementation that  enables linear (i.e. 1 to 1) token voting. Each token delegated to a given address  in an `ERC20Votes` token equals 1 vote for a Proposal.",
    "version": 1
  },
  "storageLayout": {
    "storage": [
      {
        "astId": 3006,
        "contract": "contracts/azorius/LinearERC20Voting.sol:LinearERC20Voting",
        "label": "_initialized",
        "offset": 0,
        "slot": "0",
        "type": "t_uint8"
      },
      {
        "astId": 3009,
        "contract": "contracts/azorius/LinearERC20Voting.sol:LinearERC20Voting",
        "label": "_initializing",
        "offset": 1,
        "slot": "0",
        "type": "t_bool"
      },
      {
        "astId": 5908,
        "contract": "contracts/azorius/LinearERC20Voting.sol:LinearERC20Voting",
        "label": "__gap",
        "offset": 0,
        "slot": "1",
        "type": "t_array(t_uint256)50_storage"
      },
      {
        "astId": 2800,
        "contract": "contracts/azorius/LinearERC20Voting.sol:LinearERC20Voting",
        "label": "_owner",
        "offset": 0,
        "slot": "51",
        "type": "t_address"
      },
      {
        "astId": 2920,
        "contract": "contracts/azorius/LinearERC20Voting.sol:LinearERC20Voting",
        "label": "__gap",
        "offset": 0,
        "slot": "52",
        "type": "t_array(t_uint256)49_storage"
      },
      {
        "astId": 15331,
        "contract": "contracts/azorius/LinearERC20Voting.sol:LinearERC20Voting",
        "label": "azoriusModule",
        "offset": 0,
        "slot": "101",
        "type": "t_contract(IAzorius)17377"
      },
      {
        "astId": 15220,
        "contract": "contracts/azorius/LinearERC20Voting.sol:LinearERC20Voting",
        "label": "quorumNumerator",
        "offset": 0,
        "slot": "102",
        "type": "t_uint256"
      },
      {
        "astId": 15431,
        "contract": "contracts/azorius/LinearERC20Voting.sol:LinearERC20Voting",
        "label": "basisNumerator",
        "offset": 0,
        "slot": "103",
        "type": "t_uint256"
      },
      {
        "astId": 15545,
        "contract": "contracts/azorius/LinearERC20Voting.sol:LinearERC20Voting",
        "label": "governanceToken",
        "offset": 0,
        "slot": "104",
        "type": "t_contract(IVotes)9180"
      },
      {
        "astId": 15548,
        "contract": "contracts/azorius/LinearERC20Voting.sol:LinearERC20Voting",
        "label": "votingPeriod",
        "offset": 20,
        "slot": "104",
        "type": "t_uint32"
      },
      {
        "astId": 15551,
        "contract": "contracts/azorius/LinearERC20Voting.sol:LinearERC20Voting",
        "label": "requiredProposerWeight",
        "offset": 0,
        "slot": "105",
        "type": "t_uint256"
      },
      {
        "astId": 15557,
        "contract": "contracts/azorius/LinearERC20Voting.sol:LinearERC20Voting",
        "label": "proposalVotes",
        "offset": 0,
        "slot": "106",
        "type": "t_mapping(t_uint256,t_struct(ProposalVotes)15542_storage)"
      }
    ],
    "types": {
      "t_address": {
        "encoding": "inplace",
        "label": "address",
        "numberOfBytes": "20"
      },
      "t_array(t_uint256)49_storage": {
        "base": "t_uint256",
        "encoding": "inplace",
        "label": "uint256[49]",
        "numberOfBytes": "1568"
      },
      "t_array(t_uint256)50_storage": {
        "base": "t_uint256",
        "encoding": "inplace",
        "label": "uint256[50]",
        "numberOfBytes": "1600"
      },
      "t_bool": {
        "encoding": "inplace",
        "label": "bool",
        "numberOfBytes": "1"
      },
      "t_contract(IAzorius)17377": {
        "encoding": "inplace",
        "label": "contract IAzorius",
        "numberOfBytes": "20"
      },
      "t_contract(IVotes)9180": {
        "encoding": "inplace",
        "label": "contract IVotes",
        "numberOfBytes": "20"
      },
      "t_mapping(t_address,t_bool)": {
        "encoding": "mapping",
        "key": "t_address",
        "label": "mapping(address => bool)",
        "numberOfBytes": "32",
        "value": "t_bool"
      },
      "t_mapping(t_uint256,t_struct(ProposalVotes)15542_storage)": {
        "encoding": "mapping",
        "key": "t_uint256",
        "label": "mapping(uint256 => struct LinearERC20Voting.ProposalVotes)",
        "numberOfBytes": "32",
        "value": "t_struct(ProposalVotes)15542_storage"
      },
      "t_struct(ProposalVotes)15542_storage": {
        "encoding": "inplace",
        "label": "struct LinearERC20Voting.ProposalVotes",
        "members": [
          {
            "astId": 15529,
            "contract": "contracts/azorius/LinearERC20Voting.sol:LinearERC20Voting",
            "label": "votingStartBlock",
            "offset": 0,
            "slot": "0",
            "type": "t_uint32"
          },
          {
            "astId": 15531,
            "contract": "contracts/azorius/LinearERC20Voting.sol:LinearERC20Voting",
            "label": "votingEndBlock",
            "offset": 4,
            "slot": "0",
            "type": "t_uint32"
          },
          {
            "astId": 15533,
            "contract": "contracts/azorius/LinearERC20Voting.sol:LinearERC20Voting",
            "label": "noVotes",
            "offset": 0,
            "slot": "1",
            "type": "t_uint256"
          },
          {
            "astId": 15535,
            "contract": "contracts/azorius/LinearERC20Voting.sol:LinearERC20Voting",
            "label": "yesVotes",
            "offset": 0,
            "slot": "2",
            "type": "t_uint256"
          },
          {
            "astId": 15537,
            "contract": "contracts/azorius/LinearERC20Voting.sol:LinearERC20Voting",
            "label": "abstainVotes",
            "offset": 0,
            "slot": "3",
            "type": "t_uint256"
          },
          {
            "astId": 15541,
            "contract": "contracts/azorius/LinearERC20Voting.sol:LinearERC20Voting",
            "label": "hasVoted",
            "offset": 0,
            "slot": "4",
            "type": "t_mapping(t_address,t_bool)"
          }
        ],
        "numberOfBytes": "160"
      },
      "t_uint256": {
        "encoding": "inplace",
        "label": "uint256",
        "numberOfBytes": "32"
      },
      "t_uint32": {
        "encoding": "inplace",
        "label": "uint32",
        "numberOfBytes": "4"
      },
      "t_uint8": {
        "encoding": "inplace",
        "label": "uint8",
        "numberOfBytes": "1"
      }
    }
  }
}