{
  "address": "0x00b089E0A6fdE24cf8978994c7BcD24fc1D79825",
  "abi": [
    {
      "inputs": [],
      "name": "NAME",
      "outputs": [
        {
          "internalType": "string",
          "name": "",
          "type": "string"
        }
      ],
      "stateMutability": "view",
      "type": "function"
    },
    {
      "inputs": [
        {
          "components": [
            {
              "internalType": "contract IHats",
              "name": "hatsProtocol",
              "type": "address"
            },
            {
              "internalType": "address",
              "name": "hatsAccountImplementation",
              "type": "address"
            },
            {
              "internalType": "contract IERC6551Registry",
              "name": "registry",
              "type": "address"
            },
            {
              "internalType": "address",
              "name": "keyValuePairs",
              "type": "address"
            },
            {
              "internalType": "string",
              "name": "topHatDetails",
              "type": "string"
            },
            {
              "internalType": "string",
              "name": "topHatImageURI",
              "type": "string"
            },
            {
              "components": [
                {
                  "internalType": "uint32",
                  "name": "maxSupply",
                  "type": "uint32"
                },
                {
                  "internalType": "string",
                  "name": "details",
                  "type": "string"
                },
                {
                  "internalType": "string",
                  "name": "imageURI",
                  "type": "string"
                },
                {
                  "internalType": "bool",
                  "name": "isMutable",
                  "type": "bool"
                },
                {
                  "internalType": "address",
                  "name": "wearer",
                  "type": "address"
                }
              ],
              "internalType": "struct DecentHats_0_1_0.Hat",
              "name": "adminHat",
              "type": "tuple"
            },
            {
              "components": [
                {
                  "internalType": "uint32",
                  "name": "maxSupply",
                  "type": "uint32"
                },
                {
                  "internalType": "string",
                  "name": "details",
                  "type": "string"
                },
                {
                  "internalType": "string",
                  "name": "imageURI",
                  "type": "string"
                },
                {
                  "internalType": "bool",
                  "name": "isMutable",
                  "type": "bool"
                },
                {
                  "internalType": "address",
                  "name": "wearer",
                  "type": "address"
                }
              ],
              "internalType": "struct DecentHats_0_1_0.Hat[]",
              "name": "hats",
              "type": "tuple[]"
            }
          ],
          "internalType": "struct DecentHats_0_1_0.CreateTreeParams",
          "name": "params",
          "type": "tuple"
        }
      ],
      "name": "createAndDeclareTree",
      "outputs": [],
      "stateMutability": "nonpayable",
      "type": "function"
    }
  ],
  "transactionHash": "0xfbda17788d3c9cabb36554434e15de11550808248c0ce91e46d99562d54e5fa9",
  "args": [],
  "numDeployments": 1,
  "solcInputHash": "88a7dc38a4aa54f89c0bd740dfe90545",
  "bytecode": "0x608060405234801561001057600080fd5b50610e63806100206000396000f3fe608060405234801561001057600080fd5b50600436106100365760003560e01c8063a3f4df7e1461003b578063c1bce50714610080575b600080fd5b61006a6040518060400160405280601081526020016f0446563656e74486174735f305f315f360841b81525081565b60405161007791906108a5565b60405180910390f35b61009361008e3660046108bf565b610095565b005b600061009f61029d565b9050600061013c6100b36020850185610913565b6100c06080860186610930565b8080601f0160208091040260200160405190810160405280939291908181526020018383808284376000920191909152506101029250505060a0870187610930565b8080601f01602080910402602001604051908101604052809392919081815260200183838082843760009201919091525061030192505050565b905060006101776101536060860160408701610913565b6101636040870160208801610913565b856101716020890189610913565b8661037f565b905061019261018c6080860160608701610913565b83610415565b60006101d96101a46020870187610913565b846101b260c089018961098e565b856101c360608b0160408c01610913565b6101d360408c0160208d01610913565b8a610595565b5090506102216101ec6020870187610913565b6101fc6060880160408901610913565b61020c6040890160208a01610913565b87868661021c60e08d018d6109ae565b61067b565b61022e6020860186610913565b6040516329287c1b60e21b8152600481018590523060248201523360448201526001600160a01b03919091169063a4a1f06c90606401600060405180830381600087803b15801561027e57600080fd5b505af1158015610292573d6000803e3d6000fd5b505050505050505050565b60008046905060006040518060400160405280601081526020016f0446563656e74486174735f305f315f360841b81525082306040516020016102e2939291906109f8565b60408051601f1981840301815291905280516020909101209392505050565b604051631a64dfad60e01b81526000906001600160a01b03851690631a64dfad9061033490309087908790600401610a31565b6020604051808303816000875af1158015610353573d6000803e3d6000fd5b505050506040513d601f19601f820116820180604052508101906103779190610a67565b949350505050565b604051638a54c52f60e01b81526001600160a01b0385811660048301526024820185905246604483015283811660648301526084820183905260009190871690638a54c52f9060a4016020604051808303816000875af11580156103e7573d6000803e3d6000fd5b505050506040513d601f19601f8201168201806040525081019061040b9190610a80565b9695505050505050565b604080516001808252818301909252600091816020015b606081526020019060019003908161042c57505060408051600180825281830190925291925060009190602082015b606081526020019060019003908161045b579050509050604051806040016040528060088152602001671d1bdc12185d125960c21b815250826000815181106104a6576104a6610ab3565b60200260200101819052506104ba836106c2565b816000815181106104cd576104cd610ab3565b6020026020010181905250336001600160a01b031663468721a785600085856040516024016104fd929190610b1e565b60408051601f198184030181529181526020820180516001600160e01b031663579374b960e11b1790525160e085901b6001600160e01b031916815261054b93929190600090600401610b43565b6020604051808303816000875af115801561056a573d6000803e3d6000fd5b505050506040513d601f19601f8201168201806040525081019061058e9190610ba7565b5050505050565b6000806105ac89896105a68a610c85565b896107c3565b91506105bb8585858c8661037f565b905060006105cf60a0890160808a01610913565b6001600160a01b03161461066f576001600160a01b03891663641f776e836105fd60a08b0160808c01610913565b6040516001600160e01b031960e085901b16815260048101929092526001600160a01b031660248201526044016020604051808303816000875af1158015610649573d6000803e3d6000fd5b505050506040513d601f19601f8201168201806040525081019061066d9190610ba7565b505b97509795505050505050565b60005b81811015610292576106b8898585858581811061069d5761069d610ab3565b90506020028101906106af919061098e565b888c8c8c610595565b505060010161067e565b6060816000036106e95750506040805180820190915260018152600360fc1b602082015290565b8160005b811561071357806106fd81610d46565b915061070c9050600a83610d75565b91506106ed565b60008167ffffffffffffffff81111561072e5761072e610a9d565b6040519080825280601f01601f191660200182016040528015610758576020820181803683370190505b5090505b84156103775761076d600183610d89565b915061077a600a86610da2565b610785906030610db6565b60f81b81838151811061079a5761079a610ab3565b60200101906001600160f81b031916908160001a9053506107bc600a86610d75565b945061075c565b6020820151825160608401516040808601519051635829492f60e11b81526000946001600160a01b038a169463b052925e94610809948b948a9283929091600401610dc9565b6020604051808303816000875af1158015610828573d6000803e3d6000fd5b505050506040513d601f19601f8201168201806040525081019061084c9190610a67565b95945050505050565b60005b83811015610870578181015183820152602001610858565b50506000910152565b60008151808452610891816020860160208601610855565b601f01601f19169290920160200192915050565b6020815260006108b86020830184610879565b9392505050565b6000602082840312156108d157600080fd5b813567ffffffffffffffff8111156108e857600080fd5b820161010081850312156108b857600080fd5b6001600160a01b038116811461091057600080fd5b50565b60006020828403121561092557600080fd5b81356108b8816108fb565b6000808335601e1984360301811261094757600080fd5b83018035915067ffffffffffffffff82111561096257600080fd5b60200191503681900382131561097757600080fd5b9250929050565b8035610989816108fb565b919050565b60008235609e198336030181126109a457600080fd5b9190910192915050565b6000808335601e198436030181126109c557600080fd5b83018035915067ffffffffffffffff8211156109e057600080fd5b6020019150600581901b360382131561097757600080fd5b60008451610a0a818460208901610855565b919091019283525060601b6bffffffffffffffffffffffff19166020820152603401919050565b6001600160a01b0384168152606060208201819052600090610a5590830185610879565b828103604084015261040b8185610879565b600060208284031215610a7957600080fd5b5051919050565b600060208284031215610a9257600080fd5b81516108b8816108fb565b634e487b7160e01b600052604160045260246000fd5b634e487b7160e01b600052603260045260246000fd5b600081518084526020808501808196508360051b8101915082860160005b85811015610b11578284038952610aff848351610879565b98850198935090840190600101610ae7565b5091979650505050505050565b604081526000610b316040830185610ac9565b828103602084015261084c8185610ac9565b60018060a01b0385168152836020820152608060408201526000610b6a6080830185610879565b905060028310610b8a57634e487b7160e01b600052602160045260246000fd5b82606083015295945050505050565b801515811461091057600080fd5b600060208284031215610bb957600080fd5b81516108b881610b99565b60405160a0810167ffffffffffffffff81118282101715610be757610be7610a9d565b60405290565b600082601f830112610bfe57600080fd5b813567ffffffffffffffff80821115610c1957610c19610a9d565b604051601f8301601f19908116603f01168101908282118183101715610c4157610c41610a9d565b81604052838152866020858801011115610c5a57600080fd5b836020870160208301376000602085830101528094505050505092915050565b803561098981610b99565b600060a08236031215610c9757600080fd5b610c9f610bc4565b823563ffffffff81168114610cb357600080fd5b8152602083013567ffffffffffffffff80821115610cd057600080fd5b610cdc36838701610bed565b60208401526040850135915080821115610cf557600080fd5b50610d0236828601610bed565b604083015250610d1460608401610c7a565b6060820152610d256080840161097e565b608082015292915050565b634e487b7160e01b600052601160045260246000fd5b600060018201610d5857610d58610d30565b5060010190565b634e487b7160e01b600052601260045260246000fd5b600082610d8457610d84610d5f565b500490565b81810381811115610d9c57610d9c610d30565b92915050565b600082610db157610db1610d5f565b500690565b80820180821115610d9c57610d9c610d30565b87815260e060208201526000610de260e0830189610879565b63ffffffff881660408401526001600160a01b0387811660608501528616608084015284151560a084015282810360c0840152610e1f8185610879565b9a995050505050505050505056fea264697066735822122040470770e7f603d20cdea8118401756a0349e1cdc776519095ccf844ef03c2cd64736f6c63430008130033",
  "devdoc": {
    "kind": "dev",
    "methods": {},
    "version": 1
  },
  "userdoc": {
    "kind": "user",
    "methods": {},
    "version": 1
  },
  "storageLayout": {
    "storage": [],
    "types": null
  }
}