{
  "address": "0x75411F04c58C84daBDdEADE7cF6E1c1F40d4B611",
  "abi": [
    {
      "inputs": [
        {
          "internalType": "uint256",
          "name": "tokenId",
          "type": "uint256"
        }
      ],
      "name": "IdAlreadyVoted",
      "type": "error"
    },
    {
      "inputs": [
        {
          "internalType": "uint256",
          "name": "tokenId",
          "type": "uint256"
        }
      ],
      "name": "IdNotOwned",
      "type": "error"
    },
    {
      "inputs": [],
      "name": "InvalidBasisNumerator",
      "type": "error"
    },
    {
      "inputs": [],
      "name": "InvalidParams",
      "type": "error"
    },
    {
      "inputs": [],
      "name": "InvalidProposal",
      "type": "error"
    },
    {
      "inputs": [],
      "name": "InvalidTokenAddress",
      "type": "error"
    },
    {
      "inputs": [],
      "name": "InvalidVote",
      "type": "error"
    },
    {
      "inputs": [],
      "name": "NoVotingWeight",
      "type": "error"
    },
    {
      "inputs": [],
      "name": "OnlyAzorius",
      "type": "error"
    },
    {
      "inputs": [],
      "name": "TokenAlreadySet",
      "type": "error"
    },
    {
      "inputs": [],
      "name": "TokenNotSet",
      "type": "error"
    },
    {
      "inputs": [],
      "name": "VotingEnded",
      "type": "error"
    },
    {
      "anonymous": false,
      "inputs": [
        {
          "indexed": true,
          "internalType": "address",
          "name": "azoriusModule",
          "type": "address"
        }
      ],
      "name": "AzoriusSet",
      "type": "event"
    },
    {
      "anonymous": false,
      "inputs": [
        {
          "indexed": false,
          "internalType": "uint256",
          "name": "basisNumerator",
          "type": "uint256"
        }
      ],
      "name": "BasisNumeratorUpdated",
      "type": "event"
    },
    {
      "anonymous": false,
      "inputs": [
        {
          "indexed": false,
          "internalType": "address",
          "name": "token",
          "type": "address"
        },
        {
          "indexed": false,
          "internalType": "uint256",
          "name": "weight",
          "type": "uint256"
        }
      ],
      "name": "GovernanceTokenAdded",
      "type": "event"
    },
    {
      "anonymous": false,
      "inputs": [
        {
          "indexed": false,
          "internalType": "address",
          "name": "token",
          "type": "address"
        }
      ],
      "name": "GovernanceTokenRemoved",
      "type": "event"
    },
    {
      "anonymous": false,
      "inputs": [
        {
          "indexed": false,
          "internalType": "uint8",
          "name": "version",
          "type": "uint8"
        }
      ],
      "name": "Initialized",
      "type": "event"
    },
    {
      "anonymous": false,
      "inputs": [
        {
          "indexed": true,
          "internalType": "address",
          "name": "previousOwner",
          "type": "address"
        },
        {
          "indexed": true,
          "internalType": "address",
          "name": "newOwner",
          "type": "address"
        }
      ],
      "name": "OwnershipTransferred",
      "type": "event"
    },
    {
      "anonymous": false,
      "inputs": [
        {
          "indexed": false,
          "internalType": "uint32",
          "name": "proposalId",
          "type": "uint32"
        },
        {
          "indexed": false,
          "internalType": "uint32",
          "name": "votingEndBlock",
          "type": "uint32"
        }
      ],
      "name": "ProposalInitialized",
      "type": "event"
    },
    {
      "anonymous": false,
      "inputs": [
        {
          "indexed": false,
          "internalType": "uint256",
          "name": "proposerThreshold",
          "type": "uint256"
        }
      ],
      "name": "ProposerThresholdUpdated",
      "type": "event"
    },
    {
      "anonymous": false,
      "inputs": [
        {
          "indexed": false,
          "internalType": "uint256",
          "name": "quorumThreshold",
          "type": "uint256"
        }
      ],
      "name": "QuorumThresholdUpdated",
      "type": "event"
    },
    {
      "anonymous": false,
      "inputs": [
        {
          "indexed": true,
          "internalType": "address",
          "name": "azoriusModule",
          "type": "address"
        },
        {
          "indexed": true,
          "internalType": "address",
          "name": "owner",
          "type": "address"
        }
      ],
      "name": "StrategySetUp",
      "type": "event"
    },
    {
      "anonymous": false,
      "inputs": [
        {
          "indexed": false,
          "internalType": "address",
          "name": "voter",
          "type": "address"
        },
        {
          "indexed": false,
          "internalType": "uint32",
          "name": "proposalId",
          "type": "uint32"
        },
        {
          "indexed": false,
          "internalType": "uint8",
          "name": "voteType",
          "type": "uint8"
        },
        {
          "indexed": false,
          "internalType": "address[]",
          "name": "tokenAddresses",
          "type": "address[]"
        },
        {
          "indexed": false,
          "internalType": "uint256[]",
          "name": "tokenIds",
          "type": "uint256[]"
        }
      ],
      "name": "Voted",
      "type": "event"
    },
    {
      "anonymous": false,
      "inputs": [
        {
          "indexed": false,
          "internalType": "uint32",
          "name": "votingPeriod",
          "type": "uint32"
        }
      ],
      "name": "VotingPeriodUpdated",
      "type": "event"
    },
    {
      "inputs": [],
      "name": "BASIS_DENOMINATOR",
      "outputs": [
        {
          "internalType": "uint256",
          "name": "",
          "type": "uint256"
        }
      ],
      "stateMutability": "view",
      "type": "function"
    },
    {
      "inputs": [
        {
          "internalType": "address",
          "name": "_tokenAddress",
          "type": "address"
        },
        {
          "internalType": "uint256",
          "name": "_weight",
          "type": "uint256"
        }
      ],
      "name": "addGovernanceToken",
      "outputs": [],
      "stateMutability": "nonpayable",
      "type": "function"
    },
    {
      "inputs": [],
      "name": "azoriusModule",
      "outputs": [
        {
          "internalType": "contract IAzorius",
          "name": "",
          "type": "address"
        }
      ],
      "stateMutability": "view",
      "type": "function"
    },
    {
      "inputs": [],
      "name": "basisNumerator",
      "outputs": [
        {
          "internalType": "uint256",
          "name": "",
          "type": "uint256"
        }
      ],
      "stateMutability": "view",
      "type": "function"
    },
    {
      "inputs": [],
      "name": "getAllTokenAddresses",
      "outputs": [
        {
          "internalType": "address[]",
          "name": "",
          "type": "address[]"
        }
      ],
      "stateMutability": "view",
      "type": "function"
    },
    {
      "inputs": [
        {
          "internalType": "uint32",
          "name": "_proposalId",
          "type": "uint32"
        }
      ],
      "name": "getProposalVotes",
      "outputs": [
        {
          "internalType": "uint256",
          "name": "noVotes",
          "type": "uint256"
        },
        {
          "internalType": "uint256",
          "name": "yesVotes",
          "type": "uint256"
        },
        {
          "internalType": "uint256",
          "name": "abstainVotes",
          "type": "uint256"
        },
        {
          "internalType": "uint32",
          "name": "startBlock",
          "type": "uint32"
        },
        {
          "internalType": "uint32",
          "name": "endBlock",
          "type": "uint32"
        }
      ],
      "stateMutability": "view",
      "type": "function"
    },
    {
      "inputs": [
        {
          "internalType": "address",
          "name": "_tokenAddress",
          "type": "address"
        }
      ],
      "name": "getTokenWeight",
      "outputs": [
        {
          "internalType": "uint256",
          "name": "",
          "type": "uint256"
        }
      ],
      "stateMutability": "view",
      "type": "function"
    },
    {
      "inputs": [
        {
          "internalType": "uint32",
          "name": "_proposalId",
          "type": "uint32"
        },
        {
          "internalType": "address",
          "name": "_tokenAddress",
          "type": "address"
        },
        {
          "internalType": "uint256",
          "name": "_tokenId",
          "type": "uint256"
        }
      ],
      "name": "hasVoted",
      "outputs": [
        {
          "internalType": "bool",
          "name": "",
          "type": "bool"
        }
      ],
      "stateMutability": "view",
      "type": "function"
    },
    {
      "inputs": [
        {
          "internalType": "bytes",
          "name": "_data",
          "type": "bytes"
        }
      ],
      "name": "initializeProposal",
      "outputs": [],
      "stateMutability": "nonpayable",
      "type": "function"
    },
    {
      "inputs": [
        {
          "internalType": "uint32",
          "name": "_proposalId",
          "type": "uint32"
        }
      ],
      "name": "isPassed",
      "outputs": [
        {
          "internalType": "bool",
          "name": "",
          "type": "bool"
        }
      ],
      "stateMutability": "view",
      "type": "function"
    },
    {
      "inputs": [
        {
          "internalType": "address",
          "name": "_address",
          "type": "address"
        }
      ],
      "name": "isProposer",
      "outputs": [
        {
          "internalType": "bool",
          "name": "",
          "type": "bool"
        }
      ],
      "stateMutability": "view",
      "type": "function"
    },
    {
      "inputs": [
        {
          "internalType": "uint256",
          "name": "_yesVotes",
          "type": "uint256"
        },
        {
          "internalType": "uint256",
          "name": "_noVotes",
          "type": "uint256"
        }
      ],
      "name": "meetsBasis",
      "outputs": [
        {
          "internalType": "bool",
          "name": "",
          "type": "bool"
        }
      ],
      "stateMutability": "view",
      "type": "function"
    },
    {
      "inputs": [],
      "name": "owner",
      "outputs": [
        {
          "internalType": "address",
          "name": "",
          "type": "address"
        }
      ],
      "stateMutability": "view",
      "type": "function"
    },
    {
      "inputs": [
        {
          "internalType": "uint256",
          "name": "",
          "type": "uint256"
        }
      ],
      "name": "proposalVotes",
      "outputs": [
        {
          "internalType": "uint32",
          "name": "votingStartBlock",
          "type": "uint32"
        },
        {
          "internalType": "uint32",
          "name": "votingEndBlock",
          "type": "uint32"
        },
        {
          "internalType": "uint256",
          "name": "noVotes",
          "type": "uint256"
        },
        {
          "internalType": "uint256",
          "name": "yesVotes",
          "type": "uint256"
        },
        {
          "internalType": "uint256",
          "name": "abstainVotes",
          "type": "uint256"
        }
      ],
      "stateMutability": "view",
      "type": "function"
    },
    {
      "inputs": [],
      "name": "proposerThreshold",
      "outputs": [
        {
          "internalType": "uint256",
          "name": "",
          "type": "uint256"
        }
      ],
      "stateMutability": "view",
      "type": "function"
    },
    {
      "inputs": [],
      "name": "quorumThreshold",
      "outputs": [
        {
          "internalType": "uint256",
          "name": "",
          "type": "uint256"
        }
      ],
      "stateMutability": "view",
      "type": "function"
    },
    {
      "inputs": [
        {
          "internalType": "address",
          "name": "_tokenAddress",
          "type": "address"
        }
      ],
      "name": "removeGovernanceToken",
      "outputs": [],
      "stateMutability": "nonpayable",
      "type": "function"
    },
    {
      "inputs": [],
      "name": "renounceOwnership",
      "outputs": [],
      "stateMutability": "nonpayable",
      "type": "function"
    },
    {
      "inputs": [
        {
          "internalType": "address",
          "name": "_azoriusModule",
          "type": "address"
        }
      ],
      "name": "setAzorius",
      "outputs": [],
      "stateMutability": "nonpayable",
      "type": "function"
    },
    {
      "inputs": [
        {
          "internalType": "bytes",
          "name": "initializeParams",
          "type": "bytes"
        }
      ],
      "name": "setUp",
      "outputs": [],
      "stateMutability": "nonpayable",
      "type": "function"
    },
    {
      "inputs": [
        {
          "internalType": "uint256",
          "name": "",
          "type": "uint256"
        }
      ],
      "name": "tokenAddresses",
      "outputs": [
        {
          "internalType": "address",
          "name": "",
          "type": "address"
        }
      ],
      "stateMutability": "view",
      "type": "function"
    },
    {
      "inputs": [
        {
          "internalType": "address",
          "name": "",
          "type": "address"
        }
      ],
      "name": "tokenWeights",
      "outputs": [
        {
          "internalType": "uint256",
          "name": "",
          "type": "uint256"
        }
      ],
      "stateMutability": "view",
      "type": "function"
    },
    {
      "inputs": [
        {
          "internalType": "address",
          "name": "newOwner",
          "type": "address"
        }
      ],
      "name": "transferOwnership",
      "outputs": [],
      "stateMutability": "nonpayable",
      "type": "function"
    },
    {
      "inputs": [
        {
          "internalType": "uint256",
          "name": "_basisNumerator",
          "type": "uint256"
        }
      ],
      "name": "updateBasisNumerator",
      "outputs": [],
      "stateMutability": "nonpayable",
      "type": "function"
    },
    {
      "inputs": [
        {
          "internalType": "uint256",
          "name": "_proposerThreshold",
          "type": "uint256"
        }
      ],
      "name": "updateProposerThreshold",
      "outputs": [],
      "stateMutability": "nonpayable",
      "type": "function"
    },
    {
      "inputs": [
        {
          "internalType": "uint256",
          "name": "_quorumThreshold",
          "type": "uint256"
        }
      ],
      "name": "updateQuorumThreshold",
      "outputs": [],
      "stateMutability": "nonpayable",
      "type": "function"
    },
    {
      "inputs": [
        {
          "internalType": "uint32",
          "name": "_votingPeriod",
          "type": "uint32"
        }
      ],
      "name": "updateVotingPeriod",
      "outputs": [],
      "stateMutability": "nonpayable",
      "type": "function"
    },
    {
      "inputs": [
        {
          "internalType": "uint32",
          "name": "_proposalId",
          "type": "uint32"
        },
        {
          "internalType": "uint8",
          "name": "_voteType",
          "type": "uint8"
        },
        {
          "internalType": "address[]",
          "name": "_tokenAddresses",
          "type": "address[]"
        },
        {
          "internalType": "uint256[]",
          "name": "_tokenIds",
          "type": "uint256[]"
        }
      ],
      "name": "vote",
      "outputs": [],
      "stateMutability": "nonpayable",
      "type": "function"
    },
    {
      "inputs": [
        {
          "internalType": "uint32",
          "name": "_proposalId",
          "type": "uint32"
        }
      ],
      "name": "votingEndBlock",
      "outputs": [
        {
          "internalType": "uint32",
          "name": "",
          "type": "uint32"
        }
      ],
      "stateMutability": "view",
      "type": "function"
    },
    {
      "inputs": [],
      "name": "votingPeriod",
      "outputs": [
        {
          "internalType": "uint32",
          "name": "",
          "type": "uint32"
        }
      ],
      "stateMutability": "view",
      "type": "function"
    }
  ],
  "transactionHash": "0x26197d9681924229db6c43c6be23e491ac2c0656df80ddd44d4c848f42db5624",
  "args": [],
  "numDeployments": 1,
  "solcInputHash": "b9aaf49bc543bb121023dbc5d703a0f7",
  "bytecode": "0x608060405234801561001057600080fd5b5061001961001e565b6100de565b600054610100900460ff161561008a5760405162461bcd60e51b815260206004820152602760248201527f496e697469616c697a61626c653a20636f6e747261637420697320696e697469604482015266616c697a696e6760c81b606482015260840160405180910390fd5b60005460ff90811610156100dc576000805460ff191660ff9081179091556040519081527f7f26b83ff96e1f2b6a682f133852f6798a09c465da95921460cefb38474024989060200160405180910390a15b565b611bdc806100ed6000396000f3fe608060405234801561001057600080fd5b50600436106101da5760003560e01c80638081be9111610104578063bf7e2c7f116100a2578063deb61c1511610071578063deb61c15146104c6578063e5df8b841461053f578063e8575a7f14610552578063f2fde38b1461056557600080fd5b8063bf7e2c7f14610454578063c0dce37f1461045d578063c909c3b114610470578063d877ee1d146104bd57600080fd5b8063a4f9edbf116100de578063a4f9edbf146103fb578063a77a81d01461040e578063ab2f3ad414610421578063b1d1196f1461044157600080fd5b80638081be91146103cd5780638da5cb5b146103d7578063918f84bf146103e857600080fd5b806353a8b3201161017c5780636d4ae6801161014b5780636d4ae68014610394578063715018a6146103a957806374ec29a0146103b15780637b7a91dd146103c457600080fd5b806353a8b320146102a1578063544ffc9c146102c457806355a9dbd91461033957806366b629551461036957600080fd5b8063250aa683116101b8578063250aa6831461023157806333f48a5e1461026857806337938ab31461027b5780634e2addad1461028e57600080fd5b806302a251a3146101df5780631dc4894714610209578063210a5e871461021e575b600080fd5b606a546101ef9063ffffffff1681565b60405163ffffffff90911681526020015b60405180910390f35b61021c61021736600461146e565b610578565b005b61021c61022c36600461146e565b61058c565b61025a61023f36600461149c565b6001600160a01b031660009081526069602052604090205490565b604051908152602001610200565b61021c6102763660046114d2565b61059d565b61021c61028936600461149c565b6105ae565b61021c61029c3660046115c5565b610600565b6102b46102af3660046114d2565b610635565b6040519015158152602001610200565b6103096102d236600461146e565b606760205260009081526040902080546001820154600283015460039093015463ffffffff80841694600160201b90940416929085565b6040805163ffffffff9687168152959094166020860152928401919091526060830152608082015260a001610200565b6101ef6103473660046114d2565b63ffffffff908116600090815260676020526040902054600160201b90041690565b60655461037c906001600160a01b031681565b6040516001600160a01b039091168152602001610200565b61039c6106c7565b60405161020091906116f8565b61021c610729565b6102b46103bf36600461149c565b61073d565b61025a606b5481565b61025a620f424081565b6033546001600160a01b031661037c565b6102b46103f636600461170b565b610818565b61021c61040936600461172d565b61084a565b61021c61041c36600461172d565b610a83565b61025a61042f36600461149c565b60696020526000908152604090205481565b61021c61044f3660046117c2565b610b62565b61025a60665481565b61021c61046b36600461149c565b610b74565b6102b461047e3660046117ee565b63ffffffff831660009081526067602090815260408083206001600160a01b0386168452600401825280832084845290915290205460ff169392505050565b61025a606c5481565b61050e6104d43660046114d2565b63ffffffff908116600090815260676020526040902060018101546002820154600383015492549194909382811692600160201b90041690565b6040805195865260208601949094529284019190915263ffffffff908116606084015216608082015260a001610200565b61037c61054d36600461146e565b610cfe565b61021c61056036600461146e565b610d28565b61021c61057336600461149c565b610d39565b610580610daf565b61058981610e09565b50565b610594610daf565b61058981610e45565b6105a5610daf565b61058981610e7a565b6105b6610daf565b606580546001600160a01b0319166001600160a01b0383169081179091556040517fac8d831a6ed53a98387842e08d9e0893c1d478f4a3710b254e22bd58c06b269090600090a250565b805182511461062257604051635435b28960e11b815260040160405180910390fd5b61062f8433858585610ec2565b50505050565b63ffffffff8082166000908152606760205260408120549091600160201b9091041643118015610690575063ffffffff82166000908152606760205260409020600381015460029091015461068a9190611845565b606b5411155b80156106c1575063ffffffff8216600090815260676020526040902060028101546001909101546106c19190610818565b92915050565b6060606880548060200260200160405190810160405280929190818152602001828054801561071f57602002820191906000526020600020905b81546001600160a01b03168152600190910190602001808311610701575b5050505050905090565b610731610daf565b61073b60006111d9565b565b600080805b60685481101561080c5760006068828154811061076157610761611858565b6000918252602080832091909101546001600160a01b0390811680845260699092526040928390205492516370a0823160e01b8152908816600482015290925082906370a0823190602401602060405180830381865afa1580156107c9573d6000803e3d6000fd5b505050506040513d601f19601f820116820180604052508101906107ed919061186e565b6107f79190611887565b6108019084611845565b925050600101610742565b50606c54111592915050565b6000620f4240606654838561082d9190611845565b6108379190611887565b610841919061189e565b90921192915050565b600054610100900460ff161580801561086a5750600054600160ff909116105b806108845750303b158015610884575060005460ff166001145b6108ec5760405162461bcd60e51b815260206004820152602e60248201527f496e697469616c697a61626c653a20636f6e747261637420697320616c72656160448201526d191e481a5b9a5d1a585b1a5e995960921b60648201526084015b60405180910390fd5b6000805460ff19166001179055801561090f576000805461ff0019166101001790555b6000806000806000806000808980602001905181019061092f9190611936565b97509750975097509750975097509750855187511461096157604051635435b28960e11b815260040160405180910390fd5b60005b87518110156109b1576109a988828151811061098257610982611858565b602002602001015188838151811061099c5761099c611858565b602002602001015161122b565b600101610964565b506109ba61139f565b6109c388610d39565b6109cc856105b6565b6109d583610e45565b6109de82610e09565b6109e7816113ce565b6109f084610e7a565b876001600160a01b0316856001600160a01b03167fca32f512f02914f6bc16a49e786443029061b9adc5a987fd2f6efa56c0116a1660405160405180910390a350505050505050508015610a7f576000805461ff0019169055604051600181527f7f26b83ff96e1f2b6a682f133852f6798a09c465da95921460cefb3847402498906020015b60405180910390a15b5050565b6065546001600160a01b03163314610aae576040516358c30ce160e01b815260040160405180910390fd5b600081806020019051810190610ac49190611a4e565b606a54909150600090610add9063ffffffff1643611a6b565b63ffffffff838116600081815260676020908152604091829020805467ffffffffffffffff1916600160201b87871690810263ffffffff1916919091174390961695909517905581519283528201929092529192507f80d0ad93bba25e53bf67fa9f2d13df59f04795ec2f91b9b3c1f607666daf9d64910160405180910390a1505050565b610b6a610daf565b610a7f828261122b565b610b7c610daf565b6001600160a01b0381166000908152606960205260408120549003610bb457604051634b62f01360e01b815260040160405180910390fd5b6001600160a01b0381166000908152606960205260408120819055606854905b81811015610cc45760688181548110610bef57610bef611858565b6000918252602090912001546001600160a01b0390811690841603610cbc576000610c1b600184611a8f565b905060688181548110610c3057610c30611858565b600091825260209091200154606880546001600160a01b039092169184908110610c5c57610c5c611858565b9060005260206000200160006101000a8154816001600160a01b0302191690836001600160a01b0316021790555060688181548110610c9d57610c9d611858565b600091825260209091200180546001600160a01b031916905550610cc4565b600101610bd4565b506040516001600160a01b03831681527f14236c39816f331325d02993fa15113b739aff01c21ab8f38cc5253205299fb190602001610a76565b60688181548110610d0e57600080fd5b6000918252602090912001546001600160a01b0316905081565b610d30610daf565b610589816113ce565b610d41610daf565b6001600160a01b038116610da65760405162461bcd60e51b815260206004820152602660248201527f4f776e61626c653a206e6577206f776e657220697320746865207a65726f206160448201526564647265737360d01b60648201526084016108e3565b610589816111d9565b6033546001600160a01b0316331461073b5760405162461bcd60e51b815260206004820181905260248201527f4f776e61626c653a2063616c6c6572206973206e6f7420746865206f776e657260448201526064016108e3565b606c8190556040518181527f48f79e03d92b3595f74bc3c64746cf148e464673dd036633d34f8afb029482c9906020015b60405180910390a150565b606b8190556040518181527fbc589fccf641d342b7853c2c6faca39631d4d19efbe77e71e5611e31678c220e90602001610e3a565b606a805463ffffffff191663ffffffff83169081179091556040519081527f70770ce479f70673c3ed8fff63cfb758a6ffdddc30cab7c63d54c8d825e3948890602001610e3a565b6000805b835181101561107e576000848281518110610ee357610ee3611858565b602002602001015190506000848381518110610f0157610f01611858565b60200260200101519050816001600160a01b0316636352211e826040518263ffffffff1660e01b8152600401610f3991815260200190565b602060405180830381865afa158015610f56573d6000803e3d6000fd5b505050506040513d601f19601f82011682018060405250810190610f7a9190611aa2565b6001600160a01b0316886001600160a01b031614610fae57604051639b936ae960e01b8152600481018290526024016108e3565b63ffffffff891660009081526067602090815260408083206001600160a01b0386168452600401825280832084845290915290205460ff16151560010361100b57604051639602f71160e01b8152600481018290526024016108e3565b6001600160a01b03821660009081526069602052604090205461102e9085611845565b63ffffffff8a1660009081526067602090815260408083206001600160a01b0390961683526004909501815284822093825292909252919020805460ff1916600190811790915590925001610ec6565b50806000036110a05760405163923d21f560e01b815260040160405180910390fd5b63ffffffff808716600090815260676020526040812080549092600160201b9091041690036110e257604051631dc0650160e31b815260040160405180910390fd5b8054600160201b900463ffffffff1643111561111157604051637a19ed0560e01b815260040160405180910390fd5b60ff8516611138578181600101600082825461112d9190611845565b909155506111919050565b60001960ff861601611158578181600201600082825461112d9190611845565b60011960ff861601611178578181600301600082825461112d9190611845565b604051636aee863360e11b815260040160405180910390fd5b7f08b8dec2438455807ba4dae88b27939d599858b97389310c0af8f42acd58d62086888787876040516111c8959493929190611abf565b60405180910390a150505050505050565b603380546001600160a01b038381166001600160a01b0319831681179093556040519116919082907f8be0079c531659141344cd1fd0a4f28419497f9722a3daafe3b4186f6b6457e090600090a35050565b6040516301ffc9a760e01b81526380ac58cd60e01b60048201526001600160a01b038316906301ffc9a790602401602060405180830381865afa158015611276573d6000803e3d6000fd5b505050506040513d601f19601f8201168201806040525081019061129a9190611b39565b6112b757604051630f58058360e11b815260040160405180910390fd5b806000036112d85760405163923d21f560e01b815260040160405180910390fd5b6001600160a01b0382166000908152606960205260409020541561130f576040516371168e4f60e11b815260040160405180910390fd5b60688054600181019091557fa2153420d844928b4421650203c77babc8b33d7f2e7b450e2966db0c220977530180546001600160a01b0319166001600160a01b038416908117909155600081815260696020908152604091829020849055815192835282018390527fbf2b7f9fc6e849fdef9ff7366d8b63b608bc69ca778200c53d77372d953dc6b69101610a76565b600054610100900460ff166113c65760405162461bcd60e51b81526004016108e390611b5b565b61073b61143e565b620f42408111806113eb57506113e86002620f424061189e565b81105b15611409576040516302396b6b60e61b815260040160405180910390fd5b60668190556040518181527f406c076eac4d3dde1c5d55793e80239daa8c60ee971390ce3d9f90ca4206295390602001610e3a565b600054610100900460ff166114655760405162461bcd60e51b81526004016108e390611b5b565b61073b336111d9565b60006020828403121561148057600080fd5b5035919050565b6001600160a01b038116811461058957600080fd5b6000602082840312156114ae57600080fd5b81356114b981611487565b9392505050565b63ffffffff8116811461058957600080fd5b6000602082840312156114e457600080fd5b81356114b9816114c0565b634e487b7160e01b600052604160045260246000fd5b604051601f8201601f1916810167ffffffffffffffff8111828210171561152e5761152e6114ef565b604052919050565b600067ffffffffffffffff821115611550576115506114ef565b5060051b60200190565b600082601f83011261156b57600080fd5b8135602061158061157b83611536565b611505565b82815260059290921b8401810191818101908684111561159f57600080fd5b8286015b848110156115ba57803583529183019183016115a3565b509695505050505050565b600080600080608085870312156115db57600080fd5b84356115e6816114c0565b935060208581013560ff811681146115fd57600080fd5b9350604086013567ffffffffffffffff8082111561161a57600080fd5b818801915088601f83011261162e57600080fd5b813561163c61157b82611536565b81815260059190911b8301840190848101908b83111561165b57600080fd5b938501935b8285101561168257843561167381611487565b82529385019390850190611660565b96505050606088013592508083111561169a57600080fd5b50506116a88782880161155a565b91505092959194509250565b600081518084526020808501945080840160005b838110156116ed5781516001600160a01b0316875295820195908201906001016116c8565b509495945050505050565b6020815260006114b960208301846116b4565b6000806040838503121561171e57600080fd5b50508035926020909101359150565b6000602080838503121561174057600080fd5b823567ffffffffffffffff8082111561175857600080fd5b818501915085601f83011261176c57600080fd5b81358181111561177e5761177e6114ef565b611790601f8201601f19168501611505565b915080825286848285010111156117a657600080fd5b8084840185840137600090820190930192909252509392505050565b600080604083850312156117d557600080fd5b82356117e081611487565b946020939093013593505050565b60008060006060848603121561180357600080fd5b833561180e816114c0565b9250602084013561181e81611487565b929592945050506040919091013590565b634e487b7160e01b600052601160045260246000fd5b808201808211156106c1576106c161182f565b634e487b7160e01b600052603260045260246000fd5b60006020828403121561188057600080fd5b5051919050565b80820281158282048414176106c1576106c161182f565b6000826118bb57634e487b7160e01b600052601260045260246000fd5b500490565b80516118cb81611487565b919050565b600082601f8301126118e157600080fd5b815160206118f161157b83611536565b82815260059290921b8401810191818101908684111561191057600080fd5b8286015b848110156115ba5780518352918301918301611914565b80516118cb816114c0565b600080600080600080600080610100898b03121561195357600080fd5b885161195e81611487565b809850506020808a015167ffffffffffffffff8082111561197e57600080fd5b818c0191508c601f83011261199257600080fd5b81516119a061157b82611536565b81815260059190911b8301840190848101908f8311156119bf57600080fd5b938501935b828510156119e65784516119d781611487565b825293850193908501906119c4565b60408f0151909c5094505050808311156119ff57600080fd5b5050611a0d8b828c016118d0565b965050611a1c60608a016118c0565b9450611a2a60808a0161192b565b935060a0890151925060c0890151915060e089015190509295985092959890939650565b600060208284031215611a6057600080fd5b81516114b9816114c0565b63ffffffff818116838216019080821115611a8857611a8861182f565b5092915050565b818103818111156106c1576106c161182f565b600060208284031215611ab457600080fd5b81516114b981611487565b60018060a01b03861681526000602063ffffffff87168184015260ff8616604084015260a06060840152611af660a08401866116b4565b838103608085015284518082528286019183019060005b81811015611b2957835183529284019291840191600101611b0d565b50909a9950505050505050505050565b600060208284031215611b4b57600080fd5b815180151581146114b957600080fd5b6020808252602b908201527f496e697469616c697a61626c653a20636f6e7472616374206973206e6f74206960408201526a6e697469616c697a696e6760a81b60608201526080019056fea264697066735822122067d755a500acb25ffbd82a6c0ec4acd55b7a5eda33bdb9a8972e692935c263a864736f6c63430008130033",
  "devdoc": {
    "events": {
      "Initialized(uint8)": {
        "details": "Triggered when the contract has been initialized or reinitialized."
      }
    },
    "kind": "dev",
    "methods": {
      "addGovernanceToken(address,uint256)": {
        "params": {
          "_tokenAddress": "the address of the ERC-721 token",
          "_weight": "the number of votes each NFT id is worth"
        }
      },
      "getProposalVotes(uint32)": {
        "params": {
          "_proposalId": "id of the Proposal"
        },
        "returns": {
          "abstainVotes": "current count of \"ABSTAIN\" votes",
          "endBlock": "block number voting ends",
          "noVotes": "current count of \"NO\" votes",
          "startBlock": "block number voting starts",
          "yesVotes": "current count of \"YES\" votes"
        }
      },
      "getTokenWeight(address)": {
        "params": {
          "_tokenAddress": "the ERC-721 token address"
        }
      },
      "hasVoted(uint32,address,uint256)": {
        "params": {
          "_proposalId": "the id of the Proposal",
          "_tokenAddress": "the ERC-721 contract address",
          "_tokenId": "the unique id of the NFT"
        }
      },
      "initializeProposal(bytes)": {
        "params": {
          "_data": "arbitrary data to pass to this BaseStrategy"
        }
      },
      "isPassed(uint32)": {
        "params": {
          "_proposalId": "proposalId to check"
        },
        "returns": {
          "_0": "bool true if the proposal has passed, otherwise false"
        }
      },
      "isProposer(address)": {
        "params": {
          "_address": "address to check"
        },
        "returns": {
          "_0": "bool true if the address can submit a Proposal, otherwise false"
        }
      },
      "meetsBasis(uint256,uint256)": {
        "params": {
          "_noVotes": "number of votes against",
          "_yesVotes": "number of votes in favor"
        },
        "returns": {
          "_0": "bool whether the yes votes meets the set basis"
        }
      },
      "owner()": {
        "details": "Returns the address of the current owner."
      },
      "removeGovernanceToken(address)": {
        "params": {
          "_tokenAddress": "the ERC-721 token to remove"
        }
      },
      "renounceOwnership()": {
        "details": "Leaves the contract without owner. It will not be possible to call `onlyOwner` functions anymore. Can only be called by the current owner. NOTE: Renouncing ownership will leave the contract without an owner, thereby removing any functionality that is only available to the owner."
      },
      "setAzorius(address)": {
        "params": {
          "_azoriusModule": "address of the Azorius Safe module"
        }
      },
      "setUp(bytes)": {
        "params": {
          "initializeParams": "encoded initialization parameters: `address _owner`, `address[] memory _tokens`, `uint256[] memory _weights`, `address _azoriusModule`,  `uint32 _votingPeriod`, `uint256 _quorumThreshold`, `uint256 _proposerThreshold`,  `uint256 _basisNumerator`"
        }
      },
      "transferOwnership(address)": {
        "details": "Transfers ownership of the contract to a new account (`newOwner`). Can only be called by the current owner."
      },
      "updateBasisNumerator(uint256)": {
        "params": {
          "_basisNumerator": "numerator to use"
        }
      },
      "updateProposerThreshold(uint256)": {
        "params": {
          "_proposerThreshold": "required voting weight"
        }
      },
      "updateQuorumThreshold(uint256)": {
        "params": {
          "_quorumThreshold": "total voting weight required to achieve quorum"
        }
      },
      "updateVotingPeriod(uint32)": {
        "params": {
          "_votingPeriod": "voting time period (in blocks)"
        }
      },
      "vote(uint32,uint8,address[],uint256[])": {
        "params": {
          "_proposalId": "id of the Proposal to vote on",
          "_tokenAddresses": "list of ERC-721 addresses that correspond to ids in _tokenIds",
          "_tokenIds": "list of unique token ids that correspond to their ERC-721 address in _tokenAddresses",
          "_voteType": "Proposal support as defined in VoteType (NO, YES, ABSTAIN)"
        }
      },
      "votingEndBlock(uint32)": {
        "params": {
          "_proposalId": "proposalId to check"
        },
        "returns": {
          "_0": "uint32 block number when voting ends on the Proposal"
        }
      }
    },
    "version": 1
  },
  "userdoc": {
    "kind": "user",
    "methods": {
      "BASIS_DENOMINATOR()": {
        "notice": "The denominator to use when calculating basis (1,000,000). "
      },
      "addGovernanceToken(address,uint256)": {
        "notice": "Adds a new ERC-721 token as a governance token, along with its associated weight."
      },
      "basisNumerator()": {
        "notice": "The numerator to use when calculating basis (adjustable). "
      },
      "getAllTokenAddresses()": {
        "notice": "Returns whole list of governance tokens addresses"
      },
      "getProposalVotes(uint32)": {
        "notice": "Returns the current state of the specified Proposal."
      },
      "getTokenWeight(address)": {
        "notice": "Returns the current token weight for the given ERC-721 token address."
      },
      "hasVoted(uint32,address,uint256)": {
        "notice": "Returns whether an NFT id has already voted."
      },
      "initializeProposal(bytes)": {
        "notice": "Called by the [Azorius](../Azorius.md) module. This notifies this  [BaseStrategy](../BaseStrategy.md) that a new Proposal has been created."
      },
      "isPassed(uint32)": {
        "notice": "Returns whether a Proposal has been passed."
      },
      "isProposer(address)": {
        "notice": "Returns whether the specified address can submit a Proposal with this [BaseStrategy](../BaseStrategy.md). This allows a BaseStrategy to place any limits it would like on who can create new Proposals, such as requiring a minimum token delegation."
      },
      "meetsBasis(uint256,uint256)": {
        "notice": "Calculates whether a vote meets its basis."
      },
      "proposalVotes(uint256)": {
        "notice": "`proposalId` to `ProposalVotes`, the voting state of a Proposal. "
      },
      "proposerThreshold()": {
        "notice": "The minimum number of voting power required to create a new proposal."
      },
      "quorumThreshold()": {
        "notice": "The total number of votes required to achieve quorum. \"Quorum threshold\" is used instead of a quorum percent because IERC721 has no  totalSupply function, so the contract cannot determine this."
      },
      "removeGovernanceToken(address)": {
        "notice": "Removes the given ERC-721 token address from the list of governance tokens."
      },
      "setAzorius(address)": {
        "notice": "Sets the address of the [Azorius](../Azorius.md) contract this  [BaseStrategy](../BaseStrategy.md) is being used on."
      },
      "setUp(bytes)": {
        "notice": "Sets up the contract with its initial parameters."
      },
      "tokenAddresses(uint256)": {
        "notice": "The list of ERC-721 tokens that can vote. "
      },
      "tokenWeights(address)": {
        "notice": "ERC-721 address to its voting weight per NFT id.  "
      },
      "updateBasisNumerator(uint256)": {
        "notice": "Updates the `basisNumerator` for future Proposals."
      },
      "updateProposerThreshold(uint256)": {
        "notice": "Updates the voting weight required to submit new Proposals."
      },
      "updateQuorumThreshold(uint256)": {
        "notice": "Updates the quorum required for future Proposals."
      },
      "updateVotingPeriod(uint32)": {
        "notice": "Updates the voting time period for new Proposals."
      },
      "vote(uint32,uint8,address[],uint256[])": {
        "notice": "Submits a vote on an existing Proposal."
      },
      "votingEndBlock(uint32)": {
        "notice": "Returns the block number voting ends on a given Proposal."
      },
      "votingPeriod()": {
        "notice": "Number of blocks a new Proposal can be voted on. "
      }
    },
    "notice": "An Azorius strategy that allows multiple ERC721 tokens to be registered as governance tokens,  each with their own voting weight. This is slightly different from ERC-20 voting, since there is no way to snapshot ERC721 holdings. Each ERC721 id can vote once, reguardless of what address held it when a proposal was created. Also, this uses \"quorumThreshold\" rather than LinearERC20Voting's quorumPercent, because the  total supply of NFTs is not knowable within the IERC721 interface.  This is similar to a multisig  \"total signers\" required, rather than a percentage of the tokens.",
    "version": 1
  },
  "storageLayout": {
    "storage": [
      {
        "astId": 3585,
        "contract": "contracts/azorius/LinearERC721Voting.sol:LinearERC721Voting",
        "label": "_initialized",
        "offset": 0,
        "slot": "0",
        "type": "t_uint8"
      },
      {
        "astId": 3588,
        "contract": "contracts/azorius/LinearERC721Voting.sol:LinearERC721Voting",
        "label": "_initializing",
        "offset": 1,
        "slot": "0",
        "type": "t_bool"
      },
      {
        "astId": 6487,
        "contract": "contracts/azorius/LinearERC721Voting.sol:LinearERC721Voting",
        "label": "__gap",
        "offset": 0,
        "slot": "1",
        "type": "t_array(t_uint256)50_storage"
      },
      {
        "astId": 3379,
        "contract": "contracts/azorius/LinearERC721Voting.sol:LinearERC721Voting",
        "label": "_owner",
        "offset": 0,
        "slot": "51",
        "type": "t_address"
      },
      {
        "astId": 3499,
        "contract": "contracts/azorius/LinearERC721Voting.sol:LinearERC721Voting",
        "label": "__gap",
        "offset": 0,
        "slot": "52",
        "type": "t_array(t_uint256)49_storage"
      },
      {
        "astId": 16021,
        "contract": "contracts/azorius/LinearERC721Voting.sol:LinearERC721Voting",
        "label": "azoriusModule",
        "offset": 0,
        "slot": "101",
        "type": "t_contract(IAzorius)18067"
      },
      {
        "astId": 16121,
        "contract": "contracts/azorius/LinearERC721Voting.sol:LinearERC721Voting",
        "label": "basisNumerator",
        "offset": 0,
        "slot": "102",
        "type": "t_uint256"
      },
      {
        "astId": 16974,
        "contract": "contracts/azorius/LinearERC721Voting.sol:LinearERC721Voting",
        "label": "proposalVotes",
        "offset": 0,
        "slot": "103",
        "type": "t_mapping(t_uint256,t_struct(ProposalVotes)16968_storage)"
      },
      {
        "astId": 16978,
        "contract": "contracts/azorius/LinearERC721Voting.sol:LinearERC721Voting",
        "label": "tokenAddresses",
        "offset": 0,
        "slot": "104",
        "type": "t_array(t_address)dyn_storage"
      },
      {
        "astId": 16983,
        "contract": "contracts/azorius/LinearERC721Voting.sol:LinearERC721Voting",
        "label": "tokenWeights",
        "offset": 0,
        "slot": "105",
        "type": "t_mapping(t_address,t_uint256)"
      },
      {
        "astId": 16986,
        "contract": "contracts/azorius/LinearERC721Voting.sol:LinearERC721Voting",
        "label": "votingPeriod",
        "offset": 0,
        "slot": "106",
        "type": "t_uint32"
      },
      {
        "astId": 16989,
        "contract": "contracts/azorius/LinearERC721Voting.sol:LinearERC721Voting",
        "label": "quorumThreshold",
        "offset": 0,
        "slot": "107",
        "type": "t_uint256"
      },
      {
        "astId": 16992,
        "contract": "contracts/azorius/LinearERC721Voting.sol:LinearERC721Voting",
        "label": "proposerThreshold",
        "offset": 0,
        "slot": "108",
        "type": "t_uint256"
      }
    ],
    "types": {
      "t_address": {
        "encoding": "inplace",
        "label": "address",
        "numberOfBytes": "20"
      },
      "t_array(t_address)dyn_storage": {
        "base": "t_address",
        "encoding": "dynamic_array",
        "label": "address[]",
        "numberOfBytes": "32"
      },
      "t_array(t_uint256)49_storage": {
        "base": "t_uint256",
        "encoding": "inplace",
        "label": "uint256[49]",
        "numberOfBytes": "1568"
      },
      "t_array(t_uint256)50_storage": {
        "base": "t_uint256",
        "encoding": "inplace",
        "label": "uint256[50]",
        "numberOfBytes": "1600"
      },
      "t_bool": {
        "encoding": "inplace",
        "label": "bool",
        "numberOfBytes": "1"
      },
      "t_contract(IAzorius)18067": {
        "encoding": "inplace",
        "label": "contract IAzorius",
        "numberOfBytes": "20"
      },
      "t_mapping(t_address,t_mapping(t_uint256,t_bool))": {
        "encoding": "mapping",
        "key": "t_address",
        "label": "mapping(address => mapping(uint256 => bool))",
        "numberOfBytes": "32",
        "value": "t_mapping(t_uint256,t_bool)"
      },
      "t_mapping(t_address,t_uint256)": {
        "encoding": "mapping",
        "key": "t_address",
        "label": "mapping(address => uint256)",
        "numberOfBytes": "32",
        "value": "t_uint256"
      },
      "t_mapping(t_uint256,t_bool)": {
        "encoding": "mapping",
        "key": "t_uint256",
        "label": "mapping(uint256 => bool)",
        "numberOfBytes": "32",
        "value": "t_bool"
      },
      "t_mapping(t_uint256,t_struct(ProposalVotes)16968_storage)": {
        "encoding": "mapping",
        "key": "t_uint256",
        "label": "mapping(uint256 => struct LinearERC721Voting.ProposalVotes)",
        "numberOfBytes": "32",
        "value": "t_struct(ProposalVotes)16968_storage"
      },
      "t_struct(ProposalVotes)16968_storage": {
        "encoding": "inplace",
        "label": "struct LinearERC721Voting.ProposalVotes",
        "members": [
          {
            "astId": 16952,
            "contract": "contracts/azorius/LinearERC721Voting.sol:LinearERC721Voting",
            "label": "votingStartBlock",
            "offset": 0,
            "slot": "0",
            "type": "t_uint32"
          },
          {
            "astId": 16954,
            "contract": "contracts/azorius/LinearERC721Voting.sol:LinearERC721Voting",
            "label": "votingEndBlock",
            "offset": 4,
            "slot": "0",
            "type": "t_uint32"
          },
          {
            "astId": 16956,
            "contract": "contracts/azorius/LinearERC721Voting.sol:LinearERC721Voting",
            "label": "noVotes",
            "offset": 0,
            "slot": "1",
            "type": "t_uint256"
          },
          {
            "astId": 16958,
            "contract": "contracts/azorius/LinearERC721Voting.sol:LinearERC721Voting",
            "label": "yesVotes",
            "offset": 0,
            "slot": "2",
            "type": "t_uint256"
          },
          {
            "astId": 16960,
            "contract": "contracts/azorius/LinearERC721Voting.sol:LinearERC721Voting",
            "label": "abstainVotes",
            "offset": 0,
            "slot": "3",
            "type": "t_uint256"
          },
          {
            "astId": 16967,
            "contract": "contracts/azorius/LinearERC721Voting.sol:LinearERC721Voting",
            "label": "hasVoted",
            "offset": 0,
            "slot": "4",
            "type": "t_mapping(t_address,t_mapping(t_uint256,t_bool))"
          }
        ],
        "numberOfBytes": "160"
      },
      "t_uint256": {
        "encoding": "inplace",
        "label": "uint256",
        "numberOfBytes": "32"
      },
      "t_uint32": {
        "encoding": "inplace",
        "label": "uint32",
        "numberOfBytes": "4"
      },
      "t_uint8": {
        "encoding": "inplace",
        "label": "uint8",
        "numberOfBytes": "1"
      }
    }
  }
}