{
  "address": "0x594b2AbE5b9525A1E53814413e7a85D95a139693",
  "abi": [
    {
      "inputs": [],
      "name": "DAOFrozen",
      "type": "error"
    },
    {
      "anonymous": false,
      "inputs": [
        {
          "indexed": true,
          "internalType": "address",
          "name": "creator",
          "type": "address"
        },
        {
          "indexed": true,
          "internalType": "address",
          "name": "owner",
          "type": "address"
        },
        {
          "indexed": true,
          "internalType": "address",
          "name": "freezeVoting",
          "type": "address"
        }
      ],
      "name": "AzoriusFreezeGuardSetUp",
      "type": "event"
    },
    {
      "anonymous": false,
      "inputs": [
        {
          "indexed": false,
          "internalType": "uint8",
          "name": "version",
          "type": "uint8"
        }
      ],
      "name": "Initialized",
      "type": "event"
    },
    {
      "anonymous": false,
      "inputs": [
        {
          "indexed": true,
          "internalType": "address",
          "name": "previousOwner",
          "type": "address"
        },
        {
          "indexed": true,
          "internalType": "address",
          "name": "newOwner",
          "type": "address"
        }
      ],
      "name": "OwnershipTransferred",
      "type": "event"
    },
    {
      "inputs": [
        {
          "internalType": "bytes32",
          "name": "",
          "type": "bytes32"
        },
        {
          "internalType": "bool",
          "name": "",
          "type": "bool"
        }
      ],
      "name": "checkAfterExecution",
      "outputs": [],
      "stateMutability": "view",
      "type": "function"
    },
    {
      "inputs": [
        {
          "internalType": "address",
          "name": "",
          "type": "address"
        },
        {
          "internalType": "uint256",
          "name": "",
          "type": "uint256"
        },
        {
          "internalType": "bytes",
          "name": "",
          "type": "bytes"
        },
        {
          "internalType": "enum Enum.Operation",
          "name": "",
          "type": "uint8"
        },
        {
          "internalType": "uint256",
          "name": "",
          "type": "uint256"
        },
        {
          "internalType": "uint256",
          "name": "",
          "type": "uint256"
        },
        {
          "internalType": "uint256",
          "name": "",
          "type": "uint256"
        },
        {
          "internalType": "address",
          "name": "",
          "type": "address"
        },
        {
          "internalType": "address payable",
          "name": "",
          "type": "address"
        },
        {
          "internalType": "bytes",
          "name": "",
          "type": "bytes"
        },
        {
          "internalType": "address",
          "name": "",
          "type": "address"
        }
      ],
      "name": "checkTransaction",
      "outputs": [],
      "stateMutability": "view",
      "type": "function"
    },
    {
      "inputs": [],
      "name": "freezeVoting",
      "outputs": [
        {
          "internalType": "contract IBaseFreezeVoting",
          "name": "",
          "type": "address"
        }
      ],
      "stateMutability": "view",
      "type": "function"
    },
    {
      "inputs": [],
      "name": "owner",
      "outputs": [
        {
          "internalType": "address",
          "name": "",
          "type": "address"
        }
      ],
      "stateMutability": "view",
      "type": "function"
    },
    {
      "inputs": [],
      "name": "renounceOwnership",
      "outputs": [],
      "stateMutability": "nonpayable",
      "type": "function"
    },
    {
      "inputs": [
        {
          "internalType": "bytes",
          "name": "initializeParams",
          "type": "bytes"
        }
      ],
      "name": "setUp",
      "outputs": [],
      "stateMutability": "nonpayable",
      "type": "function"
    },
    {
      "inputs": [
        {
          "internalType": "bytes4",
          "name": "interfaceId",
          "type": "bytes4"
        }
      ],
      "name": "supportsInterface",
      "outputs": [
        {
          "internalType": "bool",
          "name": "",
          "type": "bool"
        }
      ],
      "stateMutability": "pure",
      "type": "function"
    },
    {
      "inputs": [
        {
          "internalType": "address",
          "name": "newOwner",
          "type": "address"
        }
      ],
      "name": "transferOwnership",
      "outputs": [],
      "stateMutability": "nonpayable",
      "type": "function"
    }
  ],
  "transactionHash": "0x97e43d6506deedbfb1beb3d56255bc0b84101b1b30f5470c9b455872f1cffc05",
  "args": [],
  "numDeployments": 1,
  "solcInputHash": "47e1125d24b18568844b42c32fd9e135",
  "bytecode": "0x608060405234801561001057600080fd5b5061088f806100206000396000f3fe608060405234801561001057600080fd5b50600436106100885760003560e01c80638da5cb5b1161005b5780638da5cb5b146100fd578063932713681461010e578063a4f9edbf14610120578063f2fde38b1461013357600080fd5b806301ffc9a71461008d5780636f4b1e8e146100b5578063715018a6146100e057806375f0bb52146100ea575b600080fd5b6100a061009b36600461053d565b610146565b60405190151581526020015b60405180910390f35b6065546100c8906001600160a01b031681565b6040516001600160a01b0390911681526020016100ac565b6100e861017d565b005b6100e86100f8366004610645565b610191565b6033546001600160a01b03166100c8565b6100e861011c366004610738565b5050565b6100e861012e366004610768565b610233565b6100e86101413660046107a5565b6103be565b60006001600160e01b0319821663736bd41d60e11b148061017757506001600160e01b031982166301ffc9a760e01b145b92915050565b610185610437565b61018f6000610491565b565b606560009054906101000a90046001600160a01b03166001600160a01b03166333eeb1476040518163ffffffff1660e01b8152600401602060405180830381865afa1580156101e4573d6000803e3d6000fd5b505050506040513d601f19601f8201168201806040525081019061020891906107c2565b1561022657604051638a60474160e01b815260040160405180910390fd5b5050505050505050505050565b600054610100900460ff16158080156102535750600054600160ff909116105b8061026d5750303b15801561026d575060005460ff166001145b6102d55760405162461bcd60e51b815260206004820152602e60248201527f496e697469616c697a61626c653a20636f6e747261637420697320616c72656160448201526d191e481a5b9a5d1a585b1a5e995960921b60648201526084015b60405180910390fd5b6000805460ff1916600117905580156102f8576000805461ff0019166101001790555b6103006104e3565b6000808380602001905181019061031791906107df565b91509150610324826103be565b606580546001600160a01b0319166001600160a01b03838116918217909255604051909184169033907f19972746aead5895edf697481f3d59eaa727ccfb1edccc09a3072698145654b690600090a45050801561011c576000805461ff0019169055604051600181527f7f26b83ff96e1f2b6a682f133852f6798a09c465da95921460cefb38474024989060200160405180910390a15050565b6103c6610437565b6001600160a01b03811661042b5760405162461bcd60e51b815260206004820152602660248201527f4f776e61626c653a206e6577206f776e657220697320746865207a65726f206160448201526564647265737360d01b60648201526084016102cc565b61043481610491565b50565b6033546001600160a01b0316331461018f5760405162461bcd60e51b815260206004820181905260248201527f4f776e61626c653a2063616c6c6572206973206e6f7420746865206f776e657260448201526064016102cc565b603380546001600160a01b038381166001600160a01b0319831681179093556040519116919082907f8be0079c531659141344cd1fd0a4f28419497f9722a3daafe3b4186f6b6457e090600090a35050565b600054610100900460ff1661050a5760405162461bcd60e51b81526004016102cc9061080e565b61018f600054610100900460ff166105345760405162461bcd60e51b81526004016102cc9061080e565b61018f33610491565b60006020828403121561054f57600080fd5b81356001600160e01b03198116811461056757600080fd5b9392505050565b6001600160a01b038116811461043457600080fd5b803561058e8161056e565b919050565b634e487b7160e01b600052604160045260246000fd5b600082601f8301126105ba57600080fd5b813567ffffffffffffffff808211156105d5576105d5610593565b604051601f8301601f19908116603f011681019082821181831017156105fd576105fd610593565b8160405283815286602085880101111561061657600080fd5b836020870160208301376000602085830101528094505050505092915050565b80356002811061058e57600080fd5b60008060008060008060008060008060006101608c8e03121561066757600080fd5b6106708c610583565b9a5060208c0135995067ffffffffffffffff8060408e0135111561069357600080fd5b6106a38e60408f01358f016105a9565b99506106b160608e01610636565b985060808d0135975060a08d0135965060c08d013595506106d460e08e01610583565b94506106e36101008e01610583565b9350806101208e013511156106f757600080fd5b506107098d6101208e01358e016105a9565b91506107186101408d01610583565b90509295989b509295989b9093969950565b801515811461043457600080fd5b6000806040838503121561074b57600080fd5b82359150602083013561075d8161072a565b809150509250929050565b60006020828403121561077a57600080fd5b813567ffffffffffffffff81111561079157600080fd5b61079d848285016105a9565b949350505050565b6000602082840312156107b757600080fd5b81356105678161056e565b6000602082840312156107d457600080fd5b81516105678161072a565b600080604083850312156107f257600080fd5b82516107fd8161056e565b602084015190925061075d8161056e565b6020808252602b908201527f496e697469616c697a61626c653a20636f6e7472616374206973206e6f74206960408201526a6e697469616c697a696e6760a81b60608201526080019056fea264697066735822122071d9b3ef86b451d988206c4f9d88080a85f44562e1d5e4787ff54e5752b9541d64736f6c63430008130033",
  "devdoc": {
    "events": {
      "Initialized(uint8)": {
        "details": "Triggered when the contract has been initialized or reinitialized."
      }
    },
    "kind": "dev",
    "methods": {
      "owner()": {
        "details": "Returns the address of the current owner."
      },
      "renounceOwnership()": {
        "details": "Leaves the contract without owner. It will not be possible to call `onlyOwner` functions anymore. Can only be called by the current owner. NOTE: Renouncing ownership will leave the contract without an owner, thereby removing any functionality that is only available to the owner."
      },
      "setUp(bytes)": {
        "params": {
          "initializeParams": "encoded initialization parameters: `address _owner`, `address _freezeVoting`"
        }
      },
      "supportsInterface(bytes4)": {
        "details": "Returns true if this contract implements the interface defined by `interfaceId`. See the corresponding https://eips.ethereum.org/EIPS/eip-165#how-interfaces-are-identified[EIP section] to learn more about how these ids are created. This function call must use less than 30 000 gas."
      },
      "transferOwnership(address)": {
        "details": "Transfers ownership of the contract to a new account (`newOwner`). Can only be called by the current owner."
      }
    },
    "version": 1
  },
  "userdoc": {
    "kind": "user",
    "methods": {
      "checkAfterExecution(bytes32,bool)": {
        "notice": "A callback performed after a transaction is executed on the Safe. This is a required function of the `BaseGuard` and `IGuard` interfaces that we do not make use of."
      },
      "checkTransaction(address,uint256,bytes,uint8,uint256,uint256,uint256,address,address,bytes,address)": {
        "notice": "This function is called by the Safe to check if the transaction is able to be executed and reverts if the guard conditions are not met. In our implementation, this reverts if the DAO is frozen."
      },
      "freezeVoting()": {
        "notice": "A reference to the freeze voting contract, which manages the freeze voting process and maintains the frozen / unfrozen state of the DAO."
      },
      "setUp(bytes)": {
        "notice": "Initialize function, will be triggered when a new instance is deployed."
      }
    },
    "notice": "A Safe Transaction Guard contract that prevents an [Azorius](./azorius/Azorius.md)  subDAO from executing transactions if it has been frozen by its parentDAO. See https://docs.safe.global/learn/safe-core/safe-core-protocol/guards.",
    "version": 1
  },
  "storageLayout": {
    "storage": [
      {
        "astId": 3006,
        "contract": "contracts/AzoriusFreezeGuard.sol:AzoriusFreezeGuard",
        "label": "_initialized",
        "offset": 0,
        "slot": "0",
        "type": "t_uint8"
      },
      {
        "astId": 3009,
        "contract": "contracts/AzoriusFreezeGuard.sol:AzoriusFreezeGuard",
        "label": "_initializing",
        "offset": 1,
        "slot": "0",
        "type": "t_bool"
      },
      {
        "astId": 5465,
        "contract": "contracts/AzoriusFreezeGuard.sol:AzoriusFreezeGuard",
        "label": "__gap",
        "offset": 0,
        "slot": "1",
        "type": "t_array(t_uint256)50_storage"
      },
      {
        "astId": 2800,
        "contract": "contracts/AzoriusFreezeGuard.sol:AzoriusFreezeGuard",
        "label": "_owner",
        "offset": 0,
        "slot": "51",
        "type": "t_address"
      },
      {
        "astId": 2920,
        "contract": "contracts/AzoriusFreezeGuard.sol:AzoriusFreezeGuard",
        "label": "__gap",
        "offset": 0,
        "slot": "52",
        "type": "t_array(t_uint256)49_storage"
      },
      {
        "astId": 9537,
        "contract": "contracts/AzoriusFreezeGuard.sol:AzoriusFreezeGuard",
        "label": "freezeVoting",
        "offset": 0,
        "slot": "101",
        "type": "t_contract(IBaseFreezeVoting)13666"
      }
    ],
    "types": {
      "t_address": {
        "encoding": "inplace",
        "label": "address",
        "numberOfBytes": "20"
      },
      "t_array(t_uint256)49_storage": {
        "base": "t_uint256",
        "encoding": "inplace",
        "label": "uint256[49]",
        "numberOfBytes": "1568"
      },
      "t_array(t_uint256)50_storage": {
        "base": "t_uint256",
        "encoding": "inplace",
        "label": "uint256[50]",
        "numberOfBytes": "1600"
      },
      "t_bool": {
        "encoding": "inplace",
        "label": "bool",
        "numberOfBytes": "1"
      },
      "t_contract(IBaseFreezeVoting)13666": {
        "encoding": "inplace",
        "label": "contract IBaseFreezeVoting",
        "numberOfBytes": "20"
      },
      "t_uint256": {
        "encoding": "inplace",
        "label": "uint256",
        "numberOfBytes": "32"
      },
      "t_uint8": {
        "encoding": "inplace",
        "label": "uint8",
        "numberOfBytes": "1"
      }
    }
  }
}