{
  "address": "0x6274188E65e62ccF05BeB70a8f3fB0Ed1e002C08",
  "abi": [
    {
      "inputs": [],
      "name": "AllocationClaimed",
      "type": "error"
    },
    {
      "inputs": [],
      "name": "NoAllocation",
      "type": "error"
    },
    {
      "anonymous": false,
      "inputs": [
        {
          "indexed": false,
          "internalType": "uint8",
          "name": "version",
          "type": "uint8"
        }
      ],
      "name": "Initialized",
      "type": "event"
    },
    {
      "anonymous": false,
      "inputs": [
        {
          "indexed": false,
          "internalType": "address",
          "name": "pToken",
          "type": "address"
        },
        {
          "indexed": false,
          "internalType": "address",
          "name": "cToken",
          "type": "address"
        },
        {
          "indexed": false,
          "internalType": "uint256",
          "name": "pAllocation",
          "type": "uint256"
        }
      ],
      "name": "SnapAdded",
      "type": "event"
    },
    {
      "anonymous": false,
      "inputs": [
        {
          "indexed": true,
          "internalType": "address",
          "name": "pToken",
          "type": "address"
        },
        {
          "indexed": true,
          "internalType": "address",
          "name": "cToken",
          "type": "address"
        },
        {
          "indexed": true,
          "internalType": "address",
          "name": "claimer",
          "type": "address"
        },
        {
          "indexed": false,
          "internalType": "uint256",
          "name": "amount",
          "type": "uint256"
        }
      ],
      "name": "SnapClaimed",
      "type": "event"
    },
    {
      "inputs": [],
      "name": "cToken",
      "outputs": [
        {
          "internalType": "address",
          "name": "",
          "type": "address"
        }
      ],
      "stateMutability": "view",
      "type": "function"
    },
    {
      "inputs": [
        {
          "internalType": "address",
          "name": "claimer",
          "type": "address"
        }
      ],
      "name": "calculateClaimAmount",
      "outputs": [
        {
          "internalType": "uint256",
          "name": "cTokenAllocation",
          "type": "uint256"
        }
      ],
      "stateMutability": "view",
      "type": "function"
    },
    {
      "inputs": [
        {
          "internalType": "address",
          "name": "claimer",
          "type": "address"
        }
      ],
      "name": "claimSnap",
      "outputs": [],
      "stateMutability": "nonpayable",
      "type": "function"
    },
    {
      "inputs": [
        {
          "internalType": "address",
          "name": "_metaFactory",
          "type": "address"
        },
        {
          "internalType": "address",
          "name": "_pToken",
          "type": "address"
        },
        {
          "internalType": "address",
          "name": "_cToken",
          "type": "address"
        },
        {
          "internalType": "uint256",
          "name": "_pAllocation",
          "type": "uint256"
        }
      ],
      "name": "initialize",
      "outputs": [],
      "stateMutability": "nonpayable",
      "type": "function"
    },
    {
      "inputs": [],
      "name": "pAllocation",
      "outputs": [
        {
          "internalType": "uint256",
          "name": "",
          "type": "uint256"
        }
      ],
      "stateMutability": "view",
      "type": "function"
    },
    {
      "inputs": [],
      "name": "pToken",
      "outputs": [
        {
          "internalType": "address",
          "name": "",
          "type": "address"
        }
      ],
      "stateMutability": "view",
      "type": "function"
    },
    {
      "inputs": [],
      "name": "snapId",
      "outputs": [
        {
          "internalType": "uint256",
          "name": "",
          "type": "uint256"
        }
      ],
      "stateMutability": "view",
      "type": "function"
    }
  ],
  "transactionHash": "0x51b08053b504766e88129544fbfdc48cc9b726a4069132ab35c091b831de5e7f",
  "args": [],
  "numDeployments": 1,
  "solcInputHash": "45f7710f616c39a15b2c4779b7f6d0c2",
  "bytecode": "0x608060405234801561001057600080fd5b50610a19806100206000396000f3fe608060405234801561001057600080fd5b506004361061007d5760003560e01c806369e527da1161005b57806369e527da146100de57806397747728146100f7578063a40d1cbd14610100578063cf756fdf1461011357600080fd5b80634175428c14610082578063466bbe811461009757806358a06f07146100b3575b600080fd5b610095610090366004610874565b610126565b005b6100a060035481565b6040519081526020015b60405180910390f35b6001546100c6906001600160a01b031681565b6040516001600160a01b0390911681526020016100aa565b6000546100c6906201000090046001600160a01b031681565b6100a060025481565b6100a061010e366004610874565b6101e0565b61009561012136600461088f565b610313565b6000610131826101e0565b90508060000361015457604051632fc532ad60e11b815260040160405180910390fd5b6001600160a01b038083166000908152600460205260408120805460ff191660011790555461018c9162010000909104168383610454565b6000546001546040518381526001600160a01b038581169362010000900481169216907f14598a46cf7d6b47beae636c879badc9ad239ea17ee5252fe6a365694a9c35969060200160405180910390a45050565b6001600160a01b03811660009081526004602052604081205460ff1661030a57600154600254604051630981b24d60e41b81526001600160a01b039092169163981b24d0916102359160040190815260200190565b602060405180830381865afa158015610252573d6000803e3d6000fd5b505050506040513d601f19601f8201168201806040525081019061027691906108da565b60035460015460025460405163277166bf60e11b81526001600160a01b0387811660048301526024820192909252911690634ee2cd7e90604401602060405180830381865afa1580156102cd573d6000803e3d6000fd5b505050506040513d601f19601f820116820180604052508101906102f191906108da565b6102fb91906108f3565b6103059190610920565b61030d565b60005b92915050565b600054610100900460ff16158080156103335750600054600160ff909116105b8061034d5750303b15801561034d575060005460ff166001145b6103b55760405162461bcd60e51b815260206004820152602e60248201527f496e697469616c697a61626c653a20636f6e747261637420697320616c72656160448201526d191e481a5b9a5d1a585b1a5e995960921b60648201526084015b60405180910390fd5b6000805460ff1916600117905580156103d8576000805461ff0019166101001790555b6000805462010000600160b01b031916620100006001600160a01b03861602179055610406858585856104ab565b50801561044d576000805461ff0019169055604051600181527f7f26b83ff96e1f2b6a682f133852f6798a09c465da95921460cefb38474024989060200160405180910390a15b5050505050565b604080516001600160a01b038416602482015260448082018490528251808303909101815260649091019091526020810180516001600160e01b031663a9059cbb60e01b1790526104a6908490610603565b505050565b6040516323b872dd60e01b81526001600160a01b03858116600483015230602483015260448201839052600091908416906323b872dd906064016020604051808303816000875af1158015610504573d6000803e3d6000fd5b505050506040513d601f19601f820116820180604052508101906105289190610942565b50836001600160a01b031663d1dc72a36040518163ffffffff1660e01b81526004016020604051808303816000875af1158015610569573d6000803e3d6000fd5b505050506040513d601f19601f8201168201806040525081019061058d91906108da565b600180546001600160a01b0319166001600160a01b03878116918217909255600283905560038590556040805191825291861660208201529081018490529091507f53c4c896b07481b6e7f9a43867bc6e836fd59da1ac604caedb1c097ce8e89bd59060600160405180910390a1949350505050565b6000610658826040518060400160405280602081526020017f5361666545524332303a206c6f772d6c6576656c2063616c6c206661696c6564815250856001600160a01b03166106d59092919063ffffffff16565b8051909150156104a657808060200190518101906106769190610942565b6104a65760405162461bcd60e51b815260206004820152602a60248201527f5361666545524332303a204552433230206f7065726174696f6e20646964206e6044820152691bdd081cdd58d8d9595960b21b60648201526084016103ac565b60606106e484846000856106ee565b90505b9392505050565b60608247101561074f5760405162461bcd60e51b815260206004820152602660248201527f416464726573733a20696e73756666696369656e742062616c616e636520666f6044820152651c8818d85b1b60d21b60648201526084016103ac565b6001600160a01b0385163b6107a65760405162461bcd60e51b815260206004820152601d60248201527f416464726573733a2063616c6c20746f206e6f6e2d636f6e747261637400000060448201526064016103ac565b600080866001600160a01b031685876040516107c29190610994565b60006040518083038185875af1925050503d80600081146107ff576040519150601f19603f3d011682016040523d82523d6000602084013e610804565b606091505b509150915061081482828661081f565b979650505050505050565b6060831561082e5750816106e7565b82511561083e5782518084602001fd5b8160405162461bcd60e51b81526004016103ac91906109b0565b80356001600160a01b038116811461086f57600080fd5b919050565b60006020828403121561088657600080fd5b6106e782610858565b600080600080608085870312156108a557600080fd5b6108ae85610858565b93506108bc60208601610858565b92506108ca60408601610858565b9396929550929360600135925050565b6000602082840312156108ec57600080fd5b5051919050565b600081600019048311821515161561091b57634e487b7160e01b600052601160045260246000fd5b500290565b60008261093d57634e487b7160e01b600052601260045260246000fd5b500490565b60006020828403121561095457600080fd5b815180151581146106e757600080fd5b60005b8381101561097f578181015183820152602001610967565b8381111561098e576000848401525b50505050565b600082516109a6818460208701610964565b9190910192915050565b60208152600082518060208401526109cf816040850160208701610964565b601f01601f1916919091016040019291505056fea26469706673582212208e5f245e5c8632f310acfd6e83060cf68ca82a0949d1585774288e7712544d3864736f6c634300080d0033",
  "devdoc": {
    "kind": "dev",
    "methods": {
      "calculateClaimAmount(address)": {
        "params": {
          "claimer": "Address which is being claimed for"
        },
        "returns": {
          "cTokenAllocation": "Users cToken allocation"
        }
      },
      "claimSnap(address)": {
        "params": {
          "claimer": "Address which is being claimed for"
        }
      },
      "initialize(address,address,address,uint256)": {
        "params": {
          "_cToken": "Address of child Token being claimed",
          "_metaFactory": "Address funding claimContract",
          "_pAllocation": "Total tokens allocated for pToken holders",
          "_pToken": "Address of the parent token used for snapshot reference"
        }
      }
    },
    "stateVariables": {
      "__gap": {
        "details": "This empty reserved space is put in place to allow future versions to add new variables without shifting down storage in the inheritance chain. See https://docs.openzeppelin.com/contracts/4.x/upgradeable#storage_gaps"
      }
    },
    "version": 1
  },
  "userdoc": {
    "kind": "user",
    "methods": {
      "calculateClaimAmount(address)": {
        "notice": "Calculate a users cToken allocation"
      },
      "claimSnap(address)": {
        "notice": "This function allows pToken holders to claim cTokens"
      },
      "initialize(address,address,address,uint256)": {
        "notice": "Initilize Claim Contract"
      }
    },
    "version": 1
  },
  "storageLayout": {
    "storage": [
      {
        "astId": 1602,
        "contract": "contracts/ClaimSubsidiary.sol:ClaimSubsidiary",
        "label": "_initialized",
        "offset": 0,
        "slot": "0",
        "type": "t_uint8"
      },
      {
        "astId": 1605,
        "contract": "contracts/ClaimSubsidiary.sol:ClaimSubsidiary",
        "label": "_initializing",
        "offset": 1,
        "slot": "0",
        "type": "t_bool"
      },
      {
        "astId": 7870,
        "contract": "contracts/ClaimSubsidiary.sol:ClaimSubsidiary",
        "label": "cToken",
        "offset": 2,
        "slot": "0",
        "type": "t_address"
      },
      {
        "astId": 7872,
        "contract": "contracts/ClaimSubsidiary.sol:ClaimSubsidiary",
        "label": "pToken",
        "offset": 0,
        "slot": "1",
        "type": "t_address"
      },
      {
        "astId": 7874,
        "contract": "contracts/ClaimSubsidiary.sol:ClaimSubsidiary",
        "label": "snapId",
        "offset": 0,
        "slot": "2",
        "type": "t_uint256"
      },
      {
        "astId": 7876,
        "contract": "contracts/ClaimSubsidiary.sol:ClaimSubsidiary",
        "label": "pAllocation",
        "offset": 0,
        "slot": "3",
        "type": "t_uint256"
      },
      {
        "astId": 7880,
        "contract": "contracts/ClaimSubsidiary.sol:ClaimSubsidiary",
        "label": "isSnapClaimed",
        "offset": 0,
        "slot": "4",
        "type": "t_mapping(t_address,t_bool)"
      },
      {
        "astId": 8039,
        "contract": "contracts/ClaimSubsidiary.sol:ClaimSubsidiary",
        "label": "__gap",
        "offset": 0,
        "slot": "5",
        "type": "t_array(t_uint256)48_storage"
      }
    ],
    "types": {
      "t_address": {
        "encoding": "inplace",
        "label": "address",
        "numberOfBytes": "20"
      },
      "t_array(t_uint256)48_storage": {
        "base": "t_uint256",
        "encoding": "inplace",
        "label": "uint256[48]",
        "numberOfBytes": "1536"
      },
      "t_bool": {
        "encoding": "inplace",
        "label": "bool",
        "numberOfBytes": "1"
      },
      "t_mapping(t_address,t_bool)": {
        "encoding": "mapping",
        "key": "t_address",
        "label": "mapping(address => bool)",
        "numberOfBytes": "32",
        "value": "t_bool"
      },
      "t_uint256": {
        "encoding": "inplace",
        "label": "uint256",
        "numberOfBytes": "32"
      },
      "t_uint8": {
        "encoding": "inplace",
        "label": "uint8",
        "numberOfBytes": "1"
      }
    }
  }
}