{
  "address": "0x1E641C2f522E823F1294640DD1D0083CA356BbF6",
  "abi": [
    {
      "anonymous": false,
      "inputs": [
        {
          "indexed": true,
          "internalType": "address",
          "name": "subsidiaryAddress",
          "type": "address"
        }
      ],
      "name": "SubsidiaryCreated",
      "type": "event"
    },
    {
      "inputs": [
        {
          "internalType": "address",
          "name": "creator",
          "type": "address"
        },
        {
          "internalType": "bytes[]",
          "name": "data",
          "type": "bytes[]"
        }
      ],
      "name": "create",
      "outputs": [
        {
          "internalType": "address[]",
          "name": "",
          "type": "address[]"
        }
      ],
      "stateMutability": "nonpayable",
      "type": "function"
    }
  ],
  "transactionHash": "0x00c0e6eca22b4d408f2e44bfd6b83e9429ea22b25df73832a3a0aec3dfe38f65",
  "args": [],
  "numDeployments": 1,
  "solcInputHash": "45f7710f616c39a15b2c4779b7f6d0c2",
  "bytecode": "0x608060405234801561001057600080fd5b50610cbb806100206000396000f3fe60806040523480156200001157600080fd5b50600436106200002e5760003560e01c80636d81fc721462000033575b600080fd5b6200004a6200004436600462000387565b62000062565b60405162000059919062000416565b60405180910390f35b60408051600180825281830190925260609160009190602080830190803683370190505090506200010584846000818110620000a257620000a262000465565b9050602002810190620000b691906200047b565b810190620000c59190620004cc565b8686866001818110620000dc57620000dc62000465565b9050602002810190620000f091906200047b565b810190620000ff9190620004f3565b6200013c565b816000815181106200011b576200011b62000465565b6001600160a01b039092166020928302919091019091015290509392505050565b6040516bffffffffffffffffffffffff19606084811b8216602084015233901b166034820152466048820152606881018290526000906200020b9082906088016040516020818303038152906040528051906020012060405180602001620001a49062000360565b601f1982820381018352601f9091011660408181526001600160a01b038a166020830152808201526000606082015260800160408051601f1981840301815290829052620001f692916020016200054b565b60405160208183030381529060405262000249565b6040519091506001600160a01b038216907ff8d08801592f8b404e23e91933cd0d3d1b52e9768daae2426a9ade0238208cf290600090a29392505050565b60008084471015620002a25760405162461bcd60e51b815260206004820152601d60248201527f437265617465323a20696e73756666696369656e742062616c616e636500000060448201526064015b60405180910390fd5b8251600003620002f55760405162461bcd60e51b815260206004820181905260248201527f437265617465323a2062797465636f6465206c656e677468206973207a65726f604482015260640162000299565b8383516020850187f590506001600160a01b038116620003585760405162461bcd60e51b815260206004820152601960248201527f437265617465323a204661696c6564206f6e206465706c6f7900000000000000604482015260640162000299565b949350505050565b610721806200056583390190565b6001600160a01b03811681146200038457600080fd5b50565b6000806000604084860312156200039d57600080fd5b8335620003aa816200036e565b9250602084013567ffffffffffffffff80821115620003c857600080fd5b818601915086601f830112620003dd57600080fd5b813581811115620003ed57600080fd5b8760208260051b85010111156200040357600080fd5b6020830194508093505050509250925092565b6020808252825182820181905260009190848201906040850190845b81811015620004595783516001600160a01b03168352928401929184019160010162000432565b50909695505050505050565b634e487b7160e01b600052603260045260246000fd5b6000808335601e198436030181126200049357600080fd5b83018035915067ffffffffffffffff821115620004af57600080fd5b602001915036819003821315620004c557600080fd5b9250929050565b600060208284031215620004df57600080fd5b8135620004ec816200036e565b9392505050565b6000602082840312156200050657600080fd5b5035919050565b6000815160005b8181101562000530576020818501810151868301520162000514565b8181111562000540576000828601525b509290920192915050565b6000620003586200055d83866200050d565b846200050d56fe608060405260405161072138038061072183398101604081905261002291610314565b61002e82826000610035565b5050610431565b61003e8361006b565b60008251118061004b5750805b156100665761006483836100ab60201b6100291760201c565b505b505050565b610074816100d7565b6040516001600160a01b038216907fbc7cd75a20ee27fd9adebab32041f755214dbc6bffa90cc0225b39da2e5c2d3b90600090a250565b60606100d083836040518060600160405280602781526020016106fa602791396101a9565b9392505050565b6100ea8161028760201b6100551760201c565b6101515760405162461bcd60e51b815260206004820152602d60248201527f455243313936373a206e657720696d706c656d656e746174696f6e206973206e60448201526c1bdd08184818dbdb9d1c9858dd609a1b60648201526084015b60405180910390fd5b806101887f360894a13ba1a3210667c828492db98dca3e2076cc3735a920a3ca505d382bbc60001b61029660201b6100641760201c565b80546001600160a01b0319166001600160a01b039290921691909117905550565b60606001600160a01b0384163b6102115760405162461bcd60e51b815260206004820152602660248201527f416464726573733a2064656c65676174652063616c6c20746f206e6f6e2d636f6044820152651b9d1c9858dd60d21b6064820152608401610148565b600080856001600160a01b03168560405161022c91906103e2565b600060405180830381855af49150503d8060008114610267576040519150601f19603f3d011682016040523d82523d6000602084013e61026c565b606091505b50909250905061027d828286610299565b9695505050505050565b6001600160a01b03163b151590565b90565b606083156102a85750816100d0565b8251156102b85782518084602001fd5b8160405162461bcd60e51b815260040161014891906103fe565b634e487b7160e01b600052604160045260246000fd5b60005b838110156103035781810151838201526020016102eb565b838111156100645750506000910152565b6000806040838503121561032757600080fd5b82516001600160a01b038116811461033e57600080fd5b60208401519092506001600160401b038082111561035b57600080fd5b818501915085601f83011261036f57600080fd5b815181811115610381576103816102d2565b604051601f8201601f19908116603f011681019083821181831017156103a9576103a96102d2565b816040528281528860208487010111156103c257600080fd5b6103d38360208301602088016102e8565b80955050505050509250929050565b600082516103f48184602087016102e8565b9190910192915050565b602081526000825180602084015261041d8160408501602087016102e8565b601f01601f19169190910160400192915050565b6102ba806104406000396000f3fe60806040523661001357610011610017565b005b6100115b610027610022610067565b61009f565b565b606061004e838360405180606001604052806027815260200161025e602791396100c3565b9392505050565b6001600160a01b03163b151590565b90565b600061009a7f360894a13ba1a3210667c828492db98dca3e2076cc3735a920a3ca505d382bbc546001600160a01b031690565b905090565b3660008037600080366000845af43d6000803e8080156100be573d6000f35b3d6000fd5b60606001600160a01b0384163b6101305760405162461bcd60e51b815260206004820152602660248201527f416464726573733a2064656c65676174652063616c6c20746f206e6f6e2d636f6044820152651b9d1c9858dd60d21b60648201526084015b60405180910390fd5b600080856001600160a01b03168560405161014b919061020e565b600060405180830381855af49150503d8060008114610186576040519150601f19603f3d011682016040523d82523d6000602084013e61018b565b606091505b509150915061019b8282866101a5565b9695505050505050565b606083156101b457508161004e565b8251156101c45782518084602001fd5b8160405162461bcd60e51b8152600401610127919061022a565b60005b838110156101f95781810151838201526020016101e1565b83811115610208576000848401525b50505050565b600082516102208184602087016101de565b9190910192915050565b60208152600082518060208401526102498160408501602087016101de565b601f01601f1916919091016040019291505056fe416464726573733a206c6f772d6c6576656c2064656c65676174652063616c6c206661696c6564a2646970667358221220624d8c621d429fd8b7eed49ae71e0c11f4101ae7335c4c9d149cb44a1625749c64736f6c634300080d0033416464726573733a206c6f772d6c6576656c2064656c65676174652063616c6c206661696c6564a26469706673582212203bb79259860fa39c85e190a664c07cb95b3c462efc3f5c7c1f47883821ef8cbe64736f6c634300080d0033",
  "devdoc": {
    "kind": "dev",
    "methods": {
      "create(address,bytes[])": {
        "details": "Creates an ERC-20 votes token",
        "params": {
          "creator": "The address creating the module",
          "data": "The array of bytes used to create the token"
        },
        "returns": {
          "_0": "address The address of the created token"
        }
      }
    },
    "version": 1
  },
  "userdoc": {
    "kind": "user",
    "methods": {},
    "notice": "Token Factory used to deploy votes tokens",
    "version": 1
  },
  "storageLayout": {
    "storage": [],
    "types": null
  }
}