{
  "address": "0xD0bA22952314A0c7F3158bd42e07ecAF604C68Aa",
  "abi": [
    {
      "inputs": [],
      "name": "AlreadyVoted",
      "type": "error"
    },
    {
      "inputs": [],
      "name": "NoVotes",
      "type": "error"
    },
    {
      "anonymous": false,
      "inputs": [
        {
          "indexed": true,
          "internalType": "address",
          "name": "owner",
          "type": "address"
        },
        {
          "indexed": true,
          "internalType": "address",
          "name": "votesERC20",
          "type": "address"
        }
      ],
      "name": "ERC20FreezeVotingSetUp",
      "type": "event"
    },
    {
      "anonymous": false,
      "inputs": [
        {
          "indexed": false,
          "internalType": "uint32",
          "name": "freezePeriod",
          "type": "uint32"
        }
      ],
      "name": "FreezePeriodUpdated",
      "type": "event"
    },
    {
      "anonymous": false,
      "inputs": [
        {
          "indexed": true,
          "internalType": "address",
          "name": "creator",
          "type": "address"
        }
      ],
      "name": "FreezeProposalCreated",
      "type": "event"
    },
    {
      "anonymous": false,
      "inputs": [
        {
          "indexed": false,
          "internalType": "uint32",
          "name": "freezeProposalPeriod",
          "type": "uint32"
        }
      ],
      "name": "FreezeProposalPeriodUpdated",
      "type": "event"
    },
    {
      "anonymous": false,
      "inputs": [
        {
          "indexed": true,
          "internalType": "address",
          "name": "voter",
          "type": "address"
        },
        {
          "indexed": false,
          "internalType": "uint256",
          "name": "votesCast",
          "type": "uint256"
        }
      ],
      "name": "FreezeVoteCast",
      "type": "event"
    },
    {
      "anonymous": false,
      "inputs": [
        {
          "indexed": false,
          "internalType": "uint256",
          "name": "freezeVotesThreshold",
          "type": "uint256"
        }
      ],
      "name": "FreezeVotesThresholdUpdated",
      "type": "event"
    },
    {
      "anonymous": false,
      "inputs": [
        {
          "indexed": false,
          "internalType": "uint8",
          "name": "version",
          "type": "uint8"
        }
      ],
      "name": "Initialized",
      "type": "event"
    },
    {
      "anonymous": false,
      "inputs": [
        {
          "indexed": true,
          "internalType": "address",
          "name": "previousOwner",
          "type": "address"
        },
        {
          "indexed": true,
          "internalType": "address",
          "name": "newOwner",
          "type": "address"
        }
      ],
      "name": "OwnershipTransferred",
      "type": "event"
    },
    {
      "inputs": [],
      "name": "castFreezeVote",
      "outputs": [],
      "stateMutability": "nonpayable",
      "type": "function"
    },
    {
      "inputs": [],
      "name": "freezePeriod",
      "outputs": [
        {
          "internalType": "uint32",
          "name": "",
          "type": "uint32"
        }
      ],
      "stateMutability": "view",
      "type": "function"
    },
    {
      "inputs": [],
      "name": "freezeProposalCreatedBlock",
      "outputs": [
        {
          "internalType": "uint32",
          "name": "",
          "type": "uint32"
        }
      ],
      "stateMutability": "view",
      "type": "function"
    },
    {
      "inputs": [],
      "name": "freezeProposalPeriod",
      "outputs": [
        {
          "internalType": "uint32",
          "name": "",
          "type": "uint32"
        }
      ],
      "stateMutability": "view",
      "type": "function"
    },
    {
      "inputs": [],
      "name": "freezeProposalVoteCount",
      "outputs": [
        {
          "internalType": "uint256",
          "name": "",
          "type": "uint256"
        }
      ],
      "stateMutability": "view",
      "type": "function"
    },
    {
      "inputs": [],
      "name": "freezeVotesThreshold",
      "outputs": [
        {
          "internalType": "uint256",
          "name": "",
          "type": "uint256"
        }
      ],
      "stateMutability": "view",
      "type": "function"
    },
    {
      "inputs": [],
      "name": "isFrozen",
      "outputs": [
        {
          "internalType": "bool",
          "name": "",
          "type": "bool"
        }
      ],
      "stateMutability": "view",
      "type": "function"
    },
    {
      "inputs": [],
      "name": "owner",
      "outputs": [
        {
          "internalType": "address",
          "name": "",
          "type": "address"
        }
      ],
      "stateMutability": "view",
      "type": "function"
    },
    {
      "inputs": [],
      "name": "renounceOwnership",
      "outputs": [],
      "stateMutability": "nonpayable",
      "type": "function"
    },
    {
      "inputs": [
        {
          "internalType": "bytes",
          "name": "initializeParams",
          "type": "bytes"
        }
      ],
      "name": "setUp",
      "outputs": [],
      "stateMutability": "nonpayable",
      "type": "function"
    },
    {
      "inputs": [
        {
          "internalType": "address",
          "name": "newOwner",
          "type": "address"
        }
      ],
      "name": "transferOwnership",
      "outputs": [],
      "stateMutability": "nonpayable",
      "type": "function"
    },
    {
      "inputs": [],
      "name": "unfreeze",
      "outputs": [],
      "stateMutability": "nonpayable",
      "type": "function"
    },
    {
      "inputs": [
        {
          "internalType": "uint32",
          "name": "_freezePeriod",
          "type": "uint32"
        }
      ],
      "name": "updateFreezePeriod",
      "outputs": [],
      "stateMutability": "nonpayable",
      "type": "function"
    },
    {
      "inputs": [
        {
          "internalType": "uint32",
          "name": "_freezeProposalPeriod",
          "type": "uint32"
        }
      ],
      "name": "updateFreezeProposalPeriod",
      "outputs": [],
      "stateMutability": "nonpayable",
      "type": "function"
    },
    {
      "inputs": [
        {
          "internalType": "uint256",
          "name": "_freezeVotesThreshold",
          "type": "uint256"
        }
      ],
      "name": "updateFreezeVotesThreshold",
      "outputs": [],
      "stateMutability": "nonpayable",
      "type": "function"
    },
    {
      "inputs": [
        {
          "internalType": "address",
          "name": "",
          "type": "address"
        },
        {
          "internalType": "uint256",
          "name": "",
          "type": "uint256"
        }
      ],
      "name": "userHasFreezeVoted",
      "outputs": [
        {
          "internalType": "bool",
          "name": "",
          "type": "bool"
        }
      ],
      "stateMutability": "view",
      "type": "function"
    },
    {
      "inputs": [],
      "name": "votesERC20",
      "outputs": [
        {
          "internalType": "contract IVotes",
          "name": "",
          "type": "address"
        }
      ],
      "stateMutability": "view",
      "type": "function"
    }
  ],
  "transactionHash": "0x24d69a9c61494760dc14b5b713ca904eb5ba97f6b11a4220653b1a9c2fc42db1",
  "args": [],
  "numDeployments": 2,
  "solcInputHash": "528bcce4e330d02229968c957571c744",
  "bytecode": "0x608060405234801561001057600080fd5b5061001961001e565b6100de565b600054610100900460ff161561008a5760405162461bcd60e51b815260206004820152602760248201527f496e697469616c697a61626c653a20636f6e747261637420697320696e697469604482015266616c697a696e6760c81b606482015260840160405180910390fd5b60005460ff90811610156100dc576000805460ff191660ff9081179091556040519081527f7f26b83ff96e1f2b6a682f133852f6798a09c465da95921460cefb38474024989060200160405180910390a15b565b610cf6806100ed6000396000f3fe608060405234801561001057600080fd5b506004361061010b5760003560e01c80638da5cb5b116100a2578063a91e5cab11610071578063a91e5cab1461023a578063aba9dfe914610242578063f2fde38b14610255578063fb80bccc14610268578063ffd1a81a1461027157600080fd5b80638da5cb5b146101d05780638f920e18146101e1578063a0df297a1461020f578063a4f9edbf1461022757600080fd5b8063559a24e3116100de578063559a24e3146101995780636a28f000146101a9578063715018a6146101b15780638a79cadf146101b957600080fd5b80630a3cb6631461011057806333eeb147146101415780634fa0864114610159578063526a2bdf14610184575b600080fd5b60655461012790600160401b900463ffffffff1681565b60405163ffffffff90911681526020015b60405180910390f35b610149610284565b6040519015158152602001610138565b60695461016c906001600160a01b031681565b6040516001600160a01b039091168152602001610138565b610197610192366004610a1f565b6102bf565b005b6065546101279063ffffffff1681565b6101976102d3565b6101976102ef565b6101c260675481565b604051908152602001610138565b6033546001600160a01b031661016c565b6101496101ef366004610a58565b606860209081526000928352604080842090915290825290205460ff1681565b60655461012790640100000000900463ffffffff1681565b610197610235366004610a9a565b610303565b6101976104d4565b610197610250366004610b4b565b610784565b610197610263366004610b64565b610795565b6101c260665481565b61019761027f366004610a1f565b61080b565b6000606654606754101580156102ba57506065546102b19063ffffffff600160401b820481169116610b97565b63ffffffff1643105b905090565b6102c761081c565b6102d081610876565b50565b6102db61081c565b6065805463ffffffff191690556000606755565b6102f761081c565b61030160006108d1565b565b600054610100900460ff16158080156103235750600054600160ff909116105b8061033d5750303b15801561033d575060005460ff166001145b6103a55760405162461bcd60e51b815260206004820152602e60248201527f496e697469616c697a61626c653a20636f6e747261637420697320616c72656160448201526d191e481a5b9a5d1a585b1a5e995960921b60648201526084015b60405180910390fd5b6000805460ff1916600117905580156103c8576000805461ff0019166101001790555b6000806000806000868060200190518101906103e49190610bbb565b945094509450945094506103f6610923565b6103ff856108d1565b61040884610952565b61041183610987565b61041a82610876565b6065805463ffffffff60401b1916600160401b63ffffffff851602179055606980546001600160a01b0319166001600160a01b0383811691821790925560405190918716907fb10236b6f197b45aa6a86b2fefd1212a04bfb4f743d742041727621ed2d1525790600090a3505050505080156104d0576000805461ff0019169055604051600181527f7f26b83ff96e1f2b6a682f133852f6798a09c465da95921460cefb38474024989060200160405180910390a15b5050565b6065546000906104f49063ffffffff640100000000820481169116610b97565b63ffffffff16431115610605576065805463ffffffff19164363ffffffff169081179091556069546001600160a01b031690633a46b1a890339061053a90600190610c26565b6040516001600160e01b031960e085901b1681526001600160a01b03909216600483015263ffffffff166024820152604401602060405180830381865afa158015610589573d6000803e3d6000fd5b505050506040513d601f19601f820116820180604052508101906105ad9190610c43565b9050806000036105d057604051630198e16360e41b815260040160405180910390fd5b606781905560405133907fe18d0e7e892cd73f8a648a42186da382bee61a1d78ac88401885943449f78fe490600090a2610723565b33600090815260686020908152604080832060655463ffffffff16845290915290205460ff161561064957604051637c9a1cf960e01b815260040160405180910390fd5b6069546065546001600160a01b0390911690633a46b1a89033906106759060019063ffffffff16610c26565b6040516001600160e01b031960e085901b1681526001600160a01b03909216600483015263ffffffff166024820152604401602060405180830381865afa1580156106c4573d6000803e3d6000fd5b505050506040513d601f19601f820116820180604052508101906106e89190610c43565b90508060000361070b57604051630198e16360e41b815260040160405180910390fd5b806067600082825461071d9190610c5c565b90915550505b33600081815260686020908152604080832060655463ffffffff168452825291829020805460ff1916600117905590518381527f3746cafa4f96166ea7502cf76d1ea8ce440f3c8215cbcac3ae32d3ee39afae42910160405180910390a250565b61078c61081c565b6102d081610952565b61079d61081c565b6001600160a01b0381166108025760405162461bcd60e51b815260206004820152602660248201527f4f776e61626c653a206e6577206f776e657220697320746865207a65726f206160448201526564647265737360d01b606482015260840161039c565b6102d0816108d1565b61081361081c565b6102d081610987565b6033546001600160a01b031633146103015760405162461bcd60e51b815260206004820181905260248201527f4f776e61626c653a2063616c6c6572206973206e6f7420746865206f776e6572604482015260640161039c565b6065805463ffffffff60401b1916600160401b63ffffffff8416908102919091179091556040519081527f5636570ff998e84ff32771b2428b549514d4c972696ed5efdba2aed546f9cc6a906020015b60405180910390a150565b603380546001600160a01b038381166001600160a01b0319831681179093556040519116919082907f8be0079c531659141344cd1fd0a4f28419497f9722a3daafe3b4186f6b6457e090600090a35050565b600054610100900460ff1661094a5760405162461bcd60e51b815260040161039c90610c75565b6103016109dd565b60668190556040518181527f34fd19d57e73972c099110353fb0a4035d76f918df2fd8f09ff0edb3873eef76906020016108c6565b6065805467ffffffff00000000191664010000000063ffffffff8416908102919091179091556040519081527f7460615b2a82592ae60779b21813830f03d8994396a782c0e021a474568325e0906020016108c6565b600054610100900460ff16610a045760405162461bcd60e51b815260040161039c90610c75565b610301336108d1565b63ffffffff811681146102d057600080fd5b600060208284031215610a3157600080fd5b8135610a3c81610a0d565b9392505050565b6001600160a01b03811681146102d057600080fd5b60008060408385031215610a6b57600080fd5b8235610a7681610a43565b946020939093013593505050565b634e487b7160e01b600052604160045260246000fd5b600060208284031215610aac57600080fd5b813567ffffffffffffffff80821115610ac457600080fd5b818401915084601f830112610ad857600080fd5b813581811115610aea57610aea610a84565b604051601f8201601f19908116603f01168101908382118183101715610b1257610b12610a84565b81604052828152876020848701011115610b2b57600080fd5b826020860160208301376000928101602001929092525095945050505050565b600060208284031215610b5d57600080fd5b5035919050565b600060208284031215610b7657600080fd5b8135610a3c81610a43565b634e487b7160e01b600052601160045260246000fd5b63ffffffff818116838216019080821115610bb457610bb4610b81565b5092915050565b600080600080600060a08688031215610bd357600080fd5b8551610bde81610a43565b602087015160408801519196509450610bf681610a0d565b6060870151909350610c0781610a0d565b6080870151909250610c1881610a43565b809150509295509295909350565b63ffffffff828116828216039080821115610bb457610bb4610b81565b600060208284031215610c5557600080fd5b5051919050565b80820180821115610c6f57610c6f610b81565b92915050565b6020808252602b908201527f496e697469616c697a61626c653a20636f6e7472616374206973206e6f74206960408201526a6e697469616c697a696e6760a81b60608201526080019056fea2646970667358221220f3a8ae396c8133943b0e2af7376fbc6711e584c54a2aac6bcf04ae3ab973235764736f6c63430008130033",
  "devdoc": {
    "events": {
      "Initialized(uint8)": {
        "details": "Triggered when the contract has been initialized or reinitialized."
      }
    },
    "kind": "dev",
    "methods": {
      "isFrozen()": {
        "returns": {
          "_0": "bool whether the DAO is currently frozen"
        }
      },
      "owner()": {
        "details": "Returns the address of the current owner."
      },
      "renounceOwnership()": {
        "details": "Leaves the contract without owner. It will not be possible to call `onlyOwner` functions anymore. Can only be called by the current owner. NOTE: Renouncing ownership will leave the contract without an owner, thereby removing any functionality that is only available to the owner."
      },
      "setUp(bytes)": {
        "params": {
          "initializeParams": "encoded initialization parameters: `address _owner`, `uint256 _freezeVotesThreshold`, `uint256 _freezeProposalPeriod`, `uint256 _freezePeriod`, `address _votesERC20`"
        }
      },
      "transferOwnership(address)": {
        "details": "Transfers ownership of the contract to a new account (`newOwner`). Can only be called by the current owner."
      },
      "updateFreezePeriod(uint32)": {
        "params": {
          "_freezePeriod": "number of blocks a freeze lasts, from time of freeze proposal creation"
        }
      },
      "updateFreezeProposalPeriod(uint32)": {
        "params": {
          "_freezeProposalPeriod": "number of blocks a freeze vote has to succeed to enact a freeze"
        }
      },
      "updateFreezeVotesThreshold(uint256)": {
        "params": {
          "_freezeVotesThreshold": "number of freeze votes required to activate a freeze"
        }
      }
    },
    "version": 1
  },
  "userdoc": {
    "kind": "user",
    "methods": {
      "castFreezeVote()": {
        "notice": "Casts a positive vote to freeze the subDAO. This function is intended to be called by the individual token holders themselves directly, and will allot their token holdings a \"yes\" votes towards freezing. Additionally, if a vote to freeze is not already running, calling this will initiate a new vote to freeze it."
      },
      "freezePeriod()": {
        "notice": "Number of blocks a freeze lasts, from time of freeze proposal creation. "
      },
      "freezeProposalCreatedBlock()": {
        "notice": "Block number the freeze proposal was created at. "
      },
      "freezeProposalPeriod()": {
        "notice": "Number of blocks a freeze proposal has to succeed. "
      },
      "freezeProposalVoteCount()": {
        "notice": "Number of accrued freeze votes. "
      },
      "freezeVotesThreshold()": {
        "notice": "Number of freeze votes required to activate a freeze. "
      },
      "isFrozen()": {
        "notice": "Returns true if the DAO is currently frozen, false otherwise. "
      },
      "setUp(bytes)": {
        "notice": "Initialize function, will be triggered when a new instance is deployed."
      },
      "unfreeze()": {
        "notice": "Unfreezes the DAO, only callable by the owner (parentDAO)."
      },
      "updateFreezePeriod(uint32)": {
        "notice": "Updates the freeze period, the time the DAO will be unable to execute transactions for, should a freeze vote pass."
      },
      "updateFreezeProposalPeriod(uint32)": {
        "notice": "Updates the freeze proposal period, the time that parent token holders have to cast votes after a freeze vote has been initiated."
      },
      "updateFreezeVotesThreshold(uint256)": {
        "notice": "Updates the freeze votes threshold, the number of votes required to enact a freeze."
      },
      "userHasFreezeVoted(address,uint256)": {
        "notice": "Mapping of address to the block the freeze vote was started to  whether the address has voted yet on the freeze proposal."
      },
      "votesERC20()": {
        "notice": "A reference to the ERC20 voting token of the subDAO. "
      }
    },
    "notice": "A [BaseFreezeVoting](./BaseFreezeVoting.md) implementation which handles  freezes on ERC20 based token voting DAOs.",
    "version": 1
  },
  "storageLayout": {
    "storage": [
      {
        "astId": 3006,
        "contract": "contracts/ERC20FreezeVoting.sol:ERC20FreezeVoting",
        "label": "_initialized",
        "offset": 0,
        "slot": "0",
        "type": "t_uint8"
      },
      {
        "astId": 3009,
        "contract": "contracts/ERC20FreezeVoting.sol:ERC20FreezeVoting",
        "label": "_initializing",
        "offset": 1,
        "slot": "0",
        "type": "t_bool"
      },
      {
        "astId": 5908,
        "contract": "contracts/ERC20FreezeVoting.sol:ERC20FreezeVoting",
        "label": "__gap",
        "offset": 0,
        "slot": "1",
        "type": "t_array(t_uint256)50_storage"
      },
      {
        "astId": 2800,
        "contract": "contracts/ERC20FreezeVoting.sol:ERC20FreezeVoting",
        "label": "_owner",
        "offset": 0,
        "slot": "51",
        "type": "t_address"
      },
      {
        "astId": 2920,
        "contract": "contracts/ERC20FreezeVoting.sol:ERC20FreezeVoting",
        "label": "__gap",
        "offset": 0,
        "slot": "52",
        "type": "t_array(t_uint256)49_storage"
      },
      {
        "astId": 10739,
        "contract": "contracts/ERC20FreezeVoting.sol:ERC20FreezeVoting",
        "label": "freezeProposalCreatedBlock",
        "offset": 0,
        "slot": "101",
        "type": "t_uint32"
      },
      {
        "astId": 10742,
        "contract": "contracts/ERC20FreezeVoting.sol:ERC20FreezeVoting",
        "label": "freezeProposalPeriod",
        "offset": 4,
        "slot": "101",
        "type": "t_uint32"
      },
      {
        "astId": 10745,
        "contract": "contracts/ERC20FreezeVoting.sol:ERC20FreezeVoting",
        "label": "freezePeriod",
        "offset": 8,
        "slot": "101",
        "type": "t_uint32"
      },
      {
        "astId": 10748,
        "contract": "contracts/ERC20FreezeVoting.sol:ERC20FreezeVoting",
        "label": "freezeVotesThreshold",
        "offset": 0,
        "slot": "102",
        "type": "t_uint256"
      },
      {
        "astId": 10751,
        "contract": "contracts/ERC20FreezeVoting.sol:ERC20FreezeVoting",
        "label": "freezeProposalVoteCount",
        "offset": 0,
        "slot": "103",
        "type": "t_uint256"
      },
      {
        "astId": 10758,
        "contract": "contracts/ERC20FreezeVoting.sol:ERC20FreezeVoting",
        "label": "userHasFreezeVoted",
        "offset": 0,
        "slot": "104",
        "type": "t_mapping(t_address,t_mapping(t_uint256,t_bool))"
      },
      {
        "astId": 11215,
        "contract": "contracts/ERC20FreezeVoting.sol:ERC20FreezeVoting",
        "label": "votesERC20",
        "offset": 0,
        "slot": "105",
        "type": "t_contract(IVotes)9180"
      }
    ],
    "types": {
      "t_address": {
        "encoding": "inplace",
        "label": "address",
        "numberOfBytes": "20"
      },
      "t_array(t_uint256)49_storage": {
        "base": "t_uint256",
        "encoding": "inplace",
        "label": "uint256[49]",
        "numberOfBytes": "1568"
      },
      "t_array(t_uint256)50_storage": {
        "base": "t_uint256",
        "encoding": "inplace",
        "label": "uint256[50]",
        "numberOfBytes": "1600"
      },
      "t_bool": {
        "encoding": "inplace",
        "label": "bool",
        "numberOfBytes": "1"
      },
      "t_contract(IVotes)9180": {
        "encoding": "inplace",
        "label": "contract IVotes",
        "numberOfBytes": "20"
      },
      "t_mapping(t_address,t_mapping(t_uint256,t_bool))": {
        "encoding": "mapping",
        "key": "t_address",
        "label": "mapping(address => mapping(uint256 => bool))",
        "numberOfBytes": "32",
        "value": "t_mapping(t_uint256,t_bool)"
      },
      "t_mapping(t_uint256,t_bool)": {
        "encoding": "mapping",
        "key": "t_uint256",
        "label": "mapping(uint256 => bool)",
        "numberOfBytes": "32",
        "value": "t_bool"
      },
      "t_uint256": {
        "encoding": "inplace",
        "label": "uint256",
        "numberOfBytes": "32"
      },
      "t_uint32": {
        "encoding": "inplace",
        "label": "uint32",
        "numberOfBytes": "4"
      },
      "t_uint8": {
        "encoding": "inplace",
        "label": "uint8",
        "numberOfBytes": "1"
      }
    }
  }
}