{
  "address": "0x29e4a78CDcC2632943Ab208Ed8a3490EE24877e7",
  "abi": [
    {
      "anonymous": false,
      "inputs": [
        {
          "indexed": true,
          "internalType": "address",
          "name": "daoAddress",
          "type": "address"
        },
        {
          "indexed": false,
          "internalType": "string",
          "name": "daoName",
          "type": "string"
        }
      ],
      "name": "FractalNameUpdated",
      "type": "event"
    },
    {
      "anonymous": false,
      "inputs": [
        {
          "indexed": true,
          "internalType": "address",
          "name": "parentDAOAddress",
          "type": "address"
        },
        {
          "indexed": true,
          "internalType": "address",
          "name": "subDAOAddress",
          "type": "address"
        }
      ],
      "name": "FractalSubDAODeclared",
      "type": "event"
    },
    {
      "inputs": [
        {
          "internalType": "address",
          "name": "_subDAOAddress",
          "type": "address"
        }
      ],
      "name": "declareSubDAO",
      "outputs": [],
      "stateMutability": "nonpayable",
      "type": "function"
    },
    {
      "inputs": [
        {
          "internalType": "string",
          "name": "_name",
          "type": "string"
        }
      ],
      "name": "updateDAOName",
      "outputs": [],
      "stateMutability": "nonpayable",
      "type": "function"
    }
  ],
  "transactionHash": "0x3ce07494839571040296cc7e2fc05cae4c55402be635fabb1b08f317e6ebec71",
  "args": [],
  "numDeployments": 1,
  "solcInputHash": "1d4db493f19216415c5f7fff75592fd3",
  "bytecode": "0x608060405234801561001057600080fd5b5061025b806100206000396000f3fe608060405234801561001057600080fd5b50600436106100365760003560e01c8063ad25ee4a1461003b578063b7d0e69114610050575b600080fd5b61004e6100493660046100f6565b610063565b005b61004e61005e3660046101a7565b6100a7565b336001600160a01b03167f3c7e9162ed121fd2c775c8c39886daeaede693a6e24ac0fa81e50c47833a9e088260405161009c91906101d7565b60405180910390a250565b6040516001600160a01b0382169033907f099c708754e573857f5a1999a474653fd72d617a0619e740e41bd3b882b64bb890600090a350565b634e487b7160e01b600052604160045260246000fd5b60006020828403121561010857600080fd5b813567ffffffffffffffff8082111561012057600080fd5b818401915084601f83011261013457600080fd5b813581811115610146576101466100e0565b604051601f8201601f19908116603f0116810190838211818310171561016e5761016e6100e0565b8160405282815287602084870101111561018757600080fd5b826020860160208301376000928101602001929092525095945050505050565b6000602082840312156101b957600080fd5b81356001600160a01b03811681146101d057600080fd5b9392505050565b600060208083528351808285015260005b81811015610204578581018301518582016040015282016101e8565b506000604082860101526040601f19601f830116850101925050509291505056fea2646970667358221220c9704393f225ebf9b597916fd2aac4caf85257abf82a74d6e9cda5748e7b78bf64736f6c63430008130033",
  "devdoc": {
    "kind": "dev",
    "methods": {
      "declareSubDAO(address)": {
        "params": {
          "_subDAOAddress": "address of the subDAO to declare       as a child of the caller"
        }
      },
      "updateDAOName(string)": {
        "params": {
          "_name": "new DAO name"
        }
      }
    },
    "version": 1
  },
  "userdoc": {
    "kind": "user",
    "methods": {
      "declareSubDAO(address)": {
        "notice": "Declares an address as a subDAO of the caller's address. This declaration has no binding logic, and serves only to allow us to find the list of \"potential\" subDAOs of any  given Safe address. Given the list of declaring events, we can then check each Safe still has a [FractalModule](../FractalModule.md) attached. If no FractalModule is attached, we'll exclude it from the DAO hierarchy. In the case of a Safe attaching a FractalModule without calling  to declare it, we would unfortunately not know to display it  as a subDAO."
      },
      "updateDAOName(string)": {
        "notice": "Updates a DAO's registered \"name\". This is a simple string with no restrictions or validation for uniqueness."
      }
    },
    "notice": "Implementation of [IFractalRegistry](./interfaces/IFractalRegistry.md).",
    "version": 1
  },
  "storageLayout": {
    "storage": [],
    "types": null
  }
}