{
  "address": "0x260BcebDb25fa17f63972010E7b4EfC5C1D0fE0f",
  "abi": [
    {
      "inputs": [
        {
          "internalType": "address",
          "name": "guard_",
          "type": "address"
        }
      ],
      "name": "NotIERC165Compliant",
      "type": "error"
    },
    {
      "anonymous": false,
      "inputs": [
        {
          "indexed": true,
          "internalType": "address",
          "name": "previousAvatar",
          "type": "address"
        },
        {
          "indexed": true,
          "internalType": "address",
          "name": "newAvatar",
          "type": "address"
        }
      ],
      "name": "AvatarSet",
      "type": "event"
    },
    {
      "anonymous": false,
      "inputs": [
        {
          "indexed": false,
          "internalType": "address",
          "name": "guard",
          "type": "address"
        }
      ],
      "name": "ChangedGuard",
      "type": "event"
    },
    {
      "anonymous": false,
      "inputs": [
        {
          "indexed": false,
          "internalType": "address[]",
          "name": "controllers",
          "type": "address[]"
        }
      ],
      "name": "ControllersAdded",
      "type": "event"
    },
    {
      "anonymous": false,
      "inputs": [
        {
          "indexed": false,
          "internalType": "address[]",
          "name": "controllers",
          "type": "address[]"
        }
      ],
      "name": "ControllersRemoved",
      "type": "event"
    },
    {
      "anonymous": false,
      "inputs": [
        {
          "indexed": false,
          "internalType": "uint8",
          "name": "version",
          "type": "uint8"
        }
      ],
      "name": "Initialized",
      "type": "event"
    },
    {
      "anonymous": false,
      "inputs": [
        {
          "indexed": true,
          "internalType": "address",
          "name": "previousOwner",
          "type": "address"
        },
        {
          "indexed": true,
          "internalType": "address",
          "name": "newOwner",
          "type": "address"
        }
      ],
      "name": "OwnershipTransferred",
      "type": "event"
    },
    {
      "anonymous": false,
      "inputs": [
        {
          "indexed": true,
          "internalType": "address",
          "name": "previousTarget",
          "type": "address"
        },
        {
          "indexed": true,
          "internalType": "address",
          "name": "newTarget",
          "type": "address"
        }
      ],
      "name": "TargetSet",
      "type": "event"
    },
    {
      "inputs": [
        {
          "internalType": "address[]",
          "name": "_controllers",
          "type": "address[]"
        }
      ],
      "name": "addControllers",
      "outputs": [],
      "stateMutability": "nonpayable",
      "type": "function"
    },
    {
      "inputs": [],
      "name": "avatar",
      "outputs": [
        {
          "internalType": "address",
          "name": "",
          "type": "address"
        }
      ],
      "stateMutability": "view",
      "type": "function"
    },
    {
      "inputs": [
        {
          "internalType": "address",
          "name": "",
          "type": "address"
        }
      ],
      "name": "controllers",
      "outputs": [
        {
          "internalType": "bool",
          "name": "",
          "type": "bool"
        }
      ],
      "stateMutability": "view",
      "type": "function"
    },
    {
      "inputs": [
        {
          "internalType": "bytes",
          "name": "execTxData",
          "type": "bytes"
        }
      ],
      "name": "execTx",
      "outputs": [],
      "stateMutability": "nonpayable",
      "type": "function"
    },
    {
      "inputs": [],
      "name": "getGuard",
      "outputs": [
        {
          "internalType": "address",
          "name": "_guard",
          "type": "address"
        }
      ],
      "stateMutability": "view",
      "type": "function"
    },
    {
      "inputs": [],
      "name": "guard",
      "outputs": [
        {
          "internalType": "address",
          "name": "",
          "type": "address"
        }
      ],
      "stateMutability": "view",
      "type": "function"
    },
    {
      "inputs": [],
      "name": "owner",
      "outputs": [
        {
          "internalType": "address",
          "name": "",
          "type": "address"
        }
      ],
      "stateMutability": "view",
      "type": "function"
    },
    {
      "inputs": [
        {
          "internalType": "address[]",
          "name": "_controllers",
          "type": "address[]"
        }
      ],
      "name": "removeControllers",
      "outputs": [],
      "stateMutability": "nonpayable",
      "type": "function"
    },
    {
      "inputs": [],
      "name": "renounceOwnership",
      "outputs": [],
      "stateMutability": "nonpayable",
      "type": "function"
    },
    {
      "inputs": [
        {
          "internalType": "address",
          "name": "_avatar",
          "type": "address"
        }
      ],
      "name": "setAvatar",
      "outputs": [],
      "stateMutability": "nonpayable",
      "type": "function"
    },
    {
      "inputs": [
        {
          "internalType": "address",
          "name": "_guard",
          "type": "address"
        }
      ],
      "name": "setGuard",
      "outputs": [],
      "stateMutability": "nonpayable",
      "type": "function"
    },
    {
      "inputs": [
        {
          "internalType": "address",
          "name": "_target",
          "type": "address"
        }
      ],
      "name": "setTarget",
      "outputs": [],
      "stateMutability": "nonpayable",
      "type": "function"
    },
    {
      "inputs": [
        {
          "internalType": "bytes",
          "name": "initializeParams",
          "type": "bytes"
        }
      ],
      "name": "setUp",
      "outputs": [],
      "stateMutability": "nonpayable",
      "type": "function"
    },
    {
      "inputs": [
        {
          "internalType": "bytes4",
          "name": "interfaceId",
          "type": "bytes4"
        }
      ],
      "name": "supportsInterface",
      "outputs": [
        {
          "internalType": "bool",
          "name": "",
          "type": "bool"
        }
      ],
      "stateMutability": "pure",
      "type": "function"
    },
    {
      "inputs": [],
      "name": "target",
      "outputs": [
        {
          "internalType": "address",
          "name": "",
          "type": "address"
        }
      ],
      "stateMutability": "view",
      "type": "function"
    },
    {
      "inputs": [
        {
          "internalType": "address",
          "name": "newOwner",
          "type": "address"
        }
      ],
      "name": "transferOwnership",
      "outputs": [],
      "stateMutability": "nonpayable",
      "type": "function"
    }
  ],
  "transactionHash": "0x4e6150a190040daa817f2b191439280b3583d14ed1ebbe81b3e2b6dc6191dead",
  "args": [],
  "numDeployments": 1,
  "solcInputHash": "b2fc18a2e663b1410a34647a57a06e84",
  "bytecode": "0x608060405234801561001057600080fd5b506110fd806100206000396000f3fe608060405234801561001057600080fd5b50600436106101005760003560e01c8063a4f9edbf11610097578063da8c229e11610066578063da8c229e14610209578063db9253bb1461022c578063e19a9dd91461023f578063f2fde38b1461025257600080fd5b8063a4f9edbf146101bf578063c9106389146101d2578063d2a1ba91146101e3578063d4b83992146101f657600080fd5b8063776d1a01116100d3578063776d1a01146101755780637ceab3b1146101885780637f2d6b521461019b5780638da5cb5b146101ae57600080fd5b806301ffc9a714610105578063086cfca81461012d5780635aef7de614610142578063715018a61461016d575b600080fd5b610118610113366004610b18565b610265565b60405190151581526020015b60405180910390f35b61014061013b366004610b5e565b61029c565b005b606654610155906001600160a01b031681565b6040516001600160a01b039091168152602001610124565b6101406102f6565b610140610183366004610b5e565b61030a565b606554610155906001600160a01b031681565b6101406101a9366004610be6565b610364565b6033546001600160a01b0316610155565b6101406101cd366004610cad565b610407565b6065546001600160a01b0316610155565b6101406101f1366004610be6565b610564565b606754610155906001600160a01b031681565b610118610217366004610b5e565b60686020526000908152604090205460ff1681565b61014061023a366004610cad565b6105fb565b61014061024d366004610b5e565b6106f0565b610140610260366004610b5e565b6107f2565b60006001600160e01b03198216630ec3d04f60e31b148061029657506001600160e01b031982166301ffc9a760e01b145b92915050565b6102a461086b565b606680546001600160a01b038381166001600160a01b0319831681179093556040519116919082907f52ae88b092de36f87fb43fe794eb1381023b9c1bce563a871154022c63dce34290600090a35050565b6102fe61086b565b61030860006108c5565b565b61031261086b565b606780546001600160a01b038381166001600160a01b0319831681179093556040519116919082907f90cc2f570a6eb594b1580ea3e41247d2d73a55281889e86bd4ec2fc29c7e62d690600090a35050565b61036c61086b565b805160005b818110156103cb5760006068600085848151811061039157610391610d28565b6020908102919091018101516001600160a01b03168252810191909152604001600020805460ff1916911515919091179055600101610371565b507fb5f92e548cdd019bd2a27508fd74c89e6c8e0f176b3c704b1cb75b465c78b308826040516103fb9190610d3e565b60405180910390a15050565b600054610100900460ff16158080156104275750600054600160ff909116105b806104415750303b158015610441575060005460ff166001145b6104a95760405162461bcd60e51b815260206004820152602e60248201527f496e697469616c697a61626c653a20636f6e747261637420697320616c72656160448201526d191e481a5b9a5d1a585b1a5e995960921b60648201526084015b60405180910390fd5b6000805460ff1916600117905580156104cc576000805461ff0019166101001790555b6104d4610917565b600080600080858060200190518101906104ee9190610d8b565b93509350935093506104ff8361029c565b6105088261030a565b61051181610564565b61051a846107f2565b505050508015610560576000805461ff0019169055604051600181527f7f26b83ff96e1f2b6a682f133852f6798a09c465da95921460cefb3847402498906020016103fb565b5050565b61056c61086b565b805160005b818110156105cb5760016068600085848151811061059157610591610d28565b6020908102919091018101516001600160a01b03168252810191909152604001600020805460ff1916911515919091179055600101610571565b507f94fa36754b82a6daa4c5fdab179c4d32d1bcf70e7aaf53537e0928b9be800a91826040516103fb9190610d3e565b3361060e6033546001600160a01b031690565b6001600160a01b0316148061063257503360009081526068602052604090205460ff165b61066f5760405162461bcd60e51b815260206004820152600e60248201526d139bdd08105d5d1a1bdc9a5e995960921b60448201526064016104a0565b600080600080848060200190518101906106899190610e91565b935093509350935061069d84848484610946565b6106e95760405162461bcd60e51b815260206004820152601960248201527f4d6f64756c65207472616e73616374696f6e206661696c65640000000000000060448201526064016104a0565b5050505050565b6106f861086b565b6001600160a01b0381161561079e576040516301ffc9a760e01b815263736bd41d60e11b60048201526001600160a01b038216906301ffc9a790602401602060405180830381865afa158015610752573d6000803e3d6000fd5b505050506040513d601f19601f820116820180604052508101906107769190610f3e565b61079e576040516358b7533f60e11b81526001600160a01b03821660048201526024016104a0565b606580546001600160a01b0319166001600160a01b0383169081179091556040519081527f1151116914515bc0891ff9047a6cb32cf902546f83066499bcf8ba33d2353fa29060200160405180910390a150565b6107fa61086b565b6001600160a01b03811661085f5760405162461bcd60e51b815260206004820152602660248201527f4f776e61626c653a206e6577206f776e657220697320746865207a65726f206160448201526564647265737360d01b60648201526084016104a0565b610868816108c5565b50565b6033546001600160a01b031633146103085760405162461bcd60e51b815260206004820181905260248201527f4f776e61626c653a2063616c6c6572206973206e6f7420746865206f776e657260448201526064016104a0565b603380546001600160a01b038381166001600160a01b0319831681179093556040519116919082907f8be0079c531659141344cd1fd0a4f28419497f9722a3daafe3b4186f6b6457e090600090a35050565b600054610100900460ff1661093e5760405162461bcd60e51b81526004016104a090610f60565b610308610ae8565b6065546000906001600160a01b0316156109e8576065546040805180820182526002815261060f60f31b60208201529051633af85da960e11b81526001600160a01b03909216916375f0bb52916109b59189918991899189916000918291829182918291903390600401610ff9565b600060405180830381600087803b1580156109cf57600080fd5b505af11580156109e3573d6000803e3d6000fd5b505050505b60675460405163468721a760e01b81526001600160a01b039091169063468721a790610a1e908890889088908890600401611088565b6020604051808303816000875af1158015610a3d573d6000803e3d6000fd5b505050506040513d601f19601f82011682018060405250810190610a619190610f3e565b6065549091506001600160a01b031615610ae057606554604051631264e26d60e31b815261060f60f31b600482015282151560248201526001600160a01b0390911690639327136890604401600060405180830381600087803b158015610ac757600080fd5b505af1158015610adb573d6000803e3d6000fd5b505050505b949350505050565b600054610100900460ff16610b0f5760405162461bcd60e51b81526004016104a090610f60565b610308336108c5565b600060208284031215610b2a57600080fd5b81356001600160e01b031981168114610b4257600080fd5b9392505050565b6001600160a01b038116811461086857600080fd5b600060208284031215610b7057600080fd5b8135610b4281610b49565b634e487b7160e01b600052604160045260246000fd5b604051601f8201601f1916810167ffffffffffffffff81118282101715610bba57610bba610b7b565b604052919050565b600067ffffffffffffffff821115610bdc57610bdc610b7b565b5060051b60200190565b60006020808385031215610bf957600080fd5b823567ffffffffffffffff811115610c1057600080fd5b8301601f81018513610c2157600080fd5b8035610c34610c2f82610bc2565b610b91565b81815260059190911b82018301908381019087831115610c5357600080fd5b928401925b82841015610c7a578335610c6b81610b49565b82529284019290840190610c58565b979650505050505050565b600067ffffffffffffffff821115610c9f57610c9f610b7b565b50601f01601f191660200190565b600060208284031215610cbf57600080fd5b813567ffffffffffffffff811115610cd657600080fd5b8201601f81018413610ce757600080fd5b8035610cf5610c2f82610c85565b818152856020838501011115610d0a57600080fd5b81602084016020830137600091810160200191909152949350505050565b634e487b7160e01b600052603260045260246000fd5b6020808252825182820181905260009190848201906040850190845b81811015610d7f5783516001600160a01b031683529284019291840191600101610d5a565b50909695505050505050565b60008060008060808587031215610da157600080fd5b8451610dac81610b49565b80945050602080860151610dbf81610b49565b6040870151909450610dd081610b49565b606087015190935067ffffffffffffffff811115610ded57600080fd5b8601601f81018813610dfe57600080fd5b8051610e0c610c2f82610bc2565b81815260059190911b8201830190838101908a831115610e2b57600080fd5b928401925b82841015610e52578351610e4381610b49565b82529284019290840190610e30565b979a9699509497505050505050565b60005b83811015610e7c578181015183820152602001610e64565b83811115610e8b576000848401525b50505050565b60008060008060808587031215610ea757600080fd5b8451610eb281610b49565b60208601516040870151919550935067ffffffffffffffff811115610ed657600080fd5b8501601f81018713610ee757600080fd5b8051610ef5610c2f82610c85565b818152886020838501011115610f0a57600080fd5b610f1b826020830160208601610e61565b809450505050606085015160028110610f3357600080fd5b939692955090935050565b600060208284031215610f5057600080fd5b81518015158114610b4257600080fd5b6020808252602b908201527f496e697469616c697a61626c653a20636f6e7472616374206973206e6f74206960408201526a6e697469616c697a696e6760a81b606082015260800190565b60008151808452610fc3816020860160208601610e61565b601f01601f19169290920160200192915050565b60028110610ff557634e487b7160e01b600052602160045260246000fd5b9052565b6001600160a01b038c81168252602082018c9052610160604083018190526000916110268483018e610fab565b9150611035606085018d610fd7565b8a60808501528960a08501528860c085015280881660e085015280871661010085015283820361012085015261106b8287610fab565b925080851661014085015250509c9b505050505050505050505050565b60018060a01b03851681528360208201526080604082015260006110af6080830185610fab565b90506110be6060830184610fd7565b9594505050505056fea264697066735822122008aa8635f25bf3985546d946f920a88268cf7bd79344d933bd7b8edb6c1cd10964736f6c634300080d0033",
  "devdoc": {
    "kind": "dev",
    "methods": {
      "addControllers(address[])": {
        "params": {
          "_controllers": "Addresses added to the contoller list"
        }
      },
      "execTx(bytes)": {
        "params": {
          "execTxData": "Data payload of module transaction."
        }
      },
      "owner()": {
        "details": "Returns the address of the current owner."
      },
      "removeControllers(address[])": {
        "params": {
          "_controllers": "Addresses removed to the contoller list"
        }
      },
      "renounceOwnership()": {
        "details": "Leaves the contract without owner. It will not be possible to call `onlyOwner` functions anymore. Can only be called by the current owner. NOTE: Renouncing ownership will leave the contract without an owner, thereby removing any functionality that is only available to the owner."
      },
      "setAvatar(address)": {
        "details": "Sets the avatar to a new avatar (`newAvatar`)."
      },
      "setGuard(address)": {
        "details": "Set a guard that checks transactions before execution.",
        "params": {
          "_guard": "The address of the guard to be used or the 0 address to disable the guard."
        }
      },
      "setTarget(address)": {
        "details": "Sets the target to a new target (`newTarget`)."
      },
      "setUp(bytes)": {
        "details": "Initialize function",
        "params": {
          "initializeParams": "Parameters of initialization encoded"
        }
      },
      "supportsInterface(bytes4)": {
        "params": {
          "interfaceId": "An interface ID bytes4 as defined by ERC-165"
        },
        "returns": {
          "_0": "bool Indicates whether the interface is supported"
        }
      },
      "transferOwnership(address)": {
        "details": "Transfers ownership of the contract to a new account (`newOwner`). Can only be called by the current owner."
      }
    },
    "version": 1
  },
  "userdoc": {
    "errors": {
      "NotIERC165Compliant(address)": [
        {
          "notice": "`guard_` does not implement IERC165."
        }
      ]
    },
    "kind": "user",
    "methods": {
      "addControllers(address[])": {
        "notice": "Allows the module owner to add users which may exectxs"
      },
      "execTx(bytes)": {
        "notice": "Allows an authorized user to exec a Gnosis Safe tx via the module"
      },
      "removeControllers(address[])": {
        "notice": "Allows the module owner to remove users which may exectxs"
      },
      "setAvatar(address)": {
        "notice": "Can only be called by the current owner."
      },
      "setTarget(address)": {
        "notice": "Can only be called by the current owner."
      },
      "supportsInterface(bytes4)": {
        "notice": "Returns whether a given interface ID is supported"
      }
    },
    "version": 1
  },
  "storageLayout": {
    "storage": [
      {
        "astId": 3006,
        "contract": "contracts/FractalModule.sol:FractalModule",
        "label": "_initialized",
        "offset": 0,
        "slot": "0",
        "type": "t_uint8"
      },
      {
        "astId": 3009,
        "contract": "contracts/FractalModule.sol:FractalModule",
        "label": "_initializing",
        "offset": 1,
        "slot": "0",
        "type": "t_bool"
      },
      {
        "astId": 5465,
        "contract": "contracts/FractalModule.sol:FractalModule",
        "label": "__gap",
        "offset": 0,
        "slot": "1",
        "type": "t_array(t_uint256)50_storage"
      },
      {
        "astId": 2800,
        "contract": "contracts/FractalModule.sol:FractalModule",
        "label": "_owner",
        "offset": 0,
        "slot": "51",
        "type": "t_address"
      },
      {
        "astId": 2920,
        "contract": "contracts/FractalModule.sol:FractalModule",
        "label": "__gap",
        "offset": 0,
        "slot": "52",
        "type": "t_array(t_uint256)49_storage"
      },
      {
        "astId": 2607,
        "contract": "contracts/FractalModule.sol:FractalModule",
        "label": "guard",
        "offset": 0,
        "slot": "101",
        "type": "t_address"
      },
      {
        "astId": 2285,
        "contract": "contracts/FractalModule.sol:FractalModule",
        "label": "avatar",
        "offset": 0,
        "slot": "102",
        "type": "t_address"
      },
      {
        "astId": 2288,
        "contract": "contracts/FractalModule.sol:FractalModule",
        "label": "target",
        "offset": 0,
        "slot": "103",
        "type": "t_address"
      },
      {
        "astId": 9590,
        "contract": "contracts/FractalModule.sol:FractalModule",
        "label": "controllers",
        "offset": 0,
        "slot": "104",
        "type": "t_mapping(t_address,t_bool)"
      }
    ],
    "types": {
      "t_address": {
        "encoding": "inplace",
        "label": "address",
        "numberOfBytes": "20"
      },
      "t_array(t_uint256)49_storage": {
        "base": "t_uint256",
        "encoding": "inplace",
        "label": "uint256[49]",
        "numberOfBytes": "1568"
      },
      "t_array(t_uint256)50_storage": {
        "base": "t_uint256",
        "encoding": "inplace",
        "label": "uint256[50]",
        "numberOfBytes": "1600"
      },
      "t_bool": {
        "encoding": "inplace",
        "label": "bool",
        "numberOfBytes": "1"
      },
      "t_mapping(t_address,t_bool)": {
        "encoding": "mapping",
        "key": "t_address",
        "label": "mapping(address => bool)",
        "numberOfBytes": "32",
        "value": "t_bool"
      },
      "t_uint256": {
        "encoding": "inplace",
        "label": "uint256",
        "numberOfBytes": "32"
      },
      "t_uint8": {
        "encoding": "inplace",
        "label": "uint8",
        "numberOfBytes": "1"
      }
    }
  }
}