{
  "address": "0x07045A57F381A90A52f9BE87B4019Be7e6C76C89",
  "abi": [
    {
      "inputs": [],
      "name": "AlreadyVoted",
      "type": "error"
    },
    {
      "inputs": [],
      "name": "InvalidBasisNumerator",
      "type": "error"
    },
    {
      "inputs": [],
      "name": "InvalidProposal",
      "type": "error"
    },
    {
      "inputs": [],
      "name": "InvalidQuorumNumerator",
      "type": "error"
    },
    {
      "inputs": [],
      "name": "InvalidTokenAddress",
      "type": "error"
    },
    {
      "inputs": [],
      "name": "InvalidVote",
      "type": "error"
    },
    {
      "inputs": [],
      "name": "OnlyAzorius",
      "type": "error"
    },
    {
      "inputs": [],
      "name": "VotingEnded",
      "type": "error"
    },
    {
      "anonymous": false,
      "inputs": [
        {
          "indexed": true,
          "internalType": "address",
          "name": "azoriusModule",
          "type": "address"
        }
      ],
      "name": "AzoriusSet",
      "type": "event"
    },
    {
      "anonymous": false,
      "inputs": [
        {
          "indexed": false,
          "internalType": "uint256",
          "name": "basisNumerator",
          "type": "uint256"
        }
      ],
      "name": "BasisNumeratorUpdated",
      "type": "event"
    },
    {
      "anonymous": false,
      "inputs": [
        {
          "indexed": false,
          "internalType": "uint8",
          "name": "version",
          "type": "uint8"
        }
      ],
      "name": "Initialized",
      "type": "event"
    },
    {
      "anonymous": false,
      "inputs": [
        {
          "indexed": true,
          "internalType": "address",
          "name": "previousOwner",
          "type": "address"
        },
        {
          "indexed": true,
          "internalType": "address",
          "name": "newOwner",
          "type": "address"
        }
      ],
      "name": "OwnershipTransferred",
      "type": "event"
    },
    {
      "anonymous": false,
      "inputs": [
        {
          "indexed": false,
          "internalType": "uint32",
          "name": "proposalId",
          "type": "uint32"
        },
        {
          "indexed": false,
          "internalType": "uint32",
          "name": "votingEndBlock",
          "type": "uint32"
        }
      ],
      "name": "ProposalInitialized",
      "type": "event"
    },
    {
      "anonymous": false,
      "inputs": [
        {
          "indexed": false,
          "internalType": "uint256",
          "name": "quorumNumerator",
          "type": "uint256"
        }
      ],
      "name": "QuorumNumeratorUpdated",
      "type": "event"
    },
    {
      "anonymous": false,
      "inputs": [
        {
          "indexed": false,
          "internalType": "uint256",
          "name": "requiredProposerWeight",
          "type": "uint256"
        }
      ],
      "name": "RequiredProposerWeightUpdated",
      "type": "event"
    },
    {
      "anonymous": false,
      "inputs": [
        {
          "indexed": true,
          "internalType": "address",
          "name": "azoriusModule",
          "type": "address"
        },
        {
          "indexed": true,
          "internalType": "address",
          "name": "owner",
          "type": "address"
        }
      ],
      "name": "StrategySetUp",
      "type": "event"
    },
    {
      "anonymous": false,
      "inputs": [
        {
          "indexed": false,
          "internalType": "address",
          "name": "voter",
          "type": "address"
        },
        {
          "indexed": false,
          "internalType": "uint32",
          "name": "proposalId",
          "type": "uint32"
        },
        {
          "indexed": false,
          "internalType": "uint8",
          "name": "voteType",
          "type": "uint8"
        },
        {
          "indexed": false,
          "internalType": "uint256",
          "name": "weight",
          "type": "uint256"
        }
      ],
      "name": "Voted",
      "type": "event"
    },
    {
      "anonymous": false,
      "inputs": [
        {
          "indexed": false,
          "internalType": "uint32",
          "name": "votingPeriod",
          "type": "uint32"
        }
      ],
      "name": "VotingPeriodUpdated",
      "type": "event"
    },
    {
      "inputs": [],
      "name": "BASIS_DENOMINATOR",
      "outputs": [
        {
          "internalType": "uint256",
          "name": "",
          "type": "uint256"
        }
      ],
      "stateMutability": "view",
      "type": "function"
    },
    {
      "inputs": [],
      "name": "QUORUM_DENOMINATOR",
      "outputs": [
        {
          "internalType": "uint256",
          "name": "",
          "type": "uint256"
        }
      ],
      "stateMutability": "view",
      "type": "function"
    },
    {
      "inputs": [],
      "name": "azoriusModule",
      "outputs": [
        {
          "internalType": "contract IAzorius",
          "name": "",
          "type": "address"
        }
      ],
      "stateMutability": "view",
      "type": "function"
    },
    {
      "inputs": [],
      "name": "basisNumerator",
      "outputs": [
        {
          "internalType": "uint256",
          "name": "",
          "type": "uint256"
        }
      ],
      "stateMutability": "view",
      "type": "function"
    },
    {
      "inputs": [
        {
          "internalType": "uint32",
          "name": "_proposalId",
          "type": "uint32"
        }
      ],
      "name": "getProposalVotes",
      "outputs": [
        {
          "internalType": "uint256",
          "name": "noVotes",
          "type": "uint256"
        },
        {
          "internalType": "uint256",
          "name": "yesVotes",
          "type": "uint256"
        },
        {
          "internalType": "uint256",
          "name": "abstainVotes",
          "type": "uint256"
        },
        {
          "internalType": "uint32",
          "name": "startBlock",
          "type": "uint32"
        },
        {
          "internalType": "uint32",
          "name": "endBlock",
          "type": "uint32"
        }
      ],
      "stateMutability": "view",
      "type": "function"
    },
    {
      "inputs": [
        {
          "internalType": "address",
          "name": "_voter",
          "type": "address"
        },
        {
          "internalType": "uint32",
          "name": "_proposalId",
          "type": "uint32"
        }
      ],
      "name": "getVotingWeight",
      "outputs": [
        {
          "internalType": "uint256",
          "name": "",
          "type": "uint256"
        }
      ],
      "stateMutability": "view",
      "type": "function"
    },
    {
      "inputs": [],
      "name": "governanceToken",
      "outputs": [
        {
          "internalType": "contract IVotes",
          "name": "",
          "type": "address"
        }
      ],
      "stateMutability": "view",
      "type": "function"
    },
    {
      "inputs": [
        {
          "internalType": "uint32",
          "name": "_proposalId",
          "type": "uint32"
        },
        {
          "internalType": "address",
          "name": "_address",
          "type": "address"
        }
      ],
      "name": "hasVoted",
      "outputs": [
        {
          "internalType": "bool",
          "name": "",
          "type": "bool"
        }
      ],
      "stateMutability": "view",
      "type": "function"
    },
    {
      "inputs": [
        {
          "internalType": "bytes",
          "name": "_data",
          "type": "bytes"
        }
      ],
      "name": "initializeProposal",
      "outputs": [],
      "stateMutability": "nonpayable",
      "type": "function"
    },
    {
      "inputs": [
        {
          "internalType": "uint32",
          "name": "_proposalId",
          "type": "uint32"
        }
      ],
      "name": "isPassed",
      "outputs": [
        {
          "internalType": "bool",
          "name": "",
          "type": "bool"
        }
      ],
      "stateMutability": "view",
      "type": "function"
    },
    {
      "inputs": [
        {
          "internalType": "address",
          "name": "_address",
          "type": "address"
        }
      ],
      "name": "isProposer",
      "outputs": [
        {
          "internalType": "bool",
          "name": "",
          "type": "bool"
        }
      ],
      "stateMutability": "view",
      "type": "function"
    },
    {
      "inputs": [
        {
          "internalType": "uint256",
          "name": "_yesVotes",
          "type": "uint256"
        },
        {
          "internalType": "uint256",
          "name": "_noVotes",
          "type": "uint256"
        }
      ],
      "name": "meetsBasis",
      "outputs": [
        {
          "internalType": "bool",
          "name": "",
          "type": "bool"
        }
      ],
      "stateMutability": "view",
      "type": "function"
    },
    {
      "inputs": [
        {
          "internalType": "uint256",
          "name": "_totalSupply",
          "type": "uint256"
        },
        {
          "internalType": "uint256",
          "name": "_yesVotes",
          "type": "uint256"
        },
        {
          "internalType": "uint256",
          "name": "_abstainVotes",
          "type": "uint256"
        }
      ],
      "name": "meetsQuorum",
      "outputs": [
        {
          "internalType": "bool",
          "name": "",
          "type": "bool"
        }
      ],
      "stateMutability": "view",
      "type": "function"
    },
    {
      "inputs": [],
      "name": "owner",
      "outputs": [
        {
          "internalType": "address",
          "name": "",
          "type": "address"
        }
      ],
      "stateMutability": "view",
      "type": "function"
    },
    {
      "inputs": [],
      "name": "quorumNumerator",
      "outputs": [
        {
          "internalType": "uint256",
          "name": "",
          "type": "uint256"
        }
      ],
      "stateMutability": "view",
      "type": "function"
    },
    {
      "inputs": [],
      "name": "renounceOwnership",
      "outputs": [],
      "stateMutability": "nonpayable",
      "type": "function"
    },
    {
      "inputs": [],
      "name": "requiredProposerWeight",
      "outputs": [
        {
          "internalType": "uint256",
          "name": "",
          "type": "uint256"
        }
      ],
      "stateMutability": "view",
      "type": "function"
    },
    {
      "inputs": [
        {
          "internalType": "address",
          "name": "_azoriusModule",
          "type": "address"
        }
      ],
      "name": "setAzorius",
      "outputs": [],
      "stateMutability": "nonpayable",
      "type": "function"
    },
    {
      "inputs": [
        {
          "internalType": "bytes",
          "name": "initializeParams",
          "type": "bytes"
        }
      ],
      "name": "setUp",
      "outputs": [],
      "stateMutability": "nonpayable",
      "type": "function"
    },
    {
      "inputs": [
        {
          "internalType": "address",
          "name": "newOwner",
          "type": "address"
        }
      ],
      "name": "transferOwnership",
      "outputs": [],
      "stateMutability": "nonpayable",
      "type": "function"
    },
    {
      "inputs": [
        {
          "internalType": "uint256",
          "name": "_basisNumerator",
          "type": "uint256"
        }
      ],
      "name": "updateBasisNumerator",
      "outputs": [],
      "stateMutability": "nonpayable",
      "type": "function"
    },
    {
      "inputs": [
        {
          "internalType": "uint256",
          "name": "_quorumNumerator",
          "type": "uint256"
        }
      ],
      "name": "updateQuorumNumerator",
      "outputs": [],
      "stateMutability": "nonpayable",
      "type": "function"
    },
    {
      "inputs": [
        {
          "internalType": "uint256",
          "name": "_requiredProposerWeight",
          "type": "uint256"
        }
      ],
      "name": "updateRequiredProposerWeight",
      "outputs": [],
      "stateMutability": "nonpayable",
      "type": "function"
    },
    {
      "inputs": [
        {
          "internalType": "uint32",
          "name": "_votingPeriod",
          "type": "uint32"
        }
      ],
      "name": "updateVotingPeriod",
      "outputs": [],
      "stateMutability": "nonpayable",
      "type": "function"
    },
    {
      "inputs": [
        {
          "internalType": "uint32",
          "name": "_proposalId",
          "type": "uint32"
        },
        {
          "internalType": "uint8",
          "name": "_voteType",
          "type": "uint8"
        }
      ],
      "name": "vote",
      "outputs": [],
      "stateMutability": "nonpayable",
      "type": "function"
    },
    {
      "inputs": [
        {
          "internalType": "uint32",
          "name": "_proposalId",
          "type": "uint32"
        }
      ],
      "name": "votingEndBlock",
      "outputs": [
        {
          "internalType": "uint32",
          "name": "",
          "type": "uint32"
        }
      ],
      "stateMutability": "view",
      "type": "function"
    },
    {
      "inputs": [],
      "name": "votingPeriod",
      "outputs": [
        {
          "internalType": "uint32",
          "name": "",
          "type": "uint32"
        }
      ],
      "stateMutability": "view",
      "type": "function"
    }
  ],
  "transactionHash": "0x1ddc4cd8db118716a2e507bb304215211b68c8fbc47d2c2339fcab27f0b16791",
  "args": [],
  "numDeployments": 1,
  "solcInputHash": "47e1125d24b18568844b42c32fd9e135",
  "bytecode": "0x608060405234801561001057600080fd5b506113b8806100206000396000f3fe608060405234801561001057600080fd5b50600436106101a95760003560e01c8063918f84bf116100f9578063bf7e2c7f11610097578063deb61c1511610071578063deb61c15146103c1578063e8575a7f1461043b578063f2fde38b1461044e578063f96dae0a1461046157600080fd5b8063bf7e2c7f14610361578063ca1dc30b1461036a578063d3c22b381461037d57600080fd5b80639dd783c2116100d35780639dd783c21461031f578063a4f9edbf14610332578063a7713a7014610345578063a77a81d01461034e57600080fd5b8063918f84bf146102f05780639767fb72146103035780639bff4df41461031657600080fd5b806366b629551161016657806374ec29a01161014057806374ec29a0146102b95780638081be91146102995780638a2f2c8a146102cc5780638da5cb5b146102df57600080fd5b806366b629551461026e5780636fef541a14610299578063715018a6146102b157600080fd5b806302a251a3146101ae57806306f3f9e6146101df57806333f48a5e146101f457806337938ab31461020757806353a8b3201461021a57806355a9dbd91461023d575b600080fd5b6068546101c590600160a01b900463ffffffff1681565b60405163ffffffff90911681526020015b60405180910390f35b6101f26101ed366004610fc0565b610474565b005b6101f2610202366004610feb565b610488565b6101f261021536600461101d565b610499565b61022d610228366004610feb565b6104eb565b60405190151581526020016101d6565b6101c561024b366004610feb565b63ffffffff9081166000908152606a602052604090205464010000000090041690565b606554610281906001600160a01b031681565b6040516001600160a01b0390911681526020016101d6565b6102a3620f424081565b6040519081526020016101d6565b6101f26105fa565b61022d6102c736600461101d565b61060e565b6101f26102da366004610fc0565b6106a7565b6033546001600160a01b0316610281565b61022d6102fe36600461103a565b6106b8565b6101f261031136600461105c565b6106ea565b6102a360695481565b61022d61032d36600461109b565b610703565b6101f26103403660046110dd565b610735565b6102a360665481565b6101f261035c3660046110dd565b61093a565b6102a360675481565b6102a361037836600461118e565b610a21565b61022d61038b3660046111bc565b63ffffffff82166000908152606a602090815260408083206001600160a01b038516845260040190915290205460ff1692915050565b61040a6103cf366004610feb565b63ffffffff9081166000908152606a602052604090206001810154600282015460038301549254919490938281169264010000000090041690565b6040805195865260208601949094529284019190915263ffffffff908116606084015216608082015260a0016101d6565b6101f2610449366004610fc0565b610ab6565b6101f261045c36600461101d565b610ac7565b606854610281906001600160a01b031681565b61047c610b3d565b61048581610b97565b50565b610490610b3d565b61048581610bf7565b6104a1610b3d565b606580546001600160a01b0319166001600160a01b0383169081179091556040517fac8d831a6ed53a98387842e08d9e0893c1d478f4a3710b254e22bd58c06b269090600090a250565b63ffffffff8082166000908152606a6020526040812054909164010000000090910416431180156105c3575060685463ffffffff8381166000908152606a602052604090819020549051632394e7a360e21b8152911660048201526105c3916001600160a01b031690638e539e8c90602401602060405180830381865afa15801561057a573d6000803e3d6000fd5b505050506040513d601f19601f8201168201806040525081019061059e91906111ea565b63ffffffff84166000908152606a602052604090206002810154600390910154610703565b80156105f4575063ffffffff82166000908152606a6020526040902060028101546001909101546105f491906106b8565b92915050565b610602610b3d565b61060c6000610c4b565b565b606954606854600091906001600160a01b0316633a46b1a884610632600143611219565b6040516001600160e01b031960e085901b1681526001600160a01b0390921660048301526024820152604401602060405180830381865afa15801561067b573d6000803e3d6000fd5b505050506040513d601f19601f8201168201806040525081019061069f91906111ea565b101592915050565b6106af610b3d565b61048581610c9d565b6000620f424060675483856106cd919061122c565b6106d7919061123f565b6106e19190611256565b90921192915050565b6106ff8233836106fa3387610a21565b610cd2565b5050565b6000620f424060665485610717919061123f565b6107219190611256565b61072b838561122c565b1015949350505050565b600054610100900460ff16158080156107555750600054600160ff909116105b8061076f5750303b15801561076f575060005460ff166001145b6107d75760405162461bcd60e51b815260206004820152602e60248201527f496e697469616c697a61626c653a20636f6e747261637420697320616c72656160448201526d191e481a5b9a5d1a585b1a5e995960921b60648201526084015b60405180910390fd5b6000805460ff1916600117905580156107fa576000805461ff0019166101001790555b6000806000806000806000888060200190518101906108199190611278565b959c50939a5091985096509450925090506001600160a01b03861661085157604051630f58058360e11b815260040160405180910390fd5b606880546001600160a01b0319166001600160a01b038816179055610874610ef1565b61087d87610ac7565b610886856104a1565b61088f82610b97565b61089881610f20565b6108a184610bf7565b6108aa83610c9d565b866001600160a01b0316856001600160a01b03167fca32f512f02914f6bc16a49e786443029061b9adc5a987fd2f6efa56c0116a1660405160405180910390a35050505050505080156106ff576000805461ff0019169055604051600181527f7f26b83ff96e1f2b6a682f133852f6798a09c465da95921460cefb38474024989060200160405180910390a15050565b6065546001600160a01b03163314610965576040516358c30ce160e01b815260040160405180910390fd5b60008180602001905181019061097b91906112f6565b60685490915060009061099b90600160a01b900463ffffffff1643611313565b63ffffffff8381166000818152606a6020908152604091829020805467ffffffffffffffff191664010000000087871690810263ffffffff1916919091174390961695909517905581519283528201929092529192507f80d0ad93bba25e53bf67fa9f2d13df59f04795ec2f91b9b3c1f607666daf9d64910160405180910390a1505050565b60685463ffffffff8281166000908152606a6020526040808220549051630748d63560e31b81526001600160a01b03878116600483015291909316602484015290921690633a46b1a890604401602060405180830381865afa158015610a8b573d6000803e3d6000fd5b505050506040513d601f19601f82011682018060405250810190610aaf91906111ea565b9392505050565b610abe610b3d565b61048581610f20565b610acf610b3d565b6001600160a01b038116610b345760405162461bcd60e51b815260206004820152602660248201527f4f776e61626c653a206e6577206f776e657220697320746865207a65726f206160448201526564647265737360d01b60648201526084016107ce565b61048581610c4b565b6033546001600160a01b0316331461060c5760405162461bcd60e51b815260206004820181905260248201527f4f776e61626c653a2063616c6c6572206973206e6f7420746865206f776e657260448201526064016107ce565b620f4240811115610bbb57604051630d2a3fcb60e41b815260040160405180910390fd5b60668190556040518181527f0cc18e3862a55e514917eb8f248561dd65e0fbbba65f5468f203e92193635dd3906020015b60405180910390a150565b6068805463ffffffff60a01b1916600160a01b63ffffffff8416908102919091179091556040519081527f70770ce479f70673c3ed8fff63cfb758a6ffdddc30cab7c63d54c8d825e3948890602001610bec565b603380546001600160a01b038381166001600160a01b0319831681179093556040519116919082907f8be0079c531659141344cd1fd0a4f28419497f9722a3daafe3b4186f6b6457e090600090a35050565b60698190556040518181527f93deb5027728f04c9fd8d7bcea2efb36cc7a6a7876236649f2952de0aa89a01190602001610bec565b63ffffffff8085166000908152606a602052604081205464010000000090049091169003610d1357604051631dc0650160e31b815260040160405180910390fd5b63ffffffff8085166000908152606a6020526040902054640100000000900416431115610d5357604051637a19ed0560e01b815260040160405180910390fd5b63ffffffff84166000908152606a602090815260408083206001600160a01b038716845260040190915290205460ff1615610da157604051637c9a1cf960e01b815260040160405180910390fd5b63ffffffff84166000908152606a602090815260408083206001600160a01b03871684526004019091529020805460ff1916600117905560ff8216610e135763ffffffff84166000908152606a602052604081206001018054839290610e0890849061122c565b90915550610e949050565b60001960ff831601610e475763ffffffff84166000908152606a602052604081206002018054839290610e0890849061122c565b60011960ff831601610e7b5763ffffffff84166000908152606a602052604081206003018054839290610e0890849061122c565b604051636aee863360e11b815260040160405180910390fd5b604080516001600160a01b038516815263ffffffff8616602082015260ff8416818301526060810183905290517fe82b577bd384111662dd034b9114cbe59b26ea201f009d385006518ed28bed819181900360800190a150505050565b600054610100900460ff16610f185760405162461bcd60e51b81526004016107ce90611337565b61060c610f90565b620f4240811180610f3d5750610f3a6002620f4240611256565b81105b15610f5b576040516302396b6b60e61b815260040160405180910390fd5b60678190556040518181527f406c076eac4d3dde1c5d55793e80239daa8c60ee971390ce3d9f90ca4206295390602001610bec565b600054610100900460ff16610fb75760405162461bcd60e51b81526004016107ce90611337565b61060c33610c4b565b600060208284031215610fd257600080fd5b5035919050565b63ffffffff8116811461048557600080fd5b600060208284031215610ffd57600080fd5b8135610aaf81610fd9565b6001600160a01b038116811461048557600080fd5b60006020828403121561102f57600080fd5b8135610aaf81611008565b6000806040838503121561104d57600080fd5b50508035926020909101359150565b6000806040838503121561106f57600080fd5b823561107a81610fd9565b9150602083013560ff8116811461109057600080fd5b809150509250929050565b6000806000606084860312156110b057600080fd5b505081359360208301359350604090920135919050565b634e487b7160e01b600052604160045260246000fd5b6000602082840312156110ef57600080fd5b813567ffffffffffffffff8082111561110757600080fd5b818401915084601f83011261111b57600080fd5b81358181111561112d5761112d6110c7565b604051601f8201601f19908116603f01168101908382118183101715611155576111556110c7565b8160405282815287602084870101111561116e57600080fd5b826020860160208301376000928101602001929092525095945050505050565b600080604083850312156111a157600080fd5b82356111ac81611008565b9150602083013561109081610fd9565b600080604083850312156111cf57600080fd5b82356111da81610fd9565b9150602083013561109081611008565b6000602082840312156111fc57600080fd5b5051919050565b634e487b7160e01b600052601160045260246000fd5b818103818111156105f4576105f4611203565b808201808211156105f4576105f4611203565b80820281158282048414176105f4576105f4611203565b60008261127357634e487b7160e01b600052601260045260246000fd5b500490565b600080600080600080600060e0888a03121561129357600080fd5b875161129e81611008565b60208901519097506112af81611008565b60408901519096506112c081611008565b60608901519095506112d181610fd9565b809450506080880151925060a0880151915060c0880151905092959891949750929550565b60006020828403121561130857600080fd5b8151610aaf81610fd9565b63ffffffff81811683821601908082111561133057611330611203565b5092915050565b6020808252602b908201527f496e697469616c697a61626c653a20636f6e7472616374206973206e6f74206960408201526a6e697469616c697a696e6760a81b60608201526080019056fea264697066735822122033d7a64febfe449cd72372a13084785d11a63907c4613ebcb78668c4704190d564736f6c63430008130033",
  "devdoc": {
    "events": {
      "Initialized(uint8)": {
        "details": "Triggered when the contract has been initialized or reinitialized."
      }
    },
    "kind": "dev",
    "methods": {
      "getProposalVotes(uint32)": {
        "params": {
          "_proposalId": "id of the Proposal"
        },
        "returns": {
          "abstainVotes": "current count of \"ABSTAIN\" votes",
          "endBlock": "block number voting ends",
          "noVotes": "current count of \"NO\" votes",
          "startBlock": "block number voting starts",
          "yesVotes": "current count of \"YES\" votes"
        }
      },
      "getVotingWeight(address,uint32)": {
        "params": {
          "_proposalId": "id of the Proposal",
          "_voter": "address of the voter"
        },
        "returns": {
          "_0": "uint256 the address' voting weight"
        }
      },
      "hasVoted(uint32,address)": {
        "params": {
          "_address": "address to check",
          "_proposalId": "id of the Proposal to check"
        },
        "returns": {
          "_0": "bool true if the address has voted on the Proposal, otherwise false"
        }
      },
      "initializeProposal(bytes)": {
        "params": {
          "_data": "arbitrary data to pass to this BaseStrategy"
        }
      },
      "isPassed(uint32)": {
        "params": {
          "_proposalId": "proposalId to check"
        },
        "returns": {
          "_0": "bool true if the proposal has passed, otherwise false"
        }
      },
      "isProposer(address)": {
        "params": {
          "_address": "address to check"
        },
        "returns": {
          "_0": "bool true if the address can submit a Proposal, otherwise false"
        }
      },
      "meetsQuorum(uint256,uint256,uint256)": {
        "params": {
          "_abstainVotes": "number of votes abstaining",
          "_totalSupply": "the total supply of tokens",
          "_yesVotes": "number of votes in favor"
        },
        "returns": {
          "_0": "bool whether the total number of yes votes + abstain meets the quorum"
        }
      },
      "owner()": {
        "details": "Returns the address of the current owner."
      },
      "renounceOwnership()": {
        "details": "Leaves the contract without owner. It will not be possible to call `onlyOwner` functions anymore. Can only be called by the current owner. NOTE: Renouncing ownership will leave the contract without an owner, thereby removing any functionality that is only available to the owner."
      },
      "setAzorius(address)": {
        "params": {
          "_azoriusModule": "address of the Azorius Safe module"
        }
      },
      "setUp(bytes)": {
        "params": {
          "initializeParams": "encoded initialization parameters: `address _owner`, `ERC20Votes _governanceToken`, `address _azoriusModule`, `uint256 _votingPeriod`, `uint256 _quorumNumerator`, `uint256 _basisNumerator`"
        }
      },
      "transferOwnership(address)": {
        "details": "Transfers ownership of the contract to a new account (`newOwner`). Can only be called by the current owner."
      },
      "updateBasisNumerator(uint256)": {
        "params": {
          "_basisNumerator": "numerator to use"
        }
      },
      "updateQuorumNumerator(uint256)": {
        "params": {
          "_quorumNumerator": "numerator to use when calculating quorum (over 1,000,000)"
        }
      },
      "updateRequiredProposerWeight(uint256)": {
        "params": {
          "_requiredProposerWeight": "required token voting weight"
        }
      },
      "updateVotingPeriod(uint32)": {
        "params": {
          "_votingPeriod": "voting time period (in blocks)"
        }
      },
      "vote(uint32,uint8)": {
        "params": {
          "_proposalId": "id of the Proposal to vote on",
          "_voteType": "Proposal support as defined in VoteType (NO, YES, ABSTAIN)"
        }
      },
      "votingEndBlock(uint32)": {
        "params": {
          "_proposalId": "proposalId to check"
        },
        "returns": {
          "_0": "uint32 block number when voting ends on the Proposal"
        }
      }
    },
    "version": 1
  },
  "userdoc": {
    "errors": {
      "InvalidQuorumNumerator()": [
        {
          "notice": "Ensures the numerator cannot be larger than the denominator. "
        }
      ]
    },
    "kind": "user",
    "methods": {
      "BASIS_DENOMINATOR()": {
        "notice": "The denominator to use when calculating basis (1,000,000). "
      },
      "QUORUM_DENOMINATOR()": {
        "notice": "The denominator to use when calculating quorum (1,000,000). "
      },
      "basisNumerator()": {
        "notice": "The numerator to use when calculating basis (adjustable). "
      },
      "getProposalVotes(uint32)": {
        "notice": "Returns the current state of the specified Proposal."
      },
      "getVotingWeight(address,uint32)": {
        "notice": "Calculates the voting weight an address has for a specific Proposal."
      },
      "hasVoted(uint32,address)": {
        "notice": "Returns whether an address has voted on the specified Proposal."
      },
      "initializeProposal(bytes)": {
        "notice": "Called by the [Azorius](../Azorius.md) module. This notifies this  [BaseStrategy](../BaseStrategy.md) that a new Proposal has been created."
      },
      "isPassed(uint32)": {
        "notice": "Returns whether a Proposal has been passed."
      },
      "isProposer(address)": {
        "notice": "Returns whether the specified address can submit a Proposal with this [BaseStrategy](../BaseStrategy.md). This allows a BaseStrategy to place any limits it would like on who can create new Proposals, such as requiring a minimum token delegation."
      },
      "meetsQuorum(uint256,uint256,uint256)": {
        "notice": "Calculates whether a vote meets quorum. This is calculated based on yes votes + abstain votes."
      },
      "quorumNumerator()": {
        "notice": "The numerator to use when calculating quorum (adjustable). "
      },
      "requiredProposerWeight()": {
        "notice": "Voting weight required to be able to submit Proposals. "
      },
      "setAzorius(address)": {
        "notice": "Sets the address of the [Azorius](../Azorius.md) contract this  [BaseStrategy](../BaseStrategy.md) is being used on."
      },
      "setUp(bytes)": {
        "notice": "Sets up the contract with its initial parameters."
      },
      "updateBasisNumerator(uint256)": {
        "notice": "Updates the `basisNumerator` for future Proposals."
      },
      "updateQuorumNumerator(uint256)": {
        "notice": "Updates the quorum required for future Proposals."
      },
      "updateRequiredProposerWeight(uint256)": {
        "notice": "Updates the voting weight required to submit new Proposals."
      },
      "updateVotingPeriod(uint32)": {
        "notice": "Updates the voting time period for new Proposals."
      },
      "vote(uint32,uint8)": {
        "notice": "Casts votes for a Proposal, equal to the caller's token delegation."
      },
      "votingEndBlock(uint32)": {
        "notice": "Returns the block number voting ends on a given Proposal."
      },
      "votingPeriod()": {
        "notice": "Number of blocks a new Proposal can be voted on. "
      }
    },
    "notice": "An [Azorius](./Azorius.md) [BaseStrategy](./BaseStrategy.md) implementation that  enables linear (i.e. 1 to 1) token voting. Each token delegated to a given address  in an `ERC20Votes` token equals 1 vote for a Proposal.",
    "version": 1
  },
  "storageLayout": {
    "storage": [
      {
        "astId": 3006,
        "contract": "contracts/azorius/LinearERC20Voting.sol:LinearERC20Voting",
        "label": "_initialized",
        "offset": 0,
        "slot": "0",
        "type": "t_uint8"
      },
      {
        "astId": 3009,
        "contract": "contracts/azorius/LinearERC20Voting.sol:LinearERC20Voting",
        "label": "_initializing",
        "offset": 1,
        "slot": "0",
        "type": "t_bool"
      },
      {
        "astId": 5465,
        "contract": "contracts/azorius/LinearERC20Voting.sol:LinearERC20Voting",
        "label": "__gap",
        "offset": 0,
        "slot": "1",
        "type": "t_array(t_uint256)50_storage"
      },
      {
        "astId": 2800,
        "contract": "contracts/azorius/LinearERC20Voting.sol:LinearERC20Voting",
        "label": "_owner",
        "offset": 0,
        "slot": "51",
        "type": "t_address"
      },
      {
        "astId": 2920,
        "contract": "contracts/azorius/LinearERC20Voting.sol:LinearERC20Voting",
        "label": "__gap",
        "offset": 0,
        "slot": "52",
        "type": "t_array(t_uint256)49_storage"
      },
      {
        "astId": 12550,
        "contract": "contracts/azorius/LinearERC20Voting.sol:LinearERC20Voting",
        "label": "azoriusModule",
        "offset": 0,
        "slot": "101",
        "type": "t_contract(IAzorius)13504"
      },
      {
        "astId": 12447,
        "contract": "contracts/azorius/LinearERC20Voting.sol:LinearERC20Voting",
        "label": "quorumNumerator",
        "offset": 0,
        "slot": "102",
        "type": "t_uint256"
      },
      {
        "astId": 12643,
        "contract": "contracts/azorius/LinearERC20Voting.sol:LinearERC20Voting",
        "label": "basisNumerator",
        "offset": 0,
        "slot": "103",
        "type": "t_uint256"
      },
      {
        "astId": 12756,
        "contract": "contracts/azorius/LinearERC20Voting.sol:LinearERC20Voting",
        "label": "governanceToken",
        "offset": 0,
        "slot": "104",
        "type": "t_contract(IVotes)8737"
      },
      {
        "astId": 12759,
        "contract": "contracts/azorius/LinearERC20Voting.sol:LinearERC20Voting",
        "label": "votingPeriod",
        "offset": 20,
        "slot": "104",
        "type": "t_uint32"
      },
      {
        "astId": 12762,
        "contract": "contracts/azorius/LinearERC20Voting.sol:LinearERC20Voting",
        "label": "requiredProposerWeight",
        "offset": 0,
        "slot": "105",
        "type": "t_uint256"
      },
      {
        "astId": 12768,
        "contract": "contracts/azorius/LinearERC20Voting.sol:LinearERC20Voting",
        "label": "proposalVotes",
        "offset": 0,
        "slot": "106",
        "type": "t_mapping(t_uint256,t_struct(ProposalVotes)12753_storage)"
      }
    ],
    "types": {
      "t_address": {
        "encoding": "inplace",
        "label": "address",
        "numberOfBytes": "20"
      },
      "t_array(t_uint256)49_storage": {
        "base": "t_uint256",
        "encoding": "inplace",
        "label": "uint256[49]",
        "numberOfBytes": "1568"
      },
      "t_array(t_uint256)50_storage": {
        "base": "t_uint256",
        "encoding": "inplace",
        "label": "uint256[50]",
        "numberOfBytes": "1600"
      },
      "t_bool": {
        "encoding": "inplace",
        "label": "bool",
        "numberOfBytes": "1"
      },
      "t_contract(IAzorius)13504": {
        "encoding": "inplace",
        "label": "contract IAzorius",
        "numberOfBytes": "20"
      },
      "t_contract(IVotes)8737": {
        "encoding": "inplace",
        "label": "contract IVotes",
        "numberOfBytes": "20"
      },
      "t_mapping(t_address,t_bool)": {
        "encoding": "mapping",
        "key": "t_address",
        "label": "mapping(address => bool)",
        "numberOfBytes": "32",
        "value": "t_bool"
      },
      "t_mapping(t_uint256,t_struct(ProposalVotes)12753_storage)": {
        "encoding": "mapping",
        "key": "t_uint256",
        "label": "mapping(uint256 => struct LinearERC20Voting.ProposalVotes)",
        "numberOfBytes": "32",
        "value": "t_struct(ProposalVotes)12753_storage"
      },
      "t_struct(ProposalVotes)12753_storage": {
        "encoding": "inplace",
        "label": "struct LinearERC20Voting.ProposalVotes",
        "members": [
          {
            "astId": 12740,
            "contract": "contracts/azorius/LinearERC20Voting.sol:LinearERC20Voting",
            "label": "votingStartBlock",
            "offset": 0,
            "slot": "0",
            "type": "t_uint32"
          },
          {
            "astId": 12742,
            "contract": "contracts/azorius/LinearERC20Voting.sol:LinearERC20Voting",
            "label": "votingEndBlock",
            "offset": 4,
            "slot": "0",
            "type": "t_uint32"
          },
          {
            "astId": 12744,
            "contract": "contracts/azorius/LinearERC20Voting.sol:LinearERC20Voting",
            "label": "noVotes",
            "offset": 0,
            "slot": "1",
            "type": "t_uint256"
          },
          {
            "astId": 12746,
            "contract": "contracts/azorius/LinearERC20Voting.sol:LinearERC20Voting",
            "label": "yesVotes",
            "offset": 0,
            "slot": "2",
            "type": "t_uint256"
          },
          {
            "astId": 12748,
            "contract": "contracts/azorius/LinearERC20Voting.sol:LinearERC20Voting",
            "label": "abstainVotes",
            "offset": 0,
            "slot": "3",
            "type": "t_uint256"
          },
          {
            "astId": 12752,
            "contract": "contracts/azorius/LinearERC20Voting.sol:LinearERC20Voting",
            "label": "hasVoted",
            "offset": 0,
            "slot": "4",
            "type": "t_mapping(t_address,t_bool)"
          }
        ],
        "numberOfBytes": "160"
      },
      "t_uint256": {
        "encoding": "inplace",
        "label": "uint256",
        "numberOfBytes": "32"
      },
      "t_uint32": {
        "encoding": "inplace",
        "label": "uint32",
        "numberOfBytes": "4"
      },
      "t_uint8": {
        "encoding": "inplace",
        "label": "uint8",
        "numberOfBytes": "1"
      }
    }
  }
}