{
  "address": "0xC3cfF63CA596990B64146d5284520B58134773A3",
  "abi": [
    {
      "inputs": [
        {
          "internalType": "uint256",
          "name": "tokenId",
          "type": "uint256"
        }
      ],
      "name": "IdAlreadyVoted",
      "type": "error"
    },
    {
      "inputs": [
        {
          "internalType": "uint256",
          "name": "tokenId",
          "type": "uint256"
        }
      ],
      "name": "IdNotOwned",
      "type": "error"
    },
    {
      "inputs": [],
      "name": "InvalidBasisNumerator",
      "type": "error"
    },
    {
      "inputs": [],
      "name": "InvalidParams",
      "type": "error"
    },
    {
      "inputs": [],
      "name": "InvalidProposal",
      "type": "error"
    },
    {
      "inputs": [],
      "name": "InvalidTokenAddress",
      "type": "error"
    },
    {
      "inputs": [],
      "name": "InvalidVote",
      "type": "error"
    },
    {
      "inputs": [],
      "name": "NoVotingWeight",
      "type": "error"
    },
    {
      "inputs": [],
      "name": "OnlyAzorius",
      "type": "error"
    },
    {
      "inputs": [],
      "name": "TokenAlreadySet",
      "type": "error"
    },
    {
      "inputs": [],
      "name": "TokenNotSet",
      "type": "error"
    },
    {
      "inputs": [],
      "name": "VotingEnded",
      "type": "error"
    },
    {
      "anonymous": false,
      "inputs": [
        {
          "indexed": true,
          "internalType": "address",
          "name": "azoriusModule",
          "type": "address"
        }
      ],
      "name": "AzoriusSet",
      "type": "event"
    },
    {
      "anonymous": false,
      "inputs": [
        {
          "indexed": false,
          "internalType": "uint256",
          "name": "basisNumerator",
          "type": "uint256"
        }
      ],
      "name": "BasisNumeratorUpdated",
      "type": "event"
    },
    {
      "anonymous": false,
      "inputs": [
        {
          "indexed": false,
          "internalType": "address",
          "name": "token",
          "type": "address"
        },
        {
          "indexed": false,
          "internalType": "uint256",
          "name": "weight",
          "type": "uint256"
        }
      ],
      "name": "GovernanceTokenAdded",
      "type": "event"
    },
    {
      "anonymous": false,
      "inputs": [
        {
          "indexed": false,
          "internalType": "address",
          "name": "token",
          "type": "address"
        }
      ],
      "name": "GovernanceTokenRemoved",
      "type": "event"
    },
    {
      "anonymous": false,
      "inputs": [
        {
          "indexed": false,
          "internalType": "uint8",
          "name": "version",
          "type": "uint8"
        }
      ],
      "name": "Initialized",
      "type": "event"
    },
    {
      "anonymous": false,
      "inputs": [
        {
          "indexed": true,
          "internalType": "address",
          "name": "previousOwner",
          "type": "address"
        },
        {
          "indexed": true,
          "internalType": "address",
          "name": "newOwner",
          "type": "address"
        }
      ],
      "name": "OwnershipTransferred",
      "type": "event"
    },
    {
      "anonymous": false,
      "inputs": [
        {
          "indexed": false,
          "internalType": "uint32",
          "name": "proposalId",
          "type": "uint32"
        },
        {
          "indexed": false,
          "internalType": "uint32",
          "name": "votingEndBlock",
          "type": "uint32"
        }
      ],
      "name": "ProposalInitialized",
      "type": "event"
    },
    {
      "anonymous": false,
      "inputs": [
        {
          "indexed": false,
          "internalType": "uint256",
          "name": "proposerThreshold",
          "type": "uint256"
        }
      ],
      "name": "ProposerThresholdUpdated",
      "type": "event"
    },
    {
      "anonymous": false,
      "inputs": [
        {
          "indexed": false,
          "internalType": "uint256",
          "name": "quorumThreshold",
          "type": "uint256"
        }
      ],
      "name": "QuorumThresholdUpdated",
      "type": "event"
    },
    {
      "anonymous": false,
      "inputs": [
        {
          "indexed": true,
          "internalType": "address",
          "name": "azoriusModule",
          "type": "address"
        },
        {
          "indexed": true,
          "internalType": "address",
          "name": "owner",
          "type": "address"
        }
      ],
      "name": "StrategySetUp",
      "type": "event"
    },
    {
      "anonymous": false,
      "inputs": [
        {
          "indexed": false,
          "internalType": "address",
          "name": "voter",
          "type": "address"
        },
        {
          "indexed": false,
          "internalType": "uint32",
          "name": "proposalId",
          "type": "uint32"
        },
        {
          "indexed": false,
          "internalType": "uint8",
          "name": "voteType",
          "type": "uint8"
        },
        {
          "indexed": false,
          "internalType": "uint256",
          "name": "weight",
          "type": "uint256"
        }
      ],
      "name": "Voted",
      "type": "event"
    },
    {
      "anonymous": false,
      "inputs": [
        {
          "indexed": false,
          "internalType": "uint32",
          "name": "votingPeriod",
          "type": "uint32"
        }
      ],
      "name": "VotingPeriodUpdated",
      "type": "event"
    },
    {
      "inputs": [],
      "name": "BASIS_DENOMINATOR",
      "outputs": [
        {
          "internalType": "uint256",
          "name": "",
          "type": "uint256"
        }
      ],
      "stateMutability": "view",
      "type": "function"
    },
    {
      "inputs": [
        {
          "internalType": "address",
          "name": "_tokenAddress",
          "type": "address"
        },
        {
          "internalType": "uint256",
          "name": "_weight",
          "type": "uint256"
        }
      ],
      "name": "addGovernanceToken",
      "outputs": [],
      "stateMutability": "nonpayable",
      "type": "function"
    },
    {
      "inputs": [],
      "name": "azoriusModule",
      "outputs": [
        {
          "internalType": "contract IAzorius",
          "name": "",
          "type": "address"
        }
      ],
      "stateMutability": "view",
      "type": "function"
    },
    {
      "inputs": [],
      "name": "basisNumerator",
      "outputs": [
        {
          "internalType": "uint256",
          "name": "",
          "type": "uint256"
        }
      ],
      "stateMutability": "view",
      "type": "function"
    },
    {
      "inputs": [
        {
          "internalType": "uint32",
          "name": "_proposalId",
          "type": "uint32"
        }
      ],
      "name": "getProposalVotes",
      "outputs": [
        {
          "internalType": "uint256",
          "name": "noVotes",
          "type": "uint256"
        },
        {
          "internalType": "uint256",
          "name": "yesVotes",
          "type": "uint256"
        },
        {
          "internalType": "uint256",
          "name": "abstainVotes",
          "type": "uint256"
        },
        {
          "internalType": "uint32",
          "name": "startBlock",
          "type": "uint32"
        },
        {
          "internalType": "uint32",
          "name": "endBlock",
          "type": "uint32"
        }
      ],
      "stateMutability": "view",
      "type": "function"
    },
    {
      "inputs": [
        {
          "internalType": "address",
          "name": "_tokenAddress",
          "type": "address"
        }
      ],
      "name": "getTokenWeight",
      "outputs": [
        {
          "internalType": "uint256",
          "name": "",
          "type": "uint256"
        }
      ],
      "stateMutability": "view",
      "type": "function"
    },
    {
      "inputs": [
        {
          "internalType": "uint32",
          "name": "_proposalId",
          "type": "uint32"
        },
        {
          "internalType": "address",
          "name": "_tokenAddress",
          "type": "address"
        },
        {
          "internalType": "uint256",
          "name": "_tokenId",
          "type": "uint256"
        }
      ],
      "name": "hasVoted",
      "outputs": [
        {
          "internalType": "bool",
          "name": "",
          "type": "bool"
        }
      ],
      "stateMutability": "view",
      "type": "function"
    },
    {
      "inputs": [
        {
          "internalType": "bytes",
          "name": "_data",
          "type": "bytes"
        }
      ],
      "name": "initializeProposal",
      "outputs": [],
      "stateMutability": "nonpayable",
      "type": "function"
    },
    {
      "inputs": [
        {
          "internalType": "uint32",
          "name": "_proposalId",
          "type": "uint32"
        }
      ],
      "name": "isPassed",
      "outputs": [
        {
          "internalType": "bool",
          "name": "",
          "type": "bool"
        }
      ],
      "stateMutability": "view",
      "type": "function"
    },
    {
      "inputs": [
        {
          "internalType": "address",
          "name": "_address",
          "type": "address"
        }
      ],
      "name": "isProposer",
      "outputs": [
        {
          "internalType": "bool",
          "name": "",
          "type": "bool"
        }
      ],
      "stateMutability": "view",
      "type": "function"
    },
    {
      "inputs": [
        {
          "internalType": "uint256",
          "name": "_yesVotes",
          "type": "uint256"
        },
        {
          "internalType": "uint256",
          "name": "_noVotes",
          "type": "uint256"
        }
      ],
      "name": "meetsBasis",
      "outputs": [
        {
          "internalType": "bool",
          "name": "",
          "type": "bool"
        }
      ],
      "stateMutability": "view",
      "type": "function"
    },
    {
      "inputs": [],
      "name": "owner",
      "outputs": [
        {
          "internalType": "address",
          "name": "",
          "type": "address"
        }
      ],
      "stateMutability": "view",
      "type": "function"
    },
    {
      "inputs": [
        {
          "internalType": "uint256",
          "name": "",
          "type": "uint256"
        }
      ],
      "name": "proposalVotes",
      "outputs": [
        {
          "internalType": "uint32",
          "name": "votingStartBlock",
          "type": "uint32"
        },
        {
          "internalType": "uint32",
          "name": "votingEndBlock",
          "type": "uint32"
        },
        {
          "internalType": "uint256",
          "name": "noVotes",
          "type": "uint256"
        },
        {
          "internalType": "uint256",
          "name": "yesVotes",
          "type": "uint256"
        },
        {
          "internalType": "uint256",
          "name": "abstainVotes",
          "type": "uint256"
        }
      ],
      "stateMutability": "view",
      "type": "function"
    },
    {
      "inputs": [],
      "name": "proposerThreshold",
      "outputs": [
        {
          "internalType": "uint256",
          "name": "",
          "type": "uint256"
        }
      ],
      "stateMutability": "view",
      "type": "function"
    },
    {
      "inputs": [],
      "name": "quorumThreshold",
      "outputs": [
        {
          "internalType": "uint256",
          "name": "",
          "type": "uint256"
        }
      ],
      "stateMutability": "view",
      "type": "function"
    },
    {
      "inputs": [
        {
          "internalType": "address",
          "name": "_tokenAddress",
          "type": "address"
        }
      ],
      "name": "removeGovernanceToken",
      "outputs": [],
      "stateMutability": "nonpayable",
      "type": "function"
    },
    {
      "inputs": [],
      "name": "renounceOwnership",
      "outputs": [],
      "stateMutability": "nonpayable",
      "type": "function"
    },
    {
      "inputs": [
        {
          "internalType": "address",
          "name": "_azoriusModule",
          "type": "address"
        }
      ],
      "name": "setAzorius",
      "outputs": [],
      "stateMutability": "nonpayable",
      "type": "function"
    },
    {
      "inputs": [
        {
          "internalType": "bytes",
          "name": "initializeParams",
          "type": "bytes"
        }
      ],
      "name": "setUp",
      "outputs": [],
      "stateMutability": "nonpayable",
      "type": "function"
    },
    {
      "inputs": [
        {
          "internalType": "uint256",
          "name": "",
          "type": "uint256"
        }
      ],
      "name": "tokenAddresses",
      "outputs": [
        {
          "internalType": "address",
          "name": "",
          "type": "address"
        }
      ],
      "stateMutability": "view",
      "type": "function"
    },
    {
      "inputs": [
        {
          "internalType": "address",
          "name": "",
          "type": "address"
        }
      ],
      "name": "tokenWeights",
      "outputs": [
        {
          "internalType": "uint256",
          "name": "",
          "type": "uint256"
        }
      ],
      "stateMutability": "view",
      "type": "function"
    },
    {
      "inputs": [
        {
          "internalType": "address",
          "name": "newOwner",
          "type": "address"
        }
      ],
      "name": "transferOwnership",
      "outputs": [],
      "stateMutability": "nonpayable",
      "type": "function"
    },
    {
      "inputs": [
        {
          "internalType": "uint256",
          "name": "_basisNumerator",
          "type": "uint256"
        }
      ],
      "name": "updateBasisNumerator",
      "outputs": [],
      "stateMutability": "nonpayable",
      "type": "function"
    },
    {
      "inputs": [
        {
          "internalType": "uint256",
          "name": "_proposerThreshold",
          "type": "uint256"
        }
      ],
      "name": "updateProposerThreshold",
      "outputs": [],
      "stateMutability": "nonpayable",
      "type": "function"
    },
    {
      "inputs": [
        {
          "internalType": "uint256",
          "name": "_quorumThreshold",
          "type": "uint256"
        }
      ],
      "name": "updateQuorumThreshold",
      "outputs": [],
      "stateMutability": "nonpayable",
      "type": "function"
    },
    {
      "inputs": [
        {
          "internalType": "uint32",
          "name": "_votingPeriod",
          "type": "uint32"
        }
      ],
      "name": "updateVotingPeriod",
      "outputs": [],
      "stateMutability": "nonpayable",
      "type": "function"
    },
    {
      "inputs": [
        {
          "internalType": "uint32",
          "name": "_proposalId",
          "type": "uint32"
        },
        {
          "internalType": "uint8",
          "name": "_support",
          "type": "uint8"
        },
        {
          "internalType": "address[]",
          "name": "_tokenAddresses",
          "type": "address[]"
        },
        {
          "internalType": "uint256[]",
          "name": "_tokenIds",
          "type": "uint256[]"
        }
      ],
      "name": "vote",
      "outputs": [],
      "stateMutability": "nonpayable",
      "type": "function"
    },
    {
      "inputs": [
        {
          "internalType": "uint32",
          "name": "_proposalId",
          "type": "uint32"
        }
      ],
      "name": "votingEndBlock",
      "outputs": [
        {
          "internalType": "uint32",
          "name": "",
          "type": "uint32"
        }
      ],
      "stateMutability": "view",
      "type": "function"
    },
    {
      "inputs": [],
      "name": "votingPeriod",
      "outputs": [
        {
          "internalType": "uint32",
          "name": "",
          "type": "uint32"
        }
      ],
      "stateMutability": "view",
      "type": "function"
    }
  ],
  "transactionHash": "0x06e579978981afefdd4cd53009d8866ce3033bee29478e2d0781dd18170f57e9",
  "args": [],
  "numDeployments": 1,
  "solcInputHash": "bc131257acdd5bdae5313b935ed28501",
  "bytecode": "0x608060405234801561001057600080fd5b5061001961001e565b6100de565b600054610100900460ff161561008a5760405162461bcd60e51b815260206004820152602760248201527f496e697469616c697a61626c653a20636f6e747261637420697320696e697469604482015266616c697a696e6760c81b606482015260840160405180910390fd5b60005460ff90811610156100dc576000805460ff191660ff9081179091556040519081527f7f26b83ff96e1f2b6a682f133852f6798a09c465da95921460cefb38474024989060200160405180910390a15b565b611a97806100ed6000396000f3fe608060405234801561001057600080fd5b50600436106101cf5760003560e01c80638081be9111610104578063bf7e2c7f116100a2578063deb61c1511610071578063deb61c15146104a6578063e5df8b841461051f578063e8575a7f14610532578063f2fde38b1461054557600080fd5b8063bf7e2c7f14610434578063c0dce37f1461043d578063c909c3b114610450578063d877ee1d1461049d57600080fd5b8063a4f9edbf116100de578063a4f9edbf146103db578063a77a81d0146103ee578063ab2f3ad414610401578063b1d1196f1461042157600080fd5b80638081be91146103ad5780638da5cb5b146103b7578063918f84bf146103c857600080fd5b806353a8b3201161017157806366b629551161014b57806366b629551461035e578063715018a61461038957806374ec29a0146103915780637b7a91dd146103a457600080fd5b806353a8b32014610296578063544ffc9c146102b957806355a9dbd91461032e57600080fd5b8063250aa683116101ad578063250aa6831461022657806333f48a5e1461025d57806337938ab3146102705780634e2addad1461028357600080fd5b806302a251a3146101d45780631dc48947146101fe578063210a5e8714610213575b600080fd5b606a546101e49063ffffffff1681565b60405163ffffffff90911681526020015b60405180910390f35b61021161020c3660046113fa565b610558565b005b6102116102213660046113fa565b61056c565b61024f610234366004611428565b6001600160a01b031660009081526069602052604090205490565b6040519081526020016101f5565b61021161026b36600461145e565b61057d565b61021161027e366004611428565b61058e565b610211610291366004611551565b6105e0565b6102a96102a436600461145e565b610615565b60405190151581526020016101f5565b6102fe6102c73660046113fa565b606760205260009081526040902080546001820154600283015460039093015463ffffffff80841694600160201b90940416929085565b6040805163ffffffff9687168152959094166020860152928401919091526060830152608082015260a0016101f5565b6101e461033c36600461145e565b63ffffffff908116600090815260676020526040902054600160201b90041690565b606554610371906001600160a01b031681565b6040516001600160a01b0390911681526020016101f5565b6102116106a7565b6102a961039f366004611428565b6106bb565b61024f606b5481565b61024f620f424081565b6033546001600160a01b0316610371565b6102a96103d6366004611640565b610796565b6102116103e9366004611662565b6107c8565b6102116103fc366004611662565b610a01565b61024f61040f366004611428565b60696020526000908152604090205481565b61021161042f3660046116f7565b610ae0565b61024f60665481565b61021161044b366004611428565b610c5c565b6102a961045e366004611723565b63ffffffff831660009081526067602090815260408083206001600160a01b0386168452600401825280832084845290915290205460ff169392505050565b61024f606c5481565b6104ee6104b436600461145e565b63ffffffff908116600090815260676020526040902060018101546002820154600383015492549194909382811692600160201b90041690565b6040805195865260208601949094529284019190915263ffffffff908116606084015216608082015260a0016101f5565b61037161052d3660046113fa565b610de6565b6102116105403660046113fa565b610e10565b610211610553366004611428565b610e21565b610560610e97565b61056981610ef1565b50565b610574610e97565b61056981610f2d565b610585610e97565b61056981610f62565b610596610e97565b606580546001600160a01b0319166001600160a01b0383169081179091556040517fac8d831a6ed53a98387842e08d9e0893c1d478f4a3710b254e22bd58c06b269090600090a250565b805182511461060257604051635435b28960e11b815260040160405180910390fd5b61060f8433858585610faa565b50505050565b63ffffffff8082166000908152606760205260408120549091600160201b9091041643118015610670575063ffffffff82166000908152606760205260409020600381015460029091015461066a919061177a565b606b5411155b80156106a1575063ffffffff8216600090815260676020526040902060028101546001909101546106a19190610796565b92915050565b6106af610e97565b6106b960006112d9565b565b600080805b60685481101561078a576000606882815481106106df576106df61178d565b6000918252602080832091909101546001600160a01b0390811680845260699092526040928390205492516370a0823160e01b8152908816600482015290925082906370a0823190602401602060405180830381865afa158015610747573d6000803e3d6000fd5b505050506040513d601f19601f8201168201806040525081019061076b91906117a3565b61077591906117bc565b61077f908461177a565b9250506001016106c0565b50606c54111592915050565b6000620f424060665483856107ab919061177a565b6107b591906117bc565b6107bf91906117d3565b90921192915050565b600054610100900460ff16158080156107e85750600054600160ff909116105b806108025750303b158015610802575060005460ff166001145b61086a5760405162461bcd60e51b815260206004820152602e60248201527f496e697469616c697a61626c653a20636f6e747261637420697320616c72656160448201526d191e481a5b9a5d1a585b1a5e995960921b60648201526084015b60405180910390fd5b6000805460ff19166001179055801561088d576000805461ff0019166101001790555b600080600080600080600080898060200190518101906108ad919061186b565b9750975097509750975097509750975085518751146108df57604051635435b28960e11b815260040160405180910390fd5b60005b875181101561092f576109278882815181106109005761090061178d565b602002602001015188838151811061091a5761091a61178d565b6020026020010151610ae0565b6001016108e2565b5061093861132b565b61094188610e21565b61094a85610596565b61095383610f2d565b61095c82610ef1565b6109658161135a565b61096e84610f62565b876001600160a01b0316856001600160a01b03167fca32f512f02914f6bc16a49e786443029061b9adc5a987fd2f6efa56c0116a1660405160405180910390a3505050505050505080156109fd576000805461ff0019169055604051600181527f7f26b83ff96e1f2b6a682f133852f6798a09c465da95921460cefb3847402498906020015b60405180910390a15b5050565b6065546001600160a01b03163314610a2c576040516358c30ce160e01b815260040160405180910390fd5b600081806020019051810190610a429190611983565b606a54909150600090610a5b9063ffffffff16436119a0565b63ffffffff838116600081815260676020908152604091829020805467ffffffffffffffff1916600160201b87871690810263ffffffff1916919091174390961695909517905581519283528201929092529192507f80d0ad93bba25e53bf67fa9f2d13df59f04795ec2f91b9b3c1f607666daf9d64910160405180910390a1505050565b610ae8610e97565b6040516301ffc9a760e01b81526380ac58cd60e01b60048201526001600160a01b038316906301ffc9a790602401602060405180830381865afa158015610b33573d6000803e3d6000fd5b505050506040513d601f19601f82011682018060405250810190610b5791906119c4565b610b7457604051630f58058360e11b815260040160405180910390fd5b80600003610b955760405163923d21f560e01b815260040160405180910390fd5b6001600160a01b03821660009081526069602052604090205415610bcc576040516371168e4f60e11b815260040160405180910390fd5b60688054600181019091557fa2153420d844928b4421650203c77babc8b33d7f2e7b450e2966db0c220977530180546001600160a01b0319166001600160a01b038416908117909155600081815260696020908152604091829020849055815192835282018390527fbf2b7f9fc6e849fdef9ff7366d8b63b608bc69ca778200c53d77372d953dc6b691016109f4565b610c64610e97565b6001600160a01b0381166000908152606960205260408120549003610c9c57604051634b62f01360e01b815260040160405180910390fd5b6001600160a01b0381166000908152606960205260408120819055606854905b81811015610dac5760688181548110610cd757610cd761178d565b6000918252602090912001546001600160a01b0390811690841603610da4576000610d036001846119e6565b905060688181548110610d1857610d1861178d565b600091825260209091200154606880546001600160a01b039092169184908110610d4457610d4461178d565b9060005260206000200160006101000a8154816001600160a01b0302191690836001600160a01b0316021790555060688181548110610d8557610d8561178d565b600091825260209091200180546001600160a01b031916905550610dac565b600101610cbc565b506040516001600160a01b03831681527f14236c39816f331325d02993fa15113b739aff01c21ab8f38cc5253205299fb1906020016109f4565b60688181548110610df657600080fd5b6000918252602090912001546001600160a01b0316905081565b610e18610e97565b6105698161135a565b610e29610e97565b6001600160a01b038116610e8e5760405162461bcd60e51b815260206004820152602660248201527f4f776e61626c653a206e6577206f776e657220697320746865207a65726f206160448201526564647265737360d01b6064820152608401610861565b610569816112d9565b6033546001600160a01b031633146106b95760405162461bcd60e51b815260206004820181905260248201527f4f776e61626c653a2063616c6c6572206973206e6f7420746865206f776e65726044820152606401610861565b606c8190556040518181527f48f79e03d92b3595f74bc3c64746cf148e464673dd036633d34f8afb029482c9906020015b60405180910390a150565b606b8190556040518181527fbc589fccf641d342b7853c2c6faca39631d4d19efbe77e71e5611e31678c220e90602001610f22565b606a805463ffffffff191663ffffffff83169081179091556040519081527f70770ce479f70673c3ed8fff63cfb758a6ffdddc30cab7c63d54c8d825e3948890602001610f22565b6000805b8351811015611166576000848281518110610fcb57610fcb61178d565b602002602001015190506000848381518110610fe957610fe961178d565b60200260200101519050816001600160a01b0316636352211e826040518263ffffffff1660e01b815260040161102191815260200190565b602060405180830381865afa15801561103e573d6000803e3d6000fd5b505050506040513d601f19601f8201168201806040525081019061106291906119f9565b6001600160a01b0316886001600160a01b03161461109657604051639b936ae960e01b815260048101829052602401610861565b63ffffffff891660009081526067602090815260408083206001600160a01b0386168452600401825280832084845290915290205460ff1615156001036110f357604051639602f71160e01b815260048101829052602401610861565b6001600160a01b038216600090815260696020526040902054611116908561177a565b63ffffffff8a1660009081526067602090815260408083206001600160a01b0390961683526004909501815284822093825292909252919020805460ff1916600190811790915590925001610fae565b50806000036111885760405163923d21f560e01b815260040160405180910390fd5b63ffffffff808716600090815260676020526040812080549092600160201b9091041690036111ca57604051631dc0650160e31b815260040160405180910390fd5b8054600160201b900463ffffffff164311156111f957604051637a19ed0560e01b815260040160405180910390fd5b60ff85166112205781816001016000828254611215919061177a565b909155506112799050565b60001960ff8616016112405781816002016000828254611215919061177a565b60011960ff8616016112605781816003016000828254611215919061177a565b604051636aee863360e11b815260040160405180910390fd5b604080516001600160a01b038816815263ffffffff8916602082015260ff8716818301526060810184905290517fe82b577bd384111662dd034b9114cbe59b26ea201f009d385006518ed28bed819181900360800190a150505050505050565b603380546001600160a01b038381166001600160a01b0319831681179093556040519116919082907f8be0079c531659141344cd1fd0a4f28419497f9722a3daafe3b4186f6b6457e090600090a35050565b600054610100900460ff166113525760405162461bcd60e51b815260040161086190611a16565b6106b96113ca565b620f424081118061137757506113746002620f42406117d3565b81105b15611395576040516302396b6b60e61b815260040160405180910390fd5b60668190556040518181527f406c076eac4d3dde1c5d55793e80239daa8c60ee971390ce3d9f90ca4206295390602001610f22565b600054610100900460ff166113f15760405162461bcd60e51b815260040161086190611a16565b6106b9336112d9565b60006020828403121561140c57600080fd5b5035919050565b6001600160a01b038116811461056957600080fd5b60006020828403121561143a57600080fd5b813561144581611413565b9392505050565b63ffffffff8116811461056957600080fd5b60006020828403121561147057600080fd5b81356114458161144c565b634e487b7160e01b600052604160045260246000fd5b604051601f8201601f1916810167ffffffffffffffff811182821017156114ba576114ba61147b565b604052919050565b600067ffffffffffffffff8211156114dc576114dc61147b565b5060051b60200190565b600082601f8301126114f757600080fd5b8135602061150c611507836114c2565b611491565b82815260059290921b8401810191818101908684111561152b57600080fd5b8286015b84811015611546578035835291830191830161152f565b509695505050505050565b6000806000806080858703121561156757600080fd5b84356115728161144c565b935060208581013560ff8116811461158957600080fd5b9350604086013567ffffffffffffffff808211156115a657600080fd5b818801915088601f8301126115ba57600080fd5b81356115c8611507826114c2565b81815260059190911b8301840190848101908b8311156115e757600080fd5b938501935b8285101561160e5784356115ff81611413565b825293850193908501906115ec565b96505050606088013592508083111561162657600080fd5b5050611634878288016114e6565b91505092959194509250565b6000806040838503121561165357600080fd5b50508035926020909101359150565b6000602080838503121561167557600080fd5b823567ffffffffffffffff8082111561168d57600080fd5b818501915085601f8301126116a157600080fd5b8135818111156116b3576116b361147b565b6116c5601f8201601f19168501611491565b915080825286848285010111156116db57600080fd5b8084840185840137600090820190930192909252509392505050565b6000806040838503121561170a57600080fd5b823561171581611413565b946020939093013593505050565b60008060006060848603121561173857600080fd5b83356117438161144c565b9250602084013561175381611413565b929592945050506040919091013590565b634e487b7160e01b600052601160045260246000fd5b808201808211156106a1576106a1611764565b634e487b7160e01b600052603260045260246000fd5b6000602082840312156117b557600080fd5b5051919050565b80820281158282048414176106a1576106a1611764565b6000826117f057634e487b7160e01b600052601260045260246000fd5b500490565b805161180081611413565b919050565b600082601f83011261181657600080fd5b81516020611826611507836114c2565b82815260059290921b8401810191818101908684111561184557600080fd5b8286015b848110156115465780518352918301918301611849565b80516118008161144c565b600080600080600080600080610100898b03121561188857600080fd5b885161189381611413565b809850506020808a015167ffffffffffffffff808211156118b357600080fd5b818c0191508c601f8301126118c757600080fd5b81516118d5611507826114c2565b81815260059190911b8301840190848101908f8311156118f457600080fd5b938501935b8285101561191b57845161190c81611413565b825293850193908501906118f9565b60408f0151909c50945050508083111561193457600080fd5b50506119428b828c01611805565b96505061195160608a016117f5565b945061195f60808a01611860565b935060a0890151925060c0890151915060e089015190509295985092959890939650565b60006020828403121561199557600080fd5b81516114458161144c565b63ffffffff8181168382160190808211156119bd576119bd611764565b5092915050565b6000602082840312156119d657600080fd5b8151801515811461144557600080fd5b818103818111156106a1576106a1611764565b600060208284031215611a0b57600080fd5b815161144581611413565b6020808252602b908201527f496e697469616c697a61626c653a20636f6e7472616374206973206e6f74206960408201526a6e697469616c697a696e6760a81b60608201526080019056fea2646970667358221220ab81278447586746b58149e69172a44d6cbe0a6856499ffac2018827c4ed43e764736f6c63430008130033",
  "devdoc": {
    "events": {
      "Initialized(uint8)": {
        "details": "Triggered when the contract has been initialized or reinitialized."
      }
    },
    "kind": "dev",
    "methods": {
      "initializeProposal(bytes)": {
        "params": {
          "_data": "arbitrary data to pass to this BaseStrategy"
        }
      },
      "isPassed(uint32)": {
        "params": {
          "_proposalId": "proposalId to check"
        },
        "returns": {
          "_0": "bool true if the proposal has passed, otherwise false"
        }
      },
      "isProposer(address)": {
        "params": {
          "_address": "address to check"
        },
        "returns": {
          "_0": "bool true if the address can submit a Proposal, otherwise false"
        }
      },
      "meetsBasis(uint256,uint256)": {
        "params": {
          "_noVotes": "number of votes against",
          "_yesVotes": "number of votes in favor"
        },
        "returns": {
          "_0": "bool whether the yes votes meets the set basis"
        }
      },
      "owner()": {
        "details": "Returns the address of the current owner."
      },
      "renounceOwnership()": {
        "details": "Leaves the contract without owner. It will not be possible to call `onlyOwner` functions anymore. Can only be called by the current owner. NOTE: Renouncing ownership will leave the contract without an owner, thereby removing any functionality that is only available to the owner."
      },
      "setAzorius(address)": {
        "params": {
          "_azoriusModule": "address of the Azorius Safe module"
        }
      },
      "transferOwnership(address)": {
        "details": "Transfers ownership of the contract to a new account (`newOwner`). Can only be called by the current owner."
      },
      "updateBasisNumerator(uint256)": {
        "params": {
          "_basisNumerator": "numerator to use"
        }
      },
      "votingEndBlock(uint32)": {
        "params": {
          "_proposalId": "proposalId to check"
        },
        "returns": {
          "_0": "uint32 block number when voting ends on the Proposal"
        }
      }
    },
    "version": 1
  },
  "userdoc": {
    "kind": "user",
    "methods": {
      "BASIS_DENOMINATOR()": {
        "notice": "The denominator to use when calculating basis (1,000,000). "
      },
      "basisNumerator()": {
        "notice": "The numerator to use when calculating basis (adjustable). "
      },
      "hasVoted(uint32,address,uint256)": {
        "notice": "Returns whether an NFT has already voted."
      },
      "initializeProposal(bytes)": {
        "notice": "Called by the [Azorius](../Azorius.md) module. This notifies this  [BaseStrategy](../BaseStrategy.md) that a new Proposal has been created."
      },
      "isPassed(uint32)": {
        "notice": "Returns whether a Proposal has been passed."
      },
      "isProposer(address)": {
        "notice": "Returns whether the specified address can submit a Proposal with this [BaseStrategy](../BaseStrategy.md). This allows a BaseStrategy to place any limits it would like on who can create new Proposals, such as requiring a minimum token delegation."
      },
      "meetsBasis(uint256,uint256)": {
        "notice": "Calculates whether a vote meets its basis."
      },
      "setAzorius(address)": {
        "notice": "Sets the address of the [Azorius](../Azorius.md) contract this  [BaseStrategy](../BaseStrategy.md) is being used on."
      },
      "updateBasisNumerator(uint256)": {
        "notice": "Updates the `basisNumerator` for future Proposals."
      },
      "votingEndBlock(uint32)": {
        "notice": "Returns the block number voting ends on a given Proposal."
      }
    },
    "notice": "Allows multiple ERC721 tokens to be registered on the strategy as governance tokens,  each with their own voting weight. Since there is no way to snapshot ERC721 holdings, each ERC721 id can vote once, reguardless of where it was when a proposal was created. Also, this uses \"quorumThreshold\" rather than quorumPercent, because total supply is not knowable within the IERC721 interface.  This is similar to a multisig \"total signers\" required, rather than a percentage of the tokens.",
    "version": 1
  },
  "storageLayout": {
    "storage": [
      {
        "astId": 3006,
        "contract": "contracts/azorius/LinearERC721Voting.sol:LinearERC721Voting",
        "label": "_initialized",
        "offset": 0,
        "slot": "0",
        "type": "t_uint8"
      },
      {
        "astId": 3009,
        "contract": "contracts/azorius/LinearERC721Voting.sol:LinearERC721Voting",
        "label": "_initializing",
        "offset": 1,
        "slot": "0",
        "type": "t_bool"
      },
      {
        "astId": 5908,
        "contract": "contracts/azorius/LinearERC721Voting.sol:LinearERC721Voting",
        "label": "__gap",
        "offset": 0,
        "slot": "1",
        "type": "t_array(t_uint256)50_storage"
      },
      {
        "astId": 2800,
        "contract": "contracts/azorius/LinearERC721Voting.sol:LinearERC721Voting",
        "label": "_owner",
        "offset": 0,
        "slot": "51",
        "type": "t_address"
      },
      {
        "astId": 2920,
        "contract": "contracts/azorius/LinearERC721Voting.sol:LinearERC721Voting",
        "label": "__gap",
        "offset": 0,
        "slot": "52",
        "type": "t_array(t_uint256)49_storage"
      },
      {
        "astId": 15331,
        "contract": "contracts/azorius/LinearERC721Voting.sol:LinearERC721Voting",
        "label": "azoriusModule",
        "offset": 0,
        "slot": "101",
        "type": "t_contract(IAzorius)17331"
      },
      {
        "astId": 15431,
        "contract": "contracts/azorius/LinearERC721Voting.sol:LinearERC721Voting",
        "label": "basisNumerator",
        "offset": 0,
        "slot": "102",
        "type": "t_uint256"
      },
      {
        "astId": 16282,
        "contract": "contracts/azorius/LinearERC721Voting.sol:LinearERC721Voting",
        "label": "proposalVotes",
        "offset": 0,
        "slot": "103",
        "type": "t_mapping(t_uint256,t_struct(ProposalVotes)16277_storage)"
      },
      {
        "astId": 16285,
        "contract": "contracts/azorius/LinearERC721Voting.sol:LinearERC721Voting",
        "label": "tokenAddresses",
        "offset": 0,
        "slot": "104",
        "type": "t_array(t_address)dyn_storage"
      },
      {
        "astId": 16289,
        "contract": "contracts/azorius/LinearERC721Voting.sol:LinearERC721Voting",
        "label": "tokenWeights",
        "offset": 0,
        "slot": "105",
        "type": "t_mapping(t_address,t_uint256)"
      },
      {
        "astId": 16291,
        "contract": "contracts/azorius/LinearERC721Voting.sol:LinearERC721Voting",
        "label": "votingPeriod",
        "offset": 0,
        "slot": "106",
        "type": "t_uint32"
      },
      {
        "astId": 16293,
        "contract": "contracts/azorius/LinearERC721Voting.sol:LinearERC721Voting",
        "label": "quorumThreshold",
        "offset": 0,
        "slot": "107",
        "type": "t_uint256"
      },
      {
        "astId": 16295,
        "contract": "contracts/azorius/LinearERC721Voting.sol:LinearERC721Voting",
        "label": "proposerThreshold",
        "offset": 0,
        "slot": "108",
        "type": "t_uint256"
      }
    ],
    "types": {
      "t_address": {
        "encoding": "inplace",
        "label": "address",
        "numberOfBytes": "20"
      },
      "t_array(t_address)dyn_storage": {
        "base": "t_address",
        "encoding": "dynamic_array",
        "label": "address[]",
        "numberOfBytes": "32"
      },
      "t_array(t_uint256)49_storage": {
        "base": "t_uint256",
        "encoding": "inplace",
        "label": "uint256[49]",
        "numberOfBytes": "1568"
      },
      "t_array(t_uint256)50_storage": {
        "base": "t_uint256",
        "encoding": "inplace",
        "label": "uint256[50]",
        "numberOfBytes": "1600"
      },
      "t_bool": {
        "encoding": "inplace",
        "label": "bool",
        "numberOfBytes": "1"
      },
      "t_contract(IAzorius)17331": {
        "encoding": "inplace",
        "label": "contract IAzorius",
        "numberOfBytes": "20"
      },
      "t_mapping(t_address,t_mapping(t_uint256,t_bool))": {
        "encoding": "mapping",
        "key": "t_address",
        "label": "mapping(address => mapping(uint256 => bool))",
        "numberOfBytes": "32",
        "value": "t_mapping(t_uint256,t_bool)"
      },
      "t_mapping(t_address,t_uint256)": {
        "encoding": "mapping",
        "key": "t_address",
        "label": "mapping(address => uint256)",
        "numberOfBytes": "32",
        "value": "t_uint256"
      },
      "t_mapping(t_uint256,t_bool)": {
        "encoding": "mapping",
        "key": "t_uint256",
        "label": "mapping(uint256 => bool)",
        "numberOfBytes": "32",
        "value": "t_bool"
      },
      "t_mapping(t_uint256,t_struct(ProposalVotes)16277_storage)": {
        "encoding": "mapping",
        "key": "t_uint256",
        "label": "mapping(uint256 => struct LinearERC721Voting.ProposalVotes)",
        "numberOfBytes": "32",
        "value": "t_struct(ProposalVotes)16277_storage"
      },
      "t_struct(ProposalVotes)16277_storage": {
        "encoding": "inplace",
        "label": "struct LinearERC721Voting.ProposalVotes",
        "members": [
          {
            "astId": 16262,
            "contract": "contracts/azorius/LinearERC721Voting.sol:LinearERC721Voting",
            "label": "votingStartBlock",
            "offset": 0,
            "slot": "0",
            "type": "t_uint32"
          },
          {
            "astId": 16264,
            "contract": "contracts/azorius/LinearERC721Voting.sol:LinearERC721Voting",
            "label": "votingEndBlock",
            "offset": 4,
            "slot": "0",
            "type": "t_uint32"
          },
          {
            "astId": 16266,
            "contract": "contracts/azorius/LinearERC721Voting.sol:LinearERC721Voting",
            "label": "noVotes",
            "offset": 0,
            "slot": "1",
            "type": "t_uint256"
          },
          {
            "astId": 16268,
            "contract": "contracts/azorius/LinearERC721Voting.sol:LinearERC721Voting",
            "label": "yesVotes",
            "offset": 0,
            "slot": "2",
            "type": "t_uint256"
          },
          {
            "astId": 16270,
            "contract": "contracts/azorius/LinearERC721Voting.sol:LinearERC721Voting",
            "label": "abstainVotes",
            "offset": 0,
            "slot": "3",
            "type": "t_uint256"
          },
          {
            "astId": 16276,
            "contract": "contracts/azorius/LinearERC721Voting.sol:LinearERC721Voting",
            "label": "hasVoted",
            "offset": 0,
            "slot": "4",
            "type": "t_mapping(t_address,t_mapping(t_uint256,t_bool))"
          }
        ],
        "numberOfBytes": "160"
      },
      "t_uint256": {
        "encoding": "inplace",
        "label": "uint256",
        "numberOfBytes": "32"
      },
      "t_uint32": {
        "encoding": "inplace",
        "label": "uint32",
        "numberOfBytes": "4"
      },
      "t_uint8": {
        "encoding": "inplace",
        "label": "uint8",
        "numberOfBytes": "1"
      }
    }
  }
}