{
  "address": "0x40F6DB8Cf8b4C37DB76474db9B4D6182da284afe",
  "abi": [
    {
      "anonymous": false,
      "inputs": [
        {
          "indexed": true,
          "internalType": "address",
          "name": "tokenAddress",
          "type": "address"
        }
      ],
      "name": "TokenCreated",
      "type": "event"
    },
    {
      "inputs": [
        {
          "internalType": "address",
          "name": "creator",
          "type": "address"
        },
        {
          "internalType": "bytes[]",
          "name": "data",
          "type": "bytes[]"
        }
      ],
      "name": "create",
      "outputs": [
        {
          "internalType": "address[]",
          "name": "",
          "type": "address[]"
        }
      ],
      "stateMutability": "nonpayable",
      "type": "function"
    }
  ],
  "transactionHash": "0xd77736f1a8e314468dc2fbac4bf15a22eb1307ed1d10989e082b9c8a851bd83d",
  "args": [],
  "numDeployments": 1,
  "solcInputHash": "45f7710f616c39a15b2c4779b7f6d0c2",
  "bytecode": "0x608060405234801561001057600080fd5b5061381b806100206000396000f3fe60806040523480156200001157600080fd5b50600436106200002e5760003560e01c80636d81fc721462000033575b600080fd5b6200004a6200004436600462000432565b62000062565b60405162000059919062000505565b60405180910390f35b6040805160018082528183019092526060916000919060208083019080368337019050509050620001b08585856004818110620000a357620000a362000537565b9050602002810190620000b791906200054d565b810190620000c691906200059e565b86866000818110620000dc57620000dc62000537565b9050602002810190620000f091906200054d565b810190620000ff9190620005ec565b8787600181811062000115576200011562000537565b90506020028101906200012991906200054d565b810190620001389190620005ec565b888860028181106200014e576200014e62000537565b90506020028101906200016291906200054d565b810190620001719190620006b1565b8989600381811062000187576200018762000537565b90506020028101906200019b91906200054d565b810190620001aa91906200075a565b620001e7565b81600081518110620001c657620001c662000537565b6001600160a01b039092166020928302919091019091015290509392505050565b6040516bffffffffffffffffffffffff19606088811b8216602084015233901b16603482015246604882015260688101869052600090620002af90829060880160405160208183030381529060405280519060200120604051806020016200024f9062000407565b601f1982820381018352601f9091011660408190526200027a908a908a908a908a906020016200084a565b60408051601f19818403018152908290526200029a9291602001620008d0565b604051602081830303815290604052620002f0565b6040519091506001600160a01b038216907f2e2b3f61b70d2d131b2a807371103cc98d51adcaa5e9a8f9c32658ad8426e74e90600090a29695505050505050565b60008084471015620003495760405162461bcd60e51b815260206004820152601d60248201527f437265617465323a20696e73756666696369656e742062616c616e636500000060448201526064015b60405180910390fd5b82516000036200039c5760405162461bcd60e51b815260206004820181905260248201527f437265617465323a2062797465636f6465206c656e677468206973207a65726f604482015260640162000340565b8383516020850187f590506001600160a01b038116620003ff5760405162461bcd60e51b815260206004820152601960248201527f437265617465323a204661696c6564206f6e206465706c6f7900000000000000604482015260640162000340565b949350505050565b612ee2806200090483390190565b80356001600160a01b03811681146200042d57600080fd5b919050565b6000806000604084860312156200044857600080fd5b620004538462000415565b9250602084013567ffffffffffffffff808211156200047157600080fd5b818601915086601f8301126200048657600080fd5b8135818111156200049657600080fd5b8760208260051b8501011115620004ac57600080fd5b6020830194508093505050509250925092565b600081518084526020808501945080840160005b83811015620004fa5781516001600160a01b031687529582019590820190600101620004d3565b509495945050505050565b6020815260006200051a6020830184620004bf565b9392505050565b634e487b7160e01b600052604160045260246000fd5b634e487b7160e01b600052603260045260246000fd5b6000808335601e198436030181126200056557600080fd5b83018035915067ffffffffffffffff8211156200058157600080fd5b6020019150368190038213156200059757600080fd5b9250929050565b600060208284031215620005b157600080fd5b5035919050565b604051601f8201601f1916810167ffffffffffffffff81118282101715620005e457620005e462000521565b604052919050565b600060208083850312156200060057600080fd5b823567ffffffffffffffff808211156200061957600080fd5b818501915085601f8301126200062e57600080fd5b81358181111562000643576200064362000521565b62000657601f8201601f19168501620005b8565b915080825286848285010111156200066e57600080fd5b8084840185840137600090820190930192909252509392505050565b600067ffffffffffffffff821115620006a757620006a762000521565b5060051b60200190565b60006020808385031215620006c557600080fd5b823567ffffffffffffffff811115620006dd57600080fd5b8301601f81018513620006ef57600080fd5b80356200070662000700826200068a565b620005b8565b81815260059190911b820183019083810190878311156200072657600080fd5b928401925b828410156200074f576200073f8462000415565b825292840192908401906200072b565b979650505050505050565b600060208083850312156200076e57600080fd5b823567ffffffffffffffff8111156200078657600080fd5b8301601f810185136200079857600080fd5b8035620007a962000700826200068a565b81815260059190911b82018301908381019087831115620007c957600080fd5b928401925b828410156200074f57833582529284019290840190620007ce565b60005b8381101562000806578181015183820152602001620007ec565b8381111562000816576000848401525b50505050565b6000815180845262000836816020860160208601620007e9565b601f01601f19169290920160200192915050565b6080815260006200085f60808301876200081c565b6020838203818501526200087482886200081c565b915083820360408501526200088a8287620004bf565b8481036060860152855180825282870193509082019060005b81811015620008c157845183529383019391830191600101620008a3565b50909998505050505050505050565b60008351620008e4818460208801620007e9565b835190830190620008fa818360208801620007e9565b0194935050505056fe6101406040523480156200001257600080fd5b5060405162002ee238038062002ee2833981016040819052620000359162000be0565b8380604051806040016040528060018152602001603160f81b815250868681600390805190602001906200006b929190620009cd565b50805162000081906004906020840190620009cd565b5050825160209384012082519284019290922060e08390526101008190524660a0818152604080517f8b73c3c69bb8fe3d512ecc4cf759cc79239f7b179b0ffacaa9a75d522b39400f818901819052818301979097526060810194909452608080850193909352308483018190528151808603909301835260c09485019091528151919096012090529290925261012052506200012790506336372b0760e01b6200019e565b60005b825181101562000193576200017e8382815181106200014d576200014d62000d09565b60200260200101518383815181106200016a576200016a62000d09565b60200260200101516200022360201b60201c565b806200018a8162000d35565b9150506200012a565b505050505062000dc2565b6001600160e01b03198082169003620001fe5760405162461bcd60e51b815260206004820152601c60248201527f4552433136353a20696e76616c696420696e746572666163652069640000000060448201526064015b60405180910390fd5b6001600160e01b0319166000908152600e60205260409020805460ff19166001179055565b6200023a82826200023e60201b62000b571760201c565b5050565b620002558282620002f160201b62000be71760201c565b6001600160e01b0362000269620003ee8216565b1115620002d25760405162461bcd60e51b815260206004820152603060248201527f4552433230566f7465733a20746f74616c20737570706c79207269736b73206f60448201526f766572666c6f77696e6720766f74657360801b6064820152608401620001f5565b620002eb600d62000cde620003f460201b178362000409565b50505050565b6001600160a01b038216620003495760405162461bcd60e51b815260206004820152601f60248201527f45524332303a206d696e7420746f20746865207a65726f2061646472657373006044820152606401620001f5565b6200035760008383620005bb565b80600260008282546200036b919062000d51565b90915550506001600160a01b038216600090815260208190526040812080548392906200039a90849062000d51565b90915550506040518181526001600160a01b038316906000907fddf252ad1be2c89b69c2b068fc378daa952ba7f163c4a11628f55a4df523b3ef9060200160405180910390a36200023a60008383620005d8565b60025490565b600062000402828462000d51565b9392505050565b8254600090819080156200045b57856200042560018362000d6c565b8154811062000438576200043862000d09565b60009182526020909120015464010000000090046001600160e01b03166200045e565b60005b6001600160e01b031692506200047583858760201c565b9150600081118015620004b9575043866200049260018462000d6c565b81548110620004a557620004a562000d09565b60009182526020909120015463ffffffff16145b156200052d57620004d582620005f060201b62000cea1760201c565b86620004e360018462000d6c565b81548110620004f657620004f662000d09565b9060005260206000200160000160046101000a8154816001600160e01b0302191690836001600160e01b03160217905550620005b2565b8560405180604001604052806200054f436200065f60201b62000d571760201c565b63ffffffff1681526020016200057085620005f060201b62000cea1760201c565b6001600160e01b0390811690915282546001810184556000938452602093849020835194909301519091166401000000000263ffffffff909316929092179101555b50935093915050565b620005d3838383620006c660201b62000dbc1760201c565b505050565b620005d38383836200073260201b62000e091760201c565b60006001600160e01b038211156200065b5760405162461bcd60e51b815260206004820152602760248201527f53616665436173743a2076616c756520646f65736e27742066697420696e20326044820152663234206269747360c81b6064820152608401620001f5565b5090565b600063ffffffff8211156200065b5760405162461bcd60e51b815260206004820152602660248201527f53616665436173743a2076616c756520646f65736e27742066697420696e203360448201526532206269747360d01b6064820152608401620001f5565b620006de838383620005d360201b62000ddb1760201c565b6001600160a01b0383166200070257620006f8826200077e565b620005d3620007b6565b6001600160a01b0382166200071c57620006f8836200077e565b62000727836200077e565b620005d3826200077e565b6200074a838383620005d360201b62000ddb1760201c565b6001600160a01b038381166000908152600b6020526040808220548584168352912054620005d392918216911683620007c8565b6001600160a01b03811660009081526005602090815260408083209183905290912054620007b3919062000903565b62000903565b50565b620007c66006620007ad60025490565b565b816001600160a01b0316836001600160a01b031614158015620007eb5750600081115b15620005d3576001600160a01b0383161562000878576001600160a01b0383166000908152600c602090815260408220829162000835919062000952901b62000e3b178562000409565b91509150846001600160a01b031660008051602062002ec283398151915283836040516200086d929190918252602082015260400190565b60405180910390a250505b6001600160a01b03821615620005d3576001600160a01b0382166000908152600c6020908152604082208291620008bc9190620003f4901b62000cde178562000409565b91509150836001600160a01b031660008051602062002ec28339815191528383604051620008f4929190918252602082015260400190565b60405180910390a25050505050565b60006200090f62000960565b9050806200091d846200097e565b1015620005d3578254600180820185556000858152602080822090930193909355938401805494850181558252902090910155565b600062000402828462000d6c565b6000620009796008620009c960201b62000e471760201c565b905090565b805460009081036200099257506000919050565b81548290620009a49060019062000d6c565b81548110620009b757620009b762000d09565b90600052602060002001549050919050565b5490565b828054620009db9062000d86565b90600052602060002090601f016020900481019282620009ff576000855562000a4a565b82601f1062000a1a57805160ff191683800117855562000a4a565b8280016001018555821562000a4a579182015b8281111562000a4a57825182559160200191906001019062000a2d565b506200065b9291505b808211156200065b576000815560010162000a53565b634e487b7160e01b600052604160045260246000fd5b604051601f8201601f191681016001600160401b038111828210171562000aaa5762000aaa62000a69565b604052919050565b600082601f83011262000ac457600080fd5b81516001600160401b0381111562000ae05762000ae062000a69565b602062000af6601f8301601f1916820162000a7f565b828152858284870101111562000b0b57600080fd5b60005b8381101562000b2b57858101830151828201840152820162000b0e565b8381111562000b3d5760008385840101525b5095945050505050565b60006001600160401b0382111562000b635762000b6362000a69565b5060051b60200190565b600082601f83011262000b7f57600080fd5b8151602062000b9862000b928362000b47565b62000a7f565b82815260059290921b8401810191818101908684111562000bb857600080fd5b8286015b8481101562000bd5578051835291830191830162000bbc565b509695505050505050565b6000806000806080858703121562000bf757600080fd5b84516001600160401b038082111562000c0f57600080fd5b62000c1d8883890162000ab2565b955060209150818701518181111562000c3557600080fd5b62000c4389828a0162000ab2565b95505060408701518181111562000c5957600080fd5b8701601f8101891362000c6b57600080fd5b805162000c7c62000b928262000b47565b81815260059190911b8201840190848101908b83111562000c9c57600080fd5b928501925b8284101562000cd35783516001600160a01b038116811462000cc35760008081fd5b8252928501929085019062000ca1565b60608b015190975094505050508082111562000cee57600080fd5b5062000cfd8782880162000b6d565b91505092959194509250565b634e487b7160e01b600052603260045260246000fd5b634e487b7160e01b600052601160045260246000fd5b60006001820162000d4a5762000d4a62000d1f565b5060010190565b6000821982111562000d675762000d6762000d1f565b500190565b60008282101562000d815762000d8162000d1f565b500390565b600181811c9082168062000d9b57607f821691505b60208210810362000dbc57634e487b7160e01b600052602260045260246000fd5b50919050565b60805160a05160c05160e05161010051610120516120b062000e12600039600061124c0152600061129b01526000611276015260006111cf015260006111f90152600061122301526120b06000f3fe608060405234801561001057600080fd5b506004361061018e5760003560e01c806370a08231116100de578063a457c2d711610097578063d1dc72a311610071578063d1dc72a31461038f578063d505accf14610397578063dd62ed3e146103aa578063f1127ed8146103bd57600080fd5b8063a457c2d714610356578063a9059cbb14610369578063c3cda5201461037c57600080fd5b806370a08231146102d95780637ecebe00146103025780638e539e8c1461031557806395d89b4114610328578063981b24d0146103305780639ab24eb01461034357600080fd5b80633644e5151161014b5780634ee2cd7e116101255780634ee2cd7e14610245578063587cde1e146102585780635c19a95c1461029c5780636fcfff45146102b157600080fd5b80633644e51514610217578063395093511461021f5780633a46b1a81461023257600080fd5b806301ffc9a71461019357806306fdde03146101bb578063095ea7b3146101d057806318160ddd146101e357806323b872dd146101f5578063313ce56714610208575b600080fd5b6101a66101a1366004611d3d565b6103fa565b60405190151581526020015b60405180910390f35b6101c361043a565b6040516101b29190611d67565b6101a66101de366004611dd3565b6104cc565b6002545b6040519081526020016101b2565b6101a6610203366004611dfd565b6104e4565b604051601281526020016101b2565b6101e7610508565b6101a661022d366004611dd3565b610517565b6101e7610240366004611dd3565b610539565b6101e7610253366004611dd3565b6105b8565b610284610266366004611e39565b6001600160a01b039081166000908152600b60205260409020541690565b6040516001600160a01b0390911681526020016101b2565b6102af6102aa366004611e39565b610611565b005b6102c46102bf366004611e39565b61061e565b60405163ffffffff90911681526020016101b2565b6101e76102e7366004611e39565b6001600160a01b031660009081526020819052604090205490565b6101e7610310366004611e39565b610640565b6101e7610323366004611e54565b61065e565b6101c36106ba565b6101e761033e366004611e54565b6106c9565b6101e7610351366004611e39565b6106f4565b6101a6610364366004611dd3565b61077b565b6101a6610377366004611dd3565b6107f6565b6102af61038a366004611e7e565b610804565b6101e761093a565b6102af6103a5366004611ed6565b610944565b6101e76103b8366004611f40565b610aa8565b6103d06103cb366004611f73565b610ad3565b60408051825163ffffffff1681526020928301516001600160e01b031692810192909252016101b2565b60006301ffc9a760e01b6001600160e01b03198316148061043457506001600160e01b031982166000908152600e602052604090205460ff165b92915050565b60606003805461044990611fb3565b80601f016020809104026020016040519081016040528092919081815260200182805461047590611fb3565b80156104c25780601f10610497576101008083540402835291602001916104c2565b820191906000526020600020905b8154815290600101906020018083116104a557829003601f168201915b5050505050905090565b6000336104da818585610e4b565b5060019392505050565b6000336104f2858285610f6f565b6104fd858585610fe3565b506001949350505050565b60006105126111c2565b905090565b6000336104da81858561052a8383610aa8565b6105349190611ffd565b610e4b565b600043821061058f5760405162461bcd60e51b815260206004820152601f60248201527f4552433230566f7465733a20626c6f636b206e6f7420796574206d696e65640060448201526064015b60405180910390fd5b6001600160a01b0383166000908152600c602052604090206105b190836112e9565b9392505050565b6001600160a01b0382166000908152600560205260408120819081906105df9085906113a6565b9150915081610606576001600160a01b038516600090815260208190526040902054610608565b805b95945050505050565b61061b338261149c565b50565b6001600160a01b0381166000908152600c602052604081205461043490610d57565b6001600160a01b038116600090815260096020526040812054610434565b60004382106106af5760405162461bcd60e51b815260206004820152601f60248201527f4552433230566f7465733a20626c6f636b206e6f7420796574206d696e6564006044820152606401610586565b610434600d836112e9565b60606004805461044990611fb3565b60008060006106d98460066113a6565b91509150816106ea576002546106ec565b805b949350505050565b6001600160a01b0381166000908152600c60205260408120548015610768576001600160a01b0383166000908152600c60205260409020610736600183612015565b815481106107465761074661202c565b60009182526020909120015464010000000090046001600160e01b031661076b565b60005b6001600160e01b03169392505050565b600033816107898286610aa8565b9050838110156107e95760405162461bcd60e51b815260206004820152602560248201527f45524332303a2064656372656173656420616c6c6f77616e63652062656c6f77604482015264207a65726f60d81b6064820152608401610586565b6104fd8286868403610e4b565b6000336104da818585610fe3565b834211156108545760405162461bcd60e51b815260206004820152601d60248201527f4552433230566f7465733a207369676e617475726520657870697265640000006044820152606401610586565b604080517fe48329057bfd03d55e49b547132e39cffd9c1820ad7b9d4c5307691425d15adf60208201526001600160a01b0388169181019190915260608101869052608081018590526000906108ce906108c69060a00160405160208183030381529060405280519060200120611515565b858585611563565b90506108d98161158b565b86146109275760405162461bcd60e51b815260206004820152601960248201527f4552433230566f7465733a20696e76616c6964206e6f6e6365000000000000006044820152606401610586565b610931818861149c565b50505050505050565b60006105126115b3565b834211156109945760405162461bcd60e51b815260206004820152601d60248201527f45524332305065726d69743a206578706972656420646561646c696e650000006044820152606401610586565b60007f6e71edae12b1b97f4d1f60370fef10105fa2faae0126114a169c64845d6126c98888886109c38c61158b565b6040805160208101969096526001600160a01b0394851690860152929091166060840152608083015260a082015260c0810186905260e0016040516020818303038152906040528051906020012090506000610a1e82611515565b90506000610a2e82878787611563565b9050896001600160a01b0316816001600160a01b031614610a915760405162461bcd60e51b815260206004820152601e60248201527f45524332305065726d69743a20696e76616c6964207369676e617475726500006044820152606401610586565b610a9c8a8a8a610e4b565b50505050505050505050565b6001600160a01b03918216600090815260016020908152604080832093909416825291909152205490565b60408051808201909152600080825260208201526001600160a01b0383166000908152600c60205260409020805463ffffffff8416908110610b1757610b1761202c565b60009182526020918290206040805180820190915291015463ffffffff8116825264010000000090046001600160e01b0316918101919091529392505050565b610b618282610be7565b6002546001600160e01b031015610bd35760405162461bcd60e51b815260206004820152603060248201527f4552433230566f7465733a20746f74616c20737570706c79207269736b73206f60448201526f766572666c6f77696e6720766f74657360801b6064820152608401610586565b610be1600d610cde8361160d565b50505050565b6001600160a01b038216610c3d5760405162461bcd60e51b815260206004820152601f60248201527f45524332303a206d696e7420746f20746865207a65726f2061646472657373006044820152606401610586565b610c4960008383611786565b8060026000828254610c5b9190611ffd565b90915550506001600160a01b03821660009081526020819052604081208054839290610c88908490611ffd565b90915550506040518181526001600160a01b038316906000907fddf252ad1be2c89b69c2b068fc378daa952ba7f163c4a11628f55a4df523b3ef9060200160405180910390a3610cda60008383611791565b5050565b60006105b18284611ffd565b60006001600160e01b03821115610d535760405162461bcd60e51b815260206004820152602760248201527f53616665436173743a2076616c756520646f65736e27742066697420696e20326044820152663234206269747360c81b6064820152608401610586565b5090565b600063ffffffff821115610d535760405162461bcd60e51b815260206004820152602660248201527f53616665436173743a2076616c756520646f65736e27742066697420696e203360448201526532206269747360d01b6064820152608401610586565b6001600160a01b038316610de057610dd38261179c565b610ddb6117ce565b505050565b6001600160a01b038216610df757610dd38361179c565b610e008361179c565b610ddb8261179c565b6001600160a01b038381166000908152600b6020526040808220548584168352912054610ddb929182169116836117de565b60006105b18284612015565b5490565b6001600160a01b038316610ead5760405162461bcd60e51b8152602060048201526024808201527f45524332303a20617070726f76652066726f6d20746865207a65726f206164646044820152637265737360e01b6064820152608401610586565b6001600160a01b038216610f0e5760405162461bcd60e51b815260206004820152602260248201527f45524332303a20617070726f766520746f20746865207a65726f206164647265604482015261737360f01b6064820152608401610586565b6001600160a01b0383811660008181526001602090815260408083209487168084529482529182902085905590518481527f8c5be1e5ebec7d5bd14f71427d1e84f3dd0314c0f7b2291e5b200ac8c7c3b925910160405180910390a3505050565b6000610f7b8484610aa8565b90506000198114610be15781811015610fd65760405162461bcd60e51b815260206004820152601d60248201527f45524332303a20696e73756666696369656e7420616c6c6f77616e63650000006044820152606401610586565b610be18484848403610e4b565b6001600160a01b0383166110475760405162461bcd60e51b815260206004820152602560248201527f45524332303a207472616e736665722066726f6d20746865207a65726f206164604482015264647265737360d81b6064820152608401610586565b6001600160a01b0382166110a95760405162461bcd60e51b815260206004820152602360248201527f45524332303a207472616e7366657220746f20746865207a65726f206164647260448201526265737360e81b6064820152608401610586565b6110b4838383611786565b6001600160a01b0383166000908152602081905260409020548181101561112c5760405162461bcd60e51b815260206004820152602660248201527f45524332303a207472616e7366657220616d6f756e7420657863656564732062604482015265616c616e636560d01b6064820152608401610586565b6001600160a01b03808516600090815260208190526040808220858503905591851681529081208054849290611163908490611ffd565b92505081905550826001600160a01b0316846001600160a01b03167fddf252ad1be2c89b69c2b068fc378daa952ba7f163c4a11628f55a4df523b3ef846040516111af91815260200190565b60405180910390a3610be1848484611791565b6000306001600160a01b037f00000000000000000000000000000000000000000000000000000000000000001614801561121b57507f000000000000000000000000000000000000000000000000000000000000000046145b1561124557507f000000000000000000000000000000000000000000000000000000000000000090565b50604080517f00000000000000000000000000000000000000000000000000000000000000006020808301919091527f0000000000000000000000000000000000000000000000000000000000000000828401527f000000000000000000000000000000000000000000000000000000000000000060608301524660808301523060a0808401919091528351808403909101815260c0909201909252805191012090565b8154600090815b8181101561134d576000611304828461191b565b9050848682815481106113195761131961202c565b60009182526020909120015463ffffffff16111561133957809250611347565b611344816001611ffd565b91505b506112f0565b8115611391578461135f600184612015565b8154811061136f5761136f61202c565b60009182526020909120015464010000000090046001600160e01b0316611394565b60005b6001600160e01b031695945050505050565b600080600084116113f25760405162461bcd60e51b815260206004820152601660248201527504552433230536e617073686f743a20696420697320360541b6044820152606401610586565b6113fa611936565b8411156114495760405162461bcd60e51b815260206004820152601d60248201527f4552433230536e617073686f743a206e6f6e6578697374656e742069640000006044820152606401610586565b60006114558486611941565b8454909150810361146d576000809250925050611495565b60018460010182815481106114845761148461202c565b906000526020600020015492509250505b9250929050565b6001600160a01b038281166000818152600b60208181526040808420805485845282862054949093528787166001600160a01b03198416811790915590519190951694919391928592917f3134e8a2e6d97e929a7e54011ea5485d7d196dd5f0ba4d4ef95803e8e3fc257f9190a4610be18284836117de565b60006104346115226111c2565b8360405161190160f01b6020820152602281018390526042810182905260009060620160405160208183030381529060405280519060200120905092915050565b600080600061157487878787611a06565b9150915061158181611af3565b5095945050505050565b6001600160a01b03811660009081526009602052604090208054600181018255905b50919050565b60006115c3600880546001019055565b60006115cd611936565b90507f8030e83b04d87bef53480e26263266d6ca66863aa8506aca6f2559d18aa1cb678160405161160091815260200190565b60405180910390a1919050565b8254600090819080156116585785611626600183612015565b815481106116365761163661202c565b60009182526020909120015464010000000090046001600160e01b031661165b565b60005b6001600160e01b0316925061167483858763ffffffff16565b91506000811180156116b25750438661168e600184612015565b8154811061169e5761169e61202c565b60009182526020909120015463ffffffff16145b15611712576116c082610cea565b866116cc600184612015565b815481106116dc576116dc61202c565b9060005260206000200160000160046101000a8154816001600160e01b0302191690836001600160e01b0316021790555061177d565b85604051806040016040528061172743610d57565b63ffffffff16815260200161173b85610cea565b6001600160e01b0390811690915282546001810184556000938452602093849020835194909301519091166401000000000263ffffffff909316929092179101555b50935093915050565b610ddb838383610dbc565b610ddb838383610e09565b6001600160a01b0381166000908152600560209081526040808320918390529091205461061b9190611ca9565b611ca9565b6117dc60066117c960025490565b565b816001600160a01b0316836001600160a01b0316141580156118005750600081115b15610ddb576001600160a01b0383161561188e576001600160a01b0383166000908152600c60205260408120819061183b90610e3b8561160d565b91509150846001600160a01b03167fdec2bacdd2f05b59de34da9b523dff8be42e5e38e818c82fdb0bae774387a7248383604051611883929190918252602082015260400190565b60405180910390a250505b6001600160a01b03821615610ddb576001600160a01b0382166000908152600c6020526040812081906118c490610cde8561160d565b91509150836001600160a01b03167fdec2bacdd2f05b59de34da9b523dff8be42e5e38e818c82fdb0bae774387a724838360405161190c929190918252602082015260400190565b60405180910390a25050505050565b600061192a6002848418612042565b6105b190848416611ffd565b600061051260085490565b8154600090810361195457506000610434565b82546000905b808210156119b057600061196e838361191b565b9050848682815481106119835761198361202c565b9060005260206000200154111561199c578091506119aa565b6119a7816001611ffd565b92505b5061195a565b6000821180156119e5575083856119c8600185612015565b815481106119d8576119d861202c565b9060005260206000200154145b156119fe576119f5600183612015565b92505050610434565b509050610434565b6000807f7fffffffffffffffffffffffffffffff5d576e7357a4501ddfe92f46681b20a0831115611a3d5750600090506003611aea565b8460ff16601b14158015611a5557508460ff16601c14155b15611a665750600090506004611aea565b6040805160008082526020820180845289905260ff881692820192909252606081018690526080810185905260019060a0016020604051602081039080840390855afa158015611aba573d6000803e3d6000fd5b5050604051601f1901519150506001600160a01b038116611ae357600060019250925050611aea565b9150600090505b94509492505050565b6000816004811115611b0757611b07612064565b03611b0f5750565b6001816004811115611b2357611b23612064565b03611b705760405162461bcd60e51b815260206004820152601860248201527f45434453413a20696e76616c6964207369676e617475726500000000000000006044820152606401610586565b6002816004811115611b8457611b84612064565b03611bd15760405162461bcd60e51b815260206004820152601f60248201527f45434453413a20696e76616c6964207369676e6174757265206c656e677468006044820152606401610586565b6003816004811115611be557611be5612064565b03611c3d5760405162461bcd60e51b815260206004820152602260248201527f45434453413a20696e76616c6964207369676e6174757265202773272076616c604482015261756560f01b6064820152608401610586565b6004816004811115611c5157611c51612064565b0361061b5760405162461bcd60e51b815260206004820152602260248201527f45434453413a20696e76616c6964207369676e6174757265202776272076616c604482015261756560f01b6064820152608401610586565b6000611cb3611936565b905080611cbf84611cf3565b1015610ddb578254600180820185556000858152602080822090930193909355938401805494850181558252902090910155565b80546000908103611d0657506000919050565b81548290611d1690600190612015565b81548110611d2657611d2661202c565b90600052602060002001549050919050565b919050565b600060208284031215611d4f57600080fd5b81356001600160e01b0319811681146105b157600080fd5b600060208083528351808285015260005b81811015611d9457858101830151858201604001528201611d78565b81811115611da6576000604083870101525b50601f01601f1916929092016040019392505050565b80356001600160a01b0381168114611d3857600080fd5b60008060408385031215611de657600080fd5b611def83611dbc565b946020939093013593505050565b600080600060608486031215611e1257600080fd5b611e1b84611dbc565b9250611e2960208501611dbc565b9150604084013590509250925092565b600060208284031215611e4b57600080fd5b6105b182611dbc565b600060208284031215611e6657600080fd5b5035919050565b803560ff81168114611d3857600080fd5b60008060008060008060c08789031215611e9757600080fd5b611ea087611dbc565b95506020870135945060408701359350611ebc60608801611e6d565b92506080870135915060a087013590509295509295509295565b600080600080600080600060e0888a031215611ef157600080fd5b611efa88611dbc565b9650611f0860208901611dbc565b95506040880135945060608801359350611f2460808901611e6d565b925060a0880135915060c0880135905092959891949750929550565b60008060408385031215611f5357600080fd5b611f5c83611dbc565b9150611f6a60208401611dbc565b90509250929050565b60008060408385031215611f8657600080fd5b611f8f83611dbc565b9150602083013563ffffffff81168114611fa857600080fd5b809150509250929050565b600181811c90821680611fc757607f821691505b6020821081036115ad57634e487b7160e01b600052602260045260246000fd5b634e487b7160e01b600052601160045260246000fd5b6000821982111561201057612010611fe7565b500190565b60008282101561202757612027611fe7565b500390565b634e487b7160e01b600052603260045260246000fd5b60008261205f57634e487b7160e01b600052601260045260246000fd5b500490565b634e487b7160e01b600052602160045260246000fdfea26469706673582212207f7f0530662aeeb57cd738b277cc87e8e3e6437cfb8f74fe3937aaf55f3d85f664736f6c634300080d0033dec2bacdd2f05b59de34da9b523dff8be42e5e38e818c82fdb0bae774387a724a2646970667358221220043cad261220cf13c284c5a2b952244aa19b742b19b41f3cc93ef4f34c667ef864736f6c634300080d0033",
  "devdoc": {
    "kind": "dev",
    "methods": {
      "create(address,bytes[])": {
        "details": "Creates an ERC-20 votes token",
        "params": {
          "creator": "The address creating the module",
          "data": "The array of bytes used to create the token"
        },
        "returns": {
          "_0": "address The address of the created token"
        }
      }
    },
    "version": 1
  },
  "userdoc": {
    "kind": "user",
    "methods": {},
    "notice": "Token Factory used to deploy votes tokens",
    "version": 1
  },
  "storageLayout": {
    "storage": [],
    "types": null
  }
}