{
  "address": "0xF28c885256f35e342adBDA195db2A5366A79eA9f",
  "abi": [
    {
      "anonymous": false,
      "inputs": [
        {
          "indexed": false,
          "internalType": "uint8",
          "name": "version",
          "type": "uint8"
        }
      ],
      "name": "Initialized",
      "type": "event"
    },
    {
      "anonymous": false,
      "inputs": [
        {
          "indexed": true,
          "internalType": "address",
          "name": "previousOwner",
          "type": "address"
        },
        {
          "indexed": true,
          "internalType": "address",
          "name": "newOwner",
          "type": "address"
        }
      ],
      "name": "OwnershipTransferred",
      "type": "event"
    },
    {
      "anonymous": false,
      "inputs": [
        {
          "indexed": true,
          "internalType": "address",
          "name": "queuer",
          "type": "address"
        },
        {
          "indexed": true,
          "internalType": "uint256",
          "name": "proposalId",
          "type": "uint256"
        }
      ],
      "name": "ProposalQueued",
      "type": "event"
    },
    {
      "anonymous": false,
      "inputs": [
        {
          "indexed": false,
          "internalType": "address",
          "name": "creator",
          "type": "address"
        },
        {
          "indexed": false,
          "internalType": "address",
          "name": "owner",
          "type": "address"
        },
        {
          "indexed": true,
          "internalType": "address",
          "name": "vetoVoting",
          "type": "address"
        },
        {
          "indexed": true,
          "internalType": "address",
          "name": "ozLinearVoting",
          "type": "address"
        },
        {
          "indexed": true,
          "internalType": "address",
          "name": "usul",
          "type": "address"
        }
      ],
      "name": "UsulVetoGuardSetup",
      "type": "event"
    },
    {
      "inputs": [],
      "name": "baseStrategy",
      "outputs": [
        {
          "internalType": "contract IBaseStrategy",
          "name": "",
          "type": "address"
        }
      ],
      "stateMutability": "view",
      "type": "function"
    },
    {
      "inputs": [
        {
          "internalType": "bytes32",
          "name": "txHash",
          "type": "bytes32"
        },
        {
          "internalType": "bool",
          "name": "success",
          "type": "bool"
        }
      ],
      "name": "checkAfterExecution",
      "outputs": [],
      "stateMutability": "view",
      "type": "function"
    },
    {
      "inputs": [
        {
          "internalType": "address",
          "name": "to",
          "type": "address"
        },
        {
          "internalType": "uint256",
          "name": "value",
          "type": "uint256"
        },
        {
          "internalType": "bytes",
          "name": "data",
          "type": "bytes"
        },
        {
          "internalType": "enum Enum.Operation",
          "name": "operation",
          "type": "uint8"
        },
        {
          "internalType": "uint256",
          "name": "safeTxGas",
          "type": "uint256"
        },
        {
          "internalType": "uint256",
          "name": "baseGas",
          "type": "uint256"
        },
        {
          "internalType": "uint256",
          "name": "gasPrice",
          "type": "uint256"
        },
        {
          "internalType": "address",
          "name": "gasToken",
          "type": "address"
        },
        {
          "internalType": "address payable",
          "name": "refundReceiver",
          "type": "address"
        },
        {
          "internalType": "bytes",
          "name": "",
          "type": "bytes"
        },
        {
          "internalType": "address",
          "name": "",
          "type": "address"
        }
      ],
      "name": "checkTransaction",
      "outputs": [],
      "stateMutability": "view",
      "type": "function"
    },
    {
      "inputs": [],
      "name": "executionPeriod",
      "outputs": [
        {
          "internalType": "uint256",
          "name": "",
          "type": "uint256"
        }
      ],
      "stateMutability": "view",
      "type": "function"
    },
    {
      "inputs": [],
      "name": "fractalUsul",
      "outputs": [
        {
          "internalType": "contract IFractalUsul",
          "name": "",
          "type": "address"
        }
      ],
      "stateMutability": "view",
      "type": "function"
    },
    {
      "inputs": [
        {
          "internalType": "uint256",
          "name": "_proposalId",
          "type": "uint256"
        }
      ],
      "name": "getProposalExecutionDeadline",
      "outputs": [
        {
          "internalType": "uint256",
          "name": "",
          "type": "uint256"
        }
      ],
      "stateMutability": "view",
      "type": "function"
    },
    {
      "inputs": [
        {
          "internalType": "uint256",
          "name": "_proposalId",
          "type": "uint256"
        }
      ],
      "name": "getProposalQueuedBlock",
      "outputs": [
        {
          "internalType": "uint256",
          "name": "",
          "type": "uint256"
        }
      ],
      "stateMutability": "view",
      "type": "function"
    },
    {
      "inputs": [
        {
          "internalType": "address",
          "name": "to",
          "type": "address"
        },
        {
          "internalType": "uint256",
          "name": "value",
          "type": "uint256"
        },
        {
          "internalType": "bytes",
          "name": "data",
          "type": "bytes"
        },
        {
          "internalType": "enum Enum.Operation",
          "name": "operation",
          "type": "uint8"
        },
        {
          "internalType": "uint256",
          "name": "safeTxGas",
          "type": "uint256"
        },
        {
          "internalType": "uint256",
          "name": "baseGas",
          "type": "uint256"
        },
        {
          "internalType": "uint256",
          "name": "gasPrice",
          "type": "uint256"
        },
        {
          "internalType": "address",
          "name": "gasToken",
          "type": "address"
        },
        {
          "internalType": "address",
          "name": "refundReceiver",
          "type": "address"
        }
      ],
      "name": "getTransactionHash",
      "outputs": [
        {
          "internalType": "bytes32",
          "name": "",
          "type": "bytes32"
        }
      ],
      "stateMutability": "pure",
      "type": "function"
    },
    {
      "inputs": [
        {
          "internalType": "bytes32",
          "name": "_txHash",
          "type": "bytes32"
        }
      ],
      "name": "getTransactionProposalId",
      "outputs": [
        {
          "internalType": "uint256",
          "name": "",
          "type": "uint256"
        }
      ],
      "stateMutability": "view",
      "type": "function"
    },
    {
      "inputs": [
        {
          "internalType": "bytes32",
          "name": "_transactionHash",
          "type": "bytes32"
        }
      ],
      "name": "getTransactionQueuedBlock",
      "outputs": [
        {
          "internalType": "uint256",
          "name": "",
          "type": "uint256"
        }
      ],
      "stateMutability": "view",
      "type": "function"
    },
    {
      "inputs": [],
      "name": "owner",
      "outputs": [
        {
          "internalType": "address",
          "name": "",
          "type": "address"
        }
      ],
      "stateMutability": "view",
      "type": "function"
    },
    {
      "inputs": [
        {
          "internalType": "uint256",
          "name": "proposalId",
          "type": "uint256"
        }
      ],
      "name": "queueProposal",
      "outputs": [],
      "stateMutability": "nonpayable",
      "type": "function"
    },
    {
      "inputs": [],
      "name": "renounceOwnership",
      "outputs": [],
      "stateMutability": "nonpayable",
      "type": "function"
    },
    {
      "inputs": [
        {
          "internalType": "bytes",
          "name": "initializeParams",
          "type": "bytes"
        }
      ],
      "name": "setUp",
      "outputs": [],
      "stateMutability": "nonpayable",
      "type": "function"
    },
    {
      "inputs": [
        {
          "internalType": "bytes4",
          "name": "interfaceId",
          "type": "bytes4"
        }
      ],
      "name": "supportsInterface",
      "outputs": [
        {
          "internalType": "bool",
          "name": "",
          "type": "bool"
        }
      ],
      "stateMutability": "view",
      "type": "function"
    },
    {
      "inputs": [
        {
          "internalType": "address",
          "name": "newOwner",
          "type": "address"
        }
      ],
      "name": "transferOwnership",
      "outputs": [],
      "stateMutability": "nonpayable",
      "type": "function"
    },
    {
      "inputs": [
        {
          "internalType": "uint256",
          "name": "_executionPeriod",
          "type": "uint256"
        }
      ],
      "name": "updateExeuctionPeriod",
      "outputs": [],
      "stateMutability": "nonpayable",
      "type": "function"
    },
    {
      "inputs": [],
      "name": "vetoVoting",
      "outputs": [
        {
          "internalType": "contract IVetoVoting",
          "name": "",
          "type": "address"
        }
      ],
      "stateMutability": "view",
      "type": "function"
    }
  ],
  "transactionHash": "0x17d4eb53a3f154bd317c6376a32a83b580c8d553128a96d75784276bad2d8e75",
  "args": [],
  "numDeployments": 1,
  "solcInputHash": "781a6e8a4900617e4434f515515a3b8b",
  "bytecode": "0x608060405234801561001057600080fd5b50611439806100206000396000f3fe608060405234801561001057600080fd5b50600436106101165760003560e01c8063a4b435ae116100a2578063bf2e371f11610071578063bf2e371f14610275578063cc7046fb14610288578063d11d0d58146102ab578063f071615e146102b4578063f2fde38b146102c757600080fd5b8063a4b435ae14610202578063a4f9edbf14610215578063a5b51a9d14610228578063b59ee1db1461024857600080fd5b806372a40e6e116100e957806372a40e6e1461019957806375f0bb52146101b95780638da5cb5b146101cc57806393271368146101dd57806394a14a34146101ef57600080fd5b806301ffc9a71461011b578063565832da1461014357806365d5d08c1461016e578063715018a61461018f575b600080fd5b61012e610129366004610d6a565b6102da565b60405190151581526020015b60405180910390f35b606654610156906001600160a01b031681565b6040516001600160a01b03909116815260200161013a565b61018161017c366004610e86565b610305565b60405190815260200161013a565b610197610354565b005b6101816101a7366004610f35565b6000908152606a602052604090205490565b6101976101c7366004610f4e565b610368565b6033546001600160a01b0316610156565b6101976101eb366004611041565b5050565b6101976101fd366004610f35565b61064c565b606754610156906001600160a01b031681565b610197610223366004611071565b6109e3565b610181610236366004610f35565b60009081526069602052604090205490565b610181610256366004610f35565b6000908152606a60209081526040808320548352606990915290205490565b606554610156906001600160a01b031681565b610181610296366004610f35565b60009081526069602052604090206001015490565b61018160685481565b6101976102c2366004610f35565b610ba9565b6101976102d53660046110ae565b610bb6565b60006001600160e01b031982166323f0060f60e21b14806102ff57506102ff82610c2f565b92915050565b60008989898051906020012089898989898960405160200161032f999897969594939291906110ed565b6040516020818303038152906040528051906020012090509998505050505050505050565b61035c610c64565b6103666000610cbe565b565b60675460405163300c661f60e01b81526000916001600160a01b03169063300c661f9061039f908f908f908f908f9060040161114d565b602060405180830381865afa1580156103bc573d6000803e3d6000fd5b505050506040513d601f19601f820116820180604052508101906103e091906111c8565b6000818152606a60209081526040808320548084526069909252909120549192509061045f5760405162461bcd60e51b815260206004820152602360248201527f5472616e73616374696f6e20686173206e6f74206265656e20717565756564206044820152621e595d60ea1b60648201526084015b60405180910390fd5b6000818152606960205260409020600101544211156104cf5760405162461bcd60e51b815260206004820152602660248201527f5472616e73616374696f6e20657865637574696f6e20706572696f642068617360448201526508195b99195960d21b6064820152608401610456565b6065546040516370d208a960e11b8152600481018490526001600160a01b039091169063e1a4115290602401602060405180830381865afa158015610518573d6000803e3d6000fd5b505050506040513d601f19601f8201168201806040525081019061053c91906111e1565b156105895760405162461bcd60e51b815260206004820152601b60248201527f5472616e73616374696f6e20686173206265656e207665746f656400000000006044820152606401610456565b606560009054906101000a90046001600160a01b03166001600160a01b03166333eeb1476040518163ffffffff1660e01b8152600401602060405180830381865afa1580156105dc573d6000803e3d6000fd5b505050506040513d601f19601f8201168201806040525081019061060091906111e1565b1561063d5760405162461bcd60e51b815260206004820152600d60248201526c2220a79034b990333937bd32b760991b6044820152606401610456565b50505050505050505050505050565b606754604051631f27a4f360e11b8152600481018390526001600160a01b0390911690633e4f49e690602401602060405180830381865afa158015610695573d6000803e3d6000fd5b505050506040513d601f19601f820116820180604052508101906106b991906111c8565b60000361071f576066546040516379bfb08960e01b8152600481018390526001600160a01b03909116906379bfb08990602401600060405180830381600087803b15801561070657600080fd5b505af115801561071a573d6000803e3d6000fd5b505050505b606754604051631f27a4f360e11b8152600481018390526001600160a01b0390911690633e4f49e690602401602060405180830381865afa158015610768573d6000803e3d6000fd5b505050506040513d601f19601f8201168201806040525081019061078c91906111c8565b6002146107ee5760405162461bcd60e51b815260206004820152602a60248201527f50726f706f73616c206d7573742062652074696d656c6f636b6564206265666f60448201526972652071756575696e6760b01b6064820152608401610456565b60675460405163013cf08b60e01b8152600481018390526000916001600160a01b03169063013cf08b90602401608060405180830381865afa158015610838573d6000803e3d6000fd5b505050506040513d601f19601f8201168201806040525081019061085c91906111fe565b50509150506000606854826108719190611260565b60008481526069602052604090206001015490915042116108d45760405162461bcd60e51b815260206004820181905260248201527f50726f706f73616c2068617320616c7265616479206265656e207175657565646044820152606401610456565b600083815260696020526040808220600181018490554390556067549051633e1f386d60e11b8152600481018690526001600160a01b0390911690637c3e70da90602401600060405180830381865afa158015610935573d6000803e3d6000fd5b505050506040513d6000823e601f3d908101601f1916820160405261095d9190810190611278565b905060005b81518110156109af5784606a60008484815181106109825761098261131e565b602002602001015181526020019081526020016000208190555080806109a790611334565b915050610962565b50604051849033907fe1410ccde2ae4d2fbd9efb4b38c1284d8666e607f9e6d4bbbfe8f0a685f7558a90600090a350505050565b600054610100900460ff1615808015610a035750600054600160ff909116105b80610a1d5750303b158015610a1d575060005460ff166001145b610a805760405162461bcd60e51b815260206004820152602e60248201527f496e697469616c697a61626c653a20636f6e747261637420697320616c72656160448201526d191e481a5b9a5d1a585b1a5e995960921b6064820152608401610456565b6000805460ff191660011790558015610aa3576000805461ff0019166101001790555b610aab610d10565b600080600080600086806020019051810190610ac7919061134d565b94509450945094509450610ada85610bb6565b606580546001600160a01b038681166001600160a01b0319928316811790935560668054878316908416811790915560678054878416941684179055606885905560408051338152928a1660208401529293909290917f110a10fb7ebf308d52b46918eede0fb5b8f8817ae1d4f790db6cf6cdf8b952af910160405180910390a4505050505080156101eb576000805461ff0019169055604051600181527f7f26b83ff96e1f2b6a682f133852f6798a09c465da95921460cefb38474024989060200160405180910390a15050565b610bb1610c64565b606855565b610bbe610c64565b6001600160a01b038116610c235760405162461bcd60e51b815260206004820152602660248201527f4f776e61626c653a206e6577206f776e657220697320746865207a65726f206160448201526564647265737360d01b6064820152608401610456565b610c2c81610cbe565b50565b60006001600160e01b0319821663736bd41d60e11b14806102ff57506301ffc9a760e01b6001600160e01b03198316146102ff565b6033546001600160a01b031633146103665760405162461bcd60e51b815260206004820181905260248201527f4f776e61626c653a2063616c6c6572206973206e6f7420746865206f776e65726044820152606401610456565b603380546001600160a01b038381166001600160a01b0319831681179093556040519116919082907f8be0079c531659141344cd1fd0a4f28419497f9722a3daafe3b4186f6b6457e090600090a35050565b600054610100900460ff16610d375760405162461bcd60e51b8152600401610456906113b8565b610366600054610100900460ff16610d615760405162461bcd60e51b8152600401610456906113b8565b61036633610cbe565b600060208284031215610d7c57600080fd5b81356001600160e01b031981168114610d9457600080fd5b9392505050565b6001600160a01b0381168114610c2c57600080fd5b8035610dbb81610d9b565b919050565b634e487b7160e01b600052604160045260246000fd5b604051601f8201601f1916810167ffffffffffffffff81118282101715610dff57610dff610dc0565b604052919050565b600082601f830112610e1857600080fd5b813567ffffffffffffffff811115610e3257610e32610dc0565b610e45601f8201601f1916602001610dd6565b818152846020838601011115610e5a57600080fd5b816020850160208301376000918101602001919091529392505050565b803560028110610dbb57600080fd5b60008060008060008060008060006101208a8c031215610ea557600080fd5b8935610eb081610d9b565b985060208a0135975060408a013567ffffffffffffffff811115610ed357600080fd5b610edf8c828d01610e07565b975050610eee60608b01610e77565b955060808a0135945060a08a0135935060c08a0135925060e08a0135610f1381610d9b565b91506101008a0135610f2481610d9b565b809150509295985092959850929598565b600060208284031215610f4757600080fd5b5035919050565b60008060008060008060008060008060006101608c8e031215610f7057600080fd5b610f798c610db0565b9a5060208c0135995067ffffffffffffffff8060408e01351115610f9c57600080fd5b610fac8e60408f01358f01610e07565b9950610fba60608e01610e77565b985060808d0135975060a08d0135965060c08d01359550610fdd60e08e01610db0565b9450610fec6101008e01610db0565b9350806101208e0135111561100057600080fd5b506110128d6101208e01358e01610e07565b91506110216101408d01610db0565b90509295989b509295989b9093969950565b8015158114610c2c57600080fd5b6000806040838503121561105457600080fd5b82359150602083013561106681611033565b809150509250929050565b60006020828403121561108357600080fd5b813567ffffffffffffffff81111561109a57600080fd5b6110a684828501610e07565b949350505050565b6000602082840312156110c057600080fd5b8135610d9481610d9b565b600281106110e957634e487b7160e01b600052602160045260246000fd5b9052565b6001600160a01b038a81168252602082018a90526040820189905261012082019061111b606084018a6110cb565b8760808401528660a08401528560c084015280851660e0840152808416610100840152509a9950505050505050505050565b60018060a01b038516815260006020858184015260806040840152845180608085015260005b8181101561118f5786810183015185820160a001528201611173565b818111156111a157600060a083870101525b50601f01601f1916830160a00191506111bf905060608301846110cb565b95945050505050565b6000602082840312156111da57600080fd5b5051919050565b6000602082840312156111f357600080fd5b8151610d9481611033565b6000806000806080858703121561121457600080fd5b845161121f81611033565b809450506020850151925060408501519150606085015161123f81610d9b565b939692955090935050565b634e487b7160e01b600052601160045260246000fd5b600082198211156112735761127361124a565b500190565b6000602080838503121561128b57600080fd5b825167ffffffffffffffff808211156112a357600080fd5b818501915085601f8301126112b757600080fd5b8151818111156112c9576112c9610dc0565b8060051b91506112da848301610dd6565b81815291830184019184810190888411156112f457600080fd5b938501935b83851015611312578451825293850193908501906112f9565b98975050505050505050565b634e487b7160e01b600052603260045260246000fd5b6000600182016113465761134661124a565b5060010190565b600080600080600060a0868803121561136557600080fd5b855161137081610d9b565b602087015190955061138181610d9b565b604087015190945061139281610d9b565b60608701519093506113a381610d9b565b80925050608086015190509295509295909350565b6020808252602b908201527f496e697469616c697a61626c653a20636f6e7472616374206973206e6f74206960408201526a6e697469616c697a696e6760a81b60608201526080019056fea26469706673582212202223fe37ea3531053d33da35d64eb0a194ef48469f1ab724b8b72de8c2cd2cd864736f6c634300080d0033",
  "devdoc": {
    "kind": "dev",
    "methods": {
      "checkAfterExecution(bytes32,bool)": {
        "params": {
          "success": "Boolean indicating whether the Gnosis Safe successfully executed the tx",
          "txHash": "The hash of the transaction that was executed"
        }
      },
      "checkTransaction(address,uint256,bytes,uint8,uint256,uint256,uint256,address,address,bytes,address)": {
        "params": {
          "baseGas": "Gas costs for that are independent of the transaction execution(e.g. base transaction fee, signature check, payment of the refund)",
          "data": "Data payload.",
          "gasPrice": "Maximum gas price that should be used for this transaction.",
          "gasToken": "Token address (or 0 if ETH) that is used for the payment.",
          "operation": "Operation type.",
          "refundReceiver": "Address of receiver of gas payment (or 0 if tx.origin).",
          "safeTxGas": "Gas that should be used for the safe transaction.",
          "to": "Destination address.",
          "value": "Ether value."
        }
      },
      "getProposalExecutionDeadline(uint256)": {
        "params": {
          "_proposalId": "The ID of the proposal"
        },
        "returns": {
          "_0": "uint256 The timestamp the transaction must be executed by"
        }
      },
      "getProposalQueuedBlock(uint256)": {
        "params": {
          "_proposalId": "The ID of the proposal"
        },
        "returns": {
          "_0": "uint256 The block number the transaction was queued at"
        }
      },
      "getTransactionHash(address,uint256,bytes,uint8,uint256,uint256,uint256,address,address)": {
        "details": "Returns the hash of all the transaction dataIt is important to note that this implementation is different than that in the Gnosis Safe contractThis implementation does not use the nonce, as this is not part of the Guard contract checkTransaction interfaceThis implementation also omits the EIP-712 related values, since these hashes are not being signed by users",
        "params": {
          "baseGas": "Gas costs for that are independent of the transaction execution(e.g. base transaction fee, signature check, payment of the refund)",
          "data": "Data payload.",
          "gasPrice": "Maximum gas price that should be used for this transaction.",
          "gasToken": "Token address (or 0 if ETH) that is used for the payment.",
          "operation": "Operation type.",
          "refundReceiver": "Address of receiver of gas payment (or 0 if tx.origin).",
          "safeTxGas": "Gas that should be used for the safe transaction.",
          "to": "Destination address.",
          "value": "Ether value."
        },
        "returns": {
          "_0": "Transaction hash bytes."
        }
      },
      "getTransactionProposalId(bytes32)": {
        "params": {
          "_txHash": "The hash of the transaction data"
        },
        "returns": {
          "_0": "uint256 The proposal ID the tx is associated with"
        }
      },
      "getTransactionQueuedBlock(bytes32)": {
        "params": {
          "_transactionHash": "The hash of the transaction data"
        },
        "returns": {
          "_0": "uint256 The block number"
        }
      },
      "owner()": {
        "details": "Returns the address of the current owner."
      },
      "queueProposal(uint256)": {
        "params": {
          "proposalId": "The ID of the proposal to queue"
        }
      },
      "renounceOwnership()": {
        "details": "Leaves the contract without owner. It will not be possible to call `onlyOwner` functions anymore. Can only be called by the current owner. NOTE: Renouncing ownership will leave the contract without an owner, thereby removing any functionality that is only available to the owner."
      },
      "setUp(bytes)": {
        "params": {
          "initializeParams": "Parameters of initialization encoded"
        }
      },
      "supportsInterface(bytes4)": {
        "params": {
          "interfaceId": "The bytes representing the interfaceId being checked"
        },
        "returns": {
          "_0": "bool True if this contract supports the checked interface"
        }
      },
      "transferOwnership(address)": {
        "details": "Transfers ownership of the contract to a new account (`newOwner`). Can only be called by the current owner."
      }
    },
    "version": 1
  },
  "userdoc": {
    "kind": "user",
    "methods": {
      "checkAfterExecution(bytes32,bool)": {
        "notice": "Does checks after transaction is executed on the Gnosis Safe"
      },
      "checkTransaction(address,uint256,bytes,uint8,uint256,uint256,uint256,address,address,bytes,address)": {
        "notice": "This function is called by the Gnosis Safe to check if the transaction should be able to be executedReverts if this transaction cannot be executed"
      },
      "getProposalExecutionDeadline(uint256)": {
        "notice": "Gets the block number that the proposal was queued at"
      },
      "getProposalQueuedBlock(uint256)": {
        "notice": "Gets the block number that the proposal was queued at"
      },
      "getTransactionProposalId(bytes32)": {
        "notice": "Gets the block number that the transaction was queued at"
      },
      "getTransactionQueuedBlock(bytes32)": {
        "notice": "Gets the block number that the transaction was queued at"
      },
      "queueProposal(uint256)": {
        "notice": "Queues a transaction for execution"
      },
      "setUp(bytes)": {
        "notice": "Initialize function, will be triggered when a new proxy is deployed"
      },
      "supportsInterface(bytes4)": {
        "notice": "Can be used to check if this contract supports the specified interface"
      }
    },
    "notice": "A guard contract that prevents transactions that have been vetoed from being executed a Gnosis Safethrough a FractalUsul module with an attached voting strategy",
    "version": 1
  },
  "storageLayout": {
    "storage": [
      {
        "astId": 3006,
        "contract": "contracts/UsulVetoGuard.sol:UsulVetoGuard",
        "label": "_initialized",
        "offset": 0,
        "slot": "0",
        "type": "t_uint8"
      },
      {
        "astId": 3009,
        "contract": "contracts/UsulVetoGuard.sol:UsulVetoGuard",
        "label": "_initializing",
        "offset": 1,
        "slot": "0",
        "type": "t_bool"
      },
      {
        "astId": 5465,
        "contract": "contracts/UsulVetoGuard.sol:UsulVetoGuard",
        "label": "__gap",
        "offset": 0,
        "slot": "1",
        "type": "t_array(t_uint256)50_storage"
      },
      {
        "astId": 2800,
        "contract": "contracts/UsulVetoGuard.sol:UsulVetoGuard",
        "label": "_owner",
        "offset": 0,
        "slot": "51",
        "type": "t_address"
      },
      {
        "astId": 2920,
        "contract": "contracts/UsulVetoGuard.sol:UsulVetoGuard",
        "label": "__gap",
        "offset": 0,
        "slot": "52",
        "type": "t_array(t_uint256)49_storage"
      },
      {
        "astId": 16720,
        "contract": "contracts/UsulVetoGuard.sol:UsulVetoGuard",
        "label": "vetoVoting",
        "offset": 0,
        "slot": "101",
        "type": "t_contract(IVetoVoting)18891"
      },
      {
        "astId": 16723,
        "contract": "contracts/UsulVetoGuard.sol:UsulVetoGuard",
        "label": "baseStrategy",
        "offset": 0,
        "slot": "102",
        "type": "t_contract(IBaseStrategy)18476"
      },
      {
        "astId": 16726,
        "contract": "contracts/UsulVetoGuard.sol:UsulVetoGuard",
        "label": "fractalUsul",
        "offset": 0,
        "slot": "103",
        "type": "t_contract(IFractalUsul)18569"
      },
      {
        "astId": 16728,
        "contract": "contracts/UsulVetoGuard.sol:UsulVetoGuard",
        "label": "executionPeriod",
        "offset": 0,
        "slot": "104",
        "type": "t_uint256"
      },
      {
        "astId": 16733,
        "contract": "contracts/UsulVetoGuard.sol:UsulVetoGuard",
        "label": "proposals",
        "offset": 0,
        "slot": "105",
        "type": "t_mapping(t_uint256,t_struct(Proposal)18723_storage)"
      },
      {
        "astId": 16737,
        "contract": "contracts/UsulVetoGuard.sol:UsulVetoGuard",
        "label": "transactionToProposal",
        "offset": 0,
        "slot": "106",
        "type": "t_mapping(t_bytes32,t_uint256)"
      }
    ],
    "types": {
      "t_address": {
        "encoding": "inplace",
        "label": "address",
        "numberOfBytes": "20"
      },
      "t_array(t_uint256)49_storage": {
        "base": "t_uint256",
        "encoding": "inplace",
        "label": "uint256[49]",
        "numberOfBytes": "1568"
      },
      "t_array(t_uint256)50_storage": {
        "base": "t_uint256",
        "encoding": "inplace",
        "label": "uint256[50]",
        "numberOfBytes": "1600"
      },
      "t_bool": {
        "encoding": "inplace",
        "label": "bool",
        "numberOfBytes": "1"
      },
      "t_bytes32": {
        "encoding": "inplace",
        "label": "bytes32",
        "numberOfBytes": "32"
      },
      "t_contract(IBaseStrategy)18476": {
        "encoding": "inplace",
        "label": "contract IBaseStrategy",
        "numberOfBytes": "20"
      },
      "t_contract(IFractalUsul)18569": {
        "encoding": "inplace",
        "label": "contract IFractalUsul",
        "numberOfBytes": "20"
      },
      "t_contract(IVetoVoting)18891": {
        "encoding": "inplace",
        "label": "contract IVetoVoting",
        "numberOfBytes": "20"
      },
      "t_mapping(t_bytes32,t_uint256)": {
        "encoding": "mapping",
        "key": "t_bytes32",
        "label": "mapping(bytes32 => uint256)",
        "numberOfBytes": "32",
        "value": "t_uint256"
      },
      "t_mapping(t_uint256,t_struct(Proposal)18723_storage)": {
        "encoding": "mapping",
        "key": "t_uint256",
        "label": "mapping(uint256 => struct IUsulVetoGuard.Proposal)",
        "numberOfBytes": "32",
        "value": "t_struct(Proposal)18723_storage"
      },
      "t_struct(Proposal)18723_storage": {
        "encoding": "inplace",
        "label": "struct IUsulVetoGuard.Proposal",
        "members": [
          {
            "astId": 18720,
            "contract": "contracts/UsulVetoGuard.sol:UsulVetoGuard",
            "label": "queuedBlock",
            "offset": 0,
            "slot": "0",
            "type": "t_uint256"
          },
          {
            "astId": 18722,
            "contract": "contracts/UsulVetoGuard.sol:UsulVetoGuard",
            "label": "executionDeadline",
            "offset": 0,
            "slot": "1",
            "type": "t_uint256"
          }
        ],
        "numberOfBytes": "64"
      },
      "t_uint256": {
        "encoding": "inplace",
        "label": "uint256",
        "numberOfBytes": "32"
      },
      "t_uint8": {
        "encoding": "inplace",
        "label": "uint8",
        "numberOfBytes": "1"
      }
    }
  }
}