{
  "address": "0xbf08cEbC2600A1D39460DBbEF207aFb8915b877E",
  "abi": [
    {
      "anonymous": false,
      "inputs": [
        {
          "indexed": true,
          "internalType": "address",
          "name": "creator",
          "type": "address"
        }
      ],
      "name": "FreezeProposalCreated",
      "type": "event"
    },
    {
      "anonymous": false,
      "inputs": [
        {
          "indexed": true,
          "internalType": "address",
          "name": "voter",
          "type": "address"
        },
        {
          "indexed": false,
          "internalType": "uint256",
          "name": "votesCast",
          "type": "uint256"
        }
      ],
      "name": "FreezeVoteCast",
      "type": "event"
    },
    {
      "anonymous": false,
      "inputs": [
        {
          "indexed": false,
          "internalType": "uint8",
          "name": "version",
          "type": "uint8"
        }
      ],
      "name": "Initialized",
      "type": "event"
    },
    {
      "anonymous": false,
      "inputs": [
        {
          "indexed": true,
          "internalType": "address",
          "name": "previousOwner",
          "type": "address"
        },
        {
          "indexed": true,
          "internalType": "address",
          "name": "newOwner",
          "type": "address"
        }
      ],
      "name": "OwnershipTransferred",
      "type": "event"
    },
    {
      "anonymous": false,
      "inputs": [
        {
          "indexed": true,
          "internalType": "address",
          "name": "voter",
          "type": "address"
        },
        {
          "indexed": true,
          "internalType": "bytes32",
          "name": "transactionHash",
          "type": "bytes32"
        },
        {
          "indexed": false,
          "internalType": "uint256",
          "name": "votesCast",
          "type": "uint256"
        },
        {
          "indexed": false,
          "internalType": "bool",
          "name": "freeze",
          "type": "bool"
        }
      ],
      "name": "VetoVoteCast",
      "type": "event"
    },
    {
      "inputs": [],
      "name": "castFreezeVote",
      "outputs": [],
      "stateMutability": "nonpayable",
      "type": "function"
    },
    {
      "inputs": [
        {
          "internalType": "bytes32",
          "name": "_transactionHash",
          "type": "bytes32"
        },
        {
          "internalType": "bool",
          "name": "_freeze",
          "type": "bool"
        }
      ],
      "name": "castVetoVote",
      "outputs": [],
      "stateMutability": "nonpayable",
      "type": "function"
    },
    {
      "inputs": [],
      "name": "defrost",
      "outputs": [],
      "stateMutability": "nonpayable",
      "type": "function"
    },
    {
      "inputs": [],
      "name": "freezeBlockDuration",
      "outputs": [
        {
          "internalType": "uint256",
          "name": "",
          "type": "uint256"
        }
      ],
      "stateMutability": "view",
      "type": "function"
    },
    {
      "inputs": [],
      "name": "freezeProposalBlockDuration",
      "outputs": [
        {
          "internalType": "uint256",
          "name": "",
          "type": "uint256"
        }
      ],
      "stateMutability": "view",
      "type": "function"
    },
    {
      "inputs": [],
      "name": "freezeProposalCreatedBlock",
      "outputs": [
        {
          "internalType": "uint256",
          "name": "",
          "type": "uint256"
        }
      ],
      "stateMutability": "view",
      "type": "function"
    },
    {
      "inputs": [],
      "name": "freezeProposalVoteCount",
      "outputs": [
        {
          "internalType": "uint256",
          "name": "",
          "type": "uint256"
        }
      ],
      "stateMutability": "view",
      "type": "function"
    },
    {
      "inputs": [],
      "name": "freezeVotesThreshold",
      "outputs": [
        {
          "internalType": "uint256",
          "name": "",
          "type": "uint256"
        }
      ],
      "stateMutability": "view",
      "type": "function"
    },
    {
      "inputs": [
        {
          "internalType": "bytes32",
          "name": "_transactionHash",
          "type": "bytes32"
        }
      ],
      "name": "getIsVetoed",
      "outputs": [
        {
          "internalType": "bool",
          "name": "",
          "type": "bool"
        }
      ],
      "stateMutability": "view",
      "type": "function"
    },
    {
      "inputs": [
        {
          "internalType": "address",
          "name": "to",
          "type": "address"
        },
        {
          "internalType": "uint256",
          "name": "value",
          "type": "uint256"
        },
        {
          "internalType": "bytes",
          "name": "data",
          "type": "bytes"
        },
        {
          "internalType": "enum Enum.Operation",
          "name": "operation",
          "type": "uint8"
        },
        {
          "internalType": "uint256",
          "name": "safeTxGas",
          "type": "uint256"
        },
        {
          "internalType": "uint256",
          "name": "baseGas",
          "type": "uint256"
        },
        {
          "internalType": "uint256",
          "name": "gasPrice",
          "type": "uint256"
        },
        {
          "internalType": "address",
          "name": "gasToken",
          "type": "address"
        },
        {
          "internalType": "address",
          "name": "refundReceiver",
          "type": "address"
        }
      ],
      "name": "getTransactionHash",
      "outputs": [
        {
          "internalType": "bytes32",
          "name": "",
          "type": "bytes32"
        }
      ],
      "stateMutability": "pure",
      "type": "function"
    },
    {
      "inputs": [],
      "name": "isFrozen",
      "outputs": [
        {
          "internalType": "bool",
          "name": "",
          "type": "bool"
        }
      ],
      "stateMutability": "view",
      "type": "function"
    },
    {
      "inputs": [],
      "name": "owner",
      "outputs": [
        {
          "internalType": "address",
          "name": "",
          "type": "address"
        }
      ],
      "stateMutability": "view",
      "type": "function"
    },
    {
      "inputs": [],
      "name": "renounceOwnership",
      "outputs": [],
      "stateMutability": "nonpayable",
      "type": "function"
    },
    {
      "inputs": [
        {
          "internalType": "bytes",
          "name": "initializeParams",
          "type": "bytes"
        }
      ],
      "name": "setUp",
      "outputs": [],
      "stateMutability": "nonpayable",
      "type": "function"
    },
    {
      "inputs": [
        {
          "internalType": "bytes32",
          "name": "",
          "type": "bytes32"
        }
      ],
      "name": "transactionVetoVotes",
      "outputs": [
        {
          "internalType": "uint256",
          "name": "",
          "type": "uint256"
        }
      ],
      "stateMutability": "view",
      "type": "function"
    },
    {
      "inputs": [
        {
          "internalType": "address",
          "name": "newOwner",
          "type": "address"
        }
      ],
      "name": "transferOwnership",
      "outputs": [],
      "stateMutability": "nonpayable",
      "type": "function"
    },
    {
      "inputs": [
        {
          "internalType": "uint256",
          "name": "_freezeBlockDuration",
          "type": "uint256"
        }
      ],
      "name": "updateFreezeBlockDuration",
      "outputs": [],
      "stateMutability": "nonpayable",
      "type": "function"
    },
    {
      "inputs": [
        {
          "internalType": "uint256",
          "name": "_freezeProposalBlockDuration",
          "type": "uint256"
        }
      ],
      "name": "updateFreezeProposalBlockDuration",
      "outputs": [],
      "stateMutability": "nonpayable",
      "type": "function"
    },
    {
      "inputs": [
        {
          "internalType": "uint256",
          "name": "_freezeVotesThreshold",
          "type": "uint256"
        }
      ],
      "name": "updateFreezeVotesThreshold",
      "outputs": [],
      "stateMutability": "nonpayable",
      "type": "function"
    },
    {
      "inputs": [
        {
          "internalType": "uint256",
          "name": "_vetoVotesThreshold",
          "type": "uint256"
        }
      ],
      "name": "updateVetoVotesThreshold",
      "outputs": [],
      "stateMutability": "nonpayable",
      "type": "function"
    },
    {
      "inputs": [
        {
          "internalType": "address",
          "name": "",
          "type": "address"
        },
        {
          "internalType": "uint256",
          "name": "",
          "type": "uint256"
        }
      ],
      "name": "userHasFreezeVoted",
      "outputs": [
        {
          "internalType": "bool",
          "name": "",
          "type": "bool"
        }
      ],
      "stateMutability": "view",
      "type": "function"
    },
    {
      "inputs": [
        {
          "internalType": "address",
          "name": "",
          "type": "address"
        },
        {
          "internalType": "bytes32",
          "name": "",
          "type": "bytes32"
        }
      ],
      "name": "userHasVoted",
      "outputs": [
        {
          "internalType": "bool",
          "name": "",
          "type": "bool"
        }
      ],
      "stateMutability": "view",
      "type": "function"
    },
    {
      "inputs": [],
      "name": "vetoGuard",
      "outputs": [
        {
          "internalType": "contract IVetoGuard",
          "name": "",
          "type": "address"
        }
      ],
      "stateMutability": "view",
      "type": "function"
    },
    {
      "inputs": [],
      "name": "vetoVotesThreshold",
      "outputs": [
        {
          "internalType": "uint256",
          "name": "",
          "type": "uint256"
        }
      ],
      "stateMutability": "view",
      "type": "function"
    },
    {
      "inputs": [],
      "name": "votesToken",
      "outputs": [
        {
          "internalType": "contract IVotes",
          "name": "",
          "type": "address"
        }
      ],
      "stateMutability": "view",
      "type": "function"
    }
  ],
  "transactionHash": "0x4bbc5bb92109c1cca9f757d9dc3e5a408709c34e67f61953231c7328892f0dba",
  "args": [],
  "numDeployments": 3,
  "solcInputHash": "781a6e8a4900617e4434f515515a3b8b",
  "bytecode": "0x608060405234801561001057600080fd5b506110b9806100206000396000f3fe608060405234801561001057600080fd5b50600436106101735760003560e01c80639bd16333116100de578063aba9dfe911610097578063e9c17a9411610071578063e9c17a941461034a578063f21cdf6f14610353578063f2fde38b1461035b578063fb80bccc1461036e57600080fd5b8063aba9dfe9146102ff578063e0b44b5a14610312578063e1a411521461032557600080fd5b80639bd16333146102a2578063a1cb3ed4146102b5578063a28e6f4a146102c8578063a3fb4897146102d1578063a4f9edbf146102e4578063a91e5cab146102f757600080fd5b80636e062eff116101305780636e062eff14610216578063715018a61461022b5780638a79cadf146102335780638da5cb5b1461023c5780638f920e1814610261578063919d8fdf1461028f57600080fd5b806301c4f974146101785780631f82bcb1146101ab57806333eeb147146101e957806349a6a4fa146101f1578063559a24e3146101fa57806365d5d08c14610203575b600080fd5b610198610186366004610c6f565b606d6020526000908152604090205481565b6040519081526020015b60405180910390f35b6101d96101b9366004610cad565b606e60209081526000928352604080842090915290825290205460ff1681565b60405190151581526020016101a2565b6101d9610377565b61019860695481565b61019860675481565b610198610211366004610d7c565b6103ab565b610229610224366004610e2d565b6103fa565b005b610229610678565b61019860685481565b6033546001600160a01b03165b6040516001600160a01b0390911681526020016101a2565b6101d961026f366004610cad565b606f60209081526000928352604080842090915290825290205460ff1681565b61022961029d366004610c6f565b61068c565b606b54610249906001600160a01b031681565b6102296102c3366004610c6f565b610699565b610198606a5481565b606c54610249906001600160a01b031681565b6102296102f2366004610e62565b6106a6565b610229610830565b61022961030d366004610c6f565b610ac2565b610229610320366004610c6f565b610acf565b6101d9610333366004610c6f565b6065546000918252606d6020526040909120541190565b61019860655481565b610229610adc565b610229610369366004610e9f565b610af0565b61019860665481565b600060665460685411801561039a5750606a546067546103979190610ed9565b43105b156103a55750600190565b50600090565b6000898989805190602001208989898989896040516020016103d599989796959493929190610ef1565b6040516020818303038152906040528051906020012090509998505050505050505050565b336000908152606e6020908152604080832085845290915290205460ff16156104635760405162461bcd60e51b8152602060048201526016602482015275155cd95c881a185cc8185b1c9958591e481d9bdd195960521b60448201526064015b60405180910390fd5b606c5460405163b59ee1db60e01b8152600481018490526000916001600160a01b03169063b59ee1db90602401602060405180830381865afa1580156104ad573d6000803e3d6000fd5b505050506040513d601f19601f820116820180604052508101906104d19190610f68565b90508060000361052f5760405162461bcd60e51b815260206004820152602360248201527f5472616e73616374696f6e20686173206e6f7420796574206265656e207175656044820152621d595960ea1b606482015260840161045a565b606b546000906001600160a01b0316633a46b1a83361054f600186610f81565b6040516001600160e01b031960e085901b1681526001600160a01b0390921660048301526024820152604401602060405180830381865afa158015610598573d6000803e3d6000fd5b505050506040513d601f19601f820116820180604052508101906105bc9190610f68565b9050600081116105de5760405162461bcd60e51b815260040161045a90610f98565b6000848152606d6020526040812080548392906105fc908490610ed9565b9091555050821561060f5761060f610830565b336000818152606e60209081526040808320888452825291829020805460ff191660011790558151848152861515918101919091528692917f3ff8c993f53ae62959a2df610fd0d5cff5320cd2a5f907e1a9f785499e402d84910160405180910390a350505050565b610680610b69565b61068a6000610bc3565b565b610694610b69565b606555565b6106a1610b69565b606a55565b600054610100900460ff16158080156106c65750600054600160ff909116105b806106e05750303b1580156106e0575060005460ff166001145b6107435760405162461bcd60e51b815260206004820152602e60248201527f496e697469616c697a61626c653a20636f6e747261637420697320616c72656160448201526d191e481a5b9a5d1a585b1a5e995960921b606482015260840161045a565b6000805460ff191660011790558015610766576000805461ff0019166101001790555b61076e610c15565b60008060008060008060008880602001905181019061078d9190610fc3565b96509650965096509650965096506107a487610bc3565b606595909555606693909355606991909155606a55606b80546001600160a01b039283166001600160a01b031991821617909155606c805492909316911617905550801561082c576000805461ff0019169055604051600181527f7f26b83ff96e1f2b6a682f133852f6798a09c465da95921460cefb38474024989060200160405180910390a15b5050565b60006069546067546108429190610ed9565b43111561093457436067819055606b546001600160a01b031690633a46b1a890339061087090600190610f81565b6040516001600160e01b031960e085901b1681526001600160a01b0390921660048301526024820152604401602060405180830381865afa1580156108b9573d6000803e3d6000fd5b505050506040513d601f19601f820116820180604052508101906108dd9190610f68565b9050600081116108ff5760405162461bcd60e51b815260040161045a90610f98565b606881905560405133907fe18d0e7e892cd73f8a648a42186da382bee61a1d78ac88401885943449f78fe490600090a2610a67565b336000908152606f60209081526040808320606754845290915290205460ff161561099a5760405162461bcd60e51b8152602060048201526016602482015275155cd95c881a185cc8185b1c9958591e481d9bdd195960521b604482015260640161045a565b606b546067546001600160a01b0390911690633a46b1a89033906109c090600190610f81565b6040516001600160e01b031960e085901b1681526001600160a01b0390921660048301526024820152604401602060405180830381865afa158015610a09573d6000803e3d6000fd5b505050506040513d601f19601f82011682018060405250810190610a2d9190610f68565b905060008111610a4f5760405162461bcd60e51b815260040161045a90610f98565b8060686000828254610a619190610ed9565b90915550505b336000818152606f602090815260408083206067548452825291829020805460ff1916600117905590518381527f3746cafa4f96166ea7502cf76d1ea8ce440f3c8215cbcac3ae32d3ee39afae42910160405180910390a250565b610aca610b69565b606655565b610ad7610b69565b606955565b610ae4610b69565b60006067819055606855565b610af8610b69565b6001600160a01b038116610b5d5760405162461bcd60e51b815260206004820152602660248201527f4f776e61626c653a206e6577206f776e657220697320746865207a65726f206160448201526564647265737360d01b606482015260840161045a565b610b6681610bc3565b50565b6033546001600160a01b0316331461068a5760405162461bcd60e51b815260206004820181905260248201527f4f776e61626c653a2063616c6c6572206973206e6f7420746865206f776e6572604482015260640161045a565b603380546001600160a01b038381166001600160a01b0319831681179093556040519116919082907f8be0079c531659141344cd1fd0a4f28419497f9722a3daafe3b4186f6b6457e090600090a35050565b600054610100900460ff16610c3c5760405162461bcd60e51b815260040161045a90611038565b61068a600054610100900460ff16610c665760405162461bcd60e51b815260040161045a90611038565b61068a33610bc3565b600060208284031215610c8157600080fd5b5035919050565b6001600160a01b0381168114610b6657600080fd5b8035610ca881610c88565b919050565b60008060408385031215610cc057600080fd5b8235610ccb81610c88565b946020939093013593505050565b634e487b7160e01b600052604160045260246000fd5b600082601f830112610d0057600080fd5b813567ffffffffffffffff80821115610d1b57610d1b610cd9565b604051601f8301601f19908116603f01168101908282118183101715610d4357610d43610cd9565b81604052838152866020858801011115610d5c57600080fd5b836020870160208301376000602085830101528094505050505092915050565b60008060008060008060008060006101208a8c031215610d9b57600080fd5b8935610da681610c88565b985060208a0135975060408a013567ffffffffffffffff811115610dc957600080fd5b610dd58c828d01610cef565b97505060608a013560028110610dea57600080fd5b955060808a0135945060a08a0135935060c08a0135925060e08a0135610e0f81610c88565b9150610e1e6101008b01610c9d565b90509295985092959850929598565b60008060408385031215610e4057600080fd5b8235915060208301358015158114610e5757600080fd5b809150509250929050565b600060208284031215610e7457600080fd5b813567ffffffffffffffff811115610e8b57600080fd5b610e9784828501610cef565b949350505050565b600060208284031215610eb157600080fd5b8135610ebc81610c88565b9392505050565b634e487b7160e01b600052601160045260246000fd5b60008219821115610eec57610eec610ec3565b500190565b6001600160a01b038a81168252602082018a90526040820189905261012082019060028910610f3057634e487b7160e01b600052602160045260246000fd5b8860608401528760808401528660a08401528560c084015280851660e0840152808416610100840152509a9950505050505050505050565b600060208284031215610f7a57600080fd5b5051919050565b600082821015610f9357610f93610ec3565b500390565b6020808252601190820152705573657220686173206e6f20766f74657360781b604082015260600190565b600080600080600080600060e0888a031215610fde57600080fd5b8751610fe981610c88565b809750506020880151955060408801519450606088015193506080880151925060a088015161101781610c88565b60c089015190925061102881610c88565b8091505092959891949750929550565b6020808252602b908201527f496e697469616c697a61626c653a20636f6e7472616374206973206e6f74206960408201526a6e697469616c697a696e6760a81b60608201526080019056fea2646970667358221220b5d05e5f120761ffbe9c617d8cb2e1ed8db6e4bdbea79352b541d3d306cc488364736f6c634300080d0033",
  "devdoc": {
    "kind": "dev",
    "methods": {
      "castVetoVote(bytes32,bool)": {
        "params": {
          "_freeze": "Bool indicating whether the voter thinks the DAO should also be frozen",
          "_transactionHash": "The hash of the transaction data"
        }
      },
      "getIsVetoed(bytes32)": {
        "params": {
          "_transactionHash": "The hash of the transaction data"
        },
        "returns": {
          "_0": "bool True if the transaction is vetoed"
        }
      },
      "getTransactionHash(address,uint256,bytes,uint8,uint256,uint256,uint256,address,address)": {
        "details": "Returns the hash of all the transaction dataIt is important to note that this implementation is different than that in the Gnosis Safe contractThis implementation does not use the nonce, as this is not part of the Guard contract checkTransaction interfaceThis implementation also omits the EIP-712 related values, since these hashes are not being signed by users",
        "params": {
          "baseGas": "Gas costs for that are independent of the transaction execution(e.g. base transaction fee, signature check, payment of the refund)",
          "data": "Data payload.",
          "gasPrice": "Maximum gas price that should be used for this transaction.",
          "gasToken": "Token address (or 0 if ETH) that is used for the payment.",
          "operation": "Operation type.",
          "refundReceiver": "Address of receiver of gas payment (or 0 if tx.origin).",
          "safeTxGas": "Gas that should be used for the safe transaction.",
          "to": "Destination address.",
          "value": "Ether value."
        },
        "returns": {
          "_0": "Transaction hash bytes."
        }
      },
      "isFrozen()": {
        "returns": {
          "_0": "bool Indicates whether the DAO is currently frozen"
        }
      },
      "owner()": {
        "details": "Returns the address of the current owner."
      },
      "renounceOwnership()": {
        "details": "Leaves the contract without owner. It will not be possible to call `onlyOwner` functions anymore. Can only be called by the current owner. NOTE: Renouncing ownership will leave the contract without an owner, thereby removing any functionality that is only available to the owner."
      },
      "setUp(bytes)": {
        "params": {
          "initializeParams": "Parameters of initialization encoded"
        }
      },
      "transferOwnership(address)": {
        "details": "Transfers ownership of the contract to a new account (`newOwner`). Can only be called by the current owner."
      },
      "updateFreezeBlockDuration(uint256)": {
        "params": {
          "_freezeBlockDuration": "The number of blocks a freeze last, from time of freeze proposal creation"
        }
      },
      "updateFreezeProposalBlockDuration(uint256)": {
        "params": {
          "_freezeProposalBlockDuration": "The number of blocks a freeze proposal has to succeed"
        }
      },
      "updateFreezeVotesThreshold(uint256)": {
        "params": {
          "_freezeVotesThreshold": "Number of freeze votes required to activate a freeze"
        }
      },
      "updateVetoVotesThreshold(uint256)": {
        "params": {
          "_vetoVotesThreshold": "The number of votes required to veto a transaction"
        }
      }
    },
    "version": 1
  },
  "userdoc": {
    "kind": "user",
    "methods": {
      "castFreezeVote()": {
        "notice": "Allows user to cast a freeze vote, creating a freeze proposal if necessary"
      },
      "castVetoVote(bytes32,bool)": {
        "notice": "Allows the msg.sender to cast veto and freeze votes on the specified transaction"
      },
      "defrost()": {
        "notice": "Unfreezes the DAO, only callable by the owner"
      },
      "getIsVetoed(bytes32)": {
        "notice": "Returns whether the specified transaction has been vetoed"
      },
      "isFrozen()": {
        "notice": "Returns true if the DAO is currently frozen, false otherwise"
      },
      "setUp(bytes)": {
        "notice": "Initialize function, will be triggered when a new proxy is deployed"
      },
      "updateFreezeBlockDuration(uint256)": {
        "notice": "Updates the freeze block duration, only callable by the owner"
      },
      "updateFreezeProposalBlockDuration(uint256)": {
        "notice": "Updates the freeze proposal blocks duration, only callable by the owner"
      },
      "updateFreezeVotesThreshold(uint256)": {
        "notice": "Updates the freeze votes threshold, only callable by the owner"
      },
      "updateVetoVotesThreshold(uint256)": {
        "notice": "Updates the veto votes threshold, only callable by the owner"
      }
    },
    "notice": "A contract for casting veto votes with an ERC20 votes token",
    "version": 1
  },
  "storageLayout": {
    "storage": [
      {
        "astId": 3006,
        "contract": "contracts/VetoERC20Voting.sol:VetoERC20Voting",
        "label": "_initialized",
        "offset": 0,
        "slot": "0",
        "type": "t_uint8"
      },
      {
        "astId": 3009,
        "contract": "contracts/VetoERC20Voting.sol:VetoERC20Voting",
        "label": "_initializing",
        "offset": 1,
        "slot": "0",
        "type": "t_bool"
      },
      {
        "astId": 5465,
        "contract": "contracts/VetoERC20Voting.sol:VetoERC20Voting",
        "label": "__gap",
        "offset": 0,
        "slot": "1",
        "type": "t_array(t_uint256)50_storage"
      },
      {
        "astId": 2800,
        "contract": "contracts/VetoERC20Voting.sol:VetoERC20Voting",
        "label": "_owner",
        "offset": 0,
        "slot": "51",
        "type": "t_address"
      },
      {
        "astId": 2920,
        "contract": "contracts/VetoERC20Voting.sol:VetoERC20Voting",
        "label": "__gap",
        "offset": 0,
        "slot": "52",
        "type": "t_array(t_uint256)49_storage"
      },
      {
        "astId": 17119,
        "contract": "contracts/VetoERC20Voting.sol:VetoERC20Voting",
        "label": "vetoVotesThreshold",
        "offset": 0,
        "slot": "101",
        "type": "t_uint256"
      },
      {
        "astId": 17121,
        "contract": "contracts/VetoERC20Voting.sol:VetoERC20Voting",
        "label": "freezeVotesThreshold",
        "offset": 0,
        "slot": "102",
        "type": "t_uint256"
      },
      {
        "astId": 17123,
        "contract": "contracts/VetoERC20Voting.sol:VetoERC20Voting",
        "label": "freezeProposalCreatedBlock",
        "offset": 0,
        "slot": "103",
        "type": "t_uint256"
      },
      {
        "astId": 17125,
        "contract": "contracts/VetoERC20Voting.sol:VetoERC20Voting",
        "label": "freezeProposalVoteCount",
        "offset": 0,
        "slot": "104",
        "type": "t_uint256"
      },
      {
        "astId": 17127,
        "contract": "contracts/VetoERC20Voting.sol:VetoERC20Voting",
        "label": "freezeProposalBlockDuration",
        "offset": 0,
        "slot": "105",
        "type": "t_uint256"
      },
      {
        "astId": 17129,
        "contract": "contracts/VetoERC20Voting.sol:VetoERC20Voting",
        "label": "freezeBlockDuration",
        "offset": 0,
        "slot": "106",
        "type": "t_uint256"
      },
      {
        "astId": 17132,
        "contract": "contracts/VetoERC20Voting.sol:VetoERC20Voting",
        "label": "votesToken",
        "offset": 0,
        "slot": "107",
        "type": "t_contract(IVotes)8737"
      },
      {
        "astId": 17135,
        "contract": "contracts/VetoERC20Voting.sol:VetoERC20Voting",
        "label": "vetoGuard",
        "offset": 0,
        "slot": "108",
        "type": "t_contract(IVetoGuard)18841"
      },
      {
        "astId": 17139,
        "contract": "contracts/VetoERC20Voting.sol:VetoERC20Voting",
        "label": "transactionVetoVotes",
        "offset": 0,
        "slot": "109",
        "type": "t_mapping(t_bytes32,t_uint256)"
      },
      {
        "astId": 17145,
        "contract": "contracts/VetoERC20Voting.sol:VetoERC20Voting",
        "label": "userHasVoted",
        "offset": 0,
        "slot": "110",
        "type": "t_mapping(t_address,t_mapping(t_bytes32,t_bool))"
      },
      {
        "astId": 17151,
        "contract": "contracts/VetoERC20Voting.sol:VetoERC20Voting",
        "label": "userHasFreezeVoted",
        "offset": 0,
        "slot": "111",
        "type": "t_mapping(t_address,t_mapping(t_uint256,t_bool))"
      }
    ],
    "types": {
      "t_address": {
        "encoding": "inplace",
        "label": "address",
        "numberOfBytes": "20"
      },
      "t_array(t_uint256)49_storage": {
        "base": "t_uint256",
        "encoding": "inplace",
        "label": "uint256[49]",
        "numberOfBytes": "1568"
      },
      "t_array(t_uint256)50_storage": {
        "base": "t_uint256",
        "encoding": "inplace",
        "label": "uint256[50]",
        "numberOfBytes": "1600"
      },
      "t_bool": {
        "encoding": "inplace",
        "label": "bool",
        "numberOfBytes": "1"
      },
      "t_bytes32": {
        "encoding": "inplace",
        "label": "bytes32",
        "numberOfBytes": "32"
      },
      "t_contract(IVetoGuard)18841": {
        "encoding": "inplace",
        "label": "contract IVetoGuard",
        "numberOfBytes": "20"
      },
      "t_contract(IVotes)8737": {
        "encoding": "inplace",
        "label": "contract IVotes",
        "numberOfBytes": "20"
      },
      "t_mapping(t_address,t_mapping(t_bytes32,t_bool))": {
        "encoding": "mapping",
        "key": "t_address",
        "label": "mapping(address => mapping(bytes32 => bool))",
        "numberOfBytes": "32",
        "value": "t_mapping(t_bytes32,t_bool)"
      },
      "t_mapping(t_address,t_mapping(t_uint256,t_bool))": {
        "encoding": "mapping",
        "key": "t_address",
        "label": "mapping(address => mapping(uint256 => bool))",
        "numberOfBytes": "32",
        "value": "t_mapping(t_uint256,t_bool)"
      },
      "t_mapping(t_bytes32,t_bool)": {
        "encoding": "mapping",
        "key": "t_bytes32",
        "label": "mapping(bytes32 => bool)",
        "numberOfBytes": "32",
        "value": "t_bool"
      },
      "t_mapping(t_bytes32,t_uint256)": {
        "encoding": "mapping",
        "key": "t_bytes32",
        "label": "mapping(bytes32 => uint256)",
        "numberOfBytes": "32",
        "value": "t_uint256"
      },
      "t_mapping(t_uint256,t_bool)": {
        "encoding": "mapping",
        "key": "t_uint256",
        "label": "mapping(uint256 => bool)",
        "numberOfBytes": "32",
        "value": "t_bool"
      },
      "t_uint256": {
        "encoding": "inplace",
        "label": "uint256",
        "numberOfBytes": "32"
      },
      "t_uint8": {
        "encoding": "inplace",
        "label": "uint8",
        "numberOfBytes": "1"
      }
    }
  }
}