{
  "address": "0x8738e17E307b8d1b12847542A5E8a6b832bA97aC",
  "abi": [
    {
      "anonymous": false,
      "inputs": [
        {
          "indexed": true,
          "internalType": "address",
          "name": "creator",
          "type": "address"
        }
      ],
      "name": "FreezeProposalCreated",
      "type": "event"
    },
    {
      "anonymous": false,
      "inputs": [
        {
          "indexed": true,
          "internalType": "address",
          "name": "voter",
          "type": "address"
        },
        {
          "indexed": false,
          "internalType": "uint256",
          "name": "votesCast",
          "type": "uint256"
        }
      ],
      "name": "FreezeVoteCast",
      "type": "event"
    },
    {
      "anonymous": false,
      "inputs": [
        {
          "indexed": false,
          "internalType": "uint8",
          "name": "version",
          "type": "uint8"
        }
      ],
      "name": "Initialized",
      "type": "event"
    },
    {
      "anonymous": false,
      "inputs": [
        {
          "indexed": true,
          "internalType": "address",
          "name": "previousOwner",
          "type": "address"
        },
        {
          "indexed": true,
          "internalType": "address",
          "name": "newOwner",
          "type": "address"
        }
      ],
      "name": "OwnershipTransferred",
      "type": "event"
    },
    {
      "anonymous": false,
      "inputs": [
        {
          "indexed": true,
          "internalType": "address",
          "name": "voter",
          "type": "address"
        },
        {
          "indexed": true,
          "internalType": "bytes32",
          "name": "transactionHash",
          "type": "bytes32"
        },
        {
          "indexed": false,
          "internalType": "uint256",
          "name": "votesCast",
          "type": "uint256"
        },
        {
          "indexed": false,
          "internalType": "bool",
          "name": "freeze",
          "type": "bool"
        }
      ],
      "name": "VetoVoteCast",
      "type": "event"
    },
    {
      "inputs": [],
      "name": "castFreezeVote",
      "outputs": [],
      "stateMutability": "nonpayable",
      "type": "function"
    },
    {
      "inputs": [
        {
          "internalType": "bytes32",
          "name": "_transactionHash",
          "type": "bytes32"
        },
        {
          "internalType": "bool",
          "name": "_freeze",
          "type": "bool"
        }
      ],
      "name": "castVetoVote",
      "outputs": [],
      "stateMutability": "nonpayable",
      "type": "function"
    },
    {
      "inputs": [],
      "name": "defrost",
      "outputs": [],
      "stateMutability": "nonpayable",
      "type": "function"
    },
    {
      "inputs": [],
      "name": "freezeBlockDuration",
      "outputs": [
        {
          "internalType": "uint256",
          "name": "",
          "type": "uint256"
        }
      ],
      "stateMutability": "view",
      "type": "function"
    },
    {
      "inputs": [],
      "name": "freezeProposalBlockDuration",
      "outputs": [
        {
          "internalType": "uint256",
          "name": "",
          "type": "uint256"
        }
      ],
      "stateMutability": "view",
      "type": "function"
    },
    {
      "inputs": [],
      "name": "freezeProposalCreatedBlock",
      "outputs": [
        {
          "internalType": "uint256",
          "name": "",
          "type": "uint256"
        }
      ],
      "stateMutability": "view",
      "type": "function"
    },
    {
      "inputs": [],
      "name": "freezeProposalVoteCount",
      "outputs": [
        {
          "internalType": "uint256",
          "name": "",
          "type": "uint256"
        }
      ],
      "stateMutability": "view",
      "type": "function"
    },
    {
      "inputs": [],
      "name": "freezeVotesThreshold",
      "outputs": [
        {
          "internalType": "uint256",
          "name": "",
          "type": "uint256"
        }
      ],
      "stateMutability": "view",
      "type": "function"
    },
    {
      "inputs": [
        {
          "internalType": "bytes32",
          "name": "_transactionHash",
          "type": "bytes32"
        }
      ],
      "name": "getIsVetoed",
      "outputs": [
        {
          "internalType": "bool",
          "name": "",
          "type": "bool"
        }
      ],
      "stateMutability": "view",
      "type": "function"
    },
    {
      "inputs": [
        {
          "internalType": "address",
          "name": "to",
          "type": "address"
        },
        {
          "internalType": "uint256",
          "name": "value",
          "type": "uint256"
        },
        {
          "internalType": "bytes",
          "name": "data",
          "type": "bytes"
        },
        {
          "internalType": "enum Enum.Operation",
          "name": "operation",
          "type": "uint8"
        },
        {
          "internalType": "uint256",
          "name": "safeTxGas",
          "type": "uint256"
        },
        {
          "internalType": "uint256",
          "name": "baseGas",
          "type": "uint256"
        },
        {
          "internalType": "uint256",
          "name": "gasPrice",
          "type": "uint256"
        },
        {
          "internalType": "address",
          "name": "gasToken",
          "type": "address"
        },
        {
          "internalType": "address",
          "name": "refundReceiver",
          "type": "address"
        }
      ],
      "name": "getTransactionHash",
      "outputs": [
        {
          "internalType": "bytes32",
          "name": "",
          "type": "bytes32"
        }
      ],
      "stateMutability": "pure",
      "type": "function"
    },
    {
      "inputs": [],
      "name": "gnosisSafe",
      "outputs": [
        {
          "internalType": "contract IGnosisSafe",
          "name": "",
          "type": "address"
        }
      ],
      "stateMutability": "view",
      "type": "function"
    },
    {
      "inputs": [],
      "name": "isFrozen",
      "outputs": [
        {
          "internalType": "bool",
          "name": "",
          "type": "bool"
        }
      ],
      "stateMutability": "view",
      "type": "function"
    },
    {
      "inputs": [],
      "name": "owner",
      "outputs": [
        {
          "internalType": "address",
          "name": "",
          "type": "address"
        }
      ],
      "stateMutability": "view",
      "type": "function"
    },
    {
      "inputs": [],
      "name": "renounceOwnership",
      "outputs": [],
      "stateMutability": "nonpayable",
      "type": "function"
    },
    {
      "inputs": [
        {
          "internalType": "bytes",
          "name": "initializeParams",
          "type": "bytes"
        }
      ],
      "name": "setUp",
      "outputs": [],
      "stateMutability": "nonpayable",
      "type": "function"
    },
    {
      "inputs": [
        {
          "internalType": "bytes32",
          "name": "",
          "type": "bytes32"
        }
      ],
      "name": "transactionVetoVotes",
      "outputs": [
        {
          "internalType": "uint256",
          "name": "",
          "type": "uint256"
        }
      ],
      "stateMutability": "view",
      "type": "function"
    },
    {
      "inputs": [
        {
          "internalType": "address",
          "name": "newOwner",
          "type": "address"
        }
      ],
      "name": "transferOwnership",
      "outputs": [],
      "stateMutability": "nonpayable",
      "type": "function"
    },
    {
      "inputs": [
        {
          "internalType": "uint256",
          "name": "_freezeBlockDuration",
          "type": "uint256"
        }
      ],
      "name": "updateFreezeBlockDuration",
      "outputs": [],
      "stateMutability": "nonpayable",
      "type": "function"
    },
    {
      "inputs": [
        {
          "internalType": "uint256",
          "name": "_freezeProposalBlockDuration",
          "type": "uint256"
        }
      ],
      "name": "updateFreezeProposalBlockDuration",
      "outputs": [],
      "stateMutability": "nonpayable",
      "type": "function"
    },
    {
      "inputs": [
        {
          "internalType": "uint256",
          "name": "_freezeVotesThreshold",
          "type": "uint256"
        }
      ],
      "name": "updateFreezeVotesThreshold",
      "outputs": [],
      "stateMutability": "nonpayable",
      "type": "function"
    },
    {
      "inputs": [
        {
          "internalType": "uint256",
          "name": "_vetoVotesThreshold",
          "type": "uint256"
        }
      ],
      "name": "updateVetoVotesThreshold",
      "outputs": [],
      "stateMutability": "nonpayable",
      "type": "function"
    },
    {
      "inputs": [
        {
          "internalType": "address",
          "name": "",
          "type": "address"
        },
        {
          "internalType": "uint256",
          "name": "",
          "type": "uint256"
        }
      ],
      "name": "userHasFreezeVoted",
      "outputs": [
        {
          "internalType": "bool",
          "name": "",
          "type": "bool"
        }
      ],
      "stateMutability": "view",
      "type": "function"
    },
    {
      "inputs": [
        {
          "internalType": "address",
          "name": "",
          "type": "address"
        },
        {
          "internalType": "bytes32",
          "name": "",
          "type": "bytes32"
        }
      ],
      "name": "userHasVoted",
      "outputs": [
        {
          "internalType": "bool",
          "name": "",
          "type": "bool"
        }
      ],
      "stateMutability": "view",
      "type": "function"
    },
    {
      "inputs": [],
      "name": "vetoGuard",
      "outputs": [
        {
          "internalType": "contract IVetoGuard",
          "name": "",
          "type": "address"
        }
      ],
      "stateMutability": "view",
      "type": "function"
    },
    {
      "inputs": [],
      "name": "vetoVotesThreshold",
      "outputs": [
        {
          "internalType": "uint256",
          "name": "",
          "type": "uint256"
        }
      ],
      "stateMutability": "view",
      "type": "function"
    }
  ],
  "transactionHash": "0x2e03eda9d264f700c66a5ed188ae706b4918cf3b3b351583ee5572ab83018b02",
  "args": [],
  "numDeployments": 1,
  "solcInputHash": "b2fc18a2e663b1410a34647a57a06e84",
  "bytecode": "0x608060405234801561001057600080fd5b50611001806100206000396000f3fe608060405234801561001057600080fd5b50600436106101735760003560e01c8063a1cb3ed4116100de578063aba9dfe911610097578063e9c17a9411610071578063e9c17a941461034b578063f21cdf6f14610354578063f2fde38b1461035c578063fb80bccc1461036f57600080fd5b8063aba9dfe9146102ff578063e0b44b5a14610312578063e1a411521461032557600080fd5b8063a1cb3ed4146102a2578063a28e6f4a146102b5578063a3fb4897146102be578063a4f9edbf146102d1578063a84173ae146102e4578063a91e5cab146102f757600080fd5b80636e062eff116101305780636e062eff14610216578063715018a61461022b5780638a79cadf146102335780638da5cb5b1461023c5780638f920e1814610261578063919d8fdf1461028f57600080fd5b806301c4f974146101785780631f82bcb1146101ab57806333eeb147146101e957806349a6a4fa146101f1578063559a24e3146101fa57806365d5d08c14610203575b600080fd5b610198610186366004610bba565b606d6020526000908152604090205481565b6040519081526020015b60405180910390f35b6101d96101b9366004610bf8565b606e60209081526000928352604080842090915290825290205460ff1681565b60405190151581526020016101a2565b6101d9610378565b61019860695481565b61019860675481565b610198610211366004610cc7565b6103ad565b610229610224366004610d86565b6103fc565b005b610229610674565b61019860685481565b6033546001600160a01b03165b6040516001600160a01b0390911681526020016101a2565b6101d961026f366004610bf8565b606f60209081526000928352604080842090915290825290205460ff1681565b61022961029d366004610bba565b610688565b6102296102b0366004610bba565b610695565b610198606a5481565b606c54610249906001600160a01b031681565b6102296102df366004610db6565b6106a2565b606b54610249906001600160a01b031681565b61022961082c565b61022961030d366004610bba565b6108e4565b610229610320366004610bba565b6108f1565b6101d9610333366004610bba565b6065546000918252606d602052604090912054101590565b61019860655481565b6102296108fe565b61022961036a366004610df3565b610912565b61019860665481565b60006066546068541015801561039c5750606a546067546103999190610e2d565b43105b156103a75750600190565b50600090565b6000898989805190602001208989898989896040516020016103d799989796959493929190610e45565b6040516020818303038152906040528051906020012090509998505050505050505050565b336000908152606e6020908152604080832085845290915290205460ff16156104655760405162461bcd60e51b8152602060048201526016602482015275155cd95c881a185cc8185b1c9958591e481d9bdd195960521b60448201526064015b60405180910390fd5b606b546040516317aa5fb760e11b81523360048201526001600160a01b0390911690632f54bf6e90602401602060405180830381865afa1580156104ad573d6000803e3d6000fd5b505050506040513d601f19601f820116820180604052508101906104d19190610ebc565b6105155760405162461bcd60e51b815260206004820152601560248201527402ab9b2b91034b9903737ba1030b71037bbb732b91605d1b604482015260640161045c565b606c5460405163b59ee1db60e01b8152600481018490526001600160a01b039091169063b59ee1db90602401602060405180830381865afa15801561055e573d6000803e3d6000fd5b505050506040513d601f19601f820116820180604052508101906105829190610ed9565b6000036105dd5760405162461bcd60e51b815260206004820152602360248201527f5472616e73616374696f6e20686173206e6f7420796574206265656e207175656044820152621d595960ea1b606482015260840161045c565b6000828152606d602052604081208054916105f783610ef2565b9190505550801561060a5761060a61098b565b336000818152606e60209081526040808320868452825291829020805460ff191660019081179091558251908152841515918101919091528492917f3ff8c993f53ae62959a2df610fd0d5cff5320cd2a5f907e1a9f785499e402d84910160405180910390a35050565b61067c610ab4565b6106866000610b0e565b565b610690610ab4565b606555565b61069d610ab4565b606a55565b600054610100900460ff16158080156106c25750600054600160ff909116105b806106dc5750303b1580156106dc575060005460ff166001145b61073f5760405162461bcd60e51b815260206004820152602e60248201527f496e697469616c697a61626c653a20636f6e747261637420697320616c72656160448201526d191e481a5b9a5d1a585b1a5e995960921b606482015260840161045c565b6000805460ff191660011790558015610762576000805461ff0019166101001790555b61076a610b60565b6000806000806000806000888060200190518101906107899190610f0b565b96509650965096509650965096506107a087610b0e565b606595909555606693909355606991909155606a55606b80546001600160a01b039283166001600160a01b031991821617909155606c8054929093169116179055508015610828576000805461ff0019169055604051600181527f7f26b83ff96e1f2b6a682f133852f6798a09c465da95921460cefb38474024989060200160405180910390a15b5050565b606b546040516317aa5fb760e11b81523360048201526001600160a01b0390911690632f54bf6e90602401602060405180830381865afa158015610874573d6000803e3d6000fd5b505050506040513d601f19601f820116820180604052508101906108989190610ebc565b6108dc5760405162461bcd60e51b815260206004820152601560248201527402ab9b2b91034b9903737ba1030b71037bbb732b91605d1b604482015260640161045c565b61068661098b565b6108ec610ab4565b606655565b6108f9610ab4565b606955565b610906610ab4565b60006067819055606855565b61091a610ab4565b6001600160a01b03811661097f5760405162461bcd60e51b815260206004820152602660248201527f4f776e61626c653a206e6577206f776e657220697320746865207a65726f206160448201526564647265737360d01b606482015260840161045c565b61098881610b0e565b50565b60695460675461099b9190610e2d565b4311156109db5743606755600160685560405133907fe18d0e7e892cd73f8a648a42186da382bee61a1d78ac88401885943449f78fe490600090a2610a57565b336000908152606f60209081526040808320606754845290915290205460ff1615610a415760405162461bcd60e51b8152602060048201526016602482015275155cd95c881a185cc8185b1c9958591e481d9bdd195960521b604482015260640161045c565b60688054906000610a5183610ef2565b91905055505b336000818152606f602090815260408083206067548452825291829020805460ff1916600190811790915591519182527f3746cafa4f96166ea7502cf76d1ea8ce440f3c8215cbcac3ae32d3ee39afae42910160405180910390a2565b6033546001600160a01b031633146106865760405162461bcd60e51b815260206004820181905260248201527f4f776e61626c653a2063616c6c6572206973206e6f7420746865206f776e6572604482015260640161045c565b603380546001600160a01b038381166001600160a01b0319831681179093556040519116919082907f8be0079c531659141344cd1fd0a4f28419497f9722a3daafe3b4186f6b6457e090600090a35050565b600054610100900460ff16610b875760405162461bcd60e51b815260040161045c90610f80565b610686600054610100900460ff16610bb15760405162461bcd60e51b815260040161045c90610f80565b61068633610b0e565b600060208284031215610bcc57600080fd5b5035919050565b6001600160a01b038116811461098857600080fd5b8035610bf381610bd3565b919050565b60008060408385031215610c0b57600080fd5b8235610c1681610bd3565b946020939093013593505050565b634e487b7160e01b600052604160045260246000fd5b600082601f830112610c4b57600080fd5b813567ffffffffffffffff80821115610c6657610c66610c24565b604051601f8301601f19908116603f01168101908282118183101715610c8e57610c8e610c24565b81604052838152866020858801011115610ca757600080fd5b836020870160208301376000602085830101528094505050505092915050565b60008060008060008060008060006101208a8c031215610ce657600080fd5b8935610cf181610bd3565b985060208a0135975060408a013567ffffffffffffffff811115610d1457600080fd5b610d208c828d01610c3a565b97505060608a013560028110610d3557600080fd5b955060808a0135945060a08a0135935060c08a0135925060e08a0135610d5a81610bd3565b9150610d696101008b01610be8565b90509295985092959850929598565b801515811461098857600080fd5b60008060408385031215610d9957600080fd5b823591506020830135610dab81610d78565b809150509250929050565b600060208284031215610dc857600080fd5b813567ffffffffffffffff811115610ddf57600080fd5b610deb84828501610c3a565b949350505050565b600060208284031215610e0557600080fd5b8135610e1081610bd3565b9392505050565b634e487b7160e01b600052601160045260246000fd5b60008219821115610e4057610e40610e17565b500190565b6001600160a01b038a81168252602082018a90526040820189905261012082019060028910610e8457634e487b7160e01b600052602160045260246000fd5b8860608401528760808401528660a08401528560c084015280851660e0840152808416610100840152509a9950505050505050505050565b600060208284031215610ece57600080fd5b8151610e1081610d78565b600060208284031215610eeb57600080fd5b5051919050565b600060018201610f0457610f04610e17565b5060010190565b600080600080600080600060e0888a031215610f2657600080fd5b8751610f3181610bd3565b809750506020880151955060408801519450606088015193506080880151925060a0880151610f5f81610bd3565b60c0890151909250610f7081610bd3565b8091505092959891949750929550565b6020808252602b908201527f496e697469616c697a61626c653a20636f6e7472616374206973206e6f74206960408201526a6e697469616c697a696e6760a81b60608201526080019056fea2646970667358221220b2c5040d9e38050598ae8807606f0f69f3e70208e774d13c14800f35dc98ec3f64736f6c634300080d0033",
  "devdoc": {
    "kind": "dev",
    "methods": {
      "castVetoVote(bytes32,bool)": {
        "params": {
          "_freeze": "Bool indicating whether the voter thinks the DAO should also be frozen",
          "_transactionHash": "The hash of the transaction data"
        }
      },
      "getIsVetoed(bytes32)": {
        "params": {
          "_transactionHash": "The hash of the transaction data"
        },
        "returns": {
          "_0": "bool True if the transaction is vetoed"
        }
      },
      "getTransactionHash(address,uint256,bytes,uint8,uint256,uint256,uint256,address,address)": {
        "details": "Returns the hash of all the transaction dataIt is important to note that this implementation is different than that in the Gnosis Safe contractThis implementation does not use the nonce, as this is not part of the Guard contract checkTransaction interfaceThis implementation also omits the EIP-712 related values, since these hashes are not being signed by users",
        "params": {
          "baseGas": "Gas costs for that are independent of the transaction execution(e.g. base transaction fee, signature check, payment of the refund)",
          "data": "Data payload.",
          "gasPrice": "Maximum gas price that should be used for this transaction.",
          "gasToken": "Token address (or 0 if ETH) that is used for the payment.",
          "operation": "Operation type.",
          "refundReceiver": "Address of receiver of gas payment (or 0 if tx.origin).",
          "safeTxGas": "Gas that should be used for the safe transaction.",
          "to": "Destination address.",
          "value": "Ether value."
        },
        "returns": {
          "_0": "Transaction hash bytes."
        }
      },
      "isFrozen()": {
        "returns": {
          "_0": "bool Indicates whether the DAO is currently frozen"
        }
      },
      "owner()": {
        "details": "Returns the address of the current owner."
      },
      "renounceOwnership()": {
        "details": "Leaves the contract without owner. It will not be possible to call `onlyOwner` functions anymore. Can only be called by the current owner. NOTE: Renouncing ownership will leave the contract without an owner, thereby removing any functionality that is only available to the owner."
      },
      "setUp(bytes)": {
        "params": {
          "initializeParams": "Parameters of initialization encoded"
        }
      },
      "transferOwnership(address)": {
        "details": "Transfers ownership of the contract to a new account (`newOwner`). Can only be called by the current owner."
      },
      "updateFreezeBlockDuration(uint256)": {
        "params": {
          "_freezeBlockDuration": "The number of blocks a freeze last, from time of freeze proposal creation"
        }
      },
      "updateFreezeProposalBlockDuration(uint256)": {
        "params": {
          "_freezeProposalBlockDuration": "The number of blocks a freeze proposal has to succeed"
        }
      },
      "updateFreezeVotesThreshold(uint256)": {
        "params": {
          "_freezeVotesThreshold": "Number of freeze votes required to activate a freeze"
        }
      },
      "updateVetoVotesThreshold(uint256)": {
        "params": {
          "_vetoVotesThreshold": "The number of votes required to veto a transaction"
        }
      }
    },
    "version": 1
  },
  "userdoc": {
    "kind": "user",
    "methods": {
      "castFreezeVote()": {
        "notice": "Allows user to cast a freeze vote, creating a freeze proposal if necessary"
      },
      "castVetoVote(bytes32,bool)": {
        "notice": "Allows the msg.sender to cast veto and freeze votes on the specified transaction"
      },
      "defrost()": {
        "notice": "Unfreezes the DAO, only callable by the owner"
      },
      "getIsVetoed(bytes32)": {
        "notice": "Returns whether the specified transaction has been vetoed"
      },
      "isFrozen()": {
        "notice": "Returns true if the DAO is currently frozen, false otherwise"
      },
      "setUp(bytes)": {
        "notice": "Initialize function, will be triggered when a new proxy is deployed"
      },
      "updateFreezeBlockDuration(uint256)": {
        "notice": "Updates the freeze block duration, only callable by the owner"
      },
      "updateFreezeProposalBlockDuration(uint256)": {
        "notice": "Updates the freeze proposal blocks duration, only callable by the owner"
      },
      "updateFreezeVotesThreshold(uint256)": {
        "notice": "Updates the freeze votes threshold, only callable by the owner"
      },
      "updateVetoVotesThreshold(uint256)": {
        "notice": "Updates the veto votes threshold, only callable by the owner"
      }
    },
    "notice": "A contract for a parent Multisig DAO to cast veto and freeze votes on a child DAO",
    "version": 1
  },
  "storageLayout": {
    "storage": [
      {
        "astId": 3006,
        "contract": "contracts/VetoMultisigVoting.sol:VetoMultisigVoting",
        "label": "_initialized",
        "offset": 0,
        "slot": "0",
        "type": "t_uint8"
      },
      {
        "astId": 3009,
        "contract": "contracts/VetoMultisigVoting.sol:VetoMultisigVoting",
        "label": "_initializing",
        "offset": 1,
        "slot": "0",
        "type": "t_bool"
      },
      {
        "astId": 5465,
        "contract": "contracts/VetoMultisigVoting.sol:VetoMultisigVoting",
        "label": "__gap",
        "offset": 0,
        "slot": "1",
        "type": "t_array(t_uint256)50_storage"
      },
      {
        "astId": 2800,
        "contract": "contracts/VetoMultisigVoting.sol:VetoMultisigVoting",
        "label": "_owner",
        "offset": 0,
        "slot": "51",
        "type": "t_address"
      },
      {
        "astId": 2920,
        "contract": "contracts/VetoMultisigVoting.sol:VetoMultisigVoting",
        "label": "__gap",
        "offset": 0,
        "slot": "52",
        "type": "t_array(t_uint256)49_storage"
      },
      {
        "astId": 10799,
        "contract": "contracts/VetoMultisigVoting.sol:VetoMultisigVoting",
        "label": "vetoVotesThreshold",
        "offset": 0,
        "slot": "101",
        "type": "t_uint256"
      },
      {
        "astId": 10801,
        "contract": "contracts/VetoMultisigVoting.sol:VetoMultisigVoting",
        "label": "freezeVotesThreshold",
        "offset": 0,
        "slot": "102",
        "type": "t_uint256"
      },
      {
        "astId": 10803,
        "contract": "contracts/VetoMultisigVoting.sol:VetoMultisigVoting",
        "label": "freezeProposalCreatedBlock",
        "offset": 0,
        "slot": "103",
        "type": "t_uint256"
      },
      {
        "astId": 10805,
        "contract": "contracts/VetoMultisigVoting.sol:VetoMultisigVoting",
        "label": "freezeProposalVoteCount",
        "offset": 0,
        "slot": "104",
        "type": "t_uint256"
      },
      {
        "astId": 10807,
        "contract": "contracts/VetoMultisigVoting.sol:VetoMultisigVoting",
        "label": "freezeProposalBlockDuration",
        "offset": 0,
        "slot": "105",
        "type": "t_uint256"
      },
      {
        "astId": 10809,
        "contract": "contracts/VetoMultisigVoting.sol:VetoMultisigVoting",
        "label": "freezeBlockDuration",
        "offset": 0,
        "slot": "106",
        "type": "t_uint256"
      },
      {
        "astId": 10812,
        "contract": "contracts/VetoMultisigVoting.sol:VetoMultisigVoting",
        "label": "gnosisSafe",
        "offset": 0,
        "slot": "107",
        "type": "t_contract(IGnosisSafe)11482"
      },
      {
        "astId": 10815,
        "contract": "contracts/VetoMultisigVoting.sol:VetoMultisigVoting",
        "label": "vetoGuard",
        "offset": 0,
        "slot": "108",
        "type": "t_contract(IVetoGuard)11584"
      },
      {
        "astId": 10819,
        "contract": "contracts/VetoMultisigVoting.sol:VetoMultisigVoting",
        "label": "transactionVetoVotes",
        "offset": 0,
        "slot": "109",
        "type": "t_mapping(t_bytes32,t_uint256)"
      },
      {
        "astId": 10825,
        "contract": "contracts/VetoMultisigVoting.sol:VetoMultisigVoting",
        "label": "userHasVoted",
        "offset": 0,
        "slot": "110",
        "type": "t_mapping(t_address,t_mapping(t_bytes32,t_bool))"
      },
      {
        "astId": 10831,
        "contract": "contracts/VetoMultisigVoting.sol:VetoMultisigVoting",
        "label": "userHasFreezeVoted",
        "offset": 0,
        "slot": "111",
        "type": "t_mapping(t_address,t_mapping(t_uint256,t_bool))"
      }
    ],
    "types": {
      "t_address": {
        "encoding": "inplace",
        "label": "address",
        "numberOfBytes": "20"
      },
      "t_array(t_uint256)49_storage": {
        "base": "t_uint256",
        "encoding": "inplace",
        "label": "uint256[49]",
        "numberOfBytes": "1568"
      },
      "t_array(t_uint256)50_storage": {
        "base": "t_uint256",
        "encoding": "inplace",
        "label": "uint256[50]",
        "numberOfBytes": "1600"
      },
      "t_bool": {
        "encoding": "inplace",
        "label": "bool",
        "numberOfBytes": "1"
      },
      "t_bytes32": {
        "encoding": "inplace",
        "label": "bytes32",
        "numberOfBytes": "32"
      },
      "t_contract(IGnosisSafe)11482": {
        "encoding": "inplace",
        "label": "contract IGnosisSafe",
        "numberOfBytes": "20"
      },
      "t_contract(IVetoGuard)11584": {
        "encoding": "inplace",
        "label": "contract IVetoGuard",
        "numberOfBytes": "20"
      },
      "t_mapping(t_address,t_mapping(t_bytes32,t_bool))": {
        "encoding": "mapping",
        "key": "t_address",
        "label": "mapping(address => mapping(bytes32 => bool))",
        "numberOfBytes": "32",
        "value": "t_mapping(t_bytes32,t_bool)"
      },
      "t_mapping(t_address,t_mapping(t_uint256,t_bool))": {
        "encoding": "mapping",
        "key": "t_address",
        "label": "mapping(address => mapping(uint256 => bool))",
        "numberOfBytes": "32",
        "value": "t_mapping(t_uint256,t_bool)"
      },
      "t_mapping(t_bytes32,t_bool)": {
        "encoding": "mapping",
        "key": "t_bytes32",
        "label": "mapping(bytes32 => bool)",
        "numberOfBytes": "32",
        "value": "t_bool"
      },
      "t_mapping(t_bytes32,t_uint256)": {
        "encoding": "mapping",
        "key": "t_bytes32",
        "label": "mapping(bytes32 => uint256)",
        "numberOfBytes": "32",
        "value": "t_uint256"
      },
      "t_mapping(t_uint256,t_bool)": {
        "encoding": "mapping",
        "key": "t_uint256",
        "label": "mapping(uint256 => bool)",
        "numberOfBytes": "32",
        "value": "t_bool"
      },
      "t_uint256": {
        "encoding": "inplace",
        "label": "uint256",
        "numberOfBytes": "32"
      },
      "t_uint8": {
        "encoding": "inplace",
        "label": "uint8",
        "numberOfBytes": "1"
      }
    }
  }
}